:10081E003C76657273696F6E2D7465737465723E86
:10082E0000202020202D2D2D6A61636B5F6368658B
:10083E006E00506F77657220626F617264202020A7
:10084E002020005475726E20626F61726420202029
:10085E005B315D004C6566742068616E64202020FB
:10086E00205B365D0052696768742068616E642093
:10087E0020205B375D00486561642D4C4544202087
:10088E002020205B335D0048616E642D4C45442072
:10089E00202020205B345D005475726E20626F61E3
:1008AE0072642020205B325D004D61696E20626FA4
:1008BE006172642020202020200054657374696EBC
:1008CE00672E2E2E2E202020202000AA55CC000090
:1008DE00000000000000AA55CC000000000000003F
:1008EE0000000000000000000000000000000000FA
:0808FE000000000000000000F2
:10072D004500CE00000000004100CD00606400686F
:10073D0000000000000000000000000000000000AC
:10074D00000000000000000000000000000000009C
:10075D00000000000000000000000000000000008C
:10076D00000000000000000000000000000000007C
:10077D00000000000000000000000000000000006C
:10078D00000000000000000000000000000000005C
:10079D0000000000410000004100670041006500BD
:1007AD004100CC00410066006064000100000000C3
:1007BD00000000000000000000000000000000002C
:1007CD00000000000000000000000000000000001C
:1007DD00000000000000000000000000000000000C
:1007ED0000000000000000000000000000000000FC
:1007FD0000000000000000000000000000000000EC
:10080D0000000000000000000000000000000000DB
:040003007F1E7E00DE
:100007009000F8EEF0A3EFF09000F874FFF5F0120F
:0C00170006B445F06005120DB180ED222A
:090DB100007F0B7EBEDEFEDFFCBC
:010DBA002216
:100C8C009000F7EFF0120D8840FB9000F7E0FF3377
:100C9C009287EFA2E69286A2E59285A2E49284C2A4
:100CAC0081C282C283D283C283A2E39287A2E292E0
:100CBC0086A2E19285139284C281C282C283D283BE
:0D0CCC00C283C281C2827F057E0002000744
:100CD9009000F7EFF0120D8840FB9000F7E0FF332A
:100CE9009287EFA2E69286A2E59285A2E49284D247
:100CF90081C282C283D283C283A2E39287A2E29293
:100D090086A2E19285139284D281C282C283D28360
:090D1900C2837F057E0002000781
:0E0D8800C281D282D283A2879200C283A200CF
:010D9600223A
:060C3D007BFF7D017F0139
:0B0C43009000F3EBF0A3EAF0A3E9F04F
:100C4E00EFB40104A37480F0EFB402069000F674C2
:100C5E00C0F09000F6E02D14FFF0120C8C9000F313
:100C6E00E0FBA3E0FAA3E0F9120685FF600F120C79
:0D0C7E00D99000F4E475F00112069E80E0AC
:010C8B002246
:100026007F0A7E001200077F28120C8C7F28120C94
:0B0036008C7F0C120C8C7F01020C8CE4
:100D7400EFB47F0F900066E004F0E0B41E05E4F0E9
:040D840075C76022AD
:050A6E009000EDEDF029
:100A730074FFA3F0A3F0ED70059000ED04F0900077
:100A8300EDE0FF14F0EF6051120685FF9000EEE0F9
:100A9300F0A3E06FF0E4FD9000EFE09000EE30E0B3
:100AA30022E0C313FEA3E013FF9000EEEEF0A3EFEA
:100AB300F0EE64A0FEEF6401FF9000EEEEF0A3EF12
:100AC300F08008E0C313F0A3E013F00DEDB408C702
:100AD300740129F9E43AFA80A59000EEE0FEA3E060
:010AE300FF13
:010AE40022EF
:050AE5009000D5EDF0CA
:100AEA0074FFA3F0A3F0ED70059000D504F0900018
:100AFA00D5E0FF14F0EF6051120685FF9000D6E0B2
:100B0A00F0A3E06FF0E4FD9000D7E09000D630E06B
:100B1A0022E0C313FEA3E013FF9000D6EEF0A3EF8A
:100B2A00F0EE64A0FEEF6401FF9000D6EEF0A3EFB2
:100B3A00F08008E0C313F0A3E013F00DEDB408C78A
:100B4A00740129F9E43AFA80A59000D6E0FEA3E000
:010B5A00FF9B
:010B5B002277
:100D5E00759850758920438E40758DFD858D8BD28B
:060D6E00AFD2ACD28E22D0
:0F0D9700759A50759CF7D2AF438E1475AF012239
:040B5C007B037D7822
:0B0B60009000DFEFF0A3EDF0A3EBF03E
:100B6B00E478E27C007D017BFF7A0879D9FE7F0B6C
:100B7B0012065F9000DFE09000E5F0A37403F0E451
:100B8B00A3F09000E0E09000E8F0E4A3F09000E127
:100B9B00E09000EAF07B017A0079E57D06120A6E9F
:100BAB00EF9000EBF0EEA3F0E4FF74E22FF582E49C
:100BBB003400F583E0F5993099FDC2990FEFB40B32
:010BCB00E940
:010BCC002206
:0B0BCD009000DFEFF0A3EDF0A3EBF0D1
:100BD800E478E27C007D017BFF7A0879E4FE7F0BF4
:100BE80012065F9000DFE09000E5F0A37403F0E4E4
:100BF800A3F09000E0E09000E8F0E4A3F09000E1BA
:100C0800E09000EAF07B017A0079E57D06120A6E31
:100C1800EF9000EBF0EEA3F0E4FF74E22FF582E42E
:100C28003400F583E0F59BE59A30E1FB539AFD0F1C
:040C3800EFB40BE624
:010C3C002295
:060906007B017A0079D9A3
:0B090C009000DFEBF0A3EAF0A3E9F09D
:1009170078E27C007D017BFF7A0879EF7E007F110A
:1009270012065F9000E27476F09000DFE0FBA3E030
:10093700FAA3E0F91206CAFDACF0EC24309000E30C
:10094700F0A3742EF0AF05EF2430A3F0A3742EF0BC
:100957009000021206F5FDACF0EC24309000E7F0B1
:10096700A37420F0A3F0AF05E4C4F854F0C8EFC4B3
:10097700540F482430A3F09000021206F5540F24B8
:10098700309000EBF0A3742DF09000041206F5AC44
:10099700F0ECC4540F24309000EDF0EC540F2430E9
:1009A700A3F0A3742DF09000041206F5FDACF0EC53
:1009B700C4F854F0C8EDC4540F48540F24309000C5
:1009C700F0F0AF05EF540F2430A3F0E4A3F07B0160
:0B09D7007A0079E27D017F02020C43F0
:0A0DA6007F64900001E4F0A3DFFC7D
:010DB0002220
:10004600E49000D8F078D97C007D017BFF7A0979AD
:1000560000FE7F0612065FC280120D5E120D971219
:1000660000267A08791E120C3D7BFF7A08792F7DCF
:10007600017F02120C437FE87E031200077B037D9B
:10008600787F05120BCD7F05120B5C1200039000E2
:1000960001E07002A3E06035900003E0FEA3E0FFFC
:1000A6004E602AA3E0FCA3E0FD4C60219000D874CA
:1000B60001F0900001E0FBA3E09000D9CBF0A3EBA8
:1000C600F0A3EEF0A3EFF0A3ECF0A3EDF0120DA673
:1000D6007F01120B5C120003900001E07002A3E0A6
:1000E6006035900003E0FEA3E0FF4E602AA3E0FC2B
:1000F600A3E0FD4C60219000D87402F0900001E06E
:10010600FBA3E09000D9CBF0A3EBF0A3EEF0A3EFB6
:10011600F0A3ECF0A3EDF0120DA67B037D787F062D
:10012600120B60120003900001E07002A3E060353C
:10013600900003E0FEA3E0FF4E602AA3E0FCA3E0EC
:10014600FD4C60219000D87403F0900001E0FBA301
:10015600E09000D9CBF0A3EBF0A3EEF0A3EFF0A371
:10016600ECF0A3EDF0120DA67B037D787F07120B52
:1001760060120003900001E07002A3E06035900079
:1001860003E0FEA3E0FF4E602AA3E0FCA3E0FD4CE3
:1001960060219000D87404F0900001E0FBA3E09089
:1001A60000D9CBF0A3EBF0A3EEF0A3EFF0A3ECF0B5
:1001B600A3EDF0120DA67B037D787F03120B601270
:1001C6000003900001E07002A3E06035900003E0B8
:1001D600FEA3E0FF4E602AA3E0FCA3E0FD4C6021F5
:1001E6009000D87405F0900001E0FBA3E09000D9E0
:1001F600CBF0A3EBF0A3EEF0A3EFF0A3ECF0A3EDAE
:10020600F0120DA67B037D787F04120B60120003AB
:10021600900001E07002A3E06035900003E0FEA3C9
:10022600E0FF4E602AA3E0FCA3E0FD4C60219000B5
:10023600D87406F0900001E0FBA3E09000D9CBF063
:10024600A3EBF0A3EEF0A3EFF0A3ECF0A3EDF01216
:100256000DA67B037D787F02120B601200039000CF
:1002660001E07002A3E06035900003E0FEA3E0FF2A
:100276004E602AA3E0FCA3E0FD4C60219000D874F8
:1002860007F0900001E0FBA3E09000D9CBF0A3EBD0
:10029600F0A3EEF0A3EFF0A3ECF0A3EDF0120DA6A1
:1002A6007B037D787F81120B60120003900001E0D2
:1002B6007002A3E06035900003E0FEA3E0FF4E600D
:1002C6002AA3E0FCA3E0FD4C60219000D87408F05E
:1002D600900001E0FBA3E09000D9CBF0A3EBF0A3E4
:1002E600EEF0A3EFF0A3ECF0A3EDF0120DA6900054
:1002F600D8E070030203A2B4010A7A087940120C0E
:100306003D1209069000D8E0B4020C7BFF7A08790A
:1003160051120C3F1209069000D8E0B4030C7BFF83
:100326007A087962120C3F1209069000D8E0B404EC
:100336000C7BFF7A087973120C3F1209069000D8DD
:10034600E0B4050C7BFF7A087984120C3F1209068B
:100356009000D8E0B4060C7BFF7A087995120C3F22
:100366001209069000D8E0B4070C7BFF7A0879A63C
:10037600120C3F1209069000D8E0B4080C7BFF7AF5
:100386000879B7120C3F120906E49000D8F0A3F0E2
:10039600A3F0A3F0A3F0A3F0A3F080167BFF7A08E6
:1003A60079C8120C3F7B017A0079CE7D017F02125B
:0C03B6000C437F2C7E0112000702008324
:030023000203C213
:1003C200C0E0C083C082C0D075D000C001C002C0EE
:0903D20003C004C005C006C00709
:1003DB00209803020578C2989000CCE0FF2468F5C2
:1003EB0082E43400F583E599F074682FF582E434E8
:1003FB0000F583E0FF120D74900000E07070900028
:10040B00CCE0FF701074682FF582E43400F583E0C4
:10041B00B4AA0280159000CCE0FFB401122468F559
:10042B0082E43400F583E0B4AA059000CC803590CB
:10043B0000CCE0FFB401152468F582E43400F583A9
:10044B00E0B455089000CC7402F080229000CCE010
:10045B00FFB402152468F582E43400F583E0B4CCD4
:10046B00089000007401F080059000CCE4F090003F
:10047B0000E064016003020578900067E0640160AE
:10048B000302055B900065E0C394464014900000A6
:10049B00E4F0900067F09000CCF0900065F002055E
:1004AB0078900065E014F0E0600302055B7B017A55
:1004BB0000796B90006DE02403FD120AE5AD07ACEB
:1004CB000690006DE0FB246FF582E43400F583E0C9
:1004DB00FE746E2BF582E43400F583E0FBEB6D705C
:1004EB0002EC6E70509000D3F090006DE0C313FFE0
:1004FB009000D3E0FDC39F503CA3E0FC246EF5823B
:10050B00E43400F583E0FE746F2CF582E43400F5DF
:10051B0083E0FBEBFFED25E02401F582E43400F5ED
:10052B0083EEF0A3EFF09000D4E02402F09000D320
:10053B00E004F080B4900000E4F0900067F09000CD
:10054B00CCF0900065F09000D4F09000D3F0801DBB
:10055B009000CCE0B405109000677401F090006D32
:0D056B00E02402900065F09000CCE004F068
:10057800D007D006D005D004D003D002D001D0D007
:07058800D082D083D0E032E5
:03004300020D2289
:100D2200C0E0C083C082C0D0E59A30E026539AFE6C
:100D32009000CDE024CEF582E43400F583E59BF00B
:100D42009000CDE004F0E0B405099000D2E4F09008
:0C0D520000CDF0D0D0D082D083D0E032B1
:030000000209E210
:0C09E200787FE4F6D8FD758120020A2918
:10058F00E709F608DFFA8046E709F208DFFA803E4E
:10059F0088828C83E709F0A3DFFA8032E309F6083B
:1005AF00DFFA8078E309F208DFFA807088828C83A3
:1005BF00E309F0A3DFFA806489828A83E0A3F60857
:1005CF00DFFA805889828A83E0A3F208DFFA804C31
:1005DF0080D280FA80C680D4806980F28033801008
:1005EF0080A680EA809A80A880DA80E280CA803371
:1005FF0089828A83ECFAE493A3C8C582C8CCC583E9
:10060F00CCF0A3C8C582C8CCC583CCDFE9DEE780B8
:10061F000D89828A83E493A3F608DFF9ECFAA9F037
:10062F00EDFB2289828A83ECFAE0A3C8C582C8CC8D
:10063F00C583CCF0A3C8C582C8CCC583CCDFEADEA6
:10064F00E880DB89828A83E493A3F208DFF980CC08
:10065F0088F0EF60010E4E60C388F0ED2402B40401
:10066F000050B9F582EB2402B4040050AF232345A8
:06067F0082239005DF73E9
:10068500BB010689828A83E0225002E722BBFE0273
:09069500E32289828A83E49322A6
:10069E00C5F0F8A3E028F0C5F0F8E58215827002E7
:0606AE001583E038F02284
:1006B400A3F8E0C5F025F0F0E582158270021583F9
:0606C400E0C838F0E82256
:1006CA00BB010A89828A83E0F5F0A3E022500687FB
:1006DA00F009E71922BBFE07E3F5F009E3192289BD
:0B06EA00828A83E493F5F074019322F0
:1006F500BB0110E58229F582E5833AF583E0F5F043
:10070500A3E0225009E92582F886F008E622BBFE1F
:100715000AE92582F8E2F5F008E222E5832AF58365
:08072500E993F5F0A3E993222A
:1009EE00020046E493A3F8E493A34003F68001F2D9
:1009FE0008DFF48029E493A3F85407240CC8C3330A
:100A0E00C4540F4420C8834004F456800146F6DFD8
:100A1E00E4800B010204081020408090072DE47E34
:100A2E00019360BCA3FF543F30E509541FFEE493CD
:100A3E00A360010ECF54C025E060A840B8E493A394
:100A4E00FAE493A3F8E493A3C8C582C8CAC583CABF
:100A5E00F0A3C8C582C8CAC583CADFE9DEE780BE77
:01081D0000DA
:00000001FF
