:10002600AF051DEF60131203C0F5993099FDC29913
:0A003600740129F9E43AFA80E72288
:10000300AF051DEF60161203C0F59BE59A30E1FBC7
:0D001300539AFD740129F9E43AFA80E422C1
:10139600759850758920438E40758DFD858D8BD24D
:0613A600AFD2ACD28E2292
:0F13AC00759A50759CDCD2AF438E1475AF012239
:100AF900226E6F20646576696365220064302E7604
:100B0900616C3D0064322E76616C3D0064342E7652
:100B1900616C3D0064362E76616C3D0064382E763A
:100B2900616C3D0064612E76616C3D0064632E76D4
:100B3900616C3D0064652E76616C3D0065302E76F2
:100B4900616C3D0065322E76616C3D0065342E7610
:100B5900616C3D0065382E76616C3D00686F6E678B
:100B69007761697A756F2E76616C3D00686F6E6783
:100B7900776169796F752E76616C3D007061676583
:100B8900206D61696E006469616E7975616E677562
:100B9900616E6C692E7478743D00746F755F64754D
:100BA9006F6A692E7478743D007A756F73686F7512
:100BB9002E7478743D00796F7573686F752E74782B
:100BC900743D00746F755F6C65642E7478743D00B4
:100BD900626962755F6C65642E7478743D007A6829
:100BE900756B6F6E672E7478743D006368616F6B07
:100BF90075616E6461692E7478743D007A756F6CE5
:100C0900756E2E7478743D00796F756C756E2E74DF
:100C190078743D00FFFFFF000000000000000000A5
:100C29000000FFFFFFFFFFFF0000000000000000C1
:061233007BFF7A0B7985B8
:0B1239009000FBEBF0A3EAF0A3E9F04B
:10124400A3EBF0A3EAF0A3E9F078017C017D017B34
:10125400FF7A0C791D7E007F0312039AE4FF90004D
:10126400FEE0FBA3E0FAA3E0F91203C0600D9000D6
:10127400FFE475F0011204330F80E39000FBE0FB00
:10128400A3E0FAA3E0F9AD071200037B017A017928
:09129400017D03120003E4FEFFDA
:01129D00222E
:100E7F0090010DEEF0A3EFF0A3EBF0A3EAF0A3E9DE
:010E8F00F072
:100E9000E4A3F0A3F078147C017D017BFF7A0C7948
:100EA00020FE7F0612039A90010DE0FEA3E0FFC32F
:100EB000EE648094805026C3E49FFFE49E90010D71
:100EC000F0A3EFF0A3E0FBA3E475F001120449A93D
:100ED000F0FA742D1203D9900113E004F090010D83
:100EE000E0FAA3E0FB7C007D0AFFAE021203FDEDF9
:100EF0002430FF900112E0FE04F0EEFD3395E0FC9B
:100F000074142DF58274013CF583EFF07C007D0AAA
:100F1000AF03AE021203FD90010DEEF0A3EFF0D38C
:100F20009400EE6480948050B4900112E0FFA3E03E
:100F30002FF0900112E0FF14F0D3EF648094804012
:100F400028E0FF3395E0FE74142FF58274013EF51E
:100F500083E0FF90010FE0FBA3E475F00112044968
:100F6000A9F0FAEF1203D980C990010FE0FBA3E0CA
:0D0F7000FAA3E0F9E41203D9900113E0FFA9
:010F7D002251
:060F7E00AC06AD077BFF8D
:100F84009000FBEBF0A3EAF0A3E9F0A3ECF0A3EDEF
:010F9400F06C
:100F950078007C017D017BFF7A0C79267E007F0538
:100FA50012039AE4900105F09000FBE0F9A3E0FA42
:100FB500A3E0900106C9F0A3EAF0A3E9F078097C63
:100FC500017D017BFF7A0C792B7E007F0312039A4A
:100FD500E490010CF09000FEE0FEA3E0FF7B017AB7
:100FE500017900120E7F900105EFF0900106E0FBFC
:100FF500A3E0FAA3E0F91203C06012900107E475BB
:10100500F00112043390010CE004F080DE9000FB47
:10101500E0FBA3E0FAA3E0F990010CE0FD12000368
:101025007B017A017900900105E0FD1200037B0147
:0C1035007A0179097D03120003E4FEFF3C
:01104100228C
:0B0C39009000FAEBF0A3EAF0A3E9F052
:100C44009000FAE0F9A3E0FAA3E0900100C9F0A350
:100C5400EAF0A3E9F0A37432F078047C017D017B0F
:100C6400FF7A0C792E7E007F0312039A78077C01A9
:100C74007D017BFF7A0C79317E007F0812039AE4B0
:100C8400FD9001077422F0A37456F09000FDE0FB80
:100C9400A3E0FAA3E0F912045FFBAAF0EA2430907F
:100CA4000109F0A3742EF0AF03EF2430A3F0A37472
:100CB4002EF09000FDE0FBA3E0FA90000212048AFB
:100CC400E5F0243090010DF0A37422F0900100E0CF
:100CD400FBA3E0FAA3E0F91203C0600D900101E464
:100CE40075F0011204330D80E39000FAE0FBA3E0F9
:100CF400FAA3E0F91200039000FDE0FBA3E0FAA3DD
:100D0400E0F912045F45F0701490000212048A4561
:100D1400F0700A7BFF7A0A79F97D0B80087B017AEF
:100D24000179077D081200037B017A0179047D03B0
:100D3400120003900103E0FF14F0EF601D9000FD2A
:100D4400E0FBA3E0FAA3E0F9E4F5F01204C290009A
:0D0D5400FEE475F00212043380D9E4FEFFC6
:010D6100226F
:0B0046009000F7EBF0A3EAF0A3E9F054
:10005100A37432F0758DFD858D8B7B1B7D807F8137
:100061001213047F1E1213BB9000F7E0FBA3E0FA0A
:10007100A3E0F990001612048AE5F0FF7E007C00EF
:100081007D0A1203EB7A0B7905120F7E9000F7E0DF
:10009100FBA3E0FAA3E0F990001612048AFF7E00A8
:1000A1007C007D0A1203EB7A0B790D120F7E900012
:1000B100F7E0FBA3E0FAA3E0F990001812048AE547
:1000C100F0FF7E007C007D0A1203EBAC06AD077BDE
:1000D100FF7A0B7915120F849000F7E0FBA3E0FA89
:1000E100A3E0F990001812048AFF7E007C007D0ACB
:1000F1001203EBAC06AD077BFF7A0B791D120F845F
:100101009000F7E0FBA3E0FAA3E0F990001A1204D3
:100111008AE5F0FF7E007C007D0A1203EBAC06ADA0
:10012100077BFF7A0B7925120F849000F7E0FBA380
:10013100E0FAA3E0F990001A12048AFF7E007C0025
:100141007D0A1203EBAC06AD077BFF7A0B792D120A
:100151000F849000F7E0FBA3E0FAA3E0F990001C04
:1001610012048AE5F0FF7E007C007D0A1203EBACED
:1001710006AD077BFF7A0B7935120F849000F7E00B
:10018100FBA3E0FAA3E0F990001C12048AFF7E00B1
:100191007C007D0A1203EBAC06AD077BFF7A0B797D
:1001A1003D120F849000F7E0FBA3E0FAA3E0F99081
:1001B100001E12048AE5F0FF7E007C007D0A120316
:1001C100EBAC06AD077BFF7A0B7945120F849000EB
:1001D100F7E0FBA3E0FAA3E0F990001E12048AFF06
:1001E1007E007C007D0A1203EBAC06AD077BFF7A33
:1001F1000B794D120F849000F7E0FBA3E0FAA3E026
:10020100F990002012048AE5F0FF7E007C007D0A4F
:100211001203EBAC06AD077BFF7A0B7955120F8405
:100221009000F7E0FBA3E0FAA3E0F99000201204AC
:100231008AFF7E007C007D0A1203EBAC06AD077BD2
:10024100FF7A0B795D120F849000F7E0FBA3E0FACF
:10025100A3E0F990002C12048AE5F025E0FDE433D7
:10026100FC7BFF7A0B7965120F849000F7E0FBA30A
:10027100E0FAA3E0F990002C12048A25E0FDE433B2
:10028100FC7BFF7A0B7975120F849000FAE0FF1462
:10029100F0EF601D9000F7E0FBA3E0FAA3E0F9E4C2
:1002A100F5F01204C29000F8E475F00212043380F4
:1002B100D99000CCE0B4050D121233E49000CCF0DB
:0802C1007EFF7FFF22E4FEFF37
:0102C9002212
:100731009000F7EBF0A3EAF0A3E9F0758DF7858D52
:100741008B7F1E1213BB7B037D787F051213047F01
:100751001E1213BB9000F7E0F9A3E0FAA3E09000AA
:10076100FDC9F0A3EAF0A3E9F07BFF7A0B798F12C0
:100771000C397B037D787F011213047F1E1213BB9A
:100781009000F7E0F9A3E0FAA3E09000FDC9F0A31F
:10079100EAF0A3E9F07BFF7A0B79A3120C397B0312
:1007A1007D787F061213047F1E1213BB9000F7E0C1
:1007B100F9A3E0FAA3E09000FDC9F0A3EAF0A3E9F0
:1007C100F07BFF7A0B79B2120C397B037D787F07BE
:1007D1001213047F1E1213BB9000F7E0F9A3E0FA95
:1007E100A3E09000FDC9F0A3EAF0A3E9F07BFF7A52
:1007F1000B79BF120C397B037D787F031213047FC1
:100801001E1213BB9000F7E0F9A3E0FAA3E09000F9
:10081100FDC9F0A3EAF0A3E9F07BFF7A0B79CC12D2
:100821000C397B037D787F041213047F1E1213BBE6
:100831009000F7E0F9A3E0FAA3E09000FDC9F0A36E
:10084100EAF0A3E9F07BFF7A0B79D9120C397F1E0C
:100851001213BB758DFD858D8B7B037D787F811296
:1008610013047F1E1213BB9000F7E0F9A3E0FAA373
:10087100E09000FDC9F0A3EAF0A3E9F07BFF7A0B59
:1008810079E7120C397B037DB17F811213047F1E3E
:100891001213BB9000F7E0F9A3E0FAA3E09000FD8A
:1008A100C9F0A3EAF0A3E9F07BFF7A0B79F4120C0B
:1008B100397B037DB47F811213047F1E1213BB9019
:1008C10000F7E0F9A3E0FAA3E09000FDC9F0A3EA84
:1008D100F0A3E9F07BFF7A0C7905120C397B037DDB
:1008E100B77F811213047F1E1213BB9000F7E0F94A
:1008F100A3E0FAA3E09000FDC9F0A3EAF0A3E9F0B8
:100901007BFF7A0C7911120C399000CCE0B4050D03
:10091100121233E49000CCF07EFF7FFF22E4FEFF51
:0109210022B3
:1013640070616765206D61696E00706167652075E5
:101374006C747261736F6E69630070616765207667
:10138400657273696F6E00AA55CC000000000000FE
:02139400000057
:100D62004100CC004500E800000000004100D10035
:100D72006064006700000000000000000000000046
:100D82000000000000000000000000000000000061
:100D92000000000000000000000000000000000051
:100DA2000000000000000000000000000000000041
:100DB2000000000000000000000000000000000031
:100DC2000000000000000000000000000000000021
:100DD2000000000000000000410000004100660029
:100DE200410065004100CB005400D3000000000028
:100DF20000000000000000000000000000000041B0
:100E020000CD004100D2004100D0004100E7006067
:100E1200640001000000000000000000000000006B
:100E220000000000000000000000000000000000C0
:100E320000000000000000000000000000000000B0
:100E420000000000000000000000000000000000A0
:100E52000000000000000000000000000000000090
:100E62000000000000000000000000000000000080
:0C0E7200000000000000004200CE000064
:0B13C9000000007F0B7EBEDEFEDFFC9C
:0113D40022F6
:0E13BB00AD07AF051DEF60051213C980F522C6
:0413D50075C7602256
:0510CE0090010AEDF0A5
:1010D30074FFA3F0A3F0ED700590010A04F09001F2
:1010E3000AE0FF14F0EF60511203C0FF90010BE020
:1010F300F0A3E06FF0E4FD90010CE090010B30E011
:1011030022E0C313FEA3E013FF90010BEEF0A3EF65
:10111300F0EE64A0FEEF6401FF90010BEEF0A3EF8D
:10112300F08008E0C313F0A3E013F00DEDB408C79B
:10113300740129F9E43AFA80A590010BE0FEA3E0DB
:01114300FFAC
:011144002288
:051145009000EFEDF049
:10114A0074FFA3F0A3F0ED70059000EF04F0900097
:10115A00EFE0FF14F0EF60511203C0FF9000F0E0DF
:10116A00F0A3E06FF0E4FD9000F1E09000F030E0D1
:10117A0022E0C313FEA3E013FF9000F0EEF0A3EF0A
:10118A00F0EE64A0FEEF6401FF9000F0EEF0A3EF32
:10119A00F08008E0C313F0A3E013F00DEDB408C724
:1011AA00740129F9E43AFA80A59000F0E0FEA3E080
:0111BA00FF35
:0111BB002211
:0511BC009000F4EDF0CD
:1011C10074FFA3F0A3F0ED70059000F404F090001B
:1011D100F4E0FF14F0EF60511203C0FF9000F5E05E
:1011E100F0A3E06FF0E4FD9000F6E09000F530E050
:1011F10022E0C313FEA3E013FF9000F5EEF0A3EF8E
:10120100F0EE64A0FEEF6401FF9000F5EEF0A3EFB5
:10121100F08008E0C313F0A3E013F00DEDB408C7AC
:10122100740129F9E43AFA80A59000F5E0FEA3E003
:01123100FFBD
:011232002299
:0B1304009000FBEFF0A3EDF0A3EBF076
:10130F00E4A3F078FF7C007D017BFF7A13798BFEDD
:10131F007F0B12039A9000FBE0900102F0A374037D
:10132F00F0E4A3F09000FCE0900105F0E4A3F0904E
:10133F0000FDE0900107F07B017A0179027D061232
:10134F0010CEAC06EF900108F0EEA3F07A0079FF13
:05135F007D0B020026D9
:10129E001213961213AC7BFF7A13796412123990E3
:1012AE0000CCE0B401217BFF7A13796E1212397BE8
:1012BE00017A007901120046C3EE648094804007E3
:1012CE007FE81213BB80E89000CCE0B404217BFFD2
:1012DE007A13797E1212397B017A00790112073165
:1012EE00C3EE6480948040077FE81213BB80E87FD2
:0612FE00641213BB80A97D
:03002300020922AD
:10092200C0E0C083C082C0D075D000C001C002C088
:0909320003C004C005C006C007A3
:10093B00209803020AE2C2989000CBE0FF2467F5EF
:10094B0082E43400F583E599F0900000E0706FEFDE
:10095B0070139000CBE02467F582E43400F583E05C
:10096B00B4AA0280159000CBE0FFB401122467F506
:10097B0082E43400F583E0B4AA059000CB80359077
:10098B0000CBE0FFB401152467F582E43400F58356
:10099B00E0B455089000CB7402F080229000CBE0BD
:1009AB00FFB402152467F582E43400F583E0B4CC80
:1009BB00089000007401F080059000CBE4F09000EB
:1009CB0000E064016003020AE2900066E0640160EB
:1009DB0003020AC5900065E0C394464014900000E2
:1009EB00E4F0900066F09000CBF0900065F0020A06
:1009FB00E2900065E014F0E06003020AC57B017A27
:100A0B0000796A90006CE02403FD121145AD07AC30
:100A1B000690006CE0FB246EF582E43400F583E075
:100A2B00FE746D2BF582E43400F583E0FBEBFF6D78
:100A3B007002EC6E70509000EDF090006CE0C31300
:100A4B00FF9000EDE0FDC39F503CA3E0FC246DF54F
:100A5B0082E43400F583E0FE746E2CF582E43400FE
:100A6B00F583E0FBEBFFED25E02401F582E4340098
:100A7B00F583EEF0A3EFF09000EEE02402F090008F
:100A8B00EDE004F080B4900001E0B41112A3E0B4E7
:100A9B00220DA3E0B43308A3E0B444031213D590A2
:100AAB000000E4F0900066F09000CBF0900065F051
:100ABB009000EEF09000EDF0801D9000CBE0B405BF
:100ACB00109000667401F090006CE02402900065B9
:070ADB00F09000CBE004F0F5
:100AE200D007D006D005D004D003D002D001D0D098
:070AF200D082D083D0E03276
:030043000205367D
:10053600C0E0C083C082C0D075D000C001C002C078
:0905460003C004C005C006C00793
:10054F00E59A20E00302071A539AFE9000E7E0FFB6
:10055F0024D3F582E43400F583E59BF09000CDE0E1
:10056F00706FEF70139000E7E024D3F582E434004E
:10057F00F583E0B4AA0280159000E7E0FFB4011202
:10058F0024D3F582E43400F583E0B4AA059000E7A4
:10059F0080359000E7E0FFB4011524D3F582E434F1
:1005AF0000F583E0B455089000E77402F0802290C4
:1005BF0000E7E0FFB4021524D3F582E43400F5839D
:1005CF00E0B4CC089000CD7401F080059000E7E412
:1005DF00F09000CDE06401600302071A9000D2E0B2
:1005EF00640160030206FD9000D0E0C39446401101
:1005FF009000CDE4F09000D2F09000E7F09000D0A2
:10060F00F09000D0E014F0E060030206FD7B017A69
:10061F000079D69000D8E02403FD1211BCAD07ACD1
:10062F00069000D8E0FB24DAF582E43400F583E08D
:10063F00FE74D92BF582E43400F583E0FBEB6D708B
:10064F0002EC6E70509000F2F09000D8E0C313FFF0
:10065F009000F2E0FDC39F503CA3E0FC24D9F5824B
:10066F00E43400F583E0FE74DA2CF582E43400F50F
:10067F0083E0FBEBFFED25E024CEF582E43400F5BB
:10068F0083EEF0A3EFF09000F3E02402F09000F27D
:10069F00E004F080B49000CDE4F09000D2F0900030
:1006AF00E7F09000D0F09000F3F09000F2F090009F
:1006BF00CEE0FEA3E0FF4E70069000CC7402F0EF88
:1006CF0064014E70059000CC04F0EF64024E70068A
:1006DF009000CC7403F0EF64034E70069000CC745E
:1006EF0004F0EF64BC4E70069000CC7405F09000DF
:1006FF00E7E0B405109000D27401F09000D8E02428
:0B070F00029000D0F09000E7E004F042
:10071A00D007D006D005D004D003D002D001D0D063
:07072A00D082D083D0E03241
:03000000021042A9
:0C104200787FE4F6D8FD75810702108964
:1002CA00E709F608DFFA8046E709F208DFFA803E16
:1002DA0088828C83E709F0A3DFFA8032E309F60803
:1002EA00DFFA8078E309F208DFFA807088828C836B
:1002FA00E309F0A3DFFA806489828A83E0A3F6081F
:10030A00DFFA805889828A83E0A3F208DFFA804CF8
:10031A0080D280FA80C680D4806980F280338010CF
:10032A0080A680EA809A80A880DA80E280CA803338
:10033A0089828A83ECFAE493A3C8C582C8CCC583B0
:10034A00CCF0A3C8C582C8CCC583CCDFE9DEE78080
:10035A000D89828A83E493A3F608DFF9ECFAA9F0FF
:10036A00EDFB2289828A83ECFAE0A3C8C582C8CC55
:10037A00C583CCF0A3C8C582C8CCC583CCDFEADE6E
:10038A00E880DB89828A83E493A3F208DFF980CCD0
:10039A0088F0EF60010E4E60C388F0ED2402B404C9
:1003AA000050B9F582EB2402B4040050AF23234570
:0603BA00822390031A7378
:1003C000BB010689828A83E0225002E722BBFE023B
:0903D000E32289828A83E493226E
:1003D900BB010689828A83F0225002F722BBFE0103
:0203E900F322FD
:1003EB00EF8DF0A4A8F0CF8CF0A428CE8DF0A42E26
:0203FB00FE22E0
:1003FD00C2D5EC30E709B2D5E4C39DFDE49CFCEE1B
:10040D0030E715B2D5E4C39FFFE49EFE1204E1C3AD
:10041D00E49DFDE49CFC80031204E130D507C3E4A8
:06042D009FFFE49EFE2289
:10043300C5F0F8A3E028F0C5F0F8E5821582700254
:060443001583E038F022F1
:10044900A3F8E0C5F025F0F0E58215827002158366
:06045900E0C838F0E822C3
:10045F00BB010A89828A83E0F5F0A3E02250068768
:10046F00F009E71922BBFE07E3F5F009E31922892A
:0B047F00828A83E493F5F0740193225D
:10048A00BB0110E58229F582E5833AF583E0F5F0B0
:10049A00A3E0225009E92582F886F008E622BBFE8D
:1004AA000AE92582F8E2F5F008E222E5832AF583D3
:0804BA00E993F5F0A3E9932298
:1004C200BB010A89828A83F0E5F0A3F0225006F785
:0F04D20009A7F01922BBFE06F3E5F009F3192282
:10104E0002129EE493A3F8E493A34003F68001F208
:10105E0008DFF48029E493A3F85407240CC8C333A3
:10106E00C4540F4420C8834004F456800146F6DF72
:10107E00E4800B0102040810204080900D62E47E93
:10108E00019360BCA3FF543F30E509541FFEE49367
:10109E00A360010ECF54C025E060A840B8E493A32E
:1010AE00FAE493A3F8E493A3C8C582C8CAC583CA59
:1010BE00F0A3C8C582C8CAC583CADFE9DEE780BE11
:010E7E000073
:1004E100BC000BBE0029EF8DF084FFADF022E4CCFF
:1004F100F875F008EF2FFFEE33FEEC33FCEE9DECC8
:10050100984005FCEE9DFE0FD5F0E9E4CEFD22ED0D
:10051100F8F5F0EE8420D21CFEADF075F008EF2F57
:10052100FFED33FD4007985006D5F0F222C398FD48
:050531000FD5F0EA22E5
:00000001FF
