:10002600AF051DEF60131208DBF5993099FDC299F3
:0A003600740129F9E43AFA80E72288
:10000300AF051DEF60161208DBF59BE59A30E1FBA7
:0D001300539AFD740129F9E43AFA80E422C1
:10364F00759850758920438E40758DF7858D8BD277
:06365F00AFD2ACD28E22B6
:1036650075B60175B501759A50759CF7D2AF438E45
:053675001475AF0122F5
:10187B00226E6F20646576696365220064302E7674
:10188B00616C3D0064322E76616C3D0064342E76C3
:10189B00616C3D0064362E76616C3D0064382E76AB
:1018AB00616C3D0064612E76616C3D0064632E7645
:1018BB00616C3D0064652E76616C3D0065302E7663
:1018CB00616C3D0065322E76616C3D0065342E7681
:1018DB00616C3D0065382E76616C3D00686F6E67FC
:1018EB007761697A756F2E76616C3D00686F6E67F4
:1018FB00776169796F752E76616C3D0076616C311D
:10190B002E7478743D0076616C322E7478743D00C1
:10191B0076616C332E7478743D0076616C342E7462
:10192B0078743D0070616765206D61696E0064318C
:10193B002E76616C3D0064332E76616C3D00643510
:10194B002E76616C3D0064372E76616C3D006439F8
:10195B002E76616C3D006431302E76616C3D0070EB
:10196B00616765206D61696E31006469616E7975BF
:10197B00616E6775616E6C692E7478743D00746F5F
:10198B00755F64756F6A692E7478743D0064616E5F
:10199B00796F756C756E2E7478743D007A756F73F4
:1019AB00686F752E7478743D00796F7573686F75F9
:1019BB002E7478743D00746F755F6C65642E74784B
:1019CB00743D007A68756B6F6E672E7478743D008A
:1019DB006368616F6B75616E6461692E7478743DB9
:1019EB00007A756F6C756E2E7478743D00796F7517
:1019FB006C756E2E7478743D0064616E7A756F6CC5
:101A0B00756E2E7478743D006368616F7368656ED4
:101A1B0067312E7478743D006368616F7368656E0F
:101A2B0067322E7478743D00686269616E6D617106
:101A3B00697A2E76616C3D00686269616F64696ECC
:101A4B00677A2E76616C3D007A6269616E6D6171A9
:101A5B00697A2E76616C3D007A6269616F64696E9A
:101A6B00677A2E76616C3D00796269616E6D61718A
:101A7B00697A2E76616C3D00796269616F64696E7B
:101A8B00677A2E76616C3D0068746F757869616E4C
:101A9B006C69752E76616C3D0068746F7573686147
:101AAB006E6778772E76616C3D0068746F75786918
:101ABB006178772E76616C3D0066797869616E6C22
:101ACB0069752E76616C3D0066797368616E677817
:101ADB0069616E772E76616C3D0066797869617805
:101AEB0069616E772E76616C3D007A756F786961EE
:101AFB006E6C69752E76616C3D007A756F736861DB
:101B0B006E6778772E76616C3D007A756F786961B8
:101B1B0078772E76616C3D007973686F75786961A3
:101B2B006E6C69752E76616C3D007973686F757399
:101B3B0068616E6778772E76616C3D0079736861AA
:101B4B006F7578696178772E76616C3D006A696193
:101B5B006F64752E76616C3D006972342E76616C04
:101B6B003D006972332E76616C3D006972322E76C0
:101B7B00616C3D006972312E76616C3D00FFFFFF99
:101B8B000000000000000000000000FFFFFFFFFF4F
:0A1B9B00FF00000000000000000041
:063495007BFF7A19792F7C
:0B349B009000FCEBF0A3EAF0A3E9F0C6
:1034A600A3EBF0A3EAF0A3E9F078027C017D017BAF
:1034B600FF7A1B79887E007F031208B5E4FF90002F
:1034C600FFE0FBA3E0FAA3E0F91208DB600D900130
:1034D60000E475F0011209A30F80E39000FCE0FB05
:1034E600A3E0FAA3E0F9AD071200037F0A7E0012FB
:1034F600363B7B017A0179027D03120003E4FEFF6D
:0135060022A2
:102D2E0090010EEEF0A3EFF0A3EBF0A3EAF0A3E90F
:012D3E00F0A4
:102D3F00E4A3F0A3F078157C017D017BFF7A1B796A
:102D4F008BFE7F061208B590010EE0FEA3E0FFC3D5
:102D5F00EE648094805026C3E49FFFE49E90010EA2
:102D6F00F0A3EFF0A3E0FBA3E475F0011209B9A9FA
:102D7F00F0FA742D1208F4900114E004F090010E93
:102D8F00E0FAA3E0FB7C007D0AFFAE0212096DEDB5
:102D9F002430FF900113E0FE04F0EEFD3395E0FCCC
:102DAF0074152DF58274013CF583EFF07C007D0ADC
:102DBF00AF03AE0212096D90010EEEF0A3EFF0D348
:102DCF009400EE6480948050B4900113E0FFA3E070
:102DDF002FF0900113E0FF14F0D3EF648094804044
:102DEF0028E0FF3395E0FE74152FF58274013EF550
:102DFF0083E0FF900110E0FBA3E475F0011209B925
:102E0F00A9F0FAEF1208F480C9900110E0FBA3E0DB
:0D2E1F00FAA3E0F9E41208F4900114E0FFBA
:012E2C002283
:102E2D00F91209FAE5F0FF7E007C007D0A12090611
:0A2E3D00AC06AD077BFF7A18799709
:102E47009000FCEBF0A3EAF0A3E9F0A3ECF0A3ED0C
:012E5700F08A
:102E580078017C017D017BFF7A1B79917E007F05DB
:102E68001208B5E4900106F09000FCE0F9A3E0FA3E
:102E7800A3E0900107C9F0A3EAF0A3E9F0780A7C7F
:102E8800017D017BFF7A1B79967E007F031208B5CE
:102E9800E490010DF09000FFE0FEA3E0FF7B017AD3
:102EA800017901122D2E900106EFF0900107E0FB49
:102EB800A3E0FAA3E0F91208DB6012900108E475B8
:102EC800F0011209A390010DE004F080DE9000FCEF
:102ED800E0FBA3E0FAA3E0F990010DE0FD12000386
:102EE8007B017A017901900106E0FD1200037B0164
:0C2EF8007A01790A7D03120003E4FEFF5A
:012F040022AA
:10291D00E0F9A3E0FAA3E09000FEC9F0A3EAF0A36A
:08292D00E9F07BFF7A197975CE
:0B2935009000FBEBF0A3EAF0A3E9F038
:10294000900101EBF0A3EAF0A3E9F0A37432F07870
:10295000057C017D017BFF7A1B79997E007F031244
:1029600008B578087C017D017BFF7A1B799C7E008D
:102970007F091208B5E4900111F09001087422F06B
:10298000A37456F09000FEE0FBA3E0FAA3E0F91276
:1029900009CFACF0ECD39409E494004025ECFB7C27
:1029A000007D0AFF7E00120918EF243090010AF022
:1029B0007C007D0AAF037E00120918ED2430A3F0DD
:1029C000801C90010A7420F09000FEE0FBA3E0FA66
:1029D000A3E0F91209CFE5F0243090010BF090014B
:1029E0000C742EF09000FEE0FBA3E0FAA3E0F912D5
:1029F00009CF243090010DF0A3742EF09000021244
:102A000009FAE5F0243090010FF0A37422F0900150
:102A100001E0FBA3E0FAA3E0F91208DB60129001E9
:102A200002E475F0011209A3900111E004F080DEC8
:102A30009000FBE0FBA3E0FAA3E0F9900111E0FDB8
:102A40001200039000FEE0FBA3E0FAA3E0F91209F4
:102A5000CF45F070149000021209FA45F0700A7B1D
:102A6000FF7A18797B7D0B80087B017A0179087DDC
:102A7000091200037B017A0179057D03120003909E
:102A80000104E0FF14F0EF601D9000FEE0FBA3E006
:102A9000FAA3E0F9E4F5F0120A329000FFE475F0D1
:092AA000021209A380D9E4FEFF33
:012AA900220A
:0B1550009000F7EBF0A3EAF0A3E9F035
:10155B00A37432F07B1B7D807F811235777F1E7EDB
:10156B000012363B9000F7E0FBA3E0FAA3E0F99002
:10157B0000161209FAE5F0FF7E007C007D0A1209C5
:10158B0006AC06AD077BFF7A187987122E479000C1
:10159B00F7E0FBA3E0FAA3E0F99000161209FAFFBB
:1015AB007E007C007D0A120906AC06AD077BFF7A34
:1015BB0018798F122E479000F7E0FBA3E0FAA3E017
:1015CB00900018122E2D9000F7E0FBA3E0FAA3E099
:1015DB00F99000181209FAFF7E007C007D0A1209AF
:1015EB0006AC06AD077BFF7A18799F122E47900049
:1015FB00F7E0FBA3E0FAA3E0F990001A1209FAE571
:10160B00F0FF7E007C007D0A120906AC06AD077B5D
:10161B00FF7A1879A7122E479000F7E0FBA3E0FAA8
:10162B00A3E0F990001A1209FAFF7E007C007D0AF4
:10163B00120906AC06AD077BFF7A1879AF122E475D
:10164B009000F7E0FBA3E0FAA3E0F990001C12096D
:10165B00FAE5F0FF7E007C007D0A120906AC06ADB0
:10166B00077BFF7A1879B7122E479000F7E0FBA3A0
:10167B00E0FAA3E0F990001C1209FAFF7E007C004F
:10168B007D0A120906AC06AD077BFF7A1879BF12EB
:10169B002E479000F7E0FBA3E0FAA3E0F990001EC1
:1016AB001209FAE5F0FF7E007C007D0A120906ACF8
:1016BB0006AD077BFF7A1879C7122E479000F7E02B
:1016CB00FBA3E0FAA3E0F990001E1209FAFF7E00DB
:1016DB007C007D0A120906AC06AD077BFF7A1879F0
:1016EB00CF122E479000F7E0FBA3E0FAA3E0F990AE
:1016FB0000201209FAE5F0FF7E007C007D0A12093A
:10170B0006AC06AD077BFF7A1879D7122E479000EF
:10171B00F7E0FBA3E0FAA3E0F99000201209FAFF2F
:10172B007E007C007D0A120906AC06AD077BFF7AB2
:10173B001879DF122E479000F7E0FBA3E0FAA3E045
:10174B00F990002C1209FAE5F025E0FDE433FC7B5F
:10175B00FF7A1879E7122E479000F7E0FBA3E0FA27
:10176B00A3E0F990002C1209FA25E0FDE433FC7B91
:10177B00FF7A1879F7122E477B027DCA7F811235CB
:10178B00777F1E7E0012363B9000F7E0F9A3E0FA5C
:10179B00A3E09000FEC9F0A3EAF0A3E9F07BFF7A87
:1017AB001979071229357B027DCC7F811235777F22
:1017BB001E7E0012363B9000F7E0F9A3E0FAA3E09F
:1017CB009000FEC9F0A3EAF0A3E9F07BFF7A197948
:1017DB00111229357B027DCE7F811235777F1E7EDC
:1017EB000012363B9000F7E0F9A3E0FAA3E090007B
:1017FB00FEC9F0A3EAF0A3E9F07BFF7A19791B127B
:10180B0029357B027DD07F811235777F1E7E0012BA
:10181B00363B9000F7E0F9A3E0FAA3E09000FEC995
:10182B00F0A3EAF0A3E9F07BFF7A197925122935A9
:10183B009000FAE0FF14F0EF601D9000F7E0FBA3BF
:10184B00E0FAA3E0F9E4F5F0120A329000F8E4753F
:10185B00F0021209A380D99000CCE0B40C0E123424
:0F186B00959000CC7402F07EFF7FFF22E4FEFF19
:01187A00224B
:0B1BA5009000F7EBF0A3EAF0A3E9F0DA
:101BB000A37432F07B107D8B7F811235777F1E7E80
:101BC0000012363B9000F7E0FBA3E0FAA3E0F91225
:101BD00009CFE5F0FF7E007C007D0A120906AC0605
:101BE000AD077BFF7A187987122E479000F7E0FB4C
:101BF000A3E0FAA3E0F91209CFFF7E007C007D0A82
:101C0000120906AC06AD077BFF7A197939122E4707
:101C10009000F7E0FBA3E0FAA3E0F99000021209BC
:101C2000FAE5F0FF7E007C007D0A120906AC06ADE5
:101C3000077BFF7A18798F122E479000F7E0FBA3FD
:101C4000E0FAA3E0F99000021209FAFF7E007C009E
:101C50007D0A120906AC06AD077BFF7A197941129D
:101C60002E479000F7E0FBA3E0FAA3E090000412F7
:101C70002E2D9000F7E0FBA3E0FAA3E0F99000041A
:101C80001209FAFF7E007C007D0A120906AC06AD3F
:101C9000077BFF7A197949122E479000F7E0FBA3E2
:101CA000E0FAA3E0F99000061209FAE5F0FF7E00E1
:101CB0007C007D0A120906AC06AD077BFF7A187915
:101CC0009F122E479000F7E0FBA3E0FAA3E0F99003
:101CD00000061209FAFF7E007C007D0A120906AC9C
:101CE00006AD077BFF7A197951122E479000F7E075
:101CF000FBA3E0FAA3E0F99000081209FAE5F0FF6F
:101D00007E007C007D0A120906AC06AD077BFF7AD7
:101D10001879A7122E479000F7E0FBA3E0FAA3E0A2
:101D2000F99000081209FAFF7E007C007D0A120972
:101D300006AC06AD077BFF7A197959122E47900041
:101D4000F7E0FBA3E0FAA3E0F990000A1209FAE534
:101D5000F0FF7E007C007D0A120906AC06AD077B11
:101D6000FF7A197961122E479000F7E0FBA3E0FAA1
:101D7000A3E0F990000C1209FA25E0FDE433FC7BA6
:101D8000FF7A1879E7122E479000F7E0FBA3E0FAFC
:101D9000A3E0F990000E1209FA25E0FDE433FC7B84
:101DA000FF7A1879F7122E479000FAE0FF14F0EF4F
:101DB000601D9000F7E0FBA3E0FAA3E0F9E4F5F082
:101DC000120A329000F8E475F0021209A380D9904B
:101DD00000CCE0B40D147BFF7A19796A12349B9021
:0D1DE00000CC7402F07EFF7FFF22E4FEFFC6
:011DED0022D3
:1021F0009000F7EBF0A3EAF0A3E9F0758DF7858D79
:102200008B7F1E7E0012363B7B037D787F05123567
:10221000777F1E7E0012363B9000F712291D7B034C
:102220007D787F011235777F1E7E0012363B90004D
:10223000F7E0F9A3E0FAA3E09000FEC9F0A3EAF00A
:10224000A3E9F07BFF7A1979891229357B037D7820
:102250007F021235777F1E7E0012363B9000F7E03A
:10226000F9A3E0FAA3E09000FEC9F0A3EAF0A3E925
:10227000F07BFF7A1979981229357B037D787F06E8
:102280001235777F1E7E0012363B9000F7E0F9A3EF
:10229000E0FAA3E09000FEC9F0A3EAF0A3E9F07B26
:1022A000FF7A1979A71229357B037D787F071235CC
:1022B000777F1E7E0012363B9000F7E0F9A3E0FA2C
:1022C000A3E09000FEC9F0A3EAF0A3E9F07BFF7A57
:1022D0001979B41229357B037D787F031235777F16
:1022E0001E7E0012363B9000F7E0F9A3E0FAA3E06F
:1022F0009000FEC9F0A3EAF0A3E9F07BFF7A197918
:10230000C1122935758DFD858D8B7B037D787F818D
:102310001235777F1E7E0012363B9000F7E0F9A35E
:10232000E0FAA3E09000FEC9F0A3EAF0A3E9F07B95
:10233000FF7A1979CE1229357B037DB17F81123561
:10234000777F1E7E0012363B9000F7E0F9A3E0FA9B
:10235000A3E09000FEC9F0A3EAF0A3E9F07BFF7AC6
:102360001979DB1229357B037DB47F811235777FA4
:102370001E7E0012363B9000F7E0F9A3E0FAA3E0DE
:102380009000FEC9F0A3EAF0A3E9F07BFF7A197987
:10239000EC1229357B037DB77F811235777F1E7E56
:1023A0000012363B9000F7E0F9A3E0FAA3E09000BA
:1023B000FEC9F0A3EAF0A3E9F07BFF7A1979F812DD
:1023C00029359000CCE0B40C0E1234959000CC74FA
:0B23D00002F07EFF7FFF22E4FEFF22F0
:101FF8009000F7EBF0A3EAF0A3E9F0758DF7858D73
:102008008B7F1E7E0012363B7B037D787F01123565
:10201800777F1E7E0012363B9000F7E0F9A3E0FAC6
:10202800A3E09000FEC9F0A3EAF0A3E9F07BFF7AF1
:102038001A79041229357B037D787F021235777F60
:102048001E7E0012363B9000F7E0F9A3E0FAA3E009
:102058009000FEC9F0A3EAF0A3E9F07BFF7A1979B2
:1020680098122935758DFD858D8B7B037D787F8151
:102078001235777F1E7E0012363B9000F7E0F9A3F9
:10208800E0FAA3E09000FEC9F0A3EAF0A3E9F07B30
:10209800FF7A1979CE1229357B037DC07F811235ED
:1020A800777F1E7E0012363B9000F7E0F9A3E0FA36
:1020B800A3E09000FEC9F0A3EAF0A3E9F07BFF7A61
:1020C8001979DB1229357B037DC67F811235777F2D
:1020D8001E7E0012363B9000F7E0F9A3E0FAA3E079
:1020E8009000FEC9F0A3EAF0A3E9F07BFF7A197922
:1020F800EC1229357B037DC97F811235777F1E7EDF
:102108000012363B9000F7E0F9A3E0FAA3E0900054
:10211800FEC9F0A3EAF0A3E9F07BFF7A1979F81277
:1021280029357B037DC37F811235777F1E7E0012A0
:10213800363B9000F712291D7B037DCC7F81123539
:10214800777F1E7E0012363B9000F7E0F9A3E0FA95
:10215800A3E09000FEC9F0A3EAF0A3E9F07BFF7AC0
:102168001A79131229357B037DCF7F811235777F4A
:102178001E7E0012363B9000F7E0F9A3E0FAA3E0D8
:102188009000FEC9F0A3EAF0A3E9F07BFF7A1A7980
:10219800231229357B037D707F821235777F647E19
:1021A8000012363B9000F7E0F9A3E0FAA3E09000B4
:1021B800FEC9F0A3EAF0A3E9F07BFF7A1979891246
:1021C80029357F647E0012363B9000CCE0B40D14B4
:1021D8007BFF7A19796A12349B9000CC7402F07EE6
:0821E800FF7FFF22E4FEFF224D
:0B0046009000F7EBF0A3EAF0A3E9F054
:10005100A3740AF07B027D7E7F011235777F1E7EBD
:100061000012363B9000F7E0FBA3E0FAA3E0F9129F
:1000710009CFFFAEF0FDAC067BFF7A1A7933122E61
:10008100477F1E7E0012363B9000F7E0FBA3E0FAAB
:10009100A3E0F99000021209FAFFAEF0FDAC067B75
:1000A100FF7A1A7943122E479000F7E0FBA3E0FA9A
:1000B100A3E0F9E4F5F0120A329000F7E0FBA3E0C7
:1000C100FAA3E0F9900002E4F5F0120A517B027DF7
:1000D1007E7F061235777F1E7E0012363B9000F739
:1000E100E0FBA3E0FAA3E0F91209CFFFAEF0FDAC0B
:1000F100067BFF7A1A7953122E477F1E7E00123635
:100101003B9000F7E0FBA3E0FAA3E0F990000212B4
:1001110009FAFFAEF0FDAC067BFF7A1A7963122E65
:10012100479000F7E0FBA3E0FAA3E0F9E4F5F01251
:100131000A329000F7E0FBA3E0FAA3E0F990000295
:10014100E4F5F0120A517B027D7E7F071235777F3D
:100151001E7E0012363B9000F7E0FBA3E0FAA3E01D
:10016100F91209CFFFAEF0FDAC067BFF7A1A797365
:10017100122E477F1E7E0012363B9000F7E0FBA354
:10018100E0FAA3E0F99000021209FAFFAEF0FDAC2B
:10019100067BFF7A1A7983122E479000F7E0FBA3C2
:1001A100E0FAA3E0F9E4F5F0120A329000F7E0FB7F
:1001B100A3E0FAA3E0F9900002E4F5F0120A5190ED
:1001C10000CCE0640E70399000FEF0A3F0FB7D05D9
:1001D1007F01122F057F1E7E0012363BE49000FE48
:1001E100F0A3F0FB7D057F01122F057F1E7E00121B
:1001F100363BE49000FEF0A3F0FBFD7F01122F05DA
:100201009000CCE0B40F139000FAE0FBE49000FE04
:10021100F0A3F07D017F01122F059000CCE0B41016
:10022100139000FAE0FBE49000FEF0A3F07D027F62
:1002310001122F059000CCE0B4112A9000FAE0FBE6
:100241009000FEE4F0A374B4F07D037F01122F054A
:100251007FD07E0712363BE49000FEF0A3F0FBFD59
:100261007F01122F059000CCE0641270399000FEDE
:10027100F0A3F0FB7D057F06122F057F1E7E001285
:10028100363BE49000FEF0A3F0FB7D057F06122FC4
:10029100057F1E7E0012363BE49000FEF0A3F0FBCA
:1002A100FD7F06122F059000CCE0B41310E49000FE
:1002B100FEF0A3F07B077D017F06122F059000CC95
:1002C100E0B41410E49000FEF0A3F07B077D027F00
:1002D10006122F059000CCE0B415279000FEE4F043
:1002E100A374B4F07B077D037F06122F057FD07EB8
:1002F1000712363BE49000FEF0A3F0FBFD7F0612EF
:100301002F059000CCE0641670399000FEF0A3F048
:10031100FB7D057F07122F057F1E7E0012363BE411
:100321009000FEF0A3F0FB7D057F07122F057F1ED5
:100331007E0012363BE49000FEF0A3F0FBFD7F0748
:10034100122F059000CCE0B41710E49000FEF0A34A
:10035100F07B077D017F07122F059000CCE0B418D8
:1003610010E49000FEF0A3F07B077D027F07122FBF
:10037100059000CCE0B419279000FEE4F0A374B41A
:10038100F07B077D037F07122F057FD07E07123692
:100391003BE49000FEF0A3F0FBFD7F07122F0590D8
:1003A10000CCE0B41A0E9000FE7464F0E4FBFD7F13
:1003B100031232419000CCE0B41B0F9000FE746434
:1003C100F07B23E4FD7F031232419000CCE0B41CAA
:1003D1000F9000FE7464F0E4FB7D237F0312324131
:1003E1009000CCE0B41D0F9000FE7464F07B237D7F
:1003F100237F031232419000CCE0641F60030205A9
:100401006EE49000FEF0A3F07B097D017F01122FC5
:10041100057F1E7E0012363BE49000FEF0A3F07BC8
:10042100077D017F06122F057F1E7E0012363BE4F9
:100431009000FEF0A3F07B077D017F07122F057F5F
:100441001E7E0012363B9000CCE0FF641E7003025A
:1004510004DDEF640C70030204DD7FAC7E0D123607
:100461003B9000CCE0FF640C6072EF641E606DE4B1
:100471009000FEF0A3F07B097D027F01122F057F22
:100481001E7E0012363BE49000FEF0A3F07B077D58
:10049100027F06122F057F1E7E0012363B9000CC94
:1004A100E0640C6037E49000FEF0A3F07B077D026E
:1004B1007F07122F057F1E7E0012363B9000CCE095
:1004C100641E60187FAC7E0D12363B9000CCE0FFBD
:1004D100640C6008EF641E60030204029000FEE4F5
:1004E100F0A374B4F07B097D037F01122F057F1EF9
:1004F1007E0012363B9000FEE4F0A374B4F07B075B
:100501007D037F06122F057F1E7E0012363B900071
:10051100FEE4F0A374B4F07B077D037F07122F057F
:100521007F1E7E0012363B7FD07E0712363BE49061
:1005310000FEF0A3F0FBFD7F01122F057F1E7E0060
:1005410012363BE49000FEF0A3F0FBFD7F06122F74
:10055100057F1E7E0012363BE49000FEF0A3F0FB07
:10056100FD7F07122F057F1E7E0012363B9000CCC7
:10057100E0640C60030206181234959000CC7402FA
:10058100F09000FEE4F0A374B4F07B097D037F01D9
:10059100122F057F1E7E0012363B9000FEE4F0A371
:1005A10074B4F07B077D037F06122F057F1E7E004A
:1005B10012363B9000FEE4F0A374B4F07B077D0398
:1005C1007F07122F057F1E7E0012363B7FD07E07EC
:1005D10012363BE49000FEF0A3F0FBFD7F01122FE9
:1005E100057F1E7E0012363BE49000FEF0A3F0FB77
:1005F100FD7F06122F057F1E7E0012363BE4900020
:10060100FEF0A3F0FBFD7F07122F057F1E7E001277
:0E061100363B7EFF7FFF22E49000CCF0FEFF20
:01061F0022B8
:100A8C009000F7740AF09000CCE0640E7034900083
:100A9C00FBF0FB7D017F051231BF7F1E7E001236FD
:100AAC003BE49000FBF0FB7D057F161231BF7F1EEF
:100ABC007E0012363BE49000FBF0FB7D057F231299
:100ACC0031BF9000CCE0B40F119000F7E0FBE49044
:100ADC0000FBF07D047F051231BF9000CCE0B41018
:100AEC00129000F7E0FB9000FB74B4F07D047F05DE
:100AFC001231BF9000CCE0B411259000F7E0FB90D0
:100B0C0000FB745AF07D047F051231BF7FD07E0745
:100B1C0012363BE49000FBF0FBFD7F051231BF90D9
:100B2C0000CCE0B413119000F7E0FBE49000FBF074
:100B3C007D017F161231BF9000CCE0B414119000EF
:100B4C00F7E0FBE49000FBF07D027F161231BF90C2
:100B5C0000CCE0B415259000F7E0FB9000FB745A34
:100B6C00F07D037F161231BF7FD07E0712363BE437
:100B7C009000FBF0FBFD7F161231BF9000CCE0B46F
:100B8C0017119000F7E0FBE49000FBF07D017F2350
:100B9C001231BF9000CCE0B418119000F7E0FBE4E8
:100BAC009000FBF07D027F231231BF9000CCE0B4AB
:100BBC0019259000F7E0FB9000FB745AF07D037F41
:100BCC00231231BF7FD07E0712363BE49000FBF03E
:100BDC00FBFD7F231231BF9000CCE0B41A0CE490E3
:100BEC0000FBF0FBFD7F011230B49000CCE0B41B95
:100BFC000CE49000FBF0FB7DFFFF1230B49000CCB6
:100C0C00E0B41C0CE49000FBF07BFFFDFF1230B451
:100C1C009000CCE0B41D0D9000FB74FFF0E4FBFDE4
:100C2C00FF1230B49000CCE0641F6003020DA8905A
:100C3C0000F7E0FB9000FB74B4F07D047F051231EB
:100C4C00BF7F1E7E0012363B9000F7E0FBE4900065
:100C5C00FBF07D017F161231BF7F1E7E0012363BEA
:100C6C009000F7E0FBE49000FBF07D017F23123154
:100C7C00BF7F1E7E0012363B9000CCE0FF641E70DE
:100C8C0003020D1DEF640D7003020D1D7FAC7E0D74
:100C9C0012363B9000CCE0FF640D6075EF641E6073
:100CAC00709000F7E0FBE49000FBF07D047F0512F0
:100CBC0031BF7F1E7E0012363B9000F7E0FBE490C4
:100CCC0000FBF07D027F161231BF7F1E7E001236B4
:100CDC003B9000CCE0640D60389000F7E0FBE490B2
:100CEC0000FBF07D027F231231BF7F1E7E00123687
:100CFC003B9000CCE0641E60187FAC7E0D12363B3E
:100D0C009000CCE0FF640D6008EF641E6003020CE1
:100D1C003B9000F7E0FB9000FB745AF07D047F05DC
:100D2C001231BF7F1E7E0012363B9000F7E0FB9025
:100D3C0000FB745AF07D037F161231BF7F1E7E00BC
:100D4C0012363B9000F7E0FB9000FB745AF07D03E9
:100D5C007F231231BF7F1E7E0012363B7FD07E0771
:100D6C0012363BE49000FBF0FBFD7F051231BF7F98
:100D7C001E7E0012363BE49000FBF0FBFD7F16124A
:100D8C0031BF7F1E7E0012363BE49000FBF0FBFD72
:100D9C007F231231BF7F1E7E0012363B9000CCE0C9
:100DAC00640D6003020E527BFF7A19796A12349B30
:100DBC009000CC7402F09000F7E0FB9000FB745AAA
:100DCC00F07D047F051231BF7F1E7E0012363B90F2
:100DDC0000F7E0FB9000FB745AF07D037F16123194
:100DEC00BF7F1E7E0012363B9000F7E0FB9000FBAD
:100DFC00745AF07D037F231231BF7F1E7E001236A2
:100E0C003B7FD07E0712363BE49000FBF0FBFD7F6E
:100E1C00051231BF7F1E7E0012363BE49000FBF0C2
:100E2C00FBFD7F161231BF7F1E7E0012363BE49015
:100E3C0000FBF0FBFD7F231231BF7F1E7E001236BC
:090E4C003B7EFF7FFF22E4FEFF64
:010E5500227A
:100E56009000F7EBF0A3EAF0A3E9F07B017D807F39
:100E6600011235777F1E7E0012363B9000F7E0FBBD
:100E7600A3E0FAA3E0F91209CFFDACF07BFF7A1AE2
:100E86007993122E477F1E7E0012363B9000F7E0C4
:100E9600FBA3E0FAA3E0F9E4F5F0120A327B027D47
:100EA6000B7F011235777F1E7E0012363B9000F7CE
:100EB600E0FBA3E0FAA3E0F91209CFFFAEF0FDAC28
:100EC600067BFF7A1A79A4122E477F1E7E00123601
:100ED6003B9000F7E0FBA3E0FAA3E0F990000212D2
:100EE60009FAFFAEF0FDAC067BFF7A1A79B5122E31
:100EF600479000F7E0FBA3E0FAA3E0F9E4F5F0126F
:100F06000A329000F7E0FBA3E0FAA3E0F9900002B2
:100F1600E4F5F0120A517B017D807F021235777F5E
:100F26001E7E0012363B9000F7E0FBA3E0FAA3E03A
:100F3600F91209CFFDACF07BFF7A1A79C4122E475D
:100F46007F1E7E0012363B9000F7E0FBA3E0FAA37B
:100F5600E0F9E4F5F0120A327B027D0B7F021235CE
:100F6600777F1E7E0012363B9000F7E0FBA3E0FA87
:100F7600A3E0F91209CFFFAEF0FDAC067BFF7A1AAB
:100F860079D3122E477F1E7E0012363B9000F7E083
:100F9600FBA3E0FAA3E0F99000021209FAFFAEF013
:100FA600FDAC067BFF7A1A79E5122E479000F7E032
:100FB600FBA3E0FAA3E0F9E4F5F0120A329000F799
:100FC600E0FBA3E0FAA3E0F9900002E4F5F0120AD0
:100FD600517B017D807F061235777F1E7E0012369B
:100FE6003B9000F7E0FBA3E0FAA3E0F91209CFFD7E
:100FF600ACF07BFF7A1A79F5122E477F1E7E00121F
:10100600363B9000F7E0FBA3E0FAA3E0F9E4F5F045
:10101600120A327B027D0B7F061235777F1E7E0019
:1010260012363B9000F7E0FBA3E0FAA3E0F91209C1
:10103600CFFFAEF0FDAC067BFF7A1B7905122E477B
:101046007F1E7E0012363B9000F7E0FBA3E0FAA37A
:10105600E0F99000021209FAFFAEF0FDAC067BFF44
:101066007A1B7915122E479000F7E0FBA3E0FAA34E
:10107600E0F9E4F5F0120A329000F7E0FBA3E0FA9B
:10108600A3E0F9900002E4F5F0120A517B017D809D
:101096007F071235777F1E7E0012363B9000F7E001
:1010A600FBA3E0FAA3E0F91209CFFDACF07BFF7ACF
:1010B6001B7923122E477F1E7E0012363B9000F7C7
:1010C600E0FBA3E0FAA3E0F9E4F5F0120A327B02B2
:1010D6007D0B7F071235777F1E7E0012363B900010
:1010E600F7E0FBA3E0FAA3E0F91209CFFFAEF0FDAB
:1010F600AC067BFF7A1B7935122E477F1E7E0012C7
:10110600363B9000F7E0FBA3E0FAA3E0F99000027B
:101116001209FAFFAEF0FDAC067BFF7A1B79471287
:101126002E479000F7E0FBA3E0FAA3E0F9E4F5F020
:10113600120A329000F7E0FBA3E0FAA3E0F9900070
:1011460002E4F5F0120A519000CCE0642770787D35
:101156000A7F011235D77F1E7E0012363B7B5A7DF1
:101166005A7F011235077F1E7E0012363B7D0A7FAD
:10117600021235D77F1E7E0012363B7B097D097F22
:10118600021235077F1E7E0012363B7D0A7F06124D
:1011960035D77F1E7E0012363B7B5A7D5A7F06125C
:1011A60035077F1E7E0012363B7D0A7F071235D734
:1011B6007F1E7E0012363B7B5A7D5A7F071235070B
:1011C6007F1E7E0012363B9000CCE0B40C0E12342B
:1011D600959000CC7402F07EFF7FFF22E49000CC55
:0411E600F0FEFF22F6
:10276E009000F7EBF0A3EAF0A3E9F09000F7E0FB9E
:10277E00A3E0FAA3E0F974F175F0F0120A329000BA
:10278E00CCE024E0B4070050669027A575F003A4B2
:10279E00C58325F0C583730227BA0227C10227C756
:1027AE000227CF0227D70227DF0227E7E4FBFD7FB0
:1027BE00808039E4FBFDFF80337B287D287F0180FC
:1027CE002B7B287D287F0280237B19E4FD7F0480EC
:1027DE001BE4FB7D197F038013E4FBFD7F051231A3
:1027EE003A7F1E7E0012363BE4FBFDFF12313A901B
:1027FE0000CCE0640C70241234959000CC7402F07E
:10280E00E4FBFD7F0512313A7F1E7E0012363BE45B
:10281E00FBFDFF12313A7EFF7FFF227F0A7E001200
:10282E00363B7B017D887F811235777F1E7E0012BD
:10283E00363B9000F7E0FBA3E0FAA3E0F91209CFD4
:10284E00FDACF0E412072B7B0A7AD77923783C1281
:10285E000620120764AD07AC067BFF7A1B7958126F
:10286E002E477F0A7E0012363B7B027D977F8112B8
:10287E0035777F1E7E0012363B9000F7E0FBA3E01B
:10288E00FAA3E0F91209CFE5F0FD7C0064F1607B5C
:10289E007BFF7A1B7964122E477F0A7E0012363B2D
:1028AE009000F7E0FBA3E0FAA3E0F91209CF7C0059
:1028BE00FD7BFF7A1B796D122E477F0A7E00123642
:1028CE003B9000F7E0FBA3E0FAA3E0F990000212C0
:1028DE0009FAE5F0FD7C007BFF7A1B7976122E4714
:1028EE007F0A7E0012363B9000F7E0FBA3E0FAA3CE
:1028FE00E0F99000021209FA7C00FD7BFF7A1B7949
:0F290E007F122E477F0A7E0012363BE4FEFF2227
:0B25B2009000F7EBF0A3EAF0A3E9F0C3
:1025BD00A37414F0A3740AF074F175F0F0120A32DA
:1025CD009000CCE024E0B4070050709025E675F043
:1025DD0003A4C58325F0C583730225FB02260202E1
:1025ED00260802261202261C022627022632E4FBAA
:1025FD00FD7F808043E4FBFDFF803D9000FAE0FB12
:10260D00FD7F0180339000FAE0FBFD7F0280299071
:10261D0000FBE0FBE4FD7F04801E9000FBE0FDE489
:10262D00FB7F038013E4FBFD7F051230297F1E7EA7
:10263D000012363BE4FBFDFF1230299000CCE06424
:10264D000D702A7BFF7A19796A12349B9000CC7435
:10265D0002F0E4FBFD7F051230297F1E7E0012364D
:10266D003BE4FBFDFF1230297EFF7FFF227F0A7EB8
:10267D000012363B7B017D887F811235777F1E7E70
:10268D000012363B9000F7E0FBA3E0FAA3E0F9124D
:10269D0009CFFDACF0E412072B7B0A7AD7792378AA
:1026AD003C120620120764AD07AC067BFF7A1B793E
:1026BD0058122E477F0A7E0012363B7B027D997F92
:1026CD00811235777F1E7E0012363B9000F7E0FBBE
:1026DD00A3E0FAA3E0F91209CFE5F0FD7C0064F167
:1026ED00607B7BFF7A1B7964122E477F0A7E001276
:1026FD00363B9000F7E0FBA3E0FAA3E0F91209CF17
:10270D007C00FD7BFF7A1B796D122E477F0A7E00C0
:10271D0012363B9000F7E0FBA3E0FAA3E0F990003E
:10272D00021209FAE5F0FD7C007BFF7A1B79761227
:10273D002E477F0A7E0012363B9000F7E0FBA3E0A8
:10274D00FAA3E0F99000021209FA7C00FD7BFF7AF2
:10275D001B797F122E477F0A7E0012363BE4FEFF67
:01276D002249
:102AAA007061676520696E6465780070616765208A
:102ABA00756C747261736F6E69630070616765200B
:102ACA00756C747261736F6E6963310070616765EA
:102ADA0020726F626F7420636F6E74726F6C007015
:102AEA0061676520726F626F7420636F6E74726FB4
:102AFA006C3100706167652076657273696F6E006C
:102B0A00706167652076657273696F6E31007061F6
:102B1A006765206865616420636F6E74726C00700B
:102B2A00616765206865616420636F6E74726C31D9
:102B3A0000706167652064756F6A697869616E7A89
:102B4A00686900AA55CC0000000000000000AA55E0
:102B5A00CC0000000000000000000000000000009F
:102B6A00000000000000000000000000AA55CC0090
:102B7A000000000000000000000000000000AA554C
:102B8A00CC0000000000000000000000000000006F
:102B9A00000000000000000000000000AA55CC0060
:102BAA00000000000000000000000000000000001B
:102BBA0000000000000000000000AA55CC00000040
:102BCA000000000000000000000000AA55CC000030
:102BDA00000000000000000000000000000000AA41
:102BEA0055CC0000000000000000000000000000BA
:102BFA00000000AA55CC0000000000000000000000
:072C0A0000000000000000C3
:102C11004100CC004500E800000000004100D10067
:102C21006064006700000000000000000000000078
:102C31000000000000000000000000000000000093
:102C41000000000000000000000000000000000083
:102C51000000000000000000000000000000000073
:102C61000000000000000000000000000000000063
:102C71000000000000000000000000000000000053
:102C8100000000000000000041000000410066005B
:102C9100410065004100CB005400D300000000005A
:102CA10000000000000000000000000000000041E2
:102CB10000CD004100D2004100D0004100E700609A
:102CC100640001000000000000000000000000009E
:102CD10000000000000000000000000000000000F3
:102CE10000000000000000000000000000000000E3
:102CF10000000000000000000000000000000000D3
:102D010000000000000000000000000000000000C2
:102D110000000000000000000000000000000000B2
:0C2D2100000000000000004200CE000096
:0B367A000000007F0B7EBEDEFEDFFCC8
:013685002222
:043637007FFA7E0098
:10363B00AD07AC06ED1DAE0470011C4E60051236D5
:04364B007A80F1226E
:0436860075C7602282
:0532B90090010BEDF097
:1032BE0074FFA3F0A3F0ED700590010B04F09001E4
:1032CE000BE0FF14F0EF60511208DBFF90010CE0F1
:1032DE00F0A3E06FF0E4FD90010DE090010C30E002
:1032EE0022E0C313FEA3E013FF90010CEEF0A3EF58
:1032FE00F0EE64A0FEEF6401FF90010CEEF0A3EF80
:10330E00F08008E0C313F0A3E013F00DEDB408C78E
:10331E00740129F9E43AFA80A590010CE0FEA3E0CD
:01332E00FF9F
:01332F00227B
:053330009000EFEDF03C
:1033350074FFA3F0A3F0ED70059000EF04F090008A
:10334500EFE0FF14F0EF60511208DBFF9000F0E0B2
:10335500F0A3E06FF0E4FD9000F1E09000F030E0C4
:1033650022E0C313FEA3E013FF9000F0EEF0A3EFFD
:10337500F0EE64A0FEEF6401FF9000F0EEF0A3EF25
:10338500F08008E0C313F0A3E013F00DEDB408C717
:10339500740129F9E43AFA80A59000F0E0FEA3E073
:0133A500FF28
:0133A6002204
:0533A70090011EEDF095
:1033AC0074FFA3F0A3F0ED700590011E04F09001E2
:1033BC001EE0FF14F0EF60511208DBFF90011FE0DC
:1033CC00F0A3E06FF0E4FD900120E090011F30E0ED
:1033DC0022E0C313FEA3E013FF90011FEEF0A3EF56
:1033EC00F0EE64A0FEEF6401FF90011FEEF0A3EF7E
:1033FC00F08008E0C313F0A3E013F00DEDB408C7A0
:10340C00740129F9E43AFA80A590011FE0FEA3E0CB
:01341C00FFB0
:01341D00228C
:05341E009000F4EDF048
:1034230074FFA3F0A3F0ED70059000F404F0900096
:10343300F4E0FF14F0EF60511208DBFF9000F5E0B9
:10344300F0A3E06FF0E4FD9000F6E09000F530E0CB
:1034530022E0C313FEA3E013FF9000F5EEF0A3EF09
:10346300F0EE64A0FEEF6401FF9000F5EEF0A3EF31
:10347300F08008E0C313F0A3E013F00DEDB408C728
:10348300740129F9E43AFA80A59000F5E0FEA3E07F
:01349300FF39
:013494002215
:0B3577009000FCEFF0A3EDF0A3EBF0E0
:10358200E4A3F078007C017D017BFF7A2B794DFE6C
:103592007F0B1208B59000FCE0900103F0A37403C6
:1035A200F0E4A3F09000FDE0900106F0E4A3F090B7
:1035B20000FEE0900108F07B017A0179037D06129A
:1035C20032B9AC06EF900109F0EEA3F07A0179006E
:0535D2007D0B02002644
:0B2F05009000FBEFF0A3EDF0A3EBF059
:102F100078007C017D017BFF7A2B79587E007F1E33
:102F20001208B59000FBE0900103F0A37410F0E4E8
:102F3000A3F0A3F0A3F0A37407F0A3740EF0E4A32E
:102F4000F09000FCE090010BF0E4A3F09000FDE0B5
:102F500090010DF09000FEE0FCA3E0FDEC90010E6E
:102F6000F0EDA3F0A37412F0A3740CF0E4A3F0A3AB
:102F70007446F0E4A3F0A37407F0E4A3F0A3F07B9D
:102F8000017A0179037D151233A7AC06EF90011881
:0D2F9000F0EEA3F07A0179007D1A02002610
:0B31BF009000F8EFF0A3EDF0A3EBF0A0
:1031CA0078FC7C007D017BFF7A2B79767E007F126A
:1031DA001208B59000FF7482F0A37410F0E4A3F013
:1031EA009000F8E0900102F0E4A3F0A37403F0A3C6
:1031FA007406F0E4A3F09000F9E0900107F0E4A36C
:10320A00F09000FAE0900109F0E4A3F09000FBE0EE
:10321A0090010BF0E4A3F0A3F07B017A0079FF7D23
:10322A000D1233A7AC06EF90010CF0EEA3F07A0072
:07323A0079FC7D1202002661
:0B3507009000FAEFF0A3EDF0A3EBF052
:1035120078FD7C007D017BFF7A2B79887E007F1EFF
:103522001208B59000FAE0900100F0A37410F0E4E4
:10353200A3F0A3740BF0E4A3F0A37402F0A3740449
:10354200F0E4A3F09000FBE0900108F0E4A3F09017
:1035520000FCE090010AF07B017A0179007D0B12F8
:1035620033A7AC06EF90010BF0EEA3F07A0079FDE1
:053572007D100200269F
:0835D7009000FAEFF0A3EDF003
:1035DF0078FC7C007D017BFF7A2B79A67E007F1E15
:1035EF001208B59000FAE09000FFF0A37410F0E419
:1035FF00A3F0A37407F0E4A3F0A304F0A304F0E492
:10360F00A3F09000FBE0900107F07B017A0079FFB7
:10361F007D091233A7AC06EF900108F0EEA3F07A04
:08362F000079FC7D0E0200266B
:0B3241009000FBEFF0A3EDF0A3EBF01A
:10324C0078FF7C007D017BFF7A2B79C47E007F1197
:10325C001208B59000FBE0900102F0A37410F0E4AA
:10326C00A3F0A3F0A3F0A37403F0A37406F0E4A3FB
:10327C00F09000FCE090010AF0E4A3F09000FDE077
:10328C0090010CF0E4A3F09000FEE090010EF07BB6
:10329C00017A0179027D0D1233A7AC06EF90010F74
:0D32AC00F0EEA3F07A0079FF7D12020026FB
:0B30B4009000F8EFF0A3EDF0A3EBF0AC
:1030BF0078FC7C007D017BFF7A2B79D57E007F1415
:1030CF001208B59000FF7482F0A37410F0E4A3F01F
:1030DF00A3F0A3F0A37404F0A37408F0E4A3F0909A
:1030EF0000F8E0900107F0E4A3F09000F9E0900100
:1030FF0009F0E4A3F09000FAE090010BF0E4A3F0E4
:10310F009000FBE090010DF0E4A3F0A3F07B017AB7
:10311F000079FF7D0F1233A7AC06EF90010EF0EE92
:0B312F00A3F07A0079FC7D140200265A
:0B313A009000FAEFF0A3EDF0A3EBF023
:1031450078FD7C007D017BFF7A2B79E97E007F1479
:103155001208B59001007481F0A37410F0E4A3F097
:10316500A3F0A3F0A37404F0A37408F0E4A3F09013
:1031750000FAE0900108F09000FBE0900109F09062
:1031850000FCE090010AF0A37405F0A3740AF0A313
:103195007405F0A3740AF0E4A3F0A3F07B017A01AF
:1031A50079007D0F1233A7AC06EF90010FF0EEA367
:0A31B500F07A0079FD7D1402002677
:0B3029009000FCEFF0A3EDF0A3EBF033
:1030340078FF7C007D017BFF7A2B79FD7E007F1475
:103044001208B59001027481F0A37410F0E4A3F0A7
:10305400A3F0A3F0A37404F0A37408F0E4A3F09025
:1030640000FCE090010AF0E4A3F09000FDE0900180
:103074000CF0E4A3F09000FEE090010EF0A37405C0
:10308400F0A3740AF0A37405F0A3740AF0E4A3F0A7
:10309400A3F07B017A0179027D111233A7AC06EF0C
:1030A400900113F0EEA3F07A0079FF7D160200265A
:101DEE0012364F1236657BFF7A2A79AA12349B90EF
:101DFE0000CCE0B403297BFF7A2A79B512349B75A7
:101E0E008DFD858D8B7B017A007901121550C3EE05
:101E1E006480948040097F327E0012363B80E690CB
:101E2E0000CCE0B404297BFF7A2A79C512349B7565
:101E3E008DFD858D8B7B017A007901121BA5C3EE7A
:101E4E006480948040097F327E0012363B80E6909B
:101E5E0000CCE0B405257BFF7A2A79D612349B7527
:101E6E008DFD858D8B7B017A00790112276EC3EE75
:101E7E0064809480400512363780EA9000CCE0B43E
:101E8E0006257BFF7A2A79E912349B758DFD858DA7
:101E9E008B7B017A0079011225B2C3EE64809480A7
:101EAE00400512363780EA9000CCE0B4091F7BFF64
:101EBE007A2A79FD12349B7B017A0079011221F086
:101ECE00C3EE64809480400512363780EA9000CCD1
:101EDE00E0B40A1F7BFF7A2B790A12349B7B017ABE
:101EEE00007901121FF8C3EE64809480400512360B
:101EFE003780EA9000CCE0640770617BFF7A2B7923
:101F0E001812349B758DF7858D8BE49000FEF0A32F
:101F1E00F0FBFD7F01122F057F1E7E0012363BE483
:101F2E009000FEF0A3F0FBFD7F06122F057F1E7EB4
:101F3E000012363BE49000FEF0A3F0FBFD7F07128B
:101F4E002F057B017A007901120046C3EE6480945E
:101F5E008040097F0A7E0012363B80E69000CCE07E
:101F6E00640870557BFF7A2B792912349B758DFD91
:101F7E00858D8BE49000FBF0FBFD7F051231BF7F5A
:101F8E001E7E0012363BE49000FBF0FBFD7F161226
:101F9E0031BF7F1E7E0012363BE49000FBF0FBFD4E
:101FAE007F231231BF120A8CC3EE648094804009E5
:101FBE007F0A7E0012363B80EC9000CCE0B40B2002
:101FCE007BFF7A2B793B12349B758DF7858D8B7B3E
:101FDE00017A007901120E56C3EE6480948050EFA0
:0A1FEE007F017E0012363B021DFD4C
:030023000223DBDA
:1023DB00C0E0C083C082C0D075D000C001C002C0B5
:0923EB0003C004C005C006C007D0
:1023F40020980302259BC2989000CBE0FF2467F548
:1024040082E43400F583E599F0900000E0706FEF0A
:1024140070139000CBE02467F582E43400F583E088
:10242400B4AA0280159000CBE0FFB401122467F532
:1024340082E43400F583E0B4AA059000CB803590A3
:1024440000CBE0FFB401152467F582E43400F58382
:10245400E0B455089000CB7402F080229000CBE0E9
:10246400FFB402152467F582E43400F583E0B4CCAC
:10247400089000007401F080059000CBE4F0900017
:1024840000E06401600302259B900066E064016043
:102494000302257E900065E0C3944640149000003A
:1024A400E4F0900066F09000CBF0900065F0022517
:1024B4009B900065E014F0E0600302257E7B017AC6
:1024C40000796A90006CE02403FD123330AD07AC50
:1024D4000690006CE0FB246EF582E43400F583E0A2
:1024E400FE746D2BF582E43400F583E0FBEBFF6DA5
:1024F4007002EC6E70509000EDF090006CE0C3132D
:10250400FF9000EDE0FDC39F503CA3E0FC246DF57B
:1025140082E43400F583E0FE746E2CF582E434002A
:10252400F583E0FBEBFFED25E02401F582E43400C4
:10253400F583EEF0A3EFF09000EEE02402F09000BB
:10254400EDE004F080B4900001E0B41112A3E0B413
:10255400220DA3E0B43308A3E0B4440312368690FA
:102564000000E4F0900066F09000CBF0900065F07D
:102574009000EEF09000EDF0801D9000CBE0B405EB
:10258400109000667401F090006CE02402900065E5
:07259400F09000CBE004F021
:10259B00D007D006D005D004D003D002D001D0D0C4
:0725AB00D082D083D0E032A2
:030043000211EABD
:0B11EA00C0E0C083C082C0D075D008F8
:1011F500E59A20E003021547539AFE9000E7E0FFC9
:1012050024D3F582E43400F583E59BF09000CDE02E
:10121500706FEF70139000E7E024D3F582E434009B
:10122500F583E0B4AA0280159000E7E0FFB401124F
:1012350024D3F582E43400F583E0B4AA059000E7F1
:1012450080359000E7E0FFB4011524D3F582E4343E
:1012550000F583E0B455089000E77402F080229011
:1012650000E7E0FFB4021524D3F582E43400F583EA
:10127500E0B4CC089000CD7401F080059000E7E45F
:10128500F09000CDE0640160030215479000D2E0C4
:101295006401600302152A9000D0E0C39446401112
:1012A5009000CDE4F09000D2F09000E7F09000D0EF
:1012B500F09000D0E014F0E0600302152A7B017A7B
:1012C5000079D69000D8E02403FD12341EAD0FAC92
:1012D5000E9000D8E0FB24DAF582E43400F583E0D3
:1012E500FE74D92BF582E43400F583E0FBEB6D70D9
:1012F50002EC6E70509000F2F09000D8E0C313FF3E
:101305009000F2E0FDC39F503CA3E0FC24D9F58298
:10131500E43400F583E0FE74DA2CF582E43400F55C
:1013250083E0FBEBFFED25E024CEF582E43400F508
:1013350083EEF0A3EFF09000F3E02402F09000F2CA
:10134500E004F080B49000CDE4F09000D2F090007D
:10135500E7F09000D0F09000F3F09000F2F09000EC
:10136500CEE0FEA3E0FF4E70069000CC7405F0EFD2
:1013750064054E70069000CC7406F0EF64014E7063
:10138500069000CC7403F0EF64064E70069000CC16
:101395007404F0EF64024E70069000CC7407F0EF11
:1013A50064074E70069000CC7408F0EF64034E702D
:1013B500069000CC7409F0EF64084E70069000CCDE
:1013C500740AF0EF64044E70069000CC740BF0EFD5
:1013D50064BC4E70069000CC740CF0BEBC09BF0115
:1013E500069000CC740DF0E4B50F0AEEB403069038
:1013F50000CC740EF0BE0309BF01069000CC740F3B
:10140500F0BE0309BF02069000CC7411F0BE0309BB
:10141500BF03069000CC7410F0BE0309BF1A0690F6
:1014250000CC7412F0BE0309BF10069000CC7413F3
:10143500F0BE0309BF12069000CC7415F0BE030977
:10144500BF1B069000CC7414F0BE0309BF200690A4
:1014550000CC7416F0BE0309BF21069000CC7417AA
:10146500F0BE0309BF22069000CC7419F0BE030933
:10147500BF23069000CC7418F0BE0309BFAA0690DE
:1014850000CC741AF0BE0309BFBB069000CC741BD8
:10149500F0BE0309BFCC069000CC741CF0BE030956
:1014A500BFDD069000CC741DF0BE0309BF34069065
:1014B50000CC741EF0BE0309BF35069000CC741F26
:1014C500F0E4B50F0AEEB4C1069000CC7421F0BE6D
:1014D500C109BF01069000CC7420F0BED109BFD16F
:1014E500069000CC7422F0BED209BFD2069000CC83
:1014F5007423F0BED309BFD3069000CC7424F0BE8C
:10150500D409BFD4069000CC7425F0BED009BFD055
:10151500069000CC7426F0BE0428BF01259000CCAF
:101525007427F0801D9000E7E0B405109000D27498
:1015350001F09000D8E024029000D0F09000E7E0A0
:0215450004F0B0
:09154700D0D0D082D083D0E03274
:10062000EC4D6011E8497017ED33EC3304600DE4D4
:10063000FCFFFEFD22E933E8330470F80207D01214
:10064000079B58046009E4CC248150062850090215
:1006500007DA2840030207D7C0E0EB4A7044B980AC
:1006600006D0E0FB0207C6EF4E701CBD8008EBFF12
:10067000EAFEE9FD80EBE98DF0A4FEE5F002070952
:10068000E9CDF9EAFEEBFFEF89F0A4FCE5F0CE89B5
:10069000F0A42EFFE435F0CD89F0A42DFEE435F072
:1006A0008067EF4E7005BD80D780C3EF8BF0A4ACA0
:1006B000F0EE8BF0A42CFCE435F0F8EF8AF0A42CDB
:1006C000E5F038FCE433CB8DF0A42CFCE5F03BF8EE
:1006D000EE8AF0A42CFCE5F038F8E433CF89F0A4DE
:1006E0002CFCE5F038CF3400CE89F0A42FFFE5F0E4
:1006F0003EFEE433C98DF0A42EFEE5F039CD8AF03C
:10070000A42FFFE5F03EFEE43DFD33D0E0FB5007B3
:100710000BBB000F0207DAEC2CFCEF33FFEE33FECD
:06072000ED33FD0207B2FB
:1007260075F020800E75F010800575F0087D007E4E
:10073600007F003392D530D503120A7EEC33401089
:10074600EF33FFEE33FEED33FDEC33FCD5F0ED2257
:0E075600E5F0247EA2D513CC92E7CDCEFF2293
:10076400EDD2E7CD33EC3392D524814006E4FFFE8D
:10077400FDFC22FCE4CFCECDCC24E0501174FF80EC
:10078400EDC3CC13CCCD13CDCE13CECF13CF047089
:07079400F030D5DE020A7E01
:10079B00E9D2E7C933E833F892D5EDD2E7CD33ECA4
:0707AB0033FC5002B2D5221D
:1007B200EC30E7100FBF000C0EBE00080DBD0004A8
:1007C2000BEB6014A2D5EB13FCED92E7FD2274FF54
:1007D200FCFDFEFF22E480F8A2D574FF13FC7D80AD
:0307E200E480EFC1
:03000000022F9D2F
:0C2F9D00787FE4F6D8FD75810F022FE468
:1007E500E709F608DFFA8046E709F208DFFA803EF6
:1007F50088828C83E709F0A3DFFA8032E309F608E3
:10080500DFFA8078E309F208DFFA807088828C834A
:10081500E309F0A3DFFA806489828A83E0A3F608FE
:10082500DFFA805889828A83E0A3F208DFFA804CD8
:1008350080D280FA80C680D4806980F280338010AF
:1008450080A680EA809A80A880DA80E280CA803318
:1008550089828A83ECFAE493A3C8C582C8CCC58390
:10086500CCF0A3C8C582C8CCC583CCDFE9DEE78060
:100875000D89828A83E493A3F608DFF9ECFAA9F0DF
:10088500EDFB2289828A83ECFAE0A3C8C582C8CC35
:10089500C583CCF0A3C8C582C8CCC583CCDFEADE4E
:1008A500E880DB89828A83E493A3F208DFF980CCB0
:1008B50088F0EF60010E4E60C388F0ED2402B404A9
:1008C5000050B9F582EB2402B4040050AF23234550
:0608D50082239008357338
:1008DB00BB010689828A83E0225002E722BBFE021B
:0908EB00E32289828A83E493224E
:1008F400BB010689828A83F0225002F722BBFE01E3
:02090400F322DC
:10090600EF8DF0A4A8F0CF8CF0A428CE8DF0A42E05
:02091600FE22BF
:10091800BC000BBE0029EF8DF084FFADF022E4CCC3
:10092800F875F008EF2FFFEE33FEEC33FCEE9DEC8C
:10093800984005FCEE9DFE0FD5F0E9E4CEFD22EDD2
:10094800F8F5F0EE8420D21CFEADF075F008EF2F1C
:10095800FFED33FD4007985006D5F0F222C398FD0D
:050968000FD5F0EA22AA
:10096D00C2D5EC30E709B2D5E4C39DFDE49CFCEEA5
:10097D0030E715B2D5E4C39FFFE49EFE120918C3FC
:10098D00E49DFDE49CFC800312091830D507C3E4F7
:06099D009FFFE49EFE2214
:1009A300C5F0F8A3E028F0C5F0F8E58215827002DF
:0609B3001583E038F0227C
:1009B900A3F8E0C5F025F0F0E582158270021583F1
:0609C900E0C838F0E8224E
:1009CF00BB010A89828A83E0F5F0A3E022500687F3
:1009DF00F009E71922BBFE07E3F5F009E3192289B5
:0B09EF00828A83E493F5F074019322E8
:1009FA00BB0110E58229F582E5833AF583E0F5F03B
:100A0A00A3E0225009E92582F886F008E622BBFE17
:100A1A000AE92582F8E2F5F008E222E5832AF5835D
:080A2A00E993F5F0A3E9932222
:100A3200BB010A89828A83F0E5F0A3F0225006F70F
:0F0A420009A7F01922BBFE06F3E5F009F319220C
:100A5100F8BB0111E58229F582E5833AF583E8F0D7
:100A6100E5F0A3F0225009E92582C8F608A6F02294
:0D0A7100BBFE09E92582C8F2E5F008F2227B
:0E0A7E00C3E49FFFE49EFEE49DFDE49CFC2289
:102FA900021DEEE493A3F8E493A34003F68001F233
:102FB90008DFF48029E493A3F85407240CC8C33329
:102FC900C4540F4420C8834004F456800146F6DFF8
:102FD900E4800B0102040810204080902C11E47E4B
:102FE900019360BCA3FF543F30E509541FFEE493ED
:102FF900A360010ECF54C025E060A840B8E493A3B4
:10300900FAE493A3F8E493A3C8C582C8CAC583CADE
:10301900F0A3C8C582C8CAC583CADFE9DEE780BE96
:012D2D0000A5
:00000001FF
