:10002600AF051DEF60131208CBF5993099FDC29903
:0A003600740129F9E43AFA80E72288
:10000300AF051DEF60161208CBF59BE59A30E1FBB7
:0D001300539AFD740129F9E43AFA80E422C1
:1028B000759850758920438E40758DF7858D8BD224
:0628C000AFD2ACD28E2263
:1028C60075B60175B501759A50759CF7D2AF438EF2
:0528D6001475AF0122A2
:10147F00226E6F20646576696365220064302E7674
:10148F00616C3D0064322E76616C3D0064342E76C3
:10149F00616C3D0064362E76616C3D0064382E76AB
:1014AF00616C3D0064612E76616C3D0064632E7645
:1014BF00616C3D0064652E76616C3D0065302E7663
:1014CF00616C3D0065322E76616C3D0065342E7681
:1014DF00616C3D0065382E76616C3D00686F6E67FC
:1014EF007761697A756F2E76616C3D00686F6E67F4
:1014FF00776169796F752E76616C3D0076616C311D
:10150F002E7478743D0076616C322E7478743D00C1
:10151F0076616C332E7478743D0076616C342E7462
:10152F0078743D0070616765206D61696E00646954
:10153F00616E7975616E6775616E6C692E74787402
:10154F003D00746F755F64756F6A692E7478743DB2
:10155F000064616E796F756C756E2E7478743D00D2
:10156F007A756F73686F752E7478743D00796F7527
:10157F0073686F752E7478743D00746F755F6C654A
:10158F00642E7478743D007A68756B6F6E672E7475
:10159F0078743D006368616F6B75616E6461692E6D
:1015AF007478743D007A756F6C756E2E7478743D17
:1015BF0000796F756C756E2E7478743D0068626972
:1015CF00616E6D6171697A2E76616C3D006862693A
:1015DF00616F64696E677A2E76616C3D007A62691D
:1015EF00616E6D6171697A2E76616C3D007A626908
:1015FF00616F64696E677A2E76616C3D00796269FE
:10160F00616E6D6171697A2E76616C3D00796269E8
:10161F00616F64696E677A2E76616C3D0068746FD6
:10162F00757869616E6C69752E76616C3D006874B2
:10163F006F757368616E6778772E76616C3D0068A1
:10164F00746F7578696178772E76616C3D00667975
:10165F007869616E6C69752E76616C3D0066797381
:10166F0068616E677869616E772E76616C3D006692
:10167F00797869617869616E772E76616C3D007A51
:10168F00756F7869616E6C69752E76616C3D007A45
:10169F00756F7368616E6778772E76616C3D007A2F
:1016AF00756F78696178772E76616C3D0079736814
:1016BF006F757869616E6C69752E76616C3D007916
:1016CF0073686F757368616E6778772E76616C3D9E
:1016DF0000797368616F7578696178772E76616CC0
:1016EF003D006A69616F64752E76616C3D006972A9
:1016FF00342E76616C3D006972332E76616C3D003D
:10170F006972322E76616C3D006972312E76616C92
:10171F003D00FFFFFF000000000000000000000080
:0F172F00FFFFFFFFFFFF000000000000000000B1
:06270E007BFF7A15793310
:0B2714009000FBEBF0A3EAF0A3E9F05B
:10271F00A3EBF0A3EAF0A3E9F078017C017D017B44
:10272F00FF7A1779217E007F031208A5E4FF90003E
:10273F00FEE0FBA3E0FAA3E0F91208CB600D9000D6
:10274F00FFE475F0011209930F80E39000FBE0FBAB
:10275F00A3E0FAA3E0F9AD071200037F0A7E00128F
:10276F0028DB7B017A0179017D03120003E4FEFF70
:01277F002237
:1020650090010DEEF0A3EFF0A3EBF0A3EAF0A3E9E6
:01207500F07A
:10207600E4A3F0A3F078147C017D017BFF7A177945
:1020860024FE7F061208A590010DE0FEA3E0FFC323
:10209600EE648094805026C3E49FFFE49E90010D79
:1020A600F0A3EFF0A3E0FBA3E475F0011209A9A9E0
:1020B600F0FA742D1208E4900113E004F090010D7B
:1020C600E0FAA3E0FB7C007D0AFFAE0212095DED9B
:1020D6002430FF900112E0FE04F0EEFD3395E0FCA3
:1020E60074142DF58274013CF583EFF07C007D0AB3
:1020F600AF03AE0212095D90010DEEF0A3EFF0D32F
:102106009400EE6480948050B4900112E0FFA3E046
:102116002FF0900112E0FF14F0D3EF64809480401A
:1021260028E0FF3395E0FE74142FF58274013EF526
:1021360083E0FF90010FE0FBA3E475F0011209A90B
:10214600A9F0FAEF1208E480C990010FE0FBA3E0C2
:0D215600FAA3E0F9E41208E4900113E0FFA1
:012163002259
:08224B00FFAEF0FDAC067BFFC5
:102253009000FBEBF0A3EAF0A3E9F0A3ECF0A3ED0D
:01226300F08A
:1022640078007C017D017BFF7A17792A7E007F0547
:102274001208A5E4900105F09000FBE0F9A3E0FA50
:10228400A3E0900106C9F0A3EAF0A3E9F078097C81
:10229400017D017BFF7A17792F7E007F031208A549
:1022A400E490010CF09000FEE0FEA3E0FF7B017AD5
:1022B400017900122065900105EFF0900106E0FB22
:1022C400A3E0FAA3E0F91208CB6012900107E475C9
:1022D400F00112099390010CE004F080DE9000FB01
:1022E400E0FBA3E0FAA3E0F990010CE0FD12000387
:1022F4007B017A017900900105E0FD1200037B0166
:0C2304007A0179097D03120003E4FEFF5A
:0123100022AA
:0B1CC7009000FBEBF0A3EAF0A3E9F0B3
:101CD200900101EBF0A3EAF0A3E9F0A37432F078EB
:101CE200057C017D017BFF7A1779327E007F03122A
:101CF20008A578087C017D017BFF7A1779357E0083
:101D02007F091208A5E4900111F09001087422F0F5
:101D1200A37456F09000FEE0FBA3E0FAA3E0F912F0
:101D220009BFACF0ECD39409E494004025ECFB7CB1
:101D3200007D0AFF7E00120908EF243090010AF0AC
:101D42007C007D0AAF037E00120908ED2430A3F067
:101D5200801C90010A7420F09000FEE0FBA3E0FAE0
:101D6200A3E0F91209BFE5F0243090010BF09001D5
:101D72000C742EF09000FEE0FBA3E0FAA3E0F9124F
:101D820009BF243090010DF0A3742EF090000212CE
:101D920009EAE5F0243090010FF0A37422F09001DB
:101DA20001E0FBA3E0FAA3E0F91208CB6012900174
:101DB20002E475F001120993900111E004F080DE53
:101DC2009000FBE0FBA3E0FAA3E0F9900111E0FD33
:101DD2001200039000FEE0FBA3E0FAA3E0F912096F
:101DE200BF45F070149000021209EA45F0700A7BB8
:101DF200FF7A14797F7D0B80087B017A0179087D57
:101E0200091200037B017A0179057D03120003E4C4
:021E1200FEFFD1
:011E140022AB
:0B0E10009000F7EBF0A3EAF0A3E9F07C
:100E1B00A37432F07B1B7D807F811227F07F1E7EB7
:100E2B00001228DB9000F7E0FBA3E0FAA3E0F990B7
:100E3B0000161209EAE5F0FF7E007C007D0A12081D
:100E4B00F6AC06AD077BFF7A14798B122253900018
:100E5B00F7E0FBA3E0FAA3E0F99000161209EAFF12
:100E6B007E007C007D0A1208F6AC06AD077BFF7A8C
:100E7B001479931222539000F7E0FBA3E0FAA3E05E
:100E8B00F99000181209EAE5F0FF7E007C007D0A5C
:100E9B001208F6AC06AD077BFF7A14799B1222532E
:100EAB009000F7E0FBA3E0FAA3E0F9900018120919
:100EBB00EAFF7E007C007D0A1208F6AC06AD077BCC
:100ECB00FF7A1479A31222539000F7E0FBA3E0FA08
:100EDB00A3E0F990001A1209EAE5F0FF7E007C000E
:100EEB007D0A1208F6AC06AD077BFF7A1479AB12BC
:100EFB0022539000F7E0FBA3E0FAA3E0F990001A6D
:100F0B001209EAFF7E007C007D0A1208F6AC06ADE2
:100F1B00077BFF7A1479B31222539000F7E0FBA3FF
:100F2B00E0FAA3E0F990001C1209EAE5F0FF7E005D
:100F3B007C007D0A1208F6AC06AD077BFF7A1479AC
:100F4B00BB1222539000F7E0FBA3E0FAA3E0F99069
:100F5B00001C1209EAFF7E007C007D0A1208F6AC29
:100F6B0006AD077BFF7A1479C31222539000F7E08A
:100F7B00FBA3E0FAA3E0F990001E1209EAE5F0FFEB
:100F8B007E007C007D0A1208F6AC06AD077BFF7A6B
:100F9B001479CB1222539000F7E0FBA3E0FAA3E005
:100FAB00F990001E1209EAFF7E007C007D0A1208F0
:100FBB00F6AC06AD077BFF7A1479D312225390005F
:100FCB00F7E0FBA3E0FAA3E0F99000201209EAE5B1
:100FDB00F0FF7E007C007D0A1208F6AC06AD077BA5
:100FEB00FF7A1479DB1222539000F7E0FBA3E0FAAF
:100FFB00A3E0F99000201209EAFF7E007C007D0A35
:10100B001208F6AC06AD077BFF7A1479E312225374
:10101B009000F7E0FBA3E0FAA3E0F990002C120993
:10102B00EAE5F025E0FDE433FC7BFF7A1479EB1263
:10103B0022539000F7E0FBA3E0FAA3E0F990002C19
:10104B001209EA25E0FDE433FC7BFF7A1479FB12ED
:10105B0022537B027DCA7F811227F07F1E7E0012F6
:10106B0028DB9000F7E0F9A3E0FAA3E09000FEC9BB
:10107B00F0A3EAF0A3E9F07BFF7A15790B121CC7FA
:10108B007B027DCC7F811227F07F1E7E001228DB36
:10109B009000F7E0F9A3E0FAA3E09000FEC9F0A3FB
:1010AB00EAF0A3E9F07BFF7A157915121CC77B02D6
:1010BB007DCE7F811227F07F1E7E001228DB9000F1
:1010CB00F7E0F9A3E0FAA3E09000FEC9F0A3EAF081
:1010DB00A3E9F07BFF7A15791F121CC77B027DD029
:1010EB007F811227F07F1E7E001228DB9000F7E035
:1010FB00F9A3E0FAA3E09000FEC9F0A3EAF0A3E99C
:10110B00F07BFF7A157929121CC79000FAE0FF14C7
:10111B00F0EF601D9000F7E0FBA3E0FAA3E0F9E429
:10112B00F5F0120A229000F8E475F0021209938090
:10113B00D99000CCE0B4080E12270E9000CC7402AC
:09114B00F07EFF7FFF22E4FEFFAD
:011154002278
:10173E009000F7EBF0A3EAF0A3E9F0758DF7858D35
:10174E008B7F1E7E001228DB7B037D787F051227A0
:10175E00F07F1E7E001228DB9000F7E0F9A3E0FA7E
:10176E00A3E09000FEC9F0A3EAF0A3E9F07BFF7AB4
:10177E0015793D121CC77B037D787F011227F07F00
:10178E001E7E001228DB9000F7E0F9A3E0FAA3E03A
:10179E009000FEC9F0A3EAF0A3E9F07BFF7A157979
:1017AE0051121CC77B037D787F021227F07F1E7EAD
:1017BE00001228DB9000F7E0F9A3E0FAA3E0900016
:1017CE00FEC9F0A3EAF0A3E9F07BFF7A1579601267
:1017DE001CC77B037D787F061227F07F1E7E0012CA
:1017EE0028DB9000F7E0F9A3E0FAA3E09000FEC931
:1017FE00F0A3EAF0A3E9F07BFF7A15796F121CC70C
:10180E007B037D787F071227F07F1E7E001228DB78
:10181E009000F7E0F9A3E0FAA3E09000FEC9F0A370
:10182E00EAF0A3E9F07BFF7A15797C121CC77B03E3
:10183E007D787F031227F07F1E7E001228DB90003A
:10184E00F7E0F9A3E0FAA3E09000FEC9F0A3EAF0F6
:10185E00A3E9F07BFF7A157989121CC7758DFD857A
:10186E008D8B7B037D787F811227F07F1E7E001289
:10187E0028DB9000F7E0F9A3E0FAA3E09000FEC9A0
:10188E00F0A3EAF0A3E9F07BFF7A157996121CC754
:10189E007B037DB17F811227F07F1E7E001228DB35
:1018AE009000F7E0F9A3E0FAA3E09000FEC9F0A3E0
:1018BE00EAF0A3E9F07BFF7A1579A3121CC77B032C
:1018CE007DB47F811227F07F1E7E001228DB9000F0
:1018DE00F7E0F9A3E0FAA3E09000FEC9F0A3EAF066
:1018EE00A3E9F07BFF7A1579B4121CC77B037DB791
:1018FE007F811227F07F1E7E001228DB9000F7E01A
:10190E00F9A3E0FAA3E09000FEC9F0A3EAF0A3E980
:10191E00F07BFF7A1579C0121CC79000CCE0B4089A
:10192E000E12270E9000CC7402F07EFF7FFF22E491
:03193E00FEFF2287
:0B0046009000F7EBF0A3EAF0A3E9F054
:10005100A3740AF07B027D7E7F011227F07F1E7E52
:10006100001228DB9000F7E0FBA3E0FAA3E0F9120D
:1000710009BF7A1579CC12224B7F1E7E001228DB34
:100081009000F7E0FBA3E0FAA3E0F9900002120967
:10009100EA7A1579DC12224B9000F7E0FBA3E0FA33
:1000A100A3E0F9E4F5F0120A229000F7E0FBA3E0E7
:1000B100FAA3E0F9900002E4F5F0120A417B027D17
:1000C1007E7F061227F07F1E7E001228DB9000F74C
:1000D100E0FBA3E0FAA3E0F91209BFFFAEF0FDAC2B
:1000E100067BFF7A1579EC1222537F1E7E001228BF
:1000F100DB9000F7E0FBA3E0FAA3E0F99000021225
:1001010009EAFFAEF0FDAC067BFF7A1579FC1222FD
:10011100539000F7E0FBA3E0FAA3E0F9E4F5F01255
:100121000A229000F7E0FBA3E0FAA3E0F9900002B5
:10013100E4F5F0120A417B027D7E7F071227F07FF2
:100141001E7E001228DB9000F7E0FBA3E0FAA3E09B
:10015100F91209BFFFAEF0FDAC067BFF7A16790CF0
:100161001222537F1E7E001228DB9000F7E0FBA3D2
:10017100E0FAA3E0F99000021209EAFFAEF0FDAC4B
:10018100067BFF7A16791C1222539000F7E0FBA33D
:10019100E0FAA3E0F9E4F5F0120A229000F7E0FB9F
:1001A100A3E0FAA3E0F9900002E4F5F0120A41900D
:1001B10000CCE0640970399000FEF0A3F0FB7D05EE
:1001C1007F011223117F1E7E001228DBE49000FEC6
:1001D100F0A3F0FB7D057F011223117F1E7E00122B
:1001E10028DBE49000FEF0A3F0FBFD7F0112231158
:1001F1009000CCE0B40A139000FAE0FBE49000FE1A
:10020100F0A3F07D017F011223119000CCE0B40B2B
:10021100139000FAE0FBE49000FEF0A3F07D027F72
:10022100011223119000CCE0B40C2A9000FAE0FBFB
:100231009000FEE4F0A374B4F07D037F011223115A
:100241007FD07E071228DBE49000FEF0A3F0FBFDD7
:100251007F011223119000CCE0640D70399000FEF3
:10026100F0A3F0FB7D057F061223117F1E7E001295
:1002710028DBE49000FEF0A3F0FB7D057F0612234E
:10028100117F1E7E001228DBE49000FEF0A3F0FB3C
:10029100FD7F061223119000CCE0B40E10E4900013
:1002A100FEF0A3F07B077D017F061223119000CCA5
:1002B100E0B40F10E49000FEF0A3F07B077D027F15
:1002C100061223119000CCE0B410279000FEE4F058
:1002D100A374B4F07B077D037F061223117FD07EC8
:1002E100071228DBE49000FEF0A3F0FBFD7F06126D
:1002F10023119000CCE0641170399000FEF0A3F05E
:10030100FB7D057F071223117F1E7E001228DBE48F
:100311009000FEF0A3F0FB7D057F071223117F1EE5
:100321007E001228DBE49000FEF0A3F0FBFD7F07C6
:100331001223119000CCE0B41210E49000FEF0A35F
:10034100F07B077D017F071223119000CCE0B413ED
:1003510010E49000FEF0A3F07B077D027F071223DB
:10036100119000CCE0B414279000FEE4F0A374B423
:10037100F07B077D037F071223117FD07E071228B0
:10038100DBE49000FEF0A3F0FBFD7F071223119048
:1003910000CCE0B4150E9000FE7464F0E4FBFD7F28
:1003A100031224BA9000CCE0B4160F9000FE7464DE
:1003B100F07B23E4FD7F031224BA9000CCE0B41754
:1003C1000F9000FE7464F0E4FB7D237F031224BAD6
:1003D1009000CCE0B4180F9000FE7464F07B237D94
:1003E100237F031224BA9000CCE0641A6003020553
:1003F1005EE49000FEF0A3F07B097D017F011223F2
:10040100117F1E7E001228DBE49000FEF0A3F07B3A
:10041100077D017F061223117F1E7E001228DBE477
:100421009000FEF0A3F07B077D017F071223117F6F
:100431001E7E001228DB9000CCE0FF6419700302DD
:1004410004CDEF640870030204CD7FAC7E0D122849
:10045100DB9000CCE0FF64086072EF6419606DE42A
:100461009000FEF0A3F07B097D027F011223117F32
:100471001E7E001228DBE49000FEF0A3F07B077DD6
:10048100027F061223117F1E7E001228DB9000CC12
:10049100E064086037E49000FEF0A3F07B077D0282
:1004A1007F071223117F1E7E001228DB9000CCE013
:1004B100641960187FAC7E0D1228DB9000CCE0FF40
:1004C10064086008EF641960030203F29000FEE41F
:1004D100F0A374B4F07B097D037F011223117F1E09
:1004E1007E001228DB9000FEE4F0A374B4F07B07D9
:1004F1007D037F061223117F1E7E001228DB9000F0
:10050100FEE4F0A374B4F07B077D037F071223118F
:100511007F1E7E001228DB7FD07E071228DBE4904D
:1005210000FEF0A3F0FBFD7F011223117F1E7E0070
:100531001228DBE49000FEF0A3F0FBFD7F061223FE
:10054100117F1E7E001228DBE49000FEF0A3F0FB79
:10055100FD7F071223117F1E7E001228DB9000CC45
:10056100E06408600302060812270E9000CC7402B2
:10057100F09000FEE4F0A374B4F07B097D037F01E9
:100581001223117F1E7E001228DB9000FEE4F0A3EF
:1005910074B4F07B077D037F061223117F1E7E005A
:1005A1001228DB9000FEE4F0A374B4F07B077D0316
:1005B1007F071223117F1E7E001228DB7FD07E076A
:1005C1001228DBE49000FEF0A3F0FBFD7F01122373
:1005D100117F1E7E001228DBE49000FEF0A3F0FBE9
:1005E100FD7F061223117F1E7E001228DBE490009E
:1005F100FEF0A3F0FBFD7F071223117F1E7E001288
:0E06010028DB7EFF7FFF22E49000CCF0FEFF9E
:01060F0022C8
:100A7C009000F7EBF0A3EAF0A3E9F07B017D807F17
:100A8C00011227F07F1E7E001228DB9000F7E0FB9E
:100A9C00A3E0FAA3E0F91209BFFDACF07BFF7A16D4
:100AAC00792C1222537F1E7E001228DB9000F7E077
:100ABC00FBA3E0FAA3E0F9E4F5F0120A227B027D35
:100ACC000B7F011227F07F1E7E001228DB9000F7AF
:100ADC00E0FBA3E0FAA3E0F91209BFFFAEF0FDAC16
:100AEC00067BFF7A16793D1222537F1E7E00122858
:100AFC00DB9000F7E0FBA3E0FAA3E0F99000021210
:100B0C0009EAFFAEF0FDAC067BFF7A16794E122295
:100B1C00539000F7E0FBA3E0FAA3E0F9E4F5F01240
:100B2C000A229000F7E0FBA3E0FAA3E0F9900002A0
:100B3C00E4F5F0120A417B017D807F021227F07FE1
:100B4C001E7E001228DB9000F7E0FBA3E0FAA3E086
:100B5C00F91209BFFDACF07BFF7A16795D122253B6
:100B6C007F1E7E001228DB9000F7E0FBA3E0FAA3C7
:100B7C00E0F9E4F5F0120A227B027D0B7F021227CA
:100B8C00F07F1E7E001228DB9000F7E0FBA3E0FA5A
:100B9C00A3E0F91209BFFFAEF0FDAC067BFF7A169D
:100BAC00796C1222537F1E7E001228DB9000F7E036
:100BBC00FBA3E0FAA3E0F99000021209EAFFAEF001
:100BCC00FDAC067BFF7A16797E1222539000F7E07B
:100BDC00FBA3E0FAA3E0F9E4F5F0120A229000F787
:100BEC00E0FBA3E0FAA3E0F9900002E4F5F0120AAE
:100BFC00417B017D807F061227F07F1E7E0012282C
:100C0C00DB9000F7E0FBA3E0FAA3E0F91209BFFDCB
:100C1C00ACF07BFF7A16798E1222537F1E7E001267
:100C2C0028DB9000F7E0FBA3E0FAA3E0F9E4F5F091
:100C3C00120A227B027D0B7F061227F07F1E7E009C
:100C4C001228DB9000F7E0FBA3E0FAA3E0F912090D
:100C5C00BFFFAEF0FDAC067BFF7A16799E122253D5
:100C6C007F1E7E001228DB9000F7E0FBA3E0FAA3C6
:100C7C00E0F99000021209EAFFAEF0FDAC067BFF32
:100C8C007A1679AE1222539000F7E0FBA3E0FAA398
:100C9C00E0F9E4F5F0120A229000F7E0FBA3E0FA89
:100CAC00A3E0F9900002E4F5F0120A417B017D808B
:100CBC007F071227F07F1E7E001228DB9000F7E0E2
:100CCC00FBA3E0FAA3E0F91209BFFDACF07BFF7ABD
:100CDC001679BC1222537F1E7E001228DB9000F77F
:100CEC00E0FBA3E0FAA3E0F9E4F5F0120A227B02A0
:100CFC007D0B7F071227F07F1E7E001228DB9000F1
:100D0C00F7E0FBA3E0FAA3E0F91209BFFFAEF0FD98
:100D1C00AC067BFF7A1679CE1222537F1E7E001210
:100D2C0028DB9000F7E0FBA3E0FAA3E0F9900002C7
:100D3C001209EAFFAEF0FDAC067BFF7A1679E012E1
:100D4C0022539000F7E0FBA3E0FAA3E0F9E4F5F0FE
:100D5C00120A229000F7E0FBA3E0FAA3E0F990005E
:100D6C0002E4F5F0120A419000CCE0642270787D28
:100D7C00067F011228507F1E7E001228DB7B5A7DD5
:100D8C005A7F011227807F1E7E001228DB7D067F92
:100D9C00021228507F1E7E001228DB7B097D097F02
:100DAC00021227807F1E7E001228DB7D0A7F06122E
:100DBC0028507F1E7E001228DB7B5A7D5A7F06123C
:100DCC0027807F1E7E001228DB7D0A7F07122850A9
:100DDC007F1E7E001228DB7B5A7D5A7F07122780EC
:100DEC007F1E7E001228DB9000CCE0B4080E122788
:100DFC000E9000CC7402F07EFF7FFF22E49000CCBA
:040E0C00F0FEFF22D3
:101B18009000F7EBF0A3EAF0A3E9F09000F7E0FB00
:101B2800A3E0FAA3E0F974F175F0F0120A2290002C
:101B3800CCE024E5B407005066901B4F75F003A471
:101B4800C58325F0C58373021B64021B6B021B71DE
:101B5800021B79021B81021B89021B91E4FBFD7F9A
:101B6800808039E4FBFDFF80337B287D287F01805E
:101B78002B7B287D287F0280237B19E4FD7F04804E
:101B88001BE4FB7D197F038013E4FBFD7F05122412
:101B9800357F1E7E001228DBE4FBFDFF1224359002
:101BA80000CCE06408702412270E9000CC7402F078
:101BB800E4FBFD7F051224357F1E7E001228DBE43E
:101BC800FBFDFF1224357EFF7FFF227F0A7E001275
:101BD80028DB7B017D887F811227F07F1E7E001223
:101BE80028DB9000F7E0FBA3E0FAA3E0F91209BFB5
:101BF800FDACF0E412071B7B0A7AD77923783C12F4
:101C08000610120754AD07AC067BFF7A1679F1125D
:101C180022537F0A7E001228DB7B027D977F811288
:101C280027F07F1E7E001228DB9000F7E0FBA3E080
:101C3800FAA3E0F91209BFE5F0FD7C0064F1607BCE
:101C48007BFF7A1679FD1222537F0A7E001228DB69
:101C58009000F7E0FBA3E0FAA3E0F91209BF7C00CB
:101C6800FD7BFF7A1779061222537F0A7E0012281D
:101C7800DB9000F7E0FBA3E0FAA3E0F99000021282
:101C880009EAE5F0FD7C007BFF7A17790F122253F1
:101C98007F0A7E001228DB9000F7E0FBA3E0FAA39E
:101CA800E0F99000021209EA7C00FD7BFF7A1779BF
:0F1CB800181222537F0A7E001228DBE4FEFF225F
:1021640070616765206D61696E00706167652075D7
:102174006C747261736F6E6963007061676520725D
:102184006F626F7420636F6E74726F6C007061673E
:10219400652076657273696F6E007061676520688B
:1021A40065616420636F6E74726C00706167652092
:1021B40064756F6A697869616E7A686900AA55CC3A
:1021C4000000000000000000AA55CC000000000040
:1021D40000000000000000000000000000000000FB
:1021E400000000000000AA55CC0000000000000020
:1021F40000000000000000000000000000000000DB
:1022040000000000AA55CC000000000000000000FF
:1022140000000000000000000000000000000000BA
:102224000000AA55CC0000000000000000000000DF
:10223400000000AA55CC00000000000000000000CF
:072244000000000000000093
:101F48004100CC004500E800000000004100D1003D
:101F5800606400670000000000000000000000004E
:101F68000000000000000000000000000000000069
:101F78000000000000000000000000000000000059
:101F88000000000000000000000000000000000049
:101F98000000000000000000000000000000000039
:101FA8000000000000000000000000000000000029
:101FB8000000000000000000410000004100660031
:101FC800410065004100CB005400D3000000000030
:101FD80000000000000000000000000000000041B8
:101FE80000CD004100D2004100D0004100E7006070
:101FF8006400010000000000000000000000000074
:1020080000000000000000000000000000000000C8
:1020180000000000000000000000000000000000B8
:1020280000000000000000000000000000000000A8
:102038000000000000000000000000000000000098
:102048000000000000000000000000000000000088
:0C205800000000000000004200CE00006C
:0B28EF000000007F0B7EBEDEFEDFFC61
:0128FA0022BB
:1028DB00AD07AC06ED1DAE0470011C4E6005122851
:0428EB00EF80F12267
:0428FB0075C760221B
:0525320090010AEDF02C
:1025370074FFA3F0A3F0ED700590010A04F0900179
:102547000AE0FF14F0EF60511208CBFF90010BE097
:10255700F0A3E06FF0E4FD90010CE090010B30E098
:1025670022E0C313FEA3E013FF90010BEEF0A3EFED
:10257700F0EE64A0FEEF6401FF90010BEEF0A3EF15
:10258700F08008E0C313F0A3E013F00DEDB408C723
:10259700740129F9E43AFA80A590010BE0FEA3E063
:0125A700FF34
:0125A8002210
:0525A9009000EFEDF0D1
:1025AE0074FFA3F0A3F0ED70059000EF04F090001F
:1025BE00EFE0FF14F0EF60511208CBFF9000F0E057
:1025CE00F0A3E06FF0E4FD9000F1E09000F030E059
:1025DE0022E0C313FEA3E013FF9000F0EEF0A3EF92
:1025EE00F0EE64A0FEEF6401FF9000F0EEF0A3EFBA
:1025FE00F08008E0C313F0A3E013F00DEDB408C7AC
:10260E00740129F9E43AFA80A59000F0E0FEA3E007
:01261E00FFBC
:01261F002298
:0526200090011EEDF029
:1026250074FFA3F0A3F0ED700590011E04F0900176
:102635001EE0FF14F0EF60511208CBFF90011FE080
:10264500F0A3E06FF0E4FD900120E090011F30E081
:1026550022E0C313FEA3E013FF90011FEEF0A3EFEA
:10266500F0EE64A0FEEF6401FF90011FEEF0A3EF12
:10267500F08008E0C313F0A3E013F00DEDB408C734
:10268500740129F9E43AFA80A590011FE0FEA3E060
:01269500FF45
:012696002221
:052697009000F4EDF0DD
:10269C0074FFA3F0A3F0ED70059000F404F090002B
:1026AC00F4E0FF14F0EF60511208CBFF9000F5E05E
:1026BC00F0A3E06FF0E4FD9000F6E09000F530E060
:1026CC0022E0C313FEA3E013FF9000F5EEF0A3EF9E
:1026DC00F0EE64A0FEEF6401FF9000F5EEF0A3EFC6
:1026EC00F08008E0C313F0A3E013F00DEDB408C7BD
:1026FC00740129F9E43AFA80A59000F5E0FEA3E014
:01270C00FFCD
:01270D0022A9
:0B27F0009000FBEFF0A3EDF0A3EBF076
:1027FB00E4A3F078FF7C007D017BFF7A2179C1FE99
:10280B007F0B1208A59000FBE0900102F0A374036C
:10281B00F0E4A3F09000FCE0900105F0E4A3F0904D
:10282B0000FDE0900107F07B017A0179027D061231
:10283B002532AC06EF900108F0EEA3F07A0079FF99
:05284B007D0B020026D8
:0B2311009000FBEFF0A3EDF0A3EBF059
:10231C0078007C017D017BFF7A2179CC7E007F1EC9
:10232C001208A59000FBE0900103F0A37410F0E4F8
:10233C00A3F0A3F0A3F0A37407F0A3740EF0E4A32E
:10234C00F09000FCE090010BF0E4A3F09000FDE0B5
:10235C0090010DF09000FEE0FCA3E0FDEC90010E6E
:10236C00F0EDA3F0A37412F0A3740CF0E4A3F0A3AB
:10237C007446F0E4A3F0A37407F0E4A3F0A3F07B9D
:10238C00017A0179037D15122620AC06EF90011815
:0D239C00F0EEA3F07A0179007D1A02002610
:0B2780009000FAEFF0A3EDF0A3EBF0E7
:10278B0078FD7C007D017BFF7A2179EA7E007F1E3C
:10279B001208A59000FAE0900100F0A37410F0E489
:1027AB00A3F0A3740BF0E4A3F0A37402F0A37404DE
:1027BB00F0E4A3F09000FBE0900108F0E4A3F090AC
:1027CB0000FCE090010AF07B017A0179007D0B128D
:1027DB002620AC06EF90010BF0EEA3F07A0079FD0A
:0527EB007D1002002634
:082850009000FAEFF0A3EDF097
:1028580078FC7C007D017BFF7A2279087E007F1E50
:102868001208A59000FAE09000FFF0A37410F0E4BD
:10287800A3F0A37407F0E4A3F0A304F0A304F0E426
:10288800A3F09000FBE0900107F07B017A0079FF4C
:102898007D09122620AC06EF900108F0EEA3F07A2D
:0828A8000079FC7D0E02002600
:0B24BA009000FBEFF0A3EDF0A3EBF0AF
:1024C50078FF7C007D017BFF7A2279267E007F11D3
:1024D5001208A59000FBE0900102F0A37410F0E44F
:1024E500A3F0A3F0A3F0A37403F0A37406F0E4A390
:1024F500F09000FCE090010AF0E4A3F09000FDE00C
:1025050090010CF0E4A3F09000FEE090010EF07B4A
:10251500017A0179027D0D122620AC06EF90010F9C
:0D252500F0EEA3F07A0079FF7D120200268F
:0B2435009000FAEFF0A3EDF0A3EBF035
:1024400078FD7C007D017BFF7A2279377E007F1446
:102450001208A59001007481F0A37410F0E4A3F0B9
:10246000A3F0A3F0A37404F0A37408F0E4A3F09025
:1024700000FAE0900108F09000FBE0900109F09074
:1024800000FCE090010AF0A37405F0A3740AF0A325
:102490007405F0A3740AF0E4A3F0A3F07B017A01C1
:1024A00079007D0F122620AC06EF90010FF0EEA30D
:0A24B000F07A0079FD7D1402002689
:101E15001228B01228C67BFF7A2179641227149004
:101E250000CCE0B403297BFF7A21796E1227147563
:101E35008DFD858D8B7B017A007901120E10C3EE25
:101E45006480948040097F327E001228DB80E69012
:101E550000CCE0B404297BFF7A21797E1227147522
:101E65008DFD858D8B7B017A007901121B18C3EEE0
:101E75006480948040097FFA7E001228DB80E6901A
:101E850000CCE0B406237BFF7A2179911227147BDD
:101E9500017A00790112173EC3EE648094804009EF
:101EA5007FFA7E001228DB80E69000CCE0640570A6
:101EB500617BFF7A21799E122714758DF7858D8BAD
:101EC500E49000FEF0A3F0FBFD7F011223117F1EBD
:101ED5007E001228DBE49000FEF0A3F0FBFD7F06F8
:101EE5001223117F1E7E001228DBE49000FEF0A372
:101EF500F0FBFD7F071223117B017A0079011200A7
:101F050046C3EE6480948040097F0A7E001228DB78
:101F150080E69000CCE0B407207BFF7A2179AF12F0
:101F25002714758DF7858D8B7B017A007901120A4F
:101F35007CC3EE6480948050EF7F017E001228DB25
:031F4500021E2455
:030023000219417E
:10194100C0E0C083C082C0D075D000C001C002C059
:0919510003C004C005C006C00774
:10195A00209803021B01C2989000CBE0FF2467F590
:10196A0082E43400F583E599F0900000E0706FEFAF
:10197A0070139000CBE02467F582E43400F583E02D
:10198A00B4AA0280159000CBE0FFB401122467F5D7
:10199A0082E43400F583E0B4AA059000CB80359048
:1019AA0000CBE0FFB401152467F582E43400F58327
:1019BA00E0B455089000CB7402F080229000CBE08E
:1019CA00FFB402152467F582E43400F583E0B4CC51
:1019DA00089000007401F080059000CBE4F09000BC
:1019EA0000E064016003021B01900066E06401608C
:1019FA0003021AE4900065E0C39446401490000084
:101A0A00E4F0900066F09000CBF0900065F0021BC5
:101A1A0001900065E014F0E06003021AE47B017AA9
:101A2A0000796A90006CE02403FD1225A9AD07AC89
:101A3A000690006CE0FB246EF582E43400F583E046
:101A4A00FE746D2BF582E43400F583E0FBEBFF6D49
:101A5A007002EC6E70509000EDF090006CE0C313D1
:101A6A00FF9000EDE0FDC39F503CA3E0FC246DF520
:101A7A0082E43400F583E0FE746E2CF582E43400CF
:101A8A00F583E0FBEBFFED25E02401F582E4340069
:101A9A00F583EEF0A3EFF09000EEE02402F0900060
:101AAA00EDE004F080B4900001E0B41112A3E0B4B8
:101ABA00220DA3E0B43308A3E0B444031228FB9038
:101ACA000000E4F0900066F09000CBF0900065F022
:101ADA009000EEF09000EDF0801D9000CBE0B40590
:101AEA00109000667401F090006CE024029000658A
:071AFA00F09000CBE004F0C6
:101B0100D007D006D005D004D003D002D001D0D068
:071B1100D082D083D0E03246
:0300430002115552
:0B115500C0E0C083C082C0D075D0088D
:10116000E59A20E003021476539AFE9000E7E0FF30
:1011700024D3F582E43400F583E59BF09000CDE0C4
:10118000706FEF70139000E7E024D3F582E4340031
:10119000F583E0B4AA0280159000E7E0FFB40112E5
:1011A00024D3F582E43400F583E0B4AA059000E787
:1011B00080359000E7E0FFB4011524D3F582E434D4
:1011C00000F583E0B455089000E77402F0802290A7
:1011D00000E7E0FFB4021524D3F582E43400F58380
:1011E000E0B4CC089000CD7401F080059000E7E4F5
:1011F000F09000CDE0640160030214769000D2E02C
:10120000640160030214599000D0E0C39446401179
:101210009000CDE4F09000D2F09000E7F09000D084
:10122000F09000D0E014F0E060030214597B017AE2
:101230000079D69000D8E02403FD122697AD0FACBC
:101240000E9000D8E0FB24DAF582E43400F583E068
:10125000FE74D92BF582E43400F583E0FBEB6D706E
:1012600002EC6E70509000F2F09000D8E0C313FFD3
:101270009000F2E0FDC39F503CA3E0FC24D9F5822E
:10128000E43400F583E0FE74DA2CF582E43400F5F2
:1012900083E0FBEBFFED25E024CEF582E43400F59E
:1012A00083EEF0A3EFF09000F3E02402F09000F260
:1012B000E004F080B49000CDE4F09000D2F0900013
:1012C000E7F09000D0F09000F3F09000F2F0900082
:1012D000CEE0FEA3E0FF4E70069000CC7404F0EF69
:1012E00064014E70069000CC7403F0EF64024E70FF
:1012F000069000CC7405F0EF64034E70069000CCAD
:101300007406F0EF64044E70069000CC7407F0EFA2
:1013100064BC4E70069000CC7408F0E4B50F0AEE81
:10132000B403069000CC7409F0BE0309BF01069017
:1013300000CC740AF0BE0309BF02069000CC740C06
:10134000F0BE0309BF03069000CC740BF0BE030986
:10135000BF1A069000CC740DF0BE0309BF100690B2
:1013600000CC740EF0BE0309BF12069000CC7410BE
:10137000F0BE0309BF1B069000CC740FF0BE03093A
:10138000BF20069000CC7411F0BE0309BF21069067
:1013900000CC7412F0BE0309BF22069000CC741476
:1013A000F0BE0309BF23069000CC7413F0BE0309FE
:1013B000BFAA069000CC7415F0BE0309BFBB06900F
:1013C00000CC7416F0BE0309BFCC069000CC741795
:1013D000F0BE0309BFDD069000CC7418F0BE03090F
:1013E000BF34069000CC7419F0BE0309BF350690D7
:1013F00000CC741AF0E4B50F0AEEB4C1069000CC2C
:10140000741CF0BEC109BF01069000CC741BF0BE75
:10141000D109BFD1069000CC741DF0BED209BFD255
:10142000069000CC741EF0BED309BFD3069000CC4A
:10143000741FF0BED409BFD4069000CC7420F0BE57
:10144000D009BFD0069000CC7421F0BE0428BF01A3
:10145000259000CC7422F0801D9000E7E0B40510C8
:101460009000D27401F09000D8E024029000D0F0F7
:061470009000E7E004F02B
:09147600D0D0D082D083D0E03246
:10061000EC4D6011E8497017ED33EC3304600DE4E4
:10062000FCFFFEFD22E933E8330470F80207C01234
:10063000078B58046009E4CC248150062850090235
:1006400007CA2840030207C7C0E0EB4A7044B980DC
:1006500006D0E0FB0207B6EF4E701CBD8008EBFF32
:10066000EAFEE9FD80EBE98DF0A4FEE5F00206F973
:10067000E9CDF9EAFEEBFFEF89F0A4FCE5F0CE89C5
:10068000F0A42EFFE435F0CD89F0A42DFEE435F082
:100690008067EF4E7005BD80D780C3EF8BF0A4ACB0
:1006A000F0EE8BF0A42CFCE435F0F8EF8AF0A42CEB
:1006B000E5F038FCE433CB8DF0A42CFCE5F03BF8FE
:1006C000EE8AF0A42CFCE5F038F8E433CF89F0A4EE
:1006D0002CFCE5F038CF3400CE89F0A42FFFE5F0F4
:1006E0003EFEE433C98DF0A42EFEE5F039CD8AF04C
:1006F000A42FFFE5F03EFEE43DFD33D0E0FB5007C4
:100700000BBB000F0207CAEC2CFCEF33FFEE33FEED
:06071000ED33FD0207A21B
:1007160075F020800E75F010800575F0087D007E5E
:10072600007F003392D530D503120A6EEC334010A9
:10073600EF33FFEE33FEED33FDEC33FCD5F0ED2267
:0E074600E5F0247EA2D513CC92E7CDCEFF22A3
:10075400EDD2E7CD33EC3392D524814006E4FFFE9D
:10076400FDFC22FCE4CFCECDCC24E0501174FF80FC
:10077400EDC3CC13CCCD13CDCE13CECF13CF047099
:07078400F030D5DE020A6E21
:10078B00E9D2E7C933E833F892D5EDD2E7CD33ECB4
:07079B0033FC5002B2D5222D
:1007A200EC30E7100FBF000C0EBE00080DBD0004B8
:1007B2000BEB6014A2D5EB13FCED92E7FD2274FF64
:1007C200FCFDFEFF22E480F8A2D574FF13FC7D80BD
:0307D200E480EFD1
:030000000223A92F
:0C23A900787FE4F6D8FD75810F0223F068
:1007D500E709F608DFFA8046E709F208DFFA803E06
:1007E50088828C83E709F0A3DFFA8032E309F608F3
:1007F500DFFA8078E309F208DFFA807088828C835B
:10080500E309F0A3DFFA806489828A83E0A3F6080E
:10081500DFFA805889828A83E0A3F208DFFA804CE8
:1008250080D280FA80C680D4806980F280338010BF
:1008350080A680EA809A80A880DA80E280CA803328
:1008450089828A83ECFAE493A3C8C582C8CCC583A0
:10085500CCF0A3C8C582C8CCC583CCDFE9DEE78070
:100865000D89828A83E493A3F608DFF9ECFAA9F0EF
:10087500EDFB2289828A83ECFAE0A3C8C582C8CC45
:10088500C583CCF0A3C8C582C8CCC583CCDFEADE5E
:10089500E880DB89828A83E493A3F208DFF980CCC0
:1008A50088F0EF60010E4E60C388F0ED2402B404B9
:1008B5000050B9F582EB2402B4040050AF23234560
:0608C50082239008257358
:1008CB00BB010689828A83E0225002E722BBFE022B
:0908DB00E32289828A83E493225E
:1008E400BB010689828A83F0225002F722BBFE01F3
:0208F400F322ED
:1008F600EF8DF0A4A8F0CF8CF0A428CE8DF0A42E16
:02090600FE22CF
:10090800BC000BBE0029EF8DF084FFADF022E4CCD3
:10091800F875F008EF2FFFEE33FEEC33FCEE9DEC9C
:10092800984005FCEE9DFE0FD5F0E9E4CEFD22EDE2
:10093800F8F5F0EE8420D21CFEADF075F008EF2F2C
:10094800FFED33FD4007985006D5F0F222C398FD1D
:050958000FD5F0EA22BA
:10095D00C2D5EC30E709B2D5E4C39DFDE49CFCEEB5
:10096D0030E715B2D5E4C39FFFE49EFE120908C31C
:10097D00E49DFDE49CFC800312090830D507C3E417
:06098D009FFFE49EFE2224
:10099300C5F0F8A3E028F0C5F0F8E58215827002EF
:0609A3001583E038F0228C
:1009A900A3F8E0C5F025F0F0E58215827002158301
:0609B900E0C838F0E8225E
:1009BF00BB010A89828A83E0F5F0A3E02250068703
:1009CF00F009E71922BBFE07E3F5F009E3192289C5
:0B09DF00828A83E493F5F074019322F8
:1009EA00BB0110E58229F582E5833AF583E0F5F04B
:1009FA00A3E0225009E92582F886F008E622BBFE28
:100A0A000AE92582F8E2F5F008E222E5832AF5836D
:080A1A00E993F5F0A3E9932232
:100A2200BB010A89828A83F0E5F0A3F0225006F71F
:0F0A320009A7F01922BBFE06F3E5F009F319221C
:100A4100F8BB0111E58229F582E5833AF583E8F0E7
:100A5100E5F0A3F0225009E92582C8F608A6F022A4
:0D0A6100BBFE09E92582C8F2E5F008F2228B
:0E0A6E00C3E49FFFE49EFEE49DFDE49CFC2299
:1023B500021E15E493A3F8E493A34003F68001F20B
:1023C50008DFF48029E493A3F85407240CC8C33329
:1023D500C4540F4420C8834004F456800146F6DFF8
:1023E500E4800B0102040810204080901F48E47E21
:1023F500019360BCA3FF543F30E509541FFEE493ED
:10240500A360010ECF54C025E060A840B8E493A3B3
:10241500FAE493A3F8E493A3C8C582C8CAC583CADE
:10242500F0A3C8C582C8CAC583CADFE9DEE780BE96
:01206400007B
:00000001FF
