:10002600AF051DEF60131203ACF5993099FDC29927
:0A003600740129F9E43AFA80E72288
:10000300AF051DEF60161203ACF59BE59A30E1FBDB
:0D001300539AFD740129F9E43AFA80E422C1
:10129000759850758920438E40758DFD858D8BD254
:0612A000AFD2ACD28E2299
:0F12A600759A50759CDCD2AF438E1475AF012240
:100C6500226E6F20646576696365220064302E7696
:100C7500616C3D0064322E76616C3D0064342E76E5
:100C8500616C3D0064362E76616C3D0064382E76CD
:100C9500616C3D0064612E76616C3D0064632E7667
:100CA500616C3D0064652E76616C3D0065302E7685
:100CB500616C3D0065322E76616C3D0065342E76A3
:100CC500616C3D0065382E76616C3D00686F6E671E
:100CD5007761697A756F2E76616C3D00686F6E6716
:100CE500776169796F752E76616C3D007061676516
:100CF500206D61696E006469616E7975616E6775F5
:100D0500616E6C692E7478743D00746F755F6475DF
:100D15006F6A692E7478743D007A756F73686F75A4
:100D25002E7478743D00796F7573686F752E7478BD
:100D3500743D00746F755F6C65642E7478743D0046
:100D4500626962755F6C65642E7478743D00FFFF9F
:100D5500FF0000000000000000000000FFFFFFFF93
:0A0D6500FFFF000000000000000086
:061193007BFF7A0C79F1EC
:0B1199009000FBEBF0A3EAF0A3E9F0EC
:1011A400A3EBF0A3EAF0A3E9F078017C017D017BD5
:1011B400FF7A0D79537E007F03120386E4FF9000CB
:1011C400FEE0FBA3E0FAA3E0F91203AC600D90008B
:1011D400FFE475F00112041F0F80E39000FBE0FBB5
:1011E400A3E0FAA3E0F9AD071200037B017A0179C9
:0911F400017D03120003E4FEFF7B
:0111FD0022CF
:100D6F0090010DEEF0A3EFF0A3EBF0A3EAF0A3E9EF
:010D7F00F083
:100D8000E4A3F0A3F078147C017D017BFF7A0D7958
:100D900056FE7F0612038690010DE0FEA3E0FFC31E
:100DA000EE648094805026C3E49FFFE49E90010D82
:100DB000F0A3EFF0A3E0FBA3E475F001120435A962
:100DC000F0FA742D1203C5900113E004F090010DA8
:100DD000E0FAA3E0FB7C007D0AFFAE021203E9ED1E
:100DE0002430FF900112E0FE04F0EEFD3395E0FCAC
:100DF00074142DF58274013CF583EFF07C007D0ABC
:100E0000AF03AE021203E990010DEEF0A3EFF0D3B1
:100E10009400EE6480948050B4900112E0FFA3E04F
:100E20002FF0900112E0FF14F0D3EF648094804023
:100E300028E0FF3395E0FE74142FF58274013EF52F
:100E400083E0FF90010FE0FBA3E475F0011204358D
:100E5000A9F0FAEF1203C580C990010FE0FBA3E0EF
:0D0E6000FAA3E0F9E41203C5900113E0FFCE
:010E6D002262
:060E6E00AC06AD077BFF9E
:100E74009000FBEBF0A3EAF0A3E9F0A3ECF0A3ED00
:010E8400F07D
:100E850078007C017D017BFF7A0D795C7E007F0512
:100E9500120386E4900105F09000FBE0F9A3E0FA67
:100EA500A3E0900106C9F0A3EAF0A3E9F078097C74
:100EB500017D017BFF7A0D79617E007F0312038638
:100EC500E490010CF09000FEE0FEA3E0FF7B017AC8
:100ED500017900120D6F900105EFF0900106E0FB1E
:100EE500A3E0FAA3E0F91203AC6012900107E475E0
:100EF500F00112041F90010CE004F080DE9000FB6D
:100F0500E0FBA3E0FAA3E0F990010CE0FD12000379
:100F15007B017A017900900105E0FD1200037B0158
:0C0F25007A0179097D03120003E4FEFF4D
:010F3100229D
:0B0A1F009000FAEBF0A3EAF0A3E9F06E
:100A2A009000FAE0F9A3E0FAA3E0900100C9F0A36C
:100A3A00EAF0A3E9F0A37432F078047C017D017B2B
:100A4A00FF7A0D79647E007F0312038678077C01A2
:100A5A007D017BFF7A0D79677E007F08120386E4A9
:100A6A00FD9001077422F0A37456F09000FDE0FB9C
:100A7A00A3E0FAA3E0F912044BFBAAF0EA243090AF
:100A8A000109F0A3742EF0AF03EF2430A3F0A3748E
:100A9A002EF09000FDE0FBA3E0FA9000021204762B
:100AAA00E5F0243090010DF0A37422F0900100E0EB
:100ABA00FBA3E0FAA3E0F91203AC600D900101E494
:100ACA0075F00112041F0D80E39000FAE0FBA3E029
:100ADA00FAA3E0F91200039000FDE0FBA3E0FAA3F9
:100AEA00E0F912044B45F0701490000212047645A6
:100AFA00F0700A7BFF7A0C79657D0B80087B017A9E
:100B0A000179077D081200037B017A0179047D03CC
:100B1A00120003900103E0FF14F0EF601D9000FD46
:100B2A00E0FBA3E0FAA3E0F9E4F5F01204AE9000CA
:0D0B3A00FEE475F00212041F80D9E4FEFFF6
:010B4700228B
:0B0046009000F7EBF0A3EAF0A3E9F054
:10005100A37432F09000F7E0FBA3E0FAA3E0F9907B
:100061000016120476E5F0FF7E007C007D0A120383
:10007100D77A0C7971120E6E9000F7E0FBA3E0FACB
:10008100A3E0F9900016120476FF7E007C007D0A41
:100091001203D77A0C7979120E6E9000F7E0FBA368
:1000A100E0FAA3E0F9900018120476E5F0FF7E0073
:1000B1007C007D0A1203D7AC06AD077BFF7A0C7971
:1000C10081120E749000F7E0FBA3E0FAA3E0F9902F
:1000D1000018120476FF7E007C007D0A1203D7AC63
:1000E10006AD077BFF7A0C7989120E749000F7E058
:1000F100FBA3E0FAA3E0F990001A120476E5F0FF01
:100101007E007C007D0A1203D7AC06AD077BFF7A27
:100111000C7991120E749000F7E0FBA3E0FAA3E0D2
:10012100F990001A120476FF7E007C007D0A12030A
:10013100D7AC06AD077BFF7A0C7999120E7490004B
:10014100F7E0FBA3E0FAA3E0F990001C120476E5C6
:10015100F0FF7E007C007D0A1203D7AC06AD077B61
:10016100FF7A0C79A1120E749000F7E0FBA3E0FA7C
:10017100A3E0F990001C120476FF7E007C007D0A4A
:100181001203D7AC06AD077BFF7A0C79A9120E7466
:100191009000F7E0FBA3E0FAA3E0F990001E12043F
:1001A10076E5F0FF7E007C007D0A1203D7AC06AD38
:1001B100077BFF7A0C79B1120E749000F7E0FBA374
:1001C100E0FAA3E0F990001E120476FF7E007C00A5
:1001D1007D0A1203D7AC06AD077BFF7A0C79B91201
:1001E1000E749000F7E0FBA3E0FAA3E0F990002081
:1001F100120476E5F0FF7E007C007D0A1203D7AC85
:1002010006AD077BFF7A0C79C1120E749000F7E0FE
:10021100FBA3E0FAA3E0F9900020120476FF7E0030
:100221007C007D0A1203D7AC06AD077BFF7A0C79FF
:10023100C9120E749000F7E0FBA3E0FAA3E0F99075
:10024100002C120476E5F025E0FDE433FC7BFF7A17
:100251000C79D1120E749000F7E0FBA3E0FAA3E051
:10026100F990002C12047625E0FDE433FC7BFF7A43
:100271000C79E1120E749000FAE0FF14F0EF601DAA
:100281009000F7E0FBA3E0FAA3E0F9E4F5F0120433
:10029100AE9000F8E475F00212041F80D99000CCF2
:1002A100E0B4050D121193E49000CCF07EFF7FFFC6
:0402B10022E4FEFF46
:0102B5002226
:1008F4009000F7EBF0A3EAF0A3E9F07B037D787FA7
:10090400051211FE7F1E1212B59000F7E0F9A3E064
:10091400FAA3E09000FDC9F0A3EAF0A3E9F07BFF9D
:100924007A0C79FB120A1F7B037D787F011211FE7A
:100934007F1E1212B59000F7E0F9A3E0FAA3E0904D
:1009440000FDC9F0A3EAF0A3E9F07BFF7A0D790F6B
:10095400120A1F7B037D787F061211FE7F1E12127E
:10096400B59000F7E0F9A3E0FAA3E09000FDC9F028
:10097400A3EAF0A3E9F07BFF7A0D791E120A1F7B2C
:10098400037D787F071211FE7F1E1212B59000F7C7
:10099400E0F9A3E0FAA3E09000FDC9F0A3EAF0A314
:1009A400E9F07BFF7A0D792B120A1F7B037D787F98
:1009B400031211FE7F1E1212B59000F7E0F9A3E0B6
:1009C400FAA3E09000FDC9F0A3EAF0A3E9F07BFFED
:1009D4007A0D7938120A1F7B037D787F041211FE89
:1009E4007F1E1212B59000F7E0F9A3E0FAA3E0909D
:1009F40000FDC9F0A3EAF0A3E9F07BFF7A0D794585
:100A0400120A1F9000CCE0B4050D121193E490007B
:0B0A1400CCF07EFF7FFF22E4FEFF22FB
:10125E0070616765206D61696E00706167652075EC
:10126E006C747261736F6E6963007061676520766E
:10127E00657273696F6E00AA55CC00000000000005
:02128E0000005E
:100B48004100CC004500E800000000004100D10051
:100B58006064006700000000000000000000000062
:100B6800000000000000000000000000000000007D
:100B7800000000000000000000000000000000006D
:100B8800000000000000000000000000000000005D
:100B9800000000000000000000000000000000004D
:100BA800000000000000000000000000000000003D
:100BB8000000000000000000410000004100660045
:100BC800410065004100CB005400D3000000000044
:100BD80000000000000000000000000000000041CC
:100BE80000CD004100D2004100D0004100E7006084
:100BF8006400010000000000000000000000000088
:100C080000000000000000000000000000000000DC
:100C180000000000000000000000000000000000CC
:100C280000000000000000000000000000000000BC
:100C380000000000000000000000000000000000AC
:100C4800000000000000000000000000000000009C
:0C0C5800000000000000004200CE000080
:0B12C3000000007F0B7EBEDEFEDFFCA3
:0112CE0022FD
:0E12B500AD07AF051DEF60051212C380F522D4
:0412CF0075C760225D
:050FBE00900109EDF0B7
:100FC30074FFA3F0A3F0ED700590010904F0900104
:100FD30009E0FF14F0EF60511203ACFF90010AE047
:100FE300F0A3E06FF0E4FD90010BE090010A30E024
:100FF30022E0C313FEA3E013FF90010AEEF0A3EF78
:10100300F0EE64A0FEEF6401FF90010AEEF0A3EF9F
:10101300F08008E0C313F0A3E013F00DEDB408C7AC
:10102300740129F9E43AFA80A590010AE0FEA3E0ED
:01103300FFBD
:011034002299
:051035009000EFEDF05A
:10103A0074FFA3F0A3F0ED70059000EF04F09000A8
:10104A00EFE0FF14F0EF60511203ACFF9000F0E004
:10105A00F0A3E06FF0E4FD9000F1E09000F030E0E2
:10106A0022E0C313FEA3E013FF9000F0EEF0A3EF1B
:10107A00F0EE64A0FEEF6401FF9000F0EEF0A3EF43
:10108A00F08008E0C313F0A3E013F00DEDB408C735
:10109A00740129F9E43AFA80A59000F0E0FEA3E091
:0110AA00FF46
:0110AB002222
:0510AC009000F4EDF0DE
:1010B10074FFA3F0A3F0ED70059000F404F090002C
:1010C100F4E0FF14F0EF60511203ACFF9000F5E083
:1010D100F0A3E06FF0E4FD9000F6E09000F530E061
:1010E10022E0C313FEA3E013FF9000F5EEF0A3EF9F
:1010F100F0EE64A0FEEF6401FF9000F5EEF0A3EFC7
:10110100F08008E0C313F0A3E013F00DEDB408C7BD
:10111100740129F9E43AFA80A59000F5E0FEA3E014
:01112100FFCE
:0111220022AA
:0B11FE009000FAEFF0A3EDF0A3EBF07F
:10120900E4A3F078FE7C007D017BFF7A127985FEEC
:101219007F0B1203869000FAE0900101F0A374039A
:10122900F0E4A3F09000FBE0900104F0E4A3F09057
:1012390000FCE0900106F07B017A0179017D06123C
:101249000FBEAC06EF900107F0EEA3F07A0079FE2D
:051259007D0B020026E0
:101123001212901212A67BFF7A12795E1211999015
:1011330000CCE06401702A7BFF7A1279681211995E
:101143007B1B7D807F811211FE7B017A0079011266
:101153000046C3EE6480948040077FE81212B58096
:10116300DF9000CCE0B404217BFF7A12797812116E
:10117300997B017A0079011208F4C3EE64809480AC
:1011830040077FE81212B580E87F641212B5809F92
:0300230002071DB4
:10071D00C0E0C083C082C0D075D000C001C002C08F
:09072D0003C004C005C006C007AA
:100736002098030208DDC2989000CBE0FF2467F5FD
:1007460082E43400F583E599F0900000E0706FEFE5
:1007560070139000CBE02467F582E43400F583E063
:10076600B4AA0280159000CBE0FFB401122467F50D
:1007760082E43400F583E0B4AA059000CB8035907E
:1007860000CBE0FFB401152467F582E43400F5835D
:10079600E0B455089000CB7402F080229000CBE0C4
:1007A600FFB402152467F582E43400F583E0B4CC87
:1007B600089000007401F080059000CBE4F09000F2
:1007C60000E0640160030208DD900066E0640160F9
:1007D600030208C0900065E0C394464014900000F0
:1007E600E4F0900066F09000CBF0900065F002080F
:1007F600DD900065E014F0E060030208C07B017A3A
:1008060000796A90006CE02403FD121035AD07AC48
:100816000690006CE0FB246EF582E43400F583E07C
:10082600FE746D2BF582E43400F583E0FBEBFF6D7F
:100836007002EC6E70509000EDF090006CE0C31307
:10084600FF9000EDE0FDC39F503CA3E0FC246DF556
:1008560082E43400F583E0FE746E2CF582E4340005
:10086600F583E0FBEBFFED25E02401F582E434009F
:10087600F583EEF0A3EFF09000EEE02402F0900096
:10088600EDE004F080B4900001E0B41112A3E0B4EE
:10089600220DA3E0B43308A3E0B444031212CF90B0
:1008A6000000E4F0900066F09000CBF0900065F058
:1008B6009000EEF09000EDF0801D9000CBE0B405C6
:1008C600109000667401F090006CE02402900065C0
:0708D600F09000CBE004F0FC
:1008DD00D007D006D005D004D003D002D001D0D09F
:0708ED00D082D083D0E0327D
:0300430002052291
:10052200C0E0C083C082C0D075D000C001C002C08C
:0905320003C004C005C006C007A7
:10053B00E59A20E003020706539AFE9000E7E0FFDE
:10054B0024D3F582E43400F583E59BF09000CDE0F5
:10055B00706FEF70139000E7E024D3F582E4340062
:10056B00F583E0B4AA0280159000E7E0FFB4011216
:10057B0024D3F582E43400F583E0B4AA059000E7B8
:10058B0080359000E7E0FFB4011524D3F582E43405
:10059B0000F583E0B455089000E77402F0802290D8
:1005AB0000E7E0FFB4021524D3F582E43400F583B1
:1005BB00E0B4CC089000CD7401F080059000E7E426
:1005CB00F09000CDE0640160030207069000D2E0DA
:1005DB00640160030206E99000D0E0C39446401129
:1005EB009000CDE4F09000D2F09000E7F09000D0B6
:1005FB00F09000D0E014F0E060030206E97B017A92
:10060B000079D69000D8E02403FD1210ACAD07ACF6
:10061B00069000D8E0FB24DAF582E43400F583E0A1
:10062B00FE74D92BF582E43400F583E0FBEB6D709F
:10063B0002EC6E70509000F2F09000D8E0C313FF04
:10064B009000F2E0FDC39F503CA3E0FC24D9F5825F
:10065B00E43400F583E0FE74DA2CF582E43400F523
:10066B0083E0FBEBFFED25E024CEF582E43400F5CF
:10067B0083EEF0A3EFF09000F3E02402F09000F291
:10068B00E004F080B49000CDE4F09000D2F0900044
:10069B00E7F09000D0F09000F3F09000F2F09000B3
:1006AB00CEE0FEA3E0FF4E70069000CC7402F0EF9C
:1006BB0064014E70059000CC04F0EF64024E70069E
:1006CB009000CC7403F0EF64034E70069000CC7472
:1006DB0004F0EF64BC4E70069000CC7405F09000F3
:1006EB00E7E0B405109000D27401F09000D8E0243C
:0B06FB00029000D0F09000E7E004F057
:10070600D007D006D005D004D003D002D001D0D077
:07071600D082D083D0E03255
:03000000020F32BA
:0C0F3200787FE4F6D8FD758107020F7986
:1002B600E709F608DFFA8046E709F208DFFA803E2A
:1002C60088828C83E709F0A3DFFA8032E309F60817
:1002D600DFFA8078E309F208DFFA807088828C837F
:1002E600E309F0A3DFFA806489828A83E0A3F60833
:1002F600DFFA805889828A83E0A3F208DFFA804C0D
:1003060080D280FA80C680D4806980F280338010E3
:1003160080A680EA809A80A880DA80E280CA80334C
:1003260089828A83ECFAE493A3C8C582C8CCC583C4
:10033600CCF0A3C8C582C8CCC583CCDFE9DEE78094
:100346000D89828A83E493A3F608DFF9ECFAA9F013
:10035600EDFB2289828A83ECFAE0A3C8C582C8CC69
:10036600C583CCF0A3C8C582C8CCC583CCDFEADE82
:10037600E880DB89828A83E493A3F208DFF980CCE4
:1003860088F0EF60010E4E60C388F0ED2402B404DD
:100396000050B9F582EB2402B4040050AF23234584
:0603A600822390030673A0
:1003AC00BB010689828A83E0225002E722BBFE024F
:0903BC00E32289828A83E4932282
:1003C500BB010689828A83F0225002F722BBFE0117
:0203D500F32211
:1003D700EF8DF0A4A8F0CF8CF0A428CE8DF0A42E3A
:0203E700FE22F4
:1003E900C2D5EC30E709B2D5E4C39DFDE49CFCEE2F
:1003F90030E715B2D5E4C39FFFE49EFE1204CDC3D6
:10040900E49DFDE49CFC80031204CD30D507C3E4D0
:060419009FFFE49EFE229D
:10041F00C5F0F8A3E028F0C5F0F8E5821582700268
:06042F001583E038F02205
:10043500A3F8E0C5F025F0F0E5821582700215837A
:06044500E0C838F0E822D7
:10044B00BB010A89828A83E0F5F0A3E0225006877C
:10045B00F009E71922BBFE07E3F5F009E31922893E
:0B046B00828A83E493F5F07401932271
:10047600BB0110E58229F582E5833AF583E0F5F0C4
:10048600A3E0225009E92582F886F008E622BBFEA1
:100496000AE92582F8E2F5F008E222E5832AF583E7
:0804A600E993F5F0A3E99322AC
:1004AE00BB010A89828A83F0E5F0A3F0225006F799
:0F04BE0009A7F01922BBFE06F3E5F009F3192296
:100F3E00021123E493A3F8E493A34003F68001F295
:100F4E0008DFF48029E493A3F85407240CC8C333B4
:100F5E00C4540F4420C8834004F456800146F6DF83
:100F6E00E4800B0102040810204080900B48E47EC0
:100F7E00019360BCA3FF543F30E509541FFEE49378
:100F8E00A360010ECF54C025E060A840B8E493A33F
:100F9E00FAE493A3F8E493A3C8C582C8CAC583CA6A
:100FAE00F0A3C8C582C8CAC583CADFE9DEE780BE22
:010C6400008F
:1004CD00BC000BBE0029EF8DF084FFADF022E4CC13
:1004DD00F875F008EF2FFFEE33FEEC33FCEE9DECDC
:1004ED00984005FCEE9DFE0FD5F0E9E4CEFD22ED22
:1004FD00F8F5F0EE8420D21CFEADF075F008EF2F6C
:10050D00FFED33FD4007985006D5F0F222C398FD5C
:05051D000FD5F0EA22F9
:00000001FF
