:10002600AF051DEF60131208CBF5993099FDC29903
:0A003600740129F9E43AFA80E72288
:10000300AF051DEF60161208CBF59BE59A30E1FBB7
:0D001300539AFD740129F9E43AFA80E422C1
:1028D700759850758920438E40758DF7858D8BD2FD
:0628E700AFD2ACD28E223C
:1028ED0075B60175B501759A50759CF7D2AF438ECB
:0528FD001475AF01227B
:10147F00226E6F20646576696365220064302E7674
:10148F00616C3D0064322E76616C3D0064342E76C3
:10149F00616C3D0064362E76616C3D0064382E76AB
:1014AF00616C3D0064612E76616C3D0064632E7645
:1014BF00616C3D0064652E76616C3D0065302E7663
:1014CF00616C3D0065322E76616C3D0065342E7681
:1014DF00616C3D0065382E76616C3D00686F6E67FC
:1014EF007761697A756F2E76616C3D00686F6E67F4
:1014FF00776169796F752E76616C3D0076616C311D
:10150F002E7478743D0076616C322E7478743D00C1
:10151F0076616C332E7478743D0076616C342E7462
:10152F0078743D0070616765206D61696E00646954
:10153F00616E7975616E6775616E6C692E74787402
:10154F003D00746F755F64756F6A692E7478743DB2
:10155F000064616E796F756C756E2E7478743D00D2
:10156F007A756F73686F752E7478743D00796F7527
:10157F0073686F752E7478743D00746F755F6C654A
:10158F00642E7478743D007A68756B6F6E672E7475
:10159F0078743D006368616F6B75616E6461692E6D
:1015AF007478743D007A756F6C756E2E7478743D17
:1015BF0000796F756C756E2E7478743D0068626972
:1015CF00616E6D6171697A2E76616C3D006862693A
:1015DF00616F64696E677A2E76616C3D007A62691D
:1015EF00616E6D6171697A2E76616C3D007A626908
:1015FF00616F64696E677A2E76616C3D00796269FE
:10160F00616E6D6171697A2E76616C3D00796269E8
:10161F00616F64696E677A2E76616C3D0068746FD6
:10162F00757869616E6C69752E76616C3D006874B2
:10163F006F757368616E6778772E76616C3D0068A1
:10164F00746F7578696178772E76616C3D00667975
:10165F007869616E6C69752E76616C3D0066797381
:10166F0068616E677869616E772E76616C3D006692
:10167F00797869617869616E772E76616C3D007A51
:10168F00756F7869616E6C69752E76616C3D007A45
:10169F00756F7368616E6778772E76616C3D007A2F
:1016AF00756F78696178772E76616C3D0079736814
:1016BF006F757869616E6C69752E76616C3D007916
:1016CF0073686F757368616E6778772E76616C3D9E
:1016DF0000797368616F7578696178772E76616CC0
:1016EF003D006A69616F64752E76616C3D006972A9
:1016FF00342E76616C3D006972332E76616C3D003D
:10170F006972322E76616C3D006972312E76616C92
:10171F003D00FFFFFF000000000000000000000080
:0F172F00FFFFFFFFFFFF000000000000000000B1
:062735007BFF7A157933E9
:0B273B009000FBEBF0A3EAF0A3E9F034
:10274600A3EBF0A3EAF0A3E9F078017C017D017B1D
:10275600FF7A1779217E007F031208A5E4FF900017
:10276600FEE0FBA3E0FAA3E0F91208CB600D9000AF
:10277600FFE475F0011209930F80E39000FBE0FB84
:10278600A3E0FAA3E0F9AD071200037F0A7E001268
:1027960029027B017A0179017D03120003E4FEFF21
:0127A6002210
:10208C0090010DEEF0A3EFF0A3EBF0A3EAF0A3E9BF
:01209C00F053
:10209D00E4A3F0A3F078147C017D017BFF7A17791E
:1020AD0024FE7F061208A590010DE0FEA3E0FFC3FC
:1020BD00EE648094805026C3E49FFFE49E90010D52
:1020CD00F0A3EFF0A3E0FBA3E475F0011209A9A9B9
:1020DD00F0FA742D1208E4900113E004F090010D54
:1020ED00E0FAA3E0FB7C007D0AFFAE0212095DED74
:1020FD002430FF900112E0FE04F0EEFD3395E0FC7C
:10210D0074142DF58274013CF583EFF07C007D0A8B
:10211D00AF03AE0212095D90010DEEF0A3EFF0D307
:10212D009400EE6480948050B4900112E0FFA3E01F
:10213D002FF0900112E0FF14F0D3EF6480948040F3
:10214D0028E0FF3395E0FE74142FF58274013EF5FF
:10215D0083E0FF90010FE0FBA3E475F0011209A9E4
:10216D00A9F0FAEF1208E480C990010FE0FBA3E09B
:0D217D00FAA3E0F9E41208E4900113E0FF7A
:01218A002232
:08227200FFAEF0FDAC067BFF9E
:10227A009000FBEBF0A3EAF0A3E9F0A3ECF0A3EDE6
:01228A00F063
:10228B0078007C017D017BFF7A17792A7E007F0520
:10229B001208A5E4900105F09000FBE0F9A3E0FA29
:1022AB00A3E0900106C9F0A3EAF0A3E9F078097C5A
:1022BB00017D017BFF7A17792F7E007F031208A522
:1022CB00E490010CF09000FEE0FEA3E0FF7B017AAE
:1022DB0001790012208C900105EFF0900106E0FBD4
:1022EB00A3E0FAA3E0F91208CB6012900107E475A2
:1022FB00F00112099390010CE004F080DE9000FBDA
:10230B00E0FBA3E0FAA3E0F990010CE0FD1200035F
:10231B007B017A017900900105E0FD1200037B013E
:0C232B007A0179097D03120003E4FEFF33
:012337002283
:0B1CC7009000FBEBF0A3EAF0A3E9F0B3
:101CD200900101EBF0A3EAF0A3E9F0A37432F078EB
:101CE200057C017D017BFF7A1779327E007F03122A
:101CF20008A578087C017D017BFF7A1779357E0083
:101D02007F091208A5E4900111F09001087422F0F5
:101D1200A37456F09000FEE0FBA3E0FAA3E0F912F0
:101D220009BFACF0ECD39409E494004025ECFB7CB1
:101D3200007D0AFF7E00120908EF243090010AF0AC
:101D42007C007D0AAF037E00120908ED2430A3F067
:101D5200801C90010A7420F09000FEE0FBA3E0FAE0
:101D6200A3E0F91209BFE5F0243090010BF09001D5
:101D72000C742EF09000FEE0FBA3E0FAA3E0F9124F
:101D820009BF243090010DF0A3742EF090000212CE
:101D920009EAE5F0243090010FF0A37422F09001DB
:101DA20001E0FBA3E0FAA3E0F91208CB6012900174
:101DB20002E475F001120993900111E004F080DE53
:101DC2009000FBE0FBA3E0FAA3E0F9900111E0FD33
:101DD2001200039000FEE0FBA3E0FAA3E0F912096F
:101DE200BF45F070149000021209EA45F0700A7BB8
:101DF200FF7A14797F7D0B80087B017A0179087D57
:101E0200091200037B017A0179057D031200039018
:101E12000104E0FF14F0EF601D9000FEE0FBA3E080
:101E2200FAA3E0F9E4F5F0120A229000FFE475F05B
:091E32000212099380D9E4FEFFBD
:011E3B002284
:0B0E10009000F7EBF0A3EAF0A3E9F07C
:100E1B00A37432F07B1B7D807F811228177F1E7E8F
:100E2B00001229029000F7E0FBA3E0FAA3E0F9908F
:100E3B0000161209EAE5F0FF7E007C007D0A12081D
:100E4B00F6AC06AD077BFF7A14798B12227A9000F1
:100E5B00F7E0FBA3E0FAA3E0F99000161209EAFF12
:100E6B007E007C007D0A1208F6AC06AD077BFF7A8C
:100E7B0014799312227A9000F7E0FBA3E0FAA3E037
:100E8B00F99000181209EAE5F0FF7E007C007D0A5C
:100E9B001208F6AC06AD077BFF7A14799B12227A07
:100EAB009000F7E0FBA3E0FAA3E0F9900018120919
:100EBB00EAFF7E007C007D0A1208F6AC06AD077BCC
:100ECB00FF7A1479A312227A9000F7E0FBA3E0FAE1
:100EDB00A3E0F990001A1209EAE5F0FF7E007C000E
:100EEB007D0A1208F6AC06AD077BFF7A1479AB12BC
:100EFB00227A9000F7E0FBA3E0FAA3E0F990001A46
:100F0B001209EAFF7E007C007D0A1208F6AC06ADE2
:100F1B00077BFF7A1479B312227A9000F7E0FBA3D8
:100F2B00E0FAA3E0F990001C1209EAE5F0FF7E005D
:100F3B007C007D0A1208F6AC06AD077BFF7A1479AC
:100F4B00BB12227A9000F7E0FBA3E0FAA3E0F99042
:100F5B00001C1209EAFF7E007C007D0A1208F6AC29
:100F6B0006AD077BFF7A1479C312227A9000F7E063
:100F7B00FBA3E0FAA3E0F990001E1209EAE5F0FFEB
:100F8B007E007C007D0A1208F6AC06AD077BFF7A6B
:100F9B001479CB12227A9000F7E0FBA3E0FAA3E0DE
:100FAB00F990001E1209EAFF7E007C007D0A1208F0
:100FBB00F6AC06AD077BFF7A1479D312227A900038
:100FCB00F7E0FBA3E0FAA3E0F99000201209EAE5B1
:100FDB00F0FF7E007C007D0A1208F6AC06AD077BA5
:100FEB00FF7A1479DB12227A9000F7E0FBA3E0FA88
:100FFB00A3E0F99000201209EAFF7E007C007D0A35
:10100B001208F6AC06AD077BFF7A1479E312227A4D
:10101B009000F7E0FBA3E0FAA3E0F990002C120993
:10102B00EAE5F025E0FDE433FC7BFF7A1479EB1263
:10103B00227A9000F7E0FBA3E0FAA3E0F990002CF2
:10104B001209EA25E0FDE433FC7BFF7A1479FB12ED
:10105B00227A7B027DCA7F811228177F1E7E0012A7
:10106B0029029000F7E0F9A3E0FAA3E09000FEC993
:10107B00F0A3EAF0A3E9F07BFF7A15790B121CC7FA
:10108B007B027DCC7F811228177F1E7E00122902E6
:10109B009000F7E0F9A3E0FAA3E09000FEC9F0A3FB
:1010AB00EAF0A3E9F07BFF7A157915121CC77B02D6
:1010BB007DCE7F811228177F1E7E001229029000A1
:1010CB00F7E0F9A3E0FAA3E09000FEC9F0A3EAF081
:1010DB00A3E9F07BFF7A15791F121CC77B027DD029
:1010EB007F811228177F1E7E001229029000F7E0E5
:1010FB00F9A3E0FAA3E09000FEC9F0A3EAF0A3E99C
:10110B00F07BFF7A157929121CC79000FAE0FF14C7
:10111B00F0EF601D9000F7E0FBA3E0FAA3E0F9E429
:10112B00F5F0120A229000F8E475F0021209938090
:10113B00D99000CCE0B4080E1227359000CC740285
:09114B00F07EFF7FFF22E4FEFFAD
:011154002278
:10173E009000F7EBF0A3EAF0A3E9F0758DF7858D35
:10174E008B7F1E7E001229027B037D787F05122877
:10175E00177F1E7E001229029000F7E0F9A3E0FA2F
:10176E00A3E09000FEC9F0A3EAF0A3E9F07BFF7AB4
:10177E0015793D121CC77B037D787F011228177FD8
:10178E001E7E001229029000F7E0F9A3E0FAA3E012
:10179E009000FEC9F0A3EAF0A3E9F07BFF7A157979
:1017AE0051121CC77B037D787F021228177F1E7E85
:1017BE00001229029000F7E0F9A3E0FAA3E09000EE
:1017CE00FEC9F0A3EAF0A3E9F07BFF7A1579601267
:1017DE001CC77B037D787F061228177F1E7E0012A2
:1017EE0029029000F7E0F9A3E0FAA3E09000FEC909
:1017FE00F0A3EAF0A3E9F07BFF7A15796F121CC70C
:10180E007B037D787F071228177F1E7E0012290228
:10181E009000F7E0F9A3E0FAA3E09000FEC9F0A370
:10182E00EAF0A3E9F07BFF7A15797C121CC77B03E3
:10183E007D787F031228177F1E7E001229029000EA
:10184E00F7E0F9A3E0FAA3E09000FEC9F0A3EAF0F6
:10185E00A3E9F07BFF7A157989121CC7758DFD857A
:10186E008D8B7B037D787F811228177F1E7E001261
:10187E0029029000F7E0F9A3E0FAA3E09000FEC978
:10188E00F0A3EAF0A3E9F07BFF7A157996121CC754
:10189E007B037DB17F811228177F1E7E00122902E5
:1018AE009000F7E0F9A3E0FAA3E09000FEC9F0A3E0
:1018BE00EAF0A3E9F07BFF7A1579A3121CC77B032C
:1018CE007DB47F811228177F1E7E001229029000A0
:1018DE00F7E0F9A3E0FAA3E09000FEC9F0A3EAF066
:1018EE00A3E9F07BFF7A1579B4121CC77B037DB791
:1018FE007F811228177F1E7E001229029000F7E0CA
:10190E00F9A3E0FAA3E09000FEC9F0A3EAF0A3E980
:10191E00F07BFF7A1579C0121CC79000CCE0B4089A
:10192E000E1227359000CC7402F07EFF7FFF22E46A
:03193E00FEFF2287
:0B0046009000F7EBF0A3EAF0A3E9F054
:10005100A3740AF07B027D7E7F011228177F1E7E2A
:10006100001229029000F7E0FBA3E0FAA3E0F912E5
:1000710009BF7A1579CC1222727F1E7E00122902E5
:100081009000F7E0FBA3E0FAA3E0F9900002120967
:10009100EA7A1579DC1222729000F7E0FBA3E0FA0C
:1000A100A3E0F9E4F5F0120A229000F7E0FBA3E0E7
:1000B100FAA3E0F9900002E4F5F0120A417B027D17
:1000C1007E7F061228177F1E7E001229029000F7FC
:1000D100E0FBA3E0FAA3E0F91209BFFFAEF0FDAC2B
:1000E100067BFF7A1579EC12227A7F1E7E00122997
:1000F100029000F7E0FBA3E0FAA3E0F990000212FE
:1001010009EAFFAEF0FDAC067BFF7A1579FC1222FD
:100111007A9000F7E0FBA3E0FAA3E0F9E4F5F0122E
:100121000A229000F7E0FBA3E0FAA3E0F9900002B5
:10013100E4F5F0120A417B027D7E7F071228177FCA
:100141001E7E001229029000F7E0FBA3E0FAA3E073
:10015100F91209BFFFAEF0FDAC067BFF7A16790CF0
:1001610012227A7F1E7E001229029000F7E0FBA383
:10017100E0FAA3E0F99000021209EAFFAEF0FDAC4B
:10018100067BFF7A16791C12227A9000F7E0FBA316
:10019100E0FAA3E0F9E4F5F0120A229000F7E0FB9F
:1001A100A3E0FAA3E0F9900002E4F5F0120A41900D
:1001B10000CCE0640970399000FEF0A3F0FB7D05EE
:1001C1007F011223387F1E7E00122902E49000FE77
:1001D100F0A3F0FB7D057F011223387F1E7E001204
:1001E1002902E49000FEF0A3F0FBFD7F0112233809
:1001F1009000CCE0B40A139000FAE0FBE49000FE1A
:10020100F0A3F07D017F011223389000CCE0B40B04
:10021100139000FAE0FBE49000FEF0A3F07D027F72
:10022100011223389000CCE0B40C2A9000FAE0FBD4
:100231009000FEE4F0A374B4F07D037F0112233833
:100241007FD07E07122902E49000FEF0A3F0FBFDAF
:100251007F011223389000CCE0640D70399000FECC
:10026100F0A3F0FB7D057F061223387F1E7E00126E
:100271002902E49000FEF0A3F0FB7D057F06122326
:10028100387F1E7E00122902E49000FEF0A3F0FBED
:10029100FD7F061223389000CCE0B40E10E49000EC
:1002A100FEF0A3F07B077D017F061223389000CC7E
:1002B100E0B40F10E49000FEF0A3F07B077D027F15
:1002C100061223389000CCE0B410279000FEE4F031
:1002D100A374B4F07B077D037F061223387FD07EA1
:1002E10007122902E49000FEF0A3F0FBFD7F061245
:1002F10023389000CCE0641170399000FEF0A3F037
:10030100FB7D057F071223387F1E7E00122902E440
:100311009000FEF0A3F0FB7D057F071223387F1EBE
:100321007E00122902E49000FEF0A3F0FBFD7F079E
:100331001223389000CCE0B41210E49000FEF0A338
:10034100F07B077D017F071223389000CCE0B413C6
:1003510010E49000FEF0A3F07B077D027F071223DB
:10036100389000CCE0B414279000FEE4F0A374B4FC
:10037100F07B077D037F071223387FD07E07122988
:1003810002E49000FEF0A3F0FBFD7F0712233890FA
:1003910000CCE0B4150E9000FE7464F0E4FBFD7F28
:1003A100031224E19000CCE0B4160F9000FE7464B7
:1003B100F07B23E4FD7F031224E19000CCE0B4172D
:1003C1000F9000FE7464F0E4FB7D237F031224E1AF
:1003D1009000CCE0B4180F9000FE7464F07B237D94
:1003E100237F031224E19000CCE0641A600302052C
:1003F1005EE49000FEF0A3F07B097D017F011223F2
:10040100387F1E7E00122902E49000FEF0A3F07BEB
:10041100077D017F061223387F1E7E00122902E428
:100421009000FEF0A3F07B077D017F071223387F48
:100431001E7E001229029000CCE0FF6419700302B5
:1004410004CDEF640870030204CD7FAC7E0D122948
:10045100029000CCE0FF64086072EF6419606DE403
:100461009000FEF0A3F07B097D027F011223387F0B
:100471001E7E00122902E49000FEF0A3F07B077DAE
:10048100027F061223387F1E7E001229029000CCC3
:10049100E064086037E49000FEF0A3F07B077D0282
:1004A1007F071223387F1E7E001229029000CCE0C4
:1004B100641960187FAC7E0D1229029000CCE0FF18
:1004C10064086008EF641960030203F29000FEE41F
:1004D100F0A374B4F07B097D037F011223387F1EE2
:1004E1007E001229029000FEE4F0A374B4F07B07B1
:1004F1007D037F061223387F1E7E001229029000A1
:10050100FEE4F0A374B4F07B077D037F0712233868
:100511007F1E7E001229027FD07E07122902E490FD
:1005210000FEF0A3F0FBFD7F011223387F1E7E0049
:10053100122902E49000FEF0A3F0FBFD7F061223D6
:10054100387F1E7E00122902E49000FEF0A3F0FB2A
:10055100FD7F071223387F1E7E001229029000CCF6
:10056100E0640860030206081227359000CC74028B
:10057100F09000FEE4F0A374B4F07B097D037F01E9
:100581001223387F1E7E001229029000FEE4F0A3A0
:1005910074B4F07B077D037F061223387F1E7E0033
:1005A1001229029000FEE4F0A374B4F07B077D03EE
:1005B1007F071223387F1E7E001229027FD07E071B
:1005C100122902E49000FEF0A3F0FBFD7F0112234B
:1005D100387F1E7E00122902E49000FEF0A3F0FB9A
:1005E100FD7F061223387F1E7E00122902E490004F
:1005F100FEF0A3F0FBFD7F071223387F1E7E001261
:0E06010029027EFF7FFF22E49000CCF0FEFF76
:01060F0022C8
:100A7C009000F7EBF0A3EAF0A3E9F07B017D807F17
:100A8C00011228177F1E7E001229029000F7E0FB4E
:100A9C00A3E0FAA3E0F91209BFFDACF07BFF7A16D4
:100AAC00792C12227A7F1E7E001229029000F7E028
:100ABC00FBA3E0FAA3E0F9E4F5F0120A227B027D35
:100ACC000B7F011228177F1E7E001229029000F75F
:100ADC00E0FBA3E0FAA3E0F91209BFFFAEF0FDAC16
:100AEC00067BFF7A16793D12227A7F1E7E00122930
:100AFC00029000F7E0FBA3E0FAA3E0F990000212E9
:100B0C0009EAFFAEF0FDAC067BFF7A16794E122295
:100B1C007A9000F7E0FBA3E0FAA3E0F9E4F5F01219
:100B2C000A229000F7E0FBA3E0FAA3E0F9900002A0
:100B3C00E4F5F0120A417B017D807F021228177FB9
:100B4C001E7E001229029000F7E0FBA3E0FAA3E05E
:100B5C00F91209BFFDACF07BFF7A16795D12227A8F
:100B6C007F1E7E001229029000F7E0FBA3E0FAA39F
:100B7C00E0F9E4F5F0120A227B027D0B7F021228C9
:100B8C00177F1E7E001229029000F7E0FBA3E0FA0B
:100B9C00A3E0F91209BFFFAEF0FDAC067BFF7A169D
:100BAC00796C12227A7F1E7E001229029000F7E0E7
:100BBC00FBA3E0FAA3E0F99000021209EAFFAEF001
:100BCC00FDAC067BFF7A16797E12227A9000F7E054
:100BDC00FBA3E0FAA3E0F9E4F5F0120A229000F787
:100BEC00E0FBA3E0FAA3E0F9900002E4F5F0120AAE
:100BFC00417B017D807F061228177F1E7E00122903
:100C0C00029000F7E0FBA3E0FAA3E0F91209BFFDA4
:100C1C00ACF07BFF7A16798E12227A7F1E7E001240
:100C2C0029029000F7E0FBA3E0FAA3E0F9E4F5F069
:100C3C00120A227B027D0B7F061228177F1E7E0074
:100C4C001229029000F7E0FBA3E0FAA3E0F91209E5
:100C5C00BFFFAEF0FDAC067BFF7A16799E12227AAE
:100C6C007F1E7E001229029000F7E0FBA3E0FAA39E
:100C7C00E0F99000021209EAFFAEF0FDAC067BFF32
:100C8C007A1679AE12227A9000F7E0FBA3E0FAA371
:100C9C00E0F9E4F5F0120A229000F7E0FBA3E0FA89
:100CAC00A3E0F9900002E4F5F0120A417B017D808B
:100CBC007F071228177F1E7E001229029000F7E092
:100CCC00FBA3E0FAA3E0F91209BFFDACF07BFF7ABD
:100CDC001679BC12227A7F1E7E001229029000F730
:100CEC00E0FBA3E0FAA3E0F9E4F5F0120A227B02A0
:100CFC007D0B7F071228177F1E7E001229029000A1
:100D0C00F7E0FBA3E0FAA3E0F91209BFFFAEF0FD98
:100D1C00AC067BFF7A1679CE12227A7F1E7E0012E9
:100D2C0029029000F7E0FBA3E0FAA3E0F99000029F
:100D3C001209EAFFAEF0FDAC067BFF7A1679E012E1
:100D4C00227A9000F7E0FBA3E0FAA3E0F9E4F5F0D7
:100D5C00120A229000F7E0FBA3E0FAA3E0F990005E
:100D6C0002E4F5F0120A419000CCE0642270787D28
:100D7C000A7F011228777F1E7E001229027B5A7D82
:100D8C005A7F011227A77F1E7E001229027D0A7F3F
:100D9C00021228777F1E7E001229027B097D097FB3
:100DAC00021227A77F1E7E001229027D0A7F0612DF
:100DBC0028777F1E7E001229027B5A7D5A7F0612ED
:100DCC0027A77F1E7E001229027D0A7F0712287733
:100DDC007F1E7E001229027B5A7D5A7F071227A79D
:100DEC007F1E7E001229029000CCE0B4080E122760
:100DFC00359000CC7402F07EFF7FFF22E49000CC93
:040E0C00F0FEFF22D3
:101B18009000F7EBF0A3EAF0A3E9F09000F7E0FB00
:101B2800A3E0FAA3E0F974F175F0F0120A2290002C
:101B3800CCE024E5B407005066901B4F75F003A471
:101B4800C58325F0C58373021B64021B6B021B71DE
:101B5800021B79021B81021B89021B91E4FBFD7F9A
:101B6800808039E4FBFDFF80337B287D287F01805E
:101B78002B7B287D287F0280237B19E4FD7F04804E
:101B88001BE4FB7D197F038013E4FBFD7F05122412
:101B98005C7F1E7E00122902E4FBFDFF12245C908C
:101BA80000CCE0640870241227359000CC7402F051
:101BB800E4FBFD7F0512245C7F1E7E00122902E4EF
:101BC800FBFDFF12245C7EFF7FFF227F0A7E00124E
:101BD80029027B017D887F811228177F1E7E0012D3
:101BE80029029000F7E0FBA3E0FAA3E0F91209BF8D
:101BF800FDACF0E412071B7B0A7AD77923783C12F4
:101C08000610120754AD07AC067BFF7A1679F1125D
:101C1800227A7F0A7E001229027B027D977F811239
:101C280028177F1E7E001229029000F7E0FBA3E030
:101C3800FAA3E0F91209BFE5F0FD7C0064F1607BCE
:101C48007BFF7A1679FD12227A7F0A7E001229021A
:101C58009000F7E0FBA3E0FAA3E0F91209BF7C00CB
:101C6800FD7BFF7A17790612227A7F0A7E001229F5
:101C7800029000F7E0FBA3E0FAA3E0F9900002125B
:101C880009EAE5F0FD7C007BFF7A17790F12227ACA
:101C98007F0A7E001229029000F7E0FBA3E0FAA376
:101CA800E0F99000021209EA7C00FD7BFF7A1779BF
:0F1CB8001812227A7F0A7E00122902E4FEFF2210
:10218B0070616765206D61696E00706167652075B0
:10219B006C747261736F6E69630070616765207236
:1021AB006F626F7420636F6E74726F6C0070616717
:1021BB00652076657273696F6E0070616765206864
:1021CB0065616420636F6E74726C0070616765206B
:1021DB0064756F6A697869616E7A686900AA55CC13
:1021EB000000000000000000AA55CC000000000019
:1021FB0000000000000000000000000000000000D4
:10220B00000000000000AA55CC00000000000000F8
:10221B0000000000000000000000000000000000B3
:10222B0000000000AA55CC000000000000000000D8
:10223B000000000000000000000000000000000093
:10224B000000AA55CC0000000000000000000000B8
:10225B00000000AA55CC00000000000000000000A8
:07226B00000000000000006C
:101F6F004100CC004500E800000000004100D10016
:101F7F006064006700000000000000000000000027
:101F8F000000000000000000000000000000000042
:101F9F000000000000000000000000000000000032
:101FAF000000000000000000000000000000000022
:101FBF000000000000000000000000000000000012
:101FCF000000000000000000000000000000000002
:101FDF00000000000000000041000000410066000A
:101FEF00410065004100CB005400D3000000000009
:101FFF000000000000000000000000000000004191
:10200F0000CD004100D2004100D0004100E7006048
:10201F00640001000000000000000000000000004C
:10202F0000000000000000000000000000000000A1
:10203F000000000000000000000000000000000091
:10204F000000000000000000000000000000000081
:10205F000000000000000000000000000000000071
:10206F000000000000000000000000000000000061
:0C207F00000000000000004200CE000045
:0B2916000000007F0B7EBEDEFEDFFC39
:012921002293
:10290200AD07AC06ED1DAE0470011C4E6005122928
:042912001680F12218
:0429220075C76022F3
:0525590090010AEDF005
:10255E0074FFA3F0A3F0ED700590010A04F0900152
:10256E000AE0FF14F0EF60511208CBFF90010BE070
:10257E00F0A3E06FF0E4FD90010CE090010B30E071
:10258E0022E0C313FEA3E013FF90010BEEF0A3EFC6
:10259E00F0EE64A0FEEF6401FF90010BEEF0A3EFEE
:1025AE00F08008E0C313F0A3E013F00DEDB408C7FC
:1025BE00740129F9E43AFA80A590010BE0FEA3E03C
:0125CE00FF0D
:0125CF0022E9
:0525D0009000EFEDF0AA
:1025D50074FFA3F0A3F0ED70059000EF04F09000F8
:1025E500EFE0FF14F0EF60511208CBFF9000F0E030
:1025F500F0A3E06FF0E4FD9000F1E09000F030E032
:1026050022E0C313FEA3E013FF9000F0EEF0A3EF6A
:10261500F0EE64A0FEEF6401FF9000F0EEF0A3EF92
:10262500F08008E0C313F0A3E013F00DEDB408C784
:10263500740129F9E43AFA80A59000F0E0FEA3E0E0
:01264500FF95
:012646002271
:0526470090011EEDF002
:10264C0074FFA3F0A3F0ED700590011E04F090014F
:10265C001EE0FF14F0EF60511208CBFF90011FE059
:10266C00F0A3E06FF0E4FD900120E090011F30E05A
:10267C0022E0C313FEA3E013FF90011FEEF0A3EFC3
:10268C00F0EE64A0FEEF6401FF90011FEEF0A3EFEB
:10269C00F08008E0C313F0A3E013F00DEDB408C70D
:1026AC00740129F9E43AFA80A590011FE0FEA3E039
:0126BC00FF1E
:0126BD0022FA
:0526BE009000F4EDF0B6
:1026C30074FFA3F0A3F0ED70059000F404F0900004
:1026D300F4E0FF14F0EF60511208CBFF9000F5E037
:1026E300F0A3E06FF0E4FD9000F6E09000F530E039
:1026F30022E0C313FEA3E013FF9000F5EEF0A3EF77
:10270300F0EE64A0FEEF6401FF9000F5EEF0A3EF9E
:10271300F08008E0C313F0A3E013F00DEDB408C795
:10272300740129F9E43AFA80A59000F5E0FEA3E0EC
:01273300FFA6
:012734002282
:0B2817009000FBEFF0A3EDF0A3EBF04E
:10282200E4A3F078FF7C007D017BFF7A2179E8FE4A
:102832007F0B1208A59000FBE0900102F0A3740345
:10284200F0E4A3F09000FCE0900105F0E4A3F09026
:1028520000FDE0900107F07B017A0179027D06120A
:102862002559AC06EF900108F0EEA3F07A0079FF4B
:052872007D0B020026B1
:0B2338009000FBEFF0A3EDF0A3EBF032
:1023430078007C017D017BFF7A2179F37E007F1E7B
:102353001208A59000FBE0900103F0A37410F0E4D1
:10236300A3F0A3F0A3F0A37407F0A3740EF0E4A307
:10237300F09000FCE090010BF0E4A3F09000FDE08E
:1023830090010DF09000FEE0FCA3E0FDEC90010E47
:10239300F0EDA3F0A37412F0A3740CF0E4A3F0A384
:1023A3007446F0E4A3F0A37407F0E4A3F0A3F07B76
:1023B300017A0179037D15122647AC06EF900118C7
:0D23C300F0EEA3F07A0179007D1A020026E9
:0B27A7009000FAEFF0A3EDF0A3EBF0C0
:1027B20078FD7C007D017BFF7A2279117E007F1EED
:1027C2001208A59000FAE0900100F0A37410F0E462
:1027D200A3F0A3740BF0E4A3F0A37402F0A37404B7
:1027E200F0E4A3F09000FBE0900108F0E4A3F09085
:1027F20000FCE090010AF07B017A0179007D0B1266
:102802002647AC06EF90010BF0EEA3F07A0079FDBB
:052812007D100200260C
:082877009000FAEFF0A3EDF070
:10287F0078FC7C007D017BFF7A22792F7E007F1E02
:10288F001208A59000FAE09000FFF0A37410F0E496
:10289F00A3F0A37407F0E4A3F0A304F0A304F0E4FF
:1028AF00A3F09000FBE0900107F07B017A0079FF25
:1028BF007D09122647AC06EF900108F0EEA3F07ADF
:0828CF000079FC7D0E020026D9
:0B24E1009000FBEFF0A3EDF0A3EBF088
:1024EC0078FF7C007D017BFF7A22794D7E007F1185
:1024FC001208A59000FBE0900102F0A37410F0E428
:10250C00A3F0A3F0A3F0A37403F0A37406F0E4A368
:10251C00F09000FCE090010AF0E4A3F09000FDE0E4
:10252C0090010CF0E4A3F09000FEE090010EF07B23
:10253C00017A0179027D0D122647AC06EF90010F4E
:0D254C00F0EEA3F07A0079FF7D1202002668
:0B245C009000FAEFF0A3EDF0A3EBF00E
:1024670078FD7C007D017BFF7A22795E7E007F14F8
:102477001208A59001007481F0A37410F0E4A3F092
:10248700A3F0A3F0A37404F0A37408F0E4A3F090FE
:1024970000FAE0900108F09000FBE0900109F0904D
:1024A70000FCE090010AF0A37405F0A3740AF0A3FE
:1024B7007405F0A3740AF0E4A3F0A3F07B017A019A
:1024C70079007D0F122647AC06EF90010FF0EEA3BF
:0A24D700F07A0079FD7D1402002662
:101E3C001228D71228ED7BFF7A21798B12273B9041
:101E4C0000CCE0B403297BFF7A21799512273B75EE
:101E5C008DFD858D8B7B017A007901120E10C3EEFE
:101E6C006480948040097F327E0012290280E690C3
:101E7C0000CCE0B404297BFF7A2179A512273B75AD
:101E8C008DFD858D8B7B017A007901121B18C3EEB9
:101E9C006480948040097FFA7E0012290280E690CB
:101EAC0000CCE0B406237BFF7A2179B812273B7B68
:101EBC00017A00790112173EC3EE648094804009C8
:101ECC007FFA7E0012290280E69000CCE064057057
:101EDC00617BFF7A2179C512273B758DF7858D8B38
:101EEC00E49000FEF0A3F0FBFD7F011223387F1E6F
:101EFC007E00122902E49000FEF0A3F0FBFD7F06A9
:101F0C001223387F1E7E00122902E49000FEF0A3FB
:101F1C00F0FBFD7F071223387B017A007901120058
:101F2C0046C3EE6480948040097F0A7E0012290229
:101F3C0080E69000CCE0B407207BFF7A2179D612A2
:101F4C00273B758DF7858D8B7B017A007901120A01
:101F5C007CC3EE6480948050EF7F017E00122902D6
:031F6C00021E4B07
:030023000219417E
:10194100C0E0C083C082C0D075D000C001C002C059
:0919510003C004C005C006C00774
:10195A00209803021B01C2989000CBE0FF2467F590
:10196A0082E43400F583E599F0900000E0706FEFAF
:10197A0070139000CBE02467F582E43400F583E02D
:10198A00B4AA0280159000CBE0FFB401122467F5D7
:10199A0082E43400F583E0B4AA059000CB80359048
:1019AA0000CBE0FFB401152467F582E43400F58327
:1019BA00E0B455089000CB7402F080229000CBE08E
:1019CA00FFB402152467F582E43400F583E0B4CC51
:1019DA00089000007401F080059000CBE4F09000BC
:1019EA0000E064016003021B01900066E06401608C
:1019FA0003021AE4900065E0C39446401490000084
:101A0A00E4F0900066F09000CBF0900065F0021BC5
:101A1A0001900065E014F0E06003021AE47B017AA9
:101A2A0000796A90006CE02403FD1225D0AD07AC62
:101A3A000690006CE0FB246EF582E43400F583E046
:101A4A00FE746D2BF582E43400F583E0FBEBFF6D49
:101A5A007002EC6E70509000EDF090006CE0C313D1
:101A6A00FF9000EDE0FDC39F503CA3E0FC246DF520
:101A7A0082E43400F583E0FE746E2CF582E43400CF
:101A8A00F583E0FBEBFFED25E02401F582E4340069
:101A9A00F583EEF0A3EFF09000EEE02402F0900060
:101AAA00EDE004F080B4900001E0B41112A3E0B4B8
:101ABA00220DA3E0B43308A3E0B444031229229010
:101ACA000000E4F0900066F09000CBF0900065F022
:101ADA009000EEF09000EDF0801D9000CBE0B40590
:101AEA00109000667401F090006CE024029000658A
:071AFA00F09000CBE004F0C6
:101B0100D007D006D005D004D003D002D001D0D068
:071B1100D082D083D0E03246
:0300430002115552
:0B115500C0E0C083C082C0D075D0088D
:10116000E59A20E003021476539AFE9000E7E0FF30
:1011700024D3F582E43400F583E59BF09000CDE0C4
:10118000706FEF70139000E7E024D3F582E4340031
:10119000F583E0B4AA0280159000E7E0FFB40112E5
:1011A00024D3F582E43400F583E0B4AA059000E787
:1011B00080359000E7E0FFB4011524D3F582E434D4
:1011C00000F583E0B455089000E77402F0802290A7
:1011D00000E7E0FFB4021524D3F582E43400F58380
:1011E000E0B4CC089000CD7401F080059000E7E4F5
:1011F000F09000CDE0640160030214769000D2E02C
:10120000640160030214599000D0E0C39446401179
:101210009000CDE4F09000D2F09000E7F09000D084
:10122000F09000D0E014F0E060030214597B017AE2
:101230000079D69000D8E02403FD1226BEAD0FAC95
:101240000E9000D8E0FB24DAF582E43400F583E068
:10125000FE74D92BF582E43400F583E0FBEB6D706E
:1012600002EC6E70509000F2F09000D8E0C313FFD3
:101270009000F2E0FDC39F503CA3E0FC24D9F5822E
:10128000E43400F583E0FE74DA2CF582E43400F5F2
:1012900083E0FBEBFFED25E024CEF582E43400F59E
:1012A00083EEF0A3EFF09000F3E02402F09000F260
:1012B000E004F080B49000CDE4F09000D2F0900013
:1012C000E7F09000D0F09000F3F09000F2F0900082
:1012D000CEE0FEA3E0FF4E70069000CC7404F0EF69
:1012E00064014E70069000CC7403F0EF64024E70FF
:1012F000069000CC7405F0EF64034E70069000CCAD
:101300007406F0EF64044E70069000CC7407F0EFA2
:1013100064BC4E70069000CC7408F0E4B50F0AEE81
:10132000B403069000CC7409F0BE0309BF01069017
:1013300000CC740AF0BE0309BF02069000CC740C06
:10134000F0BE0309BF03069000CC740BF0BE030986
:10135000BF1A069000CC740DF0BE0309BF100690B2
:1013600000CC740EF0BE0309BF12069000CC7410BE
:10137000F0BE0309BF1B069000CC740FF0BE03093A
:10138000BF20069000CC7411F0BE0309BF21069067
:1013900000CC7412F0BE0309BF22069000CC741476
:1013A000F0BE0309BF23069000CC7413F0BE0309FE
:1013B000BFAA069000CC7415F0BE0309BFBB06900F
:1013C00000CC7416F0BE0309BFCC069000CC741795
:1013D000F0BE0309BFDD069000CC7418F0BE03090F
:1013E000BF34069000CC7419F0BE0309BF350690D7
:1013F00000CC741AF0E4B50F0AEEB4C1069000CC2C
:10140000741CF0BEC109BF01069000CC741BF0BE75
:10141000D109BFD1069000CC741DF0BED209BFD255
:10142000069000CC741EF0BED309BFD3069000CC4A
:10143000741FF0BED409BFD4069000CC7420F0BE57
:10144000D009BFD0069000CC7421F0BE0428BF01A3
:10145000259000CC7422F0801D9000E7E0B40510C8
:101460009000D27401F09000D8E024029000D0F0F7
:061470009000E7E004F02B
:09147600D0D0D082D083D0E03246
:10061000EC4D6011E8497017ED33EC3304600DE4E4
:10062000FCFFFEFD22E933E8330470F80207C01234
:10063000078B58046009E4CC248150062850090235
:1006400007CA2840030207C7C0E0EB4A7044B980DC
:1006500006D0E0FB0207B6EF4E701CBD8008EBFF32
:10066000EAFEE9FD80EBE98DF0A4FEE5F00206F973
:10067000E9CDF9EAFEEBFFEF89F0A4FCE5F0CE89C5
:10068000F0A42EFFE435F0CD89F0A42DFEE435F082
:100690008067EF4E7005BD80D780C3EF8BF0A4ACB0
:1006A000F0EE8BF0A42CFCE435F0F8EF8AF0A42CEB
:1006B000E5F038FCE433CB8DF0A42CFCE5F03BF8FE
:1006C000EE8AF0A42CFCE5F038F8E433CF89F0A4EE
:1006D0002CFCE5F038CF3400CE89F0A42FFFE5F0F4
:1006E0003EFEE433C98DF0A42EFEE5F039CD8AF04C
:1006F000A42FFFE5F03EFEE43DFD33D0E0FB5007C4
:100700000BBB000F0207CAEC2CFCEF33FFEE33FEED
:06071000ED33FD0207A21B
:1007160075F020800E75F010800575F0087D007E5E
:10072600007F003392D530D503120A6EEC334010A9
:10073600EF33FFEE33FEED33FDEC33FCD5F0ED2267
:0E074600E5F0247EA2D513CC92E7CDCEFF22A3
:10075400EDD2E7CD33EC3392D524814006E4FFFE9D
:10076400FDFC22FCE4CFCECDCC24E0501174FF80FC
:10077400EDC3CC13CCCD13CDCE13CECF13CF047099
:07078400F030D5DE020A6E21
:10078B00E9D2E7C933E833F892D5EDD2E7CD33ECB4
:07079B0033FC5002B2D5222D
:1007A200EC30E7100FBF000C0EBE00080DBD0004B8
:1007B2000BEB6014A2D5EB13FCED92E7FD2274FF64
:1007C200FCFDFEFF22E480F8A2D574FF13FC7D80BD
:0307D200E480EFD1
:030000000223D008
:0C23D000787FE4F6D8FD75810F02241719
:1007D500E709F608DFFA8046E709F208DFFA803E06
:1007E50088828C83E709F0A3DFFA8032E309F608F3
:1007F500DFFA8078E309F208DFFA807088828C835B
:10080500E309F0A3DFFA806489828A83E0A3F6080E
:10081500DFFA805889828A83E0A3F208DFFA804CE8
:1008250080D280FA80C680D4806980F280338010BF
:1008350080A680EA809A80A880DA80E280CA803328
:1008450089828A83ECFAE493A3C8C582C8CCC583A0
:10085500CCF0A3C8C582C8CCC583CCDFE9DEE78070
:100865000D89828A83E493A3F608DFF9ECFAA9F0EF
:10087500EDFB2289828A83ECFAE0A3C8C582C8CC45
:10088500C583CCF0A3C8C582C8CCC583CCDFEADE5E
:10089500E880DB89828A83E493A3F208DFF980CCC0
:1008A50088F0EF60010E4E60C388F0ED2402B404B9
:1008B5000050B9F582EB2402B4040050AF23234560
:0608C50082239008257358
:1008CB00BB010689828A83E0225002E722BBFE022B
:0908DB00E32289828A83E493225E
:1008E400BB010689828A83F0225002F722BBFE01F3
:0208F400F322ED
:1008F600EF8DF0A4A8F0CF8CF0A428CE8DF0A42E16
:02090600FE22CF
:10090800BC000BBE0029EF8DF084FFADF022E4CCD3
:10091800F875F008EF2FFFEE33FEEC33FCEE9DEC9C
:10092800984005FCEE9DFE0FD5F0E9E4CEFD22EDE2
:10093800F8F5F0EE8420D21CFEADF075F008EF2F2C
:10094800FFED33FD4007985006D5F0F222C398FD1D
:050958000FD5F0EA22BA
:10095D00C2D5EC30E709B2D5E4C39DFDE49CFCEEB5
:10096D0030E715B2D5E4C39FFFE49EFE120908C31C
:10097D00E49DFDE49CFC800312090830D507C3E417
:06098D009FFFE49EFE2224
:10099300C5F0F8A3E028F0C5F0F8E58215827002EF
:0609A3001583E038F0228C
:1009A900A3F8E0C5F025F0F0E58215827002158301
:0609B900E0C838F0E8225E
:1009BF00BB010A89828A83E0F5F0A3E02250068703
:1009CF00F009E71922BBFE07E3F5F009E3192289C5
:0B09DF00828A83E493F5F074019322F8
:1009EA00BB0110E58229F582E5833AF583E0F5F04B
:1009FA00A3E0225009E92582F886F008E622BBFE28
:100A0A000AE92582F8E2F5F008E222E5832AF5836D
:080A1A00E993F5F0A3E9932232
:100A2200BB010A89828A83F0E5F0A3F0225006F71F
:0F0A320009A7F01922BBFE06F3E5F009F319221C
:100A4100F8BB0111E58229F582E5833AF583E8F0E7
:100A5100E5F0A3F0225009E92582C8F608A6F022A4
:0D0A6100BBFE09E92582C8F2E5F008F2228B
:0E0A6E00C3E49FFFE49EFEE49DFDE49CFC2299
:1023DC00021E3CE493A3F8E493A34003F68001F2BD
:1023EC0008DFF48029E493A3F85407240CC8C33302
:1023FC00C4540F4420C8834004F456800146F6DFD1
:10240C00E4800B0102040810204080901F6FE47ED2
:10241C00019360BCA3FF543F30E509541FFEE493C5
:10242C00A360010ECF54C025E060A840B8E493A38C
:10243C00FAE493A3F8E493A3C8C582C8CAC583CAB7
:10244C00F0A3C8C582C8CAC583CADFE9DEE780BE6F
:01208B000054
:00000001FF
