:10002600AF051DEF6013120D8AF5993099FDC2993F
:0A003600740129F9E43AFA80E72288
:10000300AF051DEF6016120D8AF59BE59A30E1FBF3
:0D001300539AFD740129F9E43AFA80E422C1
:103A0B00759850758920438E40758DFD858D8BD2B1
:063A1B00AFD2ACD28E22F6
:103A210075B60175B501759A50759CF7D2AF438E85
:053A31001475AF012235
:1019B400226E6F20646576696365220064302E763A
:1019C400616C3D0064322E76616C3D0064342E7689
:1019D400616C3D0064362E76616C3D0064382E7671
:1019E400616C3D0064612E76616C3D0064632E760B
:1019F400616C3D0064652E76616C3D0065302E7629
:101A0400616C3D0065322E76616C3D0065342E7646
:101A1400616C3D0065382E76616C3D00686F6E67C1
:101A24007761697A756F2E76616C3D00686F6E67B9
:101A3400776169796F752E76616C3D0076616C31E2
:101A44002E7478743D0076616C322E7478743D0087
:101A540076616C332E7478743D0076616C342E7428
:101A640078743D0070616765206D61696E00643152
:101A74002E76616C3D0064332E76616C3D006435D6
:101A84002E76616C3D0064372E76616C3D006439BE
:101A94002E76616C3D006431302E76616C3D0063BE
:101AA40068616F7368656E67312E7478743D006386
:101AB40068616F7368656E67322E7478743D007068
:101AC400616765206D61696E31006469616E797565
:101AD400616E6775616E6C692E7478743D00746F05
:101AE400755F64756F6A692E7478743D0064616E05
:101AF400796F756C756E2E7478743D007A756F739A
:101B0400686F752E7478743D00796F7573686F759E
:101B14002E7478743D00746F755F6C65642E7478F0
:101B2400743D007A68756B6F6E672E7478743D002F
:101B34006368616F6B75616E6461692E7478743D5E
:101B4400007A756F6C756E2E7478743D00796F75BC
:101B54006C756E2E7478743D00686269616E6D6197
:101B640071697A2E76616C3D00686269616F64699F
:101B74006E677A2E76616C3D007A6269616E6D6182
:101B840071697A2E76616C3D007A6269616F64696D
:101B94006E677A2E76616C3D00796269616E6D6163
:101BA40071697A2E76616C3D00796269616F64694E
:101BB4006E677A2E76616C3D0068746F7578696122
:101BC4006E6C69752E76616C3D0068746F75736810
:101BD400616E6778772E76616C3D0068746F7578F6
:101BE400696178772E76616C3D0066797869616EFB
:101BF4006C69752E76616C3D0066797368616E67F9
:101C04007869616E772E76616C3D006679786961DA
:101C14007869616E772E76616C3D007A756F7869AC
:101C2400616E6C69752E76616C3D007A756F7368B0
:101C3400616E6778772E76616C3D007A756F78698E
:101C44006178772E76616C3D007973686F75786979
:101C5400616E6C69752E76616C3D007973686F7581
:101C64007368616E6778772E76616C3D007973686E
:101C7400616F7578696178772E76616C3D006A6969
:101C8400616F64752E76616C3D006972342E7661E5
:101C94006C3D006972332E76616C3D006972322EA0
:101CA40076616C3D006972312E76616C3D00FFFFF8
:101CB400FF0000000000000000000000FFFFFFFF25
:0D1CC400FFFF000000000000000000000015
:0637D0007BFF7A1A796804
:0B37D600900102EBF0A3EAF0A3E9F081
:1037E100A3EBF0A3EAF0A3E9F078087C017D017B6B
:1037F100FF7A1C79B27E007F03120D64E4FF900111
:1038010005E0FBA3E0FAA3E0F9120D8A600D900137
:1038110006E475F001120E520F80E3900102E0FB05
:10382100A3E0FAA3E0F9AD071200037F0A7E0012BC
:1038310039F77B017A0179087D03120003E4FEFF69
:013841002264
:102FF500900111EEF0A3EFF0A3EBF0A3EAF0A3E943
:01300500F0DA
:10300600E4A3F0A3F078187C017D017BFF7A1C799C
:10301600B5FE7F06120D64900111E0FEA3E0FFC32A
:10302600EE648094805026C3E49FFFE49E900111D5
:10303600F0A3EFF0A3E0FBA3E475F001120E68A97C
:10304600F0FA742D120DA3900117E004F09001110F
:10305600E0FAA3E0FB7C007D0AFFAE02120E1CED37
:103066002430FF900116E0FE04F0EEFD3395E0FCFF
:1030760074182DF58274013CF583EFF07C007D0A0F
:10308600AF03AE02120E1C900111EEF0A3EFF0D3C7
:103096009400EE6480948050B4900116E0FFA3E0A3
:1030A6002FF0900116E0FF14F0D3EF648094804077
:1030B60028E0FF3395E0FE74182FF58274013EF583
:1030C60083E0FF900113E0FBA3E475F001120E68A4
:1030D600A9F0FAEF120DA380C9900113E0FBA3E05B
:0D30E600FAA3E0F9E4120DA3900117E0FF3A
:0130F30022BA
:1030F400F9120EA9E5F0FF7E007C007D0A120DB5E1
:0A310400AC06AD077BFF7A1979D005
:10310E009000FFEBF0A3EAF0A3E9F0A3ECF0A3ED3F
:01311E00F0C0
:10311F0078047C017D017BFF7A1C79BB7E007F05E3
:10312F00120D64E4900109F09000FFE0F9A3E0FABA
:10313F00A3E090010AC9F0A3EAF0A3E9F0780D7CAF
:10314F00017D017BFF7A1C79C07E007F03120D6425
:10315F00E4900110F0900102E0FEA3E0FF7B017A02
:10316F00017904122FF5900109EFF090010AE0FBAD
:10317F00A3E0FAA3E0F9120D8A601290010BE47537
:10318F00F001120E52900110E004F080DE9000FF6B
:10319F00E0FBA3E0FAA3E0F9900110E0FD120003B9
:1031AF007B017A017904900109E0FD1200037B0194
:0C31BF007A01790D7D03120003E4FEFF8D
:0131CB0022E1
:10219000E0F9A3E0FAA3E09000FFC9F0A3EAF0A3FE
:0821A000E9F07BFF7A1A79A334
:0B21A8009000FCEBF0A3EAF0A3E9F0CC
:1021B300900102EBF0A3EAF0A3E9F0A37432F07804
:1021C300067C017D017BFF7A1C79C37E007F0312AD
:1021D3000D6478097C017D017BFF7A1C79C67E0042
:1021E3007F0B120D64E4900114F09001097422F046
:1021F300A37456F09000FFE0FBA3E0FAA3E0F9120A
:102203000E7EACF0ECD39409E494004025ECFB7C07
:10221300007D0AFF7E00120DC7EF243090010BF002
:102223007C007D0AAF037E00120DC7ED2430A3F0BE
:10223300801C90010B7430F09000FFE0FBA3E0FAE8
:10224300A3E0F9120E7EE5F0243090010CF090012A
:102253000D742EF09000FFE0FBA3E0FAA3E0F91267
:102263000E7EFFAEF0D39409E494004024AB077CC8
:10227300007D0A7E00120DC7EF243090010EF07C22
:10228300007D0AAF037E00120DC7ED2430A3F0805A
:102293001A90010E7430F09000FFE0FBA3E0FAA364
:1022A300E0F9120E7E243090010FF0900110742E8D
:1022B300F09000FFE0FBA3E0FAA3E0F99000021224
:1022C3000EA9ACF0ECD39409E494004025ECFB7C1C
:1022D300007D0AFF7E00120DC7EF2430900111F03C
:1022E3007C007D0AAF037E00120DC7ED2430A3F0FE
:1022F300801F9001117430F09000FFE0FBA3E0FA1F
:10230300A3E0F9900002120EA9E5F0243090011227
:10231300F09001137422F0900102E0FBA3E0FAA312
:10232300E0F9120D8A6012900103E475F001120EB8
:1023330052900114E004F080DE9000FCE0FBA3E087
:10234300FAA3E0F9900114E0FD1200039000FFE00E
:10235300FBA3E0FAA3E0F9120E7E45F070129000A1
:1023630002120EA945F070087BFF7A1979B4800632
:102373007B017A0179097D0B1200037B017A0179D4
:10238300067D03120003900105E0FF14F0EF601DCA
:102393009000FFE0FBA3E0FAA3E0F9E4F5F0120EEE
:1023A300E1900100E475F002120E5280D9E4FEFFC1
:0123B3002207
:0B1689009000F8EBF0A3EAF0A3E9F0FA
:10169400A37432F07B1B7D807F811238B27F1E7E63
:1016A400001239F79000F8E0FBA3E0FAA3E0F99008
:1016B4000016120EA9E5F0FF7E007C007D0A120DD3
:1016C400B5AC06AD077BFF7A1979C012310E9000D4
:1016D400F8E0FBA3E0FAA3E0F9900016120EA9FFCC
:1016E4007E007C007D0A120DB5AC06AD077BFF7A47
:1016F4001979C812310E9000F8E0FBA3E0FAA3E0D8
:101704009000181230F49000F8E0FBA3E0FAA3E094
:10171400F9900018120EA9FF7E007C007D0A120DBC
:10172400B5AC06AD077BFF7A1979D812310E90005B
:10173400F8E0FBA3E0FAA3E0F990001A120EA9E581
:10174400F0FF7E007C007D0A120DB5AC06AD077B70
:10175400FF7A1979E012310E9000F8E0FBA3E0FA69
:10176400A3E0F990001A120EA9FF7E007C007D0A06
:10177400120DB5AC06AD077BFF7A1979E812310E6C
:101784009000F8E0FBA3E0FAA3E0F990001C120E2D
:10179400A9E5F0FF7E007C007D0A120DB5AC06AD14
:1017A400077BFF7A1979F012310E9000F8E0FBA361
:1017B400E0FAA3E0F990001C120EA9FF7E007C0061
:1017C4007D0A120DB5AC06AD077BFF7A1979F812C4
:1017D400310E9000F8E0FBA3E0FAA3E0F990001EBC
:1017E400120EA9E5F0FF7E007C007D0A120DB5AC57
:1017F40006AD077BFF7A1A790012310E9000F8E0EB
:10180400FBA3E0FAA3E0F990001E120EA9FF7E00EC
:101814007C007D0A120DB5AC06AD077BFF7A1A7900
:101824000812310E9000F8E0FBA3E0FAA3E0F9906F
:101834000020120EA9E5F0FF7E007C007D0A120D47
:10184400B5AC06AD077BFF7A1A791012310E900001
:10185400F8E0FBA3E0FAA3E0F9900020120EA9FF40
:101864007E007C007D0A120DB5AC06AD077BFF7AC5
:101874001A791812310E9000F8E0FBA3E0FAA3E005
:10188400F990002C120EA9E5F025E0FDE433FC7B71
:10189400FF7A1A792012310E9000F8E0FBA3E0FAE7
:1018A400A3E0F990002C120EA925E0FDE433FC7BA3
:1018B400FF7A1A793012310E7B027DCA7F81123889
:1018C400B27F1E7E001239F79000F8E0F9A3E0FA27
:1018D400A3E09000FFC9F0A3EAF0A3E9F07BFF7A4C
:1018E4001A79401221A87B027DCC7F811238B27F05
:1018F4001E7E001239F79000F8E0F9A3E0FAA3E0A5
:101904009000FFC9F0A3EAF0A3E9F07BFF7A1A790B
:101914004A1221A87B027DCE7F811238B27F1E7EBF
:10192400001239F79000F8E0F9A3E0FAA3E0900080
:10193400FFC9F0A3EAF0A3E9F07BFF7A1A79541205
:1019440021A87B027DD07F811238B27F1E7E0012D7
:1019540039F79000F8E0F9A3E0FAA3E09000FFC99A
:10196400F0A3EAF0A3E9F07BFF7A1A795E1221A8CA
:101974009000FBE0FF14F0EF601D9000F8E0FBA383
:10198400E0FAA3E0F9E4F5F0120EE19000F9E47551
:10199400F002120E5280D99000CDE0B40D0E123731
:0F19A400D09000CD7402F07EFF7FFF22E4FEFFA3
:0119B3002211
:0B1CD1009000F8EBF0A3EAF0A3E9F0AC
:101CDC00A37432F07B107D8B7F811238B27F1E7E15
:101CEC00001239F79000F8E0FBA3E0FAA3E0F91238
:101CFC000E7EE5F0FF7E007C007D0A120DB5AC0671
:101D0C00AD077BFF7A1979C012310E9000F8E0FB19
:101D1C00A3E0FAA3E0F9120E7EFF7E007C007D0AA0
:101D2C00120DB5AC06AD077BFF7A1A797212310E23
:101D3C009000F8E0FBA3E0FAA3E0F9900002120E89
:101D4C00A9E5F0FF7E007C007D0A120DB5AC06AD56
:101D5C00077BFF7A1979C812310E9000F8E0FBA3CB
:101D6C00E0FAA3E0F9900002120EA9FF7E007C00BD
:101D7C007D0A120DB5AC06AD077BFF7A1A797A1283
:101D8C00310E9000F8E0FBA3E0FAA3E090000412FF
:101D9C0030F49000F8E0FBA3E0FAA3E0F990000423
:101DAC00120EA9FF7E007C007D0A120DB5AC06ADAB
:101DBC00077BFF7A1A798212310E9000F8E0FBA3B0
:101DCC00E0FAA3E0F9900006120EA9E5F0FF7E0000
:101DDC007C007D0A120DB5AC06AD077BFF7A197934
:101DEC00D812310E9000F8E0FBA3E0FAA3E0F990D2
:101DFC000006120EA9FF7E007C007D0A120DB5AC08
:101E0C0006AD077BFF7A1A798A12310E9000F8E042
:101E1C00FBA3E0FAA3E0F9900008120EA9E5F0FF8D
:101E2C007E007C007D0A120DB5AC06AD077BFF7AF7
:101E3C001979E012310E9000F8E0FBA3E0FAA3E070
:101E4C00F9900008120EA9FF7E007C007D0A120D8D
:101E5C00B5AC06AD077BFF7A1A799212310E900061
:101E6C00F8E0FBA3E0FAA3E0F990000A120EA9E552
:101E7C00F0FF7E007C007D0A120DB5AC06AD077B31
:101E8C00FF7A1A799A12310E9000F8E0FBA3E0FA6F
:101E9C00A3E0F990000C120EA925E0FDE433FC7BC5
:101EAC00FF7A1A792012310E9000F8E0FBA3E0FAC9
:101EBC00A3E0F990000E120EA925E0FDE433FC7BA3
:101ECC00FF7A1A793012310E7B037DCC7F81123868
:101EDC00B27F1E7E001239F79000F81221907B031E
:101EEC007DCF7F811238B27F1E7E001239F79000B1
:101EFC00F8E0F9A3E0FAA3E09000FFC9F0A3EAF040
:101F0C00A3E9F07BFF7A1A79B31221A89000FBE0C9
:101F1C00FF14F0EF601D9000F8E0FBA3E0FAA3E0E3
:101F2C00F9E4F5F0120EE19000F9E475F002120EEE
:101F3C005280D99000CDE0B40E147BFF7A1A79C38D
:101F4C001237D69000CD7402F07EFF7FFF22E4FEA4
:011F5C00FF85
:011F5D002261
:1025C0009000F8EBF0A3EAF0A3E9F0758DF7858DA4
:1025D0008B7F1E7E001239F77B037D787F051238D2
:1025E000B27F1E7E001239F79000F8E0F9A3E0FAFE
:1025F000A3E09000FFC9F0A3EAF0A3E9F07BFF7A23
:102600001A79CE1221A87B037D787F011238B27F20
:102610001E7E001239F79000F8E0F9A3E0FAA3E07B
:102620009000FFC9F0A3EAF0A3E9F07BFF7A1A79E2
:10263000E21221A87B037D787F021238B27F1E7ED2
:10264000001239F79000F8E0F9A3E0FAA3E0900057
:10265000FFC9F0A3EAF0A3E9F07BFF7A1A79F1123F
:1026600021A87B037D787F061238B27F1E7E001280
:1026700039F79000F8E0F9A3E0FAA3E09000FFC971
:10268000F0A3EAF0A3E9F07BFF7A1B79001221A8FE
:102690007B037D787F071238B27F1E7E001239F7E8
:1026A0009000F8E0F9A3E0FAA3E09000FFC9F0A3DE
:1026B000EAF0A3E9F07BFF7A1B790D1221A87B03D6
:1026C0007D787F031238B27F1E7E001239F79000AA
:1026D000F8E0F9A3E0FAA3E09000FFC9F0A3EAF064
:1026E000A3E9F07BFF7A1B791A1221A8758DFD856D
:1026F0008D8B7B037D787F811238B27F1E7E001226
:1027000039F79000F8E0F9A3E0FAA3E09000FFC9E0
:10271000F0A3EAF0A3E9F07BFF7A1B79271221A846
:102720007B037DB17F811238B27F1E7E001239F7A4
:102730009000F8E0F9A3E0FAA3E09000FFC9F0A34D
:10274000EAF0A3E9F07BFF7A1B79341221A87B031E
:102750007DB47F811238B27F1E7E001239F790005F
:10276000F8E0F9A3E0FAA3E09000FFC9F0A3EAF0D3
:10277000A3E9F07BFF7A1B79451221A87B037DB783
:102780007F811238B27F1E7E001239F79000F8E088
:10279000F9A3E0FAA3E09000FFC9F0A3EAF0A3E9EF
:1027A000F07BFF7A1B79511221A89000CDE0B40D87
:1027B0000E1237D09000CD7402F07EFF7FFF22E42E
:0327C000FEFF22F7
:1023B4009000F8EBF0A3EAF0A3E9F07B037D787FCB
:1023C400811238B27F1E7E001239F79000F8E0F9CE
:1023D400A3E0FAA3E09000FFC9F0A3EAF0A3E9F0B8
:1023E4007BFF7A1B79271221A87B037DC07F811292
:1023F40038B27F1E7E001239F79000F8E0F9A3E0AE
:10240400FAA3E09000FFC9F0A3EAF0A3E9F07BFF90
:102414007A1B79341221A87B037DC67F811238B2DE
:102424007F1E7E001239F79000F8E0F9A3E0FAA3CA
:10243400E09000FFC9F0A3EAF0A3E9F07BFF7A1B68
:1024440079451221A87B037DC97F811238B27F1E92
:102454007E001239F79000F8E0F9A3E0FAA3E090C7
:1024640000FFC9F0A3EAF0A3E9F07BFF7A1B7951DE
:102474001221A87B037DC37F811238B27F1E7E00A8
:102484001239F79000F8E0F9A3E0FAA3E09000FF16
:10249400C9F0A3EAF0A3E9F07BFF7A1A79CE1221FE
:1024A400A87B037DCC7F811238B27F1E7E00123957
:1024B400F79000F81221907B037DCF7F811238B210
:1024C4007F1E7E001239F79000F8E0F9A3E0FAA32A
:1024D400E09000FFC9F0A3EAF0A3E9F07BFF7A1AC9
:1024E40079B31221A87B037D707F821238B27F1EDC
:1024F4007E001239F79000F8E0F9A3E0FAA3E09027
:1025040000FFC9F0A3EAF0A3E9F07BFF7A1A79E2AD
:102514001221A87F1E7E001239F79000CDE0642DB1
:10252400703B7D7F7C047F0F1237617F1E7E00121B
:1025340039F7745AFDFC7F091237617FC87E001297
:1025440039F77455FDFC7F5A1237617F1E7E0012E5
:1025540039F79000657401F0E49000CDF09000CD5F
:10256400E0642E70387D7FFC7F0F1237617F1E7E02
:10257400001239F7745AFDFC7F091237617FC87E57
:10258400001239F77455FDFC7F5A1237617F1E7EA5
:10259400001239F7E4900065F09000CDF09000CD82
:1025A400E0B40E147BFF7A1A79C31237D69000CDAB
:0C25B4007402F07EFF7FFF22E4FEFF2295
:0B0046009000F8EBF0A3EAF0A3E9F053
:10005100A3740AF07B027D7E7F011238B27F1E7E7F
:10006100001239F79000F8E0FBA3E0FAA3E0F912DF
:100071000E7EFFAEF0FDAC067BFF7A1B795D12317F
:100081000E7F1E7E001239F79000F8E0FBA3E0FA24
:10009100A3E0F9900002120EA9FFAEF0FDAC067BC1
:1000A100FF7A1B796D12310E9000F8E0FBA3E0FAA4
:1000B100A3E0F9E4F5F0120EE19000F8E0FBA3E013
:1000C100FAA3E0F9900002E4F5F0120F007B027D43
:1000D1007E7F061238B27F1E7E001239F79000F83B
:1000E100E0FBA3E0FAA3E0F9120E7EFFAEF0FDAC57
:1000F100067BFF7A1B797D12310E7F1E7E0012393D
:10010100F79000F8E0FBA3E0FAA3E0F990000212F7
:100111000EA9FFAEF0FDAC067BFF7A1B798D123183
:100121000E9000F8E0FBA3E0FAA3E0F9E4F5F01289
:100131000EE19000F8E0FBA3E0FAA3E0F9900002E1
:10014100E4F5F0120F007B027D7E7F071238B27F4B
:100151001E7E001239F79000F8E0FBA3E0FAA3E05D
:10016100F9120E7EFFAEF0FDAC067BFF7A1B799D86
:1001710012310E7F1E7E001239F79000F8E0FBA3CA
:10018100E0FAA3E0F9900002120EA9FFAEF0FDAC77
:10019100067BFF7A1B79AD12310E9000F8E0FBA3CC
:1001A100E0FAA3E0F9E4F5F0120EE19000F8E0FBCB
:1001B100A3E0FAA3E0F9900002E4F5F0120F009039
:1001C10000CDE0640F70399000FFF0A3F0FB7D05D6
:1001D1007F011231CC7F1E7E001239F7E49000FFBF
:1001E100F0A3F0FB7D057F011231CC7F1E7E001252
:1001F10039F7E49000FFF0A3F0FBFD7F011231CC51
:100201009000CDE0B410139000FBE0FBE49000FF00
:10021100F0A3F07D017F011231CC9000CDE0B4114B
:10022100139000FBE0FBE49000FFF0A3F07D027F60
:10023100011231CC9000CDE0B4122A9000FBE0FB1A
:100241009000FFE4F0A374B4F07D037F011231CC80
:100251007FD07E071239F7E49000FFF0A3F0FBFD99
:100261007F011231CC9000CDE0641370399000FF12
:10027100F0A3F0FB7D057F061231CC7F1E7E0012BC
:1002810039F7E49000FFF0A3F0FB7D057F06123102
:10029100CC7F1E7E001239F7E49000FFF0A3F0FB43
:1002A100FD7F061231CC9000CDE0B41410E4900033
:1002B100FFF0A3F07B077D017F061231CC9000CDCA
:1002C100E0B41510E49000FFF0A3F07B077D027FFE
:1002D100061231CC9000CDE0B416279000FFE4F077
:1002E100A374B4F07B077D037F061231CC7FD07EEF
:1002F100071239F7E49000FFF0A3F0FBFD7F06122F
:1003010031CC9000CDE0641770399000FFF0A3F07C
:10031100FB7D057F071231CC7F1E7E001239F7E489
:100321009000FFF0A3F0FB7D057F071231CC7F1E0B
:100331007E001239F7E49000FFF0A3F0FBFD7F0788
:100341001231CC9000CDE0B41810E49000FFF0A37E
:10035100F07B077D017F071231CC9000CDE0B4190D
:1003610010E49000FFF0A3F07B077D027F071231BC
:10037100CC9000CDE0B41A279000FFE4F0A374B450
:10038100F07B077D037F071231CC7FD07E071239C6
:10039100F7E49000FFF0A3F0FBFD7F071231CC9052
:1003A10000CDE0B41B0E9000FF7464F0E4FBFD7F10
:1003B100031236E99000CDE0B41C0F9000FF746485
:1003C100F07B23E4FD7F031236E99000CDE0B41DFC
:1003D1000F9000FF7464F0E4FB7D237F031236E984
:1003E1009000CDE0B41E0F9000FF7464F07B237D7C
:1003F100237F031236E99000CDE0642060030205FB
:100401006EE49000FFF0A3F07B097D017F011231C2
:10041100CC7F1E7E001239F7E49000FFF0A3F07B41
:10042100077D017F061231CC7F1E7E001239F7E471
:100431009000FFF0A3F07B077D017F071231CC7F95
:100441001E7E001239F79000CDE0FF641F70030299
:1004510004DDEF640D70030204DD7FAC7E0D123903
:10046100F79000CDE0FF640D6072EF641F606DE4F2
:100471009000FFF0A3F07B097D027F011231CC7F58
:100481001E7E001239F7E49000FFF0A3F07B077D98
:10049100027F061231CC7F1E7E001239F79000CD0B
:1004A100E0640D6037E49000FFF0A3F07B077D026C
:1004B1007F071231CC7F1E7E001239F79000CDE00C
:1004C100641F60187FAC7E0D1239F79000CDE0FFFC
:1004D100640D6008EF641F60030204029000FFE4F2
:1004E100F0A374B4F07B097D037F011231CC7F1E30
:1004F1007E001239F79000FFE4F0A374B4F07B079B
:100501007D037F061231CC7F1E7E001239F79000E9
:10051100FFE4F0A374B4F07B077D037F071231CCB5
:100521007F1E7E001239F77FD07E071239F7E490E3
:1005310000FFF0A3F0FBFD7F011231CC7F1E7E0096
:100541001239F7E49000FFF0A3F0FBFD7F061231B2
:10055100CC7F1E7E001239F7E49000FFF0A3F0FB80
:10056100FD7F071231CC7F1E7E001239F79000CD3E
:10057100E0640D60030206181237D09000CD7402BA
:10058100F09000FFE4F0A374B4F07B097D037F01D8
:100591001231CC7F1E7E001239F79000FFE4F0A3E8
:1005A10074B4F07B077D037F061231CC7F1E7E0081
:1005B1001239F79000FFE4F0A374B4F07B077D03D8
:1005C1007F071231CC7F1E7E001239F77FD07E0764
:1005D1001239F7E49000FFF0A3F0FBFD7F01123127
:1005E100CC7F1E7E001239F7E49000FFF0A3F0FBF0
:1005F100FD7F061231CC7F1E7E001239F7E4900098
:10060100FFF0A3F0FBFD7F071231CC7F1E7E0012AD
:0E06110039F77EFF7FFF22E49000CDF0FEFF60
:01061F0022B8
:0B0620009000F8EBF0A3EAF0A3E9F073
:10062B00A3740FF0E4A3F0A3F0A3F0A3F0A3F0A343
:10063B00F07B037D707F821238B27FC87E00123947
:10064B00F79000CDE0640F703A900105F0A3F0FB3A
:10065B007D017F051234867F1E7E001239F7E490F0
:10066B000105F0A3F0FB7D057F161234867F1E7EFD
:10067B00001239F7E4900105F0A3F0FB7D057F2212
:10068B001234869000CDE0B410139000FBE0FBE435
:10069B00900105F0A3F07D047F051234869000CD08
:1006AB00E0B411159000FBE0FB900105E4F0A3749E
:1006BB00B4F07D047F051234869000CDE0B41215A2
:1006CB009000FBE0FB900105E4F0A3745AF07D046D
:1006DB007F051234869000CDE0B414169000FBE039
:1006EB00FB9001057401F0A37468F07D037F161273
:1006FB0034869000CDE0B415159000FBE0FB900123
:10070B0005E4F0A37478F07D037F16123486900015
:10071B00CDE0B416159000FBE0FB900105E4F0A3CF
:10072B0074B4F07D037F161234869000CDE0B418BC
:10073B00169000FBE0FB9001057401F0A37468F0C8
:10074B007D037F221234869000CDE0B41915900002
:10075B00FBE0FB900105E4F0A37478F07D037F22AE
:10076B001234869000CDE0B41A159000FBE0FB909C
:10077B000105E4F0A374B4F07D037F22123486905C
:10078B0000CDE0B41B0BE4900105F0FBFDFF123331
:10079B007B9000CDE0B41C0DE4900105F0FB7DFFD8
:1007AB007F0112337B9000CDE0B41D0DE490010569
:1007BB00F07BFFFD7F0112337B9000CDE0B41E0E6A
:1007CB0090010574FFF0E4FBFD7F0112337B900079
:1007DB00CDE064206003020A5E9000FBE0FBE49036
:1007EB000105F0A3F07D047F051234867F1E7E0089
:1007FB001239F79000FBE0FB9001057401F0A37434
:10080B0068F07D037F161234867F1E7E001239F747
:10081B009000FBE0FB9001057401F0A37468F07D80
:10082B00037F221234867B0B7D747F821238B27F5A
:10083B001E7E001239F79000F8E0FBA3E0FAA3E06C
:10084B00F9120E7EFFAEF09000FCEEF0A3EFF090ED
:10085B00000A120EA9FD9000FEE5F0F0A3EDF0905A
:10086B000014120EA9FD900100E5F0F0A3EDF0C30A
:10087B00EE64809480402DD39000FDE094029000B4
:10088B00FCE064809480501C9000FBE0FB90010521
:10089B00E4F0A374B4F07D047F051234867F1E7ED2
:1008AB00001239F79000FCE0FEA3E0FFC394B2EE18
:1008BB00648094804025D3EF94B4EE648094805090
:1008CB001A9000FBE0FBE4900105F0A3F07D047FA0
:1008DB00051234867F1E7E001239F79000FEE0FE73
:1008EB00A3E0FFC39466EE64809481400BD3EF9436
:1008FB0068EE648094814013C3EE6480948040273B
:10090B00D3EF9402EE64809480501C9000FBE0FBCC
:10091B00900105E4F0A37478F07D037F1612348602
:10092B007F1E7E001239F79000FEE0FEA3E0FFC3AE
:10093B009475EE648094804028D3EF947AEE6480B3
:10094B009480501D9000FBE0FB9001057401F0A317
:10095B007468F07D037F161234867F1E7E00123979
:10096B00F7900100E0FEA3E0FFC39466EE64809471
:10097B0081400BD3EF9468EE648094814013C3EEF7
:10098B00648094804027D3EF9402EE64809480506F
:10099B001C9000FBE0FB900105E4F0A37478F07D64
:1009AB00037F221234867F1E7E001239F7900100DE
:1009BB00E0FEA3E0FFC39475EE648094804028D3DF
:1009CB00EF947AEE64809480501D9000FBE0FB90D6
:1009DB0001057401F0A37468F07D037F2212348645
:1009EB007F1E7E001239F79000CDE0FF640E600F82
:1009FB00EF641F600A7FC87E001239F7020831903E
:100A0B0000FBE0FB900105E4F0A374B4F07D037FE1
:100A1B00161234867F1E7E001239F79000FBE0FB26
:100A2B00900105E4F0A374B4F07D037F22123486A9
:100A3B007F1E7E001239F79000FBE0FB900105E46E
:100A4B00F0A3745AF07D047F051234867F1E7E005E
:100A5B001239F79000CDE0640E70617BFF7A1A7942
:100A6B00C31237D69000CD7402F09000FBE0FB90E0
:100A7B000105E4F0A3745AF07D047F051234867FE0
:100A8B001E7E001239F79000FBE0FB900105E4F0AD
:100A9B00A374B4F07D037F161234867F1E7E001282
:100AAB0039F79000FBE0FB900105E4F0A374B4F080
:100ABB007D037F221234867EFF7FFF22E49000CDE0
:030ACB00F0FEFF3B
:010ACE002205
:1012F5009000F8EBF0A3EAF0A3E9F07B017D807F95
:10130500011238B27F1E7E001239F79000F8E0FB1B
:10131500A3E0FAA3E0F9120E7EFDACF07BFF7A1B89
:1013250079BD12310E7F1E7E001239F79000F8E06C
:10133500FBA3E0FAA3E0F9E4F5F0120EE17B027DF0
:101345000B7F011238B27F1E7E001239F79000F82C
:10135500E0FBA3E0FAA3E0F9120E7EFFAEF0FDACD0
:10136500067BFF7A1B79CE12310E7F1E7E00123965
:10137500F79000F8E0FBA3E0FAA3E0F99000021271
:101385000EA9FFAEF0FDAC067BFF7A1B79DF1231AB
:101395000E9000F8E0FBA3E0FAA3E0F9E4F5F01203
:1013A5000EE19000F8E0FBA3E0FAA3E0F99000025B
:1013B500E4F5F0120F007B017D807F021238B27FC9
:1013C5001E7E001239F79000F8E0FBA3E0FAA3E0D7
:1013D500F9120E7EFDACF07BFF7A1B79EE12310E11
:1013E5007F1E7E001239F79000F8E0FBA3E0FAA318
:1013F500E0F9E4F5F0120EE17B027D0B7F02123875
:10140500B27F1E7E001239F79000F8E0FBA3E0FAE8
:10141500A3E0F9120E7EFFAEF0FDAC067BFF7A1B52
:1014250079FD12310E7F1E7E001239F79000F8E02B
:10143500FBA3E0FAA3E0F9900002120EA9FFAEF0BB
:10144500FDAC067BFF7A1C790F12310E9000F8E097
:10145500FBA3E0FAA3E0F9E4F5F0120EE19000F841
:10146500E0FBA3E0FAA3E0F9900002E4F5F0120F27
:10147500007B017D807F061238B27F1E7E00123907
:10148500F79000F8E0FBA3E0FAA3E0F9120E7EFD69
:10149500ACF07BFF7A1C791F12310E7F1E7E001285
:1014A50039F79000F8E0FBA3E0FAA3E0F9E4F5F0E2
:1014B500120EE17B027D0B7F061238B27F1E7E0085
:1014C5001239F79000F8E0FBA3E0FAA3E0F9120E59
:1014D5007EFFAEF0FDAC067BFF7A1C792F12310E34
:1014E5007F1E7E001239F79000F8E0FBA3E0FAA317
:1014F500E0F9900002120EA9FFAEF0FDAC067BFFED
:101505007A1C793F12310E9000F8E0FBA3E0FAA3B4
:10151500E0F9E4F5F0120EE19000F8E0FBA3E0FA43
:10152500A3E0F9900002E4F5F0120F007B017D8045
:101535007F071238B27F1E7E001239F79000F8E05F
:10154500FBA3E0FAA3E0F9120E7EFDACF07BFF7A77
:101555001C794D12310E7F1E7E001239F79000F86E
:10156500E0FBA3E0FAA3E0F9E4F5F0120EE17B025B
:101575007D0B7F071238B27F1E7E001239F790006F
:10158500F8E0FBA3E0FAA3E0F9120E7EFFAEF0FD52
:10159500AC067BFF7A1C795F12310E7F1E7E00122E
:1015A50039F79000F8E0FBA3E0FAA3E0F990000218
:1015B500120EA9FFAEF0FDAC067BFF7A1C79711205
:1015C500310E9000F8E0FBA3E0FAA3E0F9E4F5F0B2
:1015D500120EE19000F8E0FBA3E0FAA3E0F9900019
:1015E50002E4F5F0120F009000CDE0642C70787DD8
:1015F5000A7F011239127F1E7E001239F77B5A7D50
:101605005A7F011238427F1E7E001239F77D0A7F0C
:10161500021239127F1E7E001239F77B097D097F80
:10162500021238427F1E7E001239F77D0A7F0612AC
:1016350039127F1E7E001239F77B5A7D5A7F0612BA
:1016450038427F1E7E001239F77D0A7F0712391254
:101655007F1E7E001239F77B5A7D5A7F071238426A
:101665007F1E7E001239F79000CDE0B40D0E1237C3
:10167500D09000CD7402F07EFF7FFF22E49000CD74
:04168500F0FEFF2252
:103972009000CDE024D7600D14601014601324036E
:103982007016E480087F917E00800A7401FFFE8039
:10399200047F157E011239BD9000CDE0B40E147B78
:1039A200FF7A1A79C31237D69000CD7402F07EFFE7
:0B39B2007FFF22E49000CDF0FEFF221A
:102B94009000F8EBF0A3EAF0A3E9F09000F8E0FB72
:102BA400A3E0FAA3E0F974F175F0F0120EE19000DD
:102BB400CDE024DFB407005066902BCB75F003A45E
:102BC400C58325F0C58373022BE0022BE7022BEDAE
:102BD400022BF5022BFD022C05022C0DE4FBFD7FDC
:102BE400808039E4FBFDFF80337B287D287F0180D2
:102BF4002B7B287D287F0280237B19E4FD7F0480C2
:102C04001BE4FB7D197F038013E4FBFD7F05123475
:102C1400017F1E7E001239F7E4FBFDFF12340190A0
:102C240000CDE0640D70241237D09000CD7402F012
:102C3400E4FBFD7F051234017F1E7E001239F7E4A8
:102C4400FBFDFF1234017EFF7FFF227F0A7E00120C
:102C540039F77B017D887F811238B27F1E7E001296
:102C640039F79000F8E0FBA3E0FAA3E0F9120E7E36
:102C7400FDACF0E4120BDA7B0A7AD77923783C12A4
:102C84000ACF120C13AD07AC067BFF7A1C798212B3
:102C9400310E7F0A7E001239F77B027D977F811205
:102CA40038B27F1E7E001239F79000F8E0FBA3E0F3
:102CB400FAA3E0F9120E7EE5F0FD7C0064F1607B7E
:102CC4007BFF7A1C798E12310E7F0A7E001239F74F
:102CD4009000F8E0FBA3E0FAA3E0F9120E7E7C007A
:102CE400FD7BFF7A1C799712310E7F0A7E00123920
:102CF400F79000F8E0FBA3E0FAA3E0F990000212D9
:102D04000EA9E5F0FD7C007BFF7A1C79A012310E40
:102D14007F0A7E001239F79000F8E0FBA3E0FAA3E3
:102D2400E0F9900002120EA97C00FD7BFF7A1C7969
:0F2D3400A912310E7F0A7E001239F7E4FEFF224A
:0B27C3009000F8EBF0A3EAF0A3E9F0AF
:1027CE00A3E4F0A374FAF0A3E4F0A37464F074F13C
:1027DE0075F0F0120EE19000CDE024DFB40700405A
:1027EE000302287C90280075F003A4C58325F0C54C
:1027FE00837302281502281E022826022835022875
:10280E0044022853022862E4FBFAFDFC7F80805BC1
:10281E00E4FBFAFDFCFF80539000FBE0FAA3E0FB23
:10282E00FDAC027F0180449000FBE0FAA3E0FBFDCB
:10283E00AC027F0280359000FDE0FAA3E0FBE4FDE0
:10284E00FC7F0480269000FDE0FCA3E0FDE4FBFA93
:10285E007F038017E4FBFAFDFC7F051232F07F1E2A
:10286E007E001239F7E4FBFAFDFCFF1232F0900005
:10287E00CDE0640E70457BFF7A1A79C31237D6907D
:10288E0000CD7402F0E4FBFAFDFC7F051232F07FFE
:10289E001E7E001239F7E4FBFAFDFCFF1232F07FC8
:1028AE001E7E001239F77455FDFC7F5A1237617F78
:1028BE001E7E001239F77EFF7FFF227F0A7E0012F6
:1028CE0039F77B017D887F811238B27F1E7E001220
:1028DE0039F79000F8E0FBA3E0FAA3E0F9120E7EC0
:1028EE00FDACF0E4120BDA7B0A7AD77923783C122E
:1028FE000ACF120C13AD07AC067BFF7A1C7982123D
:10290E00310E7F0A7E001239F77B027D997F81128C
:10291E0038B27F1E7E001239F79000F8E0FBA3E07C
:10292E00FAA3E0F9120E7EE5F0FD7C0064F1607B07
:10293E007BFF7A1C798E12310E7F0A7E001239F7D8
:10294E009000F8E0FBA3E0FAA3E0F9120E7E7C0003
:10295E00FD7BFF7A1C799712310E7F0A7E001239A9
:10296E00F79000F8E0FBA3E0FAA3E0F99000021262
:10297E000EA9E5F0FD7C007BFF7A1C79A012310ECA
:10298E007F0A7E001239F79000F8E0FBA3E0FAA36D
:10299E00E0F9900002120EA97C00FD7BFF7A1C79F3
:0E29AE00A912310E7F0A7E001239F7E4FEFFF7
:0129BC0022F8
:102D43007061676520696E646578007061676520EE
:102D5300756C747261736F6E69630070616765206F
:102D6300756C747261736F6E69633100706167654E
:102D730020726F626F7420636F6E74726F6C007079
:102D830061676520726F626F7420636F6E74726F18
:102D93006C3100706167652076657273696F6E00D0
:102DA300706167652076657273696F6E310070615B
:102DB3006765206865616420636F6E74726C007070
:102DC3006167652064756F6A697869616E7A68699D
:102DD3000070616765206865616420636F6E74725B
:102DE3006C31007061676520666163655F636F6E58
:102DF30074726F6C00AA55CC000000000000000044
:102E0300AA55CC00000000000000000000000000F4
:102E13000000000000000000000000000000AA55B0
:102E2300CC000000000000000000000000000000D3
:102E3300AA55CC00000000000000000000000000C4
:102E43000000000000000000000000000000A55A80
:102E53000480030000AA55CC00000000000000001D
:102E6300000000AA55CC0000000000000000000094
:102E7300000000000000000000000000000000004F
:102E830000AA55CC00000000000000000000000074
:102E93000000AA55CC000000000000000000000064
:102EA300000000000000AA55CC0000000000000054
:102EB30000000000000000000000AA55CC00000044
:102EC30000000000000000000000000000000000FF
:012ED30000FE
:102ED4004100CD00410065014500E900000000000B
:102EE4004100D2006064006800000000000000009F
:102EF40000000000000000000000000000000000CE
:102F040000000000000000000000000000000000BD
:102F140000000000000000000000000000000000AD
:102F2400000000000000000000000000000000009D
:102F3400000000000000000000000000000000008D
:102F4400000000000000000000000000410000003C
:102F540041006700410066004100CC005400D400E9
:102F6400000000000000000000000000000000005D
:102F74000000004100CE004100D3004100D10041D7
:102F840000E8006064000100000000000000000090
:102F9400000000000000000000000000000000002D
:102FA400000000000000000000000000000000001D
:102FB400000000000000000000000000000000000D
:102FC40000000000000000000000000000000000FD
:102FD40000000000000000000000000000000000ED
:102FE40000000000000000000000004200CF0000CC
:0B3A36000000007F0B7EBEDEFEDFFC08
:013A41002262
:0439F3007F1E7E00B5
:1039F700AD07AC06ED1DAE0470011C4E6005123A12
:043A07003680F122F2
:043A420075C76022C2
:05358400900111EDF0C3
:1035890074FFA3F0A3F0ED700590011104F0900110
:1035990011E0FF14F0EF6051120D8AFF900112E063
:1035A900F0A3E06FF0E4FD900113E090011230E028
:1035B90022E0C313FEA3E013FF900112EEF0A3EF84
:1035C900F0EE64A0FEEF6401FF900112EEF0A3EFAC
:1035D900F08008E0C313F0A3E013F00DEDB408C7C1
:1035E900740129F9E43AFA80A5900112E0FEA3E0FA
:0135F900FFD2
:0135FA0022AE
:0535FB009000F0EDF06E
:1036000074FFA3F0A3F0ED70059000F004F09000BB
:10361000F0E0FF14F0EF6051120D8AFF9000F1E02E
:10362000F0A3E06FF0E4FD9000F2E09000F130E0F4
:1036300022E0C313FEA3E013FF9000F1EEF0A3EF2E
:10364000F0EE64A0FEEF6401FF9000F1EEF0A3EF56
:10365000F08008E0C313F0A3E013F00DEDB408C749
:10366000740129F9E43AFA80A59000F1E0FEA3E0A4
:01367000FF5A
:013671002236
:043509007B017D0DB8
:05350D0090011FEDF02C
:1035120074FFA3F0A3F0ED700590011F04F0900179
:103522001FE0FF14F0EF6051120D8AFF900120E0BE
:10353200F0A3E06FF0E4FD900121E090012030E083
:1035420022E0C313FEA3E013FF900120EEF0A3EFED
:10355200F0EE64A0FEEF6401FF900120EEF0A3EF15
:10356200F08008E0C313F0A3E013F00DEDB408C738
:10357200740129F9E43AFA80A5900120E0FEA3E063
:01358200FF49
:013583002225
:053672009000F5EDF0F1
:1036770074FFA3F0A3F0ED70059000F504F090003F
:10368700F5E0FF14F0EF6051120D8AFF9000F6E0AD
:10369700F0A3E06FF0E4FD9000F7E09000F630E073
:1036A70022E0C313FEA3E013FF9000F6EEF0A3EFB2
:1036B700F0EE64A0FEEF6401FF9000F6EEF0A3EFDA
:1036C700F08008E0C313F0A3E013F00DEDB408C7D2
:1036D700740129F9E43AFA80A59000F6E0FEA3E028
:0136E700FFE3
:0136E80022BF
:0B38B200900102EFF0A3EDF0A3EBF09B
:1038BD00E4A3F078067C017D017BFF7A2D79F8FE7B
:1038CD007F0B120D64900102E0900109F0A37403C7
:1038DD00F0E4A3F0900103E090010CF0E4A3F0906C
:1038ED000104E090010EF07B017A0179097D061249
:1038FD003584AC06EF90010FF0EEA3F07A01790656
:05390D007D0B02002605
:0B31CC009000FCEFF0A3EDF0A3EBF08F
:1031D70078017C017D017BFF7A2E79037E007F1EBB
:1031E700120D649000FCE0900104F0A37410F0E469
:1031F700A3F0A3F0A3F0A37407F0A3740EF0E4A365
:10320700F09000FDE090010CF0E4A3F09000FEE0E8
:1032170090010EF09000FFE0FCA3E0FDEC90010FA1
:10322700F0EDA3F0A37412F0A3740CF0E4A3F0A3E1
:103237007446F0E4A3F0A37407F0E4A3F0A3F07BD3
:10324700017A0179047D1512350DAC06EF9001194D
:0D325700F0EEA3F07A0179017D1A02002645
:0B348600900102EFF0A3EDF0A3EBF0CB
:1034910078077C017D017BFF7A2E79217E007F12E6
:1034A100120D6490010A7482F0A37410F0E4A3F089
:1034B100900102E090010DF0E4A3F0A37403F0A3E6
:1034C1007406F0E4A3F0900103E0900112F0E4A38C
:1034D100F0900104E0900114F0900105E0FCA3E0FC
:1034E100FDEC900115F0EDA3F0E4A3F0A3F07A0157
:1034F100790A123509AC06EF900117F0EEA3F07AC4
:083501000179077D120200268A
:0B3842009000FBEFF0A3EDF0A3EBF013
:10384D0078FE7C007D017BFF7A2E79337E007F1E12
:10385D00120D649000FBE0900101F0A37410F0E4F0
:10386D00A3F0A3740BF0E4A3F0A37402F0A374040B
:10387D00F0E4A3F09000FCE0900109F0E4A3F090D7
:10388D0000FDE090010BF07B017A0179017D0B12B7
:10389D00350DAC06EF90010CF0EEA3F07A0079FE39
:0538AD007D1002002661
:0839BD009000F8EEF0A3EFF01A
:1039C50078FA7C007D017BFF7A2E79517E007F0796
:1039D500120D649000F8E0FCA3E0FDEC9000FFF010
:0E39E500EDA3F07B017A0079FA7D070200263F
:04375D0074AAFDFC51
:0B3761009000FFEFF0A3ECF0A3EDF0F0
:10376C0078027C017D017BFF7A2E79587E007F0EDA
:10377C00120D649001057481F0A37410F0E4A3F0B1
:10378C009000FFE0900108F0E4A3F0A304F0A30480
:10379C00F0900100E0FCA3E0FDEC90010CF0EDA337
:1037AC00F0E4A3F0A3F07B017A0179057D091235D1
:1037BC000DAC06EF90010EF0EEA3F07A0179027DCC
:0437CC000E020026C3
:083912009000FBEFF0A3EDF0C3
:10391A0078FD7C007D017BFF7A2E79667E007F1E12
:10392A00120D649000FBE0900100F0A37410F0E423
:10393A00A3F0A37407F0E4A3F0A304F0A304F0E453
:10394A00A3F09000FCE0900108F07B017A01790075
:10395A007D0912350DAC06EF900109F0EEA3F07A5D
:08396A000079FD7D0E0200262C
:0B36E9009000FCEFF0A3EDF0A3EBF06D
:1036F40078007C017D017BFF7A2E79847E007F1126
:10370400120D649000FCE0900103F0A37410F0E447
:10371400A3F0A3F0A3F0A37403F0A37406F0E4A34E
:10372400F09000FDE090010BF0E4A3F09000FEE0C7
:1037340090010DF0E4A3F09000FFE090010FF07A07
:10374400017903123509AC06EF900110F0EEA3F0F5
:093754007A0179007D12020026C1
:0B337B00900102EFF0A3EDF0A3EBF0D7
:1033860078067C017D017BFF7A2E79957E007F147D
:10339600120D649001097482F0A37410F0E4A3F096
:1033A600A3F0A3F0A37404F0A37408F0E4A3F090D0
:1033B6000102E0900111F0E4A3F0900103E0900116
:1033C60013F0E4A3F0900104E0900115F0E4A3F0FB
:1033D600900105E0900117F0E4A3F0A3F07B017AD9
:1033E6000179097D0F12350DAC06EF900118F0EE4C
:0B33F600A3F07A0179067D1402002686
:0B3401009000FBEFF0A3EDF0A3EBF058
:10340C0078FE7C007D017BFF7A2E79A97E007F14EB
:10341C00120D649001017481F0A37410F0E4A3F018
:10342C00A3F0A3F0A37404F0A37408F0E4A3F09049
:10343C0000FBE0900109F09000FCE090010AF09094
:10344C0000FDE090010BF0A37405F0A3740AF0A347
:10345C007405F0A3740AF0E4A3F0A3F07B017A01E5
:10346C0079017D0F12350DAC06EF900110F0EEA333
:0A347C00F07A0079FE7D14020026AC
:1032F0009000FFEFF0A3ECF0A3EDF0A3EAF0A3EB56
:01330000F0DC
:1033010078047C017D017BFF7A2E79BD7E007F17D9
:10331100120D649001077481F0A37410F0E4A3F01E
:10332100A3F0A3F0A37403F0A37406F0E4A3F09058
:1033310000FFE090010FF0900100E0FCA3E0FDEC44
:10334100900110F0EDA3F0900102E0FCA3E0FDEC90
:10335100900112F0EDA3F0E4A3F0A3F07B017A0158
:1033610079077D0D12350DAC06EF900114F0EEA337
:0A337100F07A0179047D12020026B3
:101F5E00123A0B123A217BFF7A2D79431237D69023
:101F6E0000CDE0B403237BFF7A2D794E1237D67B5A
:101F7E00017A007901121689C3EE648094804009BB
:101F8E007F327E001239F780E69000CDE064047057
:101F9E00407BFF7A2D795E1237D67F1312375D1292
:101FAE0039F37F1412375D1239F374AAFDFC7F15D5
:101FBE001237617F1E80137B017A007901121CD1CA
:101FCE00C3EE6480948040097F327E001239F78020
:101FDE00E69000CDE0B405237BFF7A2D796F1237A2
:101FEE00D67B017A007901122B94C3EE6480948023
:101FFE0040097FFA7E001239F780E69000CDE0644A
:10200E000670467DFF7C7F7F0E1237611239F3908A
:10201E000065E07D7FB401047C0680027C027F0FA8
:10202E001237611239F37BFF7A2D79821237D67B04
:10203E00017A0079011227C3C3EE648094804009AF
:10204E007FFA7E001239F780E69000CDE0B40923C6
:10205E007BFF7A2D79961237D67B017A00790112A1
:10206E0025C0C3EE6480948040097FFA7E00123949
:10207E00F780E69000CDE0B40A237BFF7A2D79A39A
:10208E001237D67B017A0079011223B4C3EE648035
:10209E00948040097FFA7E001239F780E69000CDD9
:1020AE00E0640770617BFF7A2D79B11237D6758D9A
:1020BE00F7858D8BE49000FFF0A3F0FBFD7F0112FE
:1020CE0031CC1239F3E49000FFF0A3F0FBFD7F0654
:1020DE001231CC1239F3E49000FFF0A3F0FBFD7F38
:1020EE00071231CC7B017A007901120046C3EE64EF
:1020FE008094805008758DFD858D8B80097F0A7EBA
:10210E00001239F780DE9000CDE0B40B267BFF7A0B
:10211E002D79C21237D6758DF7858D8B7B017A009E
:10212E0079011212F5C3EE6480948050EF758DFD27
:10213E00858D8B9000CDE0B4081A7BFF7A2D79D473
:10214E001237D67B017A007901120620C3EE648025
:10215E00948050EF9000CDE0B40C1D7BFF7A2D796A
:10216E00E61237D6123972C3EE6480948040097F2E
:10217E000A7E001239F780EC7F0A7E001239F702D0
:02218E001F6DC3
:030023000229BDF2
:1029BD00C0E0C083C082C0D075D000C001C002C0CD
:0929CD0003C004C005C006C007E8
:1029D600209803022B7DC2989000CCE0FF2468F576
:1029E60082E43400F583E599F0900000E0706FEF23
:1029F60070139000CCE02468F582E43400F583E09F
:102A0600B4AA0280159000CCE0FFB401122468F548
:102A160082E43400F583E0B4AA059000CC803590BA
:102A260000CCE0FFB401152468F582E43400F58398
:102A3600E0B455089000CC7402F080229000CCE0FF
:102A4600FFB402152468F582E43400F583E0B4CCC3
:102A5600089000007401F080059000CCE4F090002E
:102A660000E064016003022B7D900067E064016072
:102A760003022B60900066E0C39446401490000069
:102A8600E4F0900067F09000CCF0900066F0022B26
:102A96007D900066E014F0E06003022B607B017A13
:102AA60000796B90006DE02403FD1235FBAD07AC99
:102AB6000690006DE0FB246FF582E43400F583E0B8
:102AC600FE746E2BF582E43400F583E0FBEBFF6DBC
:102AD6007002EC6E70509000EEF090006DE0C31343
:102AE600FF9000EEE0FDC39F503CA3E0FC246EF592
:102AF60082E43400F583E0FE746F2CF582E4340042
:102B0600F583E0FBEBFFED25E02401F582E43400DC
:102B1600F583EEF0A3EFF09000EFE02402F09000D2
:102B2600EEE004F080B4900001E0B41112A3E0B42A
:102B3600220DA3E0B43308A3E0B44403123A429052
:102B46000000E4F0900067F09000CCF0900066F092
:102B56009000EFF09000EEF0801D9000CCE0B40500
:102B6600109000677401F090006DE02402900066FA
:072B7600F09000CCE004F038
:102B7D00D007D006D005D004D003D002D001D0D0DC
:072B8D00D082D083D0E032BA
:03004300020F3B6E
:0B0F3B00C0E0C083C082C0D075D008A9
:100F4600E59A20E0030212EC539AFE9000E8E0FFD7
:100F560024D4F582E43400F583E59BF09000CEE0DE
:100F6600706FEF70139000E8E024D4F582E434004B
:100F7600F583E0B4AA0280159000E8E0FFB4011200
:100F860024D4F582E43400F583E0B4AA059000E8A1
:100F960080359000E8E0FFB4011524D4F582E434EE
:100FA60000F583E0B455089000E87402F0802290C2
:100FB60000E8E0FFB4021524D4F582E43400F5839A
:100FC600E0B4CC089000CE7401F080059000E8E40F
:100FD600F09000CEE0640160030212EC9000D3E0D2
:100FE600640160030212CF9000D1E0C39446401121
:100FF6009000CEE4F09000D3F09000E8F09000D19D
:10100600F09000D1E014F0E060030212CF7B017A89
:101016000079D79000D9E02403FD123672AD0FACEB
:101026000E9000D9E0FB24DBF582E43400F583E082
:10103600FE74DA2BF582E43400F583E0FBEB6D7089
:1010460002EC6E70509000F3F09000D9E0C313FFED
:101056009000F3E0FDC39F503CA3E0FC24DAF58248
:10106600E43400F583E0FE74DB2CF582E43400F50D
:1010760083E0FBEBFFED25E024CFF582E43400F5B9
:1010860083EEF0A3EFF09000F4E02402F09000F37A
:10109600E004F080B49000CEE4F09000D3F090002D
:1010A600E8F09000D1F09000F4F09000F3F090009A
:1010B600CFE0FEA3E0FF4E70069000CD7405F0EF82
:1010C60064054E70069000CD7406F0EF64014E7014
:1010D600069000CD7403F0EF64064E70069000CDC6
:1010E6007404F0EF64024E70069000CD7407F0EFC2
:1010F60064074E70069000CD7408F0EF64034E70DE
:10110600069000CD7409F0EF64084E70069000CD8D
:10111600740AF0EF64094E70069000CD740CF0EF7F
:1011260064044E70069000CD740BF0EF64BC4E70F4
:10113600069000CD740DF0BEBC09BF01069000CD2F
:10114600740EF0E4B50F0AEEB403069000CD740FEA
:10115600F0BE0309BF01069000CD7410F0BE03096E
:10116600BF02069000CD7412F0BE0309BF030690BD
:1011760000CD7411F0BE0309BF1A069000CD74139A
:10118600F0BE0309BF10069000CD7414F0BE03092B
:10119600BF12069000CD7416F0BE0309BF1B069061
:1011A60000CD7415F0BE0309BF20069000CD74175C
:1011B600F0BE0309BF21069000CD7418F0BE0309E6
:1011C600BF22069000CD741AF0BE0309BF23069015
:1011D60000CD7419F0BE0309BFAA069000CD741B9A
:1011E600F0BE0309BFBB069000CD741CF0BE030918
:1011F600BFCC069000CD741DF0BE0309BFDD06907E
:1012060000CD741EF0BE0309BF34069000CD741FD6
:10121600F0BE0309BF35069000CD7420F0E4B50F8B
:101226000AEEB4C1069000CD7422F0BEC109BF011A
:10123600069000CD7421F0BED109BFD1069000CD35
:101246007423F0BED209BFD2069000CD7424F0BE3E
:10125600D309BFD3069000CD7425F0BED409BFD400
:10126600069000CD7426F0BED009BFD0069000CD02
:101276007427F0BE0409BF01069000CD742CF0BEA1
:10128600AA09BFA0069000CD7428F0BEAA09BFA186
:10129600069000CD7429F0BEAA09BFA2069000CD23
:1012A600742AF0BEAA09BFA3069000CD742BF0BE27
:1012B600FD09BFFD069000CD742DF0BEFD28BFF0E0
:1012C600259000CD742EF0801D9000E8E0B4051046
:1012D6009000D37401F09000D9E024029000D1F080
:0612E6009000E8E004F0B6
:0912EC00D0D0D082D083D0E032D2
:100ACF00EC4D6011E8497017ED33EC3304600DE421
:100ADF00FCFFFEFD22E933E8330470F8020C7F12AD
:100AEF000C4A58046009E4CC2481500628500902AE
:100AFF000C89284003020C86C0E0EB4A7044B98091
:100B0F0006D0E0FB020C75EF4E701CBD8008EBFFAA
:100B1F00EAFEE9FD80EBE98DF0A4FEE5F0020BB8EB
:100B2F00E9CDF9EAFEEBFFEF89F0A4FCE5F0CE8901
:100B3F00F0A42EFFE435F0CD89F0A42DFEE435F0BE
:100B4F008067EF4E7005BD80D780C3EF8BF0A4ACEC
:100B5F00F0EE8BF0A42CFCE435F0F8EF8AF0A42C27
:100B6F00E5F038FCE433CB8DF0A42CFCE5F03BF83A
:100B7F00EE8AF0A42CFCE5F038F8E433CF89F0A42A
:100B8F002CFCE5F038CF3400CE89F0A42FFFE5F030
:100B9F003EFEE433C98DF0A42EFEE5F039CD8AF088
:100BAF00A42FFFE5F03EFEE43DFD33D0E0FB500700
:100BBF000BBB000F020C89EC2CFCEF33FFEE33FE66
:060BCF00ED33FD020C6194
:100BD50075F020800E75F010800575F0087D007E9B
:100BE500007F003392D530D503120F2DEC33401022
:100BF500EF33FFEE33FEED33FDEC33FCD5F0ED22A4
:0E0C0500E5F0247EA2D513CC92E7CDCEFF22DF
:100C1300EDD2E7CD33EC3392D524814006E4FFFED9
:100C2300FDFC22FCE4CFCECDCC24E0501174FF8038
:100C3300EDC3CC13CCCD13CDCE13CECF13CF0470D5
:070C4300F030D5DE020F2D99
:100C4A00E9D2E7C933E833F892D5EDD2E7CD33ECF0
:070C5A0033FC5002B2D52269
:100C6100EC30E7100FBF000C0EBE00080DBD0004F4
:100C71000BEB6014A2D5EB13FCED92E7FD2274FFA0
:100C8100FCFDFEFF22E480F8A2D574FF13FC7D80F9
:030C9100E480EF0D
:0300000002326465
:0C326400787FE4F6D8FD75810F0232ABD4
:100C9400E709F608DFFA8046E709F208DFFA803E42
:100CA40088828C83E709F0A3DFFA8032E309F6082F
:100CB400DFFA8078E309F208DFFA807088828C8397
:100CC400E309F0A3DFFA806489828A83E0A3F6084B
:100CD400DFFA805889828A83E0A3F208DFFA804C25
:100CE40080D280FA80C680D4806980F280338010FC
:100CF40080A680EA809A80A880DA80E280CA803365
:100D040089828A83ECFAE493A3C8C582C8CCC583DC
:100D1400CCF0A3C8C582C8CCC583CCDFE9DEE780AC
:100D24000D89828A83E493A3F608DFF9ECFAA9F02B
:100D3400EDFB2289828A83ECFAE0A3C8C582C8CC81
:100D4400C583CCF0A3C8C582C8CCC583CCDFEADE9A
:100D5400E880DB89828A83E493A3F208DFF980CCFC
:100D640088F0EF60010E4E60C388F0ED2402B404F5
:100D74000050B9F582EB2402B4040050AF2323459C
:060D84008223900CE473D1
:100D8A00BB010689828A83E0225002E722BBFE0267
:090D9A00E32289828A83E493229A
:100DA300BB010689828A83F0225002F722BBFE012F
:020DB300F32229
:100DB500EF8DF0A4A8F0CF8CF0A428CE8DF0A42E52
:020DC500FE220C
:100DC700BC000BBE0029EF8DF084FFADF022E4CC10
:100DD700F875F008EF2FFFEE33FEEC33FCEE9DECD9
:100DE700984005FCEE9DFE0FD5F0E9E4CEFD22ED1F
:100DF700F8F5F0EE8420D21CFEADF075F008EF2F69
:100E0700FFED33FD4007985006D5F0F222C398FD59
:050E17000FD5F0EA22F6
:100E1C00C2D5EC30E709B2D5E4C39DFDE49CFCEEF1
:100E2C0030E715B2D5E4C39FFFE49EFE120DC7C395
:100E3C00E49DFDE49CFC8003120DC730D507C3E490
:060E4C009FFFE49EFE2260
:100E5200C5F0F8A3E028F0C5F0F8E582158270022B
:060E62001583E038F022C8
:100E6800A3F8E0C5F025F0F0E5821582700215833D
:060E7800E0C838F0E8229A
:100E7E00BB010A89828A83E0F5F0A3E0225006873F
:100E8E00F009E71922BBFE07E3F5F009E319228901
:0B0E9E00828A83E493F5F07401932234
:100EA900BB0110E58229F582E5833AF583E0F5F087
:100EB900A3E0225009E92582F886F008E622BBFE64
:100EC9000AE92582F8E2F5F008E222E5832AF583AA
:080ED900E993F5F0A3E993226F
:100EE100BB010A89828A83F0E5F0A3F0225006F75C
:0F0EF10009A7F01922BBFE06F3E5F009F3192259
:100F0000F8BB0111E58229F582E5833AF583E8F023
:100F1000E5F0A3F0225009E92582C8F608A6F022E0
:0D0F2000BBFE09E92582C8F2E5F008F222C7
:0E0F2D00C3E49FFFE49EFEE49DFDE49CFC22D5
:10327000021F5EE493A3F8E493A34003F68001F2F7
:1032800008DFF48029E493A3F85407240CC8C3335F
:10329000C4540F4420C8834004F456800146F6DF2E
:1032A000E4800B0102040810204080902ED4E47EBC
:1032B000019360BCA3FF543F30E509541FFEE49323
:1032C000A360010ECF54C025E060A840B8E493A3EA
:1032D000FAE493A3F8E493A3C8C582C8CAC583CA15
:1032E000F0A3C8C582C8CAC583CADFE9DEE780BECD
:012FF40000DC
:00000001FF
