:10002600AF051DEF60131209C6F5993099FDC29907
:0A003600740129F9E43AFA80E72288
:10000300AF051DEF60161209C6F59BE59A30E1FBBB
:0D001300539AFD740129F9E43AFA80E422C1
:101D1100759850758920438E40758DF7858D8BD2CE
:061D2100AFD2ACD28E220D
:0F1D2700759A50759CDCD2AF438E1475AF0122B4
:1011CB00226E6F20646576696365220064302E762B
:1011DB00616C3D0064322E76616C3D0064342E767A
:1011EB00616C3D0064362E76616C3D0064382E7662
:1011FB00616C3D0064612E76616C3D0064632E76FC
:10120B00616C3D0064652E76616C3D0065302E7619
:10121B00616C3D0065322E76616C3D0065342E7637
:10122B00616C3D0065382E76616C3D00686F6E67B2
:10123B007761697A756F2E76616C3D00686F6E67AA
:10124B00776169796F752E76616C3D0070616765AA
:10125B00206D61696E006469616E7975616E677589
:10126B00616E6C692E7478743D00746F755F647574
:10127B006F6A692E7478743D007A756F73686F7539
:10128B002E7478743D00796F7573686F752E747852
:10129B00743D00746F755F6C65642E7478743D00DB
:1012AB00626962755F6C65642E7478743D007A6850
:1012BB00756B6F6E672E7478743D006368616F6B2E
:1012CB0075616E6461692E7478743D007A756F6C0C
:1012DB00756E2E7478743D00796F756C756E2E7407
:1012EB0078743D00686269616E6D6171697A2E7602
:1012FB00616C3D00686269616F64696E677A2E7616
:10130B00616C3D007A6269616E6D6171697A2E76EE
:10131B00616C3D007A6269616F64696E677A2E76E3
:10132B00616C3D00796269616E6D6171697A2E76CF
:10133B00616C3D00796269616F64696E677A2E76C4
:10134B00616C3D00FFFFFF0000000000000000008B
:10135B000000FFFFFFFFFFFF000000000000000088
:061C2E007BFF7A127957DA
:0B1C34009000FBEBF0A3EAF0A3E9F046
:101C3F00A3EBF0A3EAF0A3E9F078017C017D017B2F
:101C4F00FF7A13794F7E007F031209A0E4FF900003
:101C5F00FEE0FBA3E0FAA3E0F91209C6600D9000C5
:101C6F00FFE475F001120A390F80E39000FBE0FBEF
:101C7F00A3E0FAA3E0F9AD071200037B017A017923
:091C8F00017D03120003E4FEFFD5
:011C98002229
:1015B10090010DEEF0A3EFF0A3EBF0A3EAF0A3E9A5
:0115C100F039
:1015C200E4A3F0A3F078147C017D017BFF7A137908
:1015D20052FE7F061209A090010DE0FEA3E0FFC3B8
:1015E200EE648094805026C3E49FFFE49E90010D38
:1015F200F0A3EFF0A3E0FBA3E475F001120A4FA9F8
:10160200F0FA742D1209DF900113E004F090010D3D
:10161200E0FAA3E0FB7C007D0AFFAE02120A03EDB2
:101622002430FF900112E0FE04F0EEFD3395E0FC61
:1016320074142DF58274013CF583EFF07C007D0A71
:10164200AF03AE02120A0390010DEEF0A3EFF0D346
:101652009400EE6480948050B4900112E0FFA3E005
:101662002FF0900112E0FF14F0D3EF6480948040D9
:1016720028E0FF3395E0FE74142FF58274013EF5E5
:1016820083E0FF90010FE0FBA3E475F001120A4F23
:10169200A9F0FAEF1209DF80C990010FE0FBA3E085
:0D16A200FAA3E0F9E41209DF900113E0FF64
:0116AF002218
:06178000AC06AD077BFF83
:101786009000FBEBF0A3EAF0A3E9F0A3ECF0A3EDE5
:01179600F062
:1017970078007C017D017BFF7A1379587E007F05F5
:1017A7001209A0E4900105F09000FBE0F9A3E0FA2C
:1017B700A3E0900106C9F0A3EAF0A3E9F078097C59
:1017C700017D017BFF7A13795D7E007F031209A0FB
:1017D700E490010CF09000FEE0FEA3E0FF7B017AAD
:1017E7000179001215B1900105EFF0900106E0FBB9
:1017F700A3E0FAA3E0F91209C66012900107E475A5
:10180700F001120A3990010CE004F080DE9000FB31
:10181700E0FBA3E0FAA3E0F990010CE0FD1200035E
:101827007B017A017900900105E0FD1200037B013D
:0C1837007A0179097D03120003E4FEFF32
:011843002282
:0B136B009000FAEBF0A3EAF0A3E9F019
:101376009000FAE0F9A3E0FAA3E0900100C9F0A317
:10138600EAF0A3E9F0A37432F078047C017D017BD6
:10139600FF7A1379607E007F031209A078077C012B
:1013A6007D017BFF7A1379637E007F081209A0E432
:1013B600FD9001077422F0A37456F09000FDE0FB47
:1013C600A3E0FAA3E0F9120A65FBAAF0EA2430903A
:1013D6000109F0A3742EF0AF03EF2430A3F0A37439
:1013E6002EF09000FDE0FBA3E0FA900002120A90B6
:1013F600E5F0243090010DF0A37422F0900100E096
:10140600FBA3E0FAA3E0F91209C6600D900101E41E
:1014160075F001120A390D80E39000FAE0FBA3E0B3
:10142600FAA3E0F91200039000FDE0FBA3E0FAA3A3
:10143600E0F9120A6545F07014900002120A904510
:10144600F0700A7BFF7A1179CB7D0B80087B017ADD
:101456000179077D081200037B017A0179047D0377
:10146600120003900103E0FF14F0EF601D9000FDF1
:10147600E0FBA3E0FAA3E0F9E4F5F0120AC8900055
:0D148600FEE475F002120A3980D9E4FEFF81
:011493002236
:0B0B69009000F7EBF0A3EAF0A3E9F026
:100B7400A37432F07B1B7D807F81121C997F1E7EC3
:100B840000121CFD9000F7E0FBA3E0FAA3E0F9904B
:100B94000016120A90E5F0FF7E007C007D0A12091F
:100BA400F17A1179D71217809000F7E0FBA3E0FAED
:100BB400A3E0F9900016120A90FF7E007C007D0AE3
:100BC4001209F17A1179DF1217809000F7E0FBA384
:100BD400E0FAA3E0F9900018120A90E5F0FF7E0015
:100BE4007C007D0A1209F1AC06AD077BFF7A11790E
:100BF400E71217869000F7E0FBA3E0FAA3E0F99070
:100C04000018120A90FF7E007C007D0A1209F1ACE4
:100C140006AD077BFF7A1179EF1217869000F7E093
:100C2400FBA3E0FAA3E0F990001A120A90E5F0FFA2
:100C34007E007C007D0A1209F1AC06AD077BFF7AC9
:100C44001179F71217869000F7E0FBA3E0FAA3E00E
:100C5400F990001A120A90FF7E007C007D0A1209A6
:100C6400F1AC06AD077BFF7A1179FF12178690006D
:100C7400F7E0FBA3E0FAA3E0F990001C120A90E568
:100C8400F0FF7E007C007D0A1209F1AC06AD077B03
:100C9400FF7A1279071217869000F7E0FBA3E0FAB7
:100CA400A3E0F990001C120A90FF7E007C007D0AEC
:100CB4001209F1AC06AD077BFF7A12790F12178681
:100CC4009000F7E0FBA3E0FAA3E0F990001E120AFB
:100CD40090E5F0FF7E007C007D0A1209F1AC06ADC0
:100CE400077BFF7A1279171217869000F7E0FBA3AF
:100CF400E0FAA3E0F990001E120A90FF7E007C0047
:100D04007D0A1209F1AC06AD077BFF7A12791F1236
:100D140017869000F7E0FBA3E0FAA3E0F990002027
:100D2400120A90E5F0FF7E007C007D0A1209F1AC06
:100D340006AD077BFF7A1279271217869000F7E039
:100D4400FBA3E0FAA3E0F9900020120A90FF7E00D2
:100D54007C007D0A1209F1AC06AD077BFF7A12799B
:100D64002F1217869000F7E0FBA3E0FAA3E0F990B6
:100D7400002C120A90E5F025E0FDE433FC7BFF7AB9
:100D84001279371217869000F7E0FBA3E0FAA3E08C
:100D9400F990002C120A9025E0FDE433FC7BFF7AE5
:100DA4001279471217869000FAE0FF14F0EF601DE5
:100DB4009000F7E0FBA3E0FAA3E0F9E4F5F0120AEF
:100DC400C89000F8E475F002120A3980D99000CC7A
:100DD400E0B4070E121C2E9000CC7402F07EFF7F4C
:050DE400FF22E4FEFF08
:010DE90022E7
:100DEA009000F7EBF0A3EAF0A3E9F0758DF7858D93
:100DFA008B7F1E7E00121CFD7B037D787F05121CF3
:100E0A00997F1E7E00121CFD9000F7E0F9A3E0FA1C
:100E1A00A3E09000FDC9F0A3EAF0A3E9F07BFF7A12
:100E2A0012796112136B7B037D787F01121C997F03
:100E3A001E7E00121CFD9000F7E0F9A3E0FAA3E081
:100E4A009000FDC9F0A3EAF0A3E9F07BFF7A1279DA
:100E5A007512136B7B037D787F06121C997F1E7EA9
:100E6A0000121CFD9000F7E0F9A3E0FAA3E090005D
:100E7A00FDC9F0A3EAF0A3E9F07BFF7A12798412A4
:100E8A00136B7B037D787F07121C997F1E7E0012ED
:100E9A001CFD9000F7E0F9A3E0FAA3E09000FDC979
:100EAA00F0A3EAF0A3E9F07BFF7A12799112136BAF
:100EBA007B037D787F03121C997F1E7E00121CFD26
:100ECA009000F7E0F9A3E0FAA3E09000FDC9F0A3CF
:100EDA00EAF0A3E9F07BFF7A12799E12136B7B0387
:100EEA007D787F04121C997F1E7E00121CFD9000E3
:100EFA00F7E0F9A3E0FAA3E09000FDC9F0A3EAF055
:100F0A00A3E9F07BFF7A1279AB12136B7F1E7E0086
:100F1A00121CFD758DFD858D8B7B037D787F81127B
:100F2A001C997F1E7E00121CFD9000F7E0F9A3E0D9
:100F3A00FAA3E09000FDC9F0A3EAF0A3E9F07BFF71
:100F4A007A1279B912136B7B037DB17F81121C99D6
:100F5A007F1E7E00121CFD9000F7E0F9A3E0FAA3C1
:100F6A00E09000FDC9F0A3EAF0A3E9F07BFF7A1252
:100F7A0079C612136B7B037DB47F81121C997F1E85
:100F8A007E00121CFD9000F7E0F9A3E0FAA3E090BE
:100F9A0000FDC9F0A3EAF0A3E9F07BFF7A1279D742
:100FAA0012136B7B037DB77F81121C997F1E7E0013
:100FBA00121CFD9000F7E0F9A3E0FAA3E09000FD0F
:100FCA00C9F0A3EAF0A3E9F07BFF7A1279E31213DE
:100FDA006B9000CCE0B4070E121C2E9000CC740269
:0A0FEA00F07EFF7FFF22E4FEFF22ED
:100046009000F7EBF0A3EAF0A3E9F07B027D7E7F58
:1000560001121C997F1E7E00121CFD9000F7E0FB2A
:10006600A3E0FAA3E0F9120A65FFAEF0FDAC067B49
:10007600FF7A1279EF1217867F1E7E00121CFD9002
:1000860000F7E0FBA3E0FAA3E0F9900002120A9061
:10009600FFAEF0FDAC067BFF7A1279FF1217869051
:1000A60000F7E0FBA3E0FAA3E0F9E4F5F0120AC8D2
:1000B6009000F7E0FBA3E0FAA3E0F9900002E4F574
:1000C600F0120AE77B027D7E7F06121C997F1E7E58
:1000D60000121CFD9000F7E0FBA3E0FAA3E0F91282
:1000E6000A65FFAEF0FDAC067BFF7A13790F121797
:1000F600867F1E7E00121CFD9000F7E0FBA3E0FA4F
:10010600A3E0F9900002120A90FFAEF0FDAC067B68
:10011600FF7A13791F1217869000F7E0FBA3E0FA27
:10012600A3E0F9E4F5F0120AC89000F7E0FBA3E0BB
:10013600FAA3E0F9900002E4F5F0120AE77B027DEB
:100146007E7F07121C997F1E7E00121CFD9000F711
:10015600E0FBA3E0FAA3E0F9120A65FFAEF0FDACFE
:10016600067BFF7A13792F1217867F1E7E00121CDC
:10017600FD9000F7E0FBA3E0FAA3E0F9900002127D
:100186000A90FFAEF0FDAC067BFF7A13793F12179B
:10019600869000F7E0FBA3E0FAA3E0F9E4F5F0129D
:1001A6000AC89000F7E0FBA3E0FAA3E0F99000028A
:1001B600E4F5F0120AE79000CCE06408703990008C
:1001C600FDF0A3F0FB7D057F011218447F0A7E0037
:1001D600121CFDE49000FDF0A3F0FB7D057F0112EB
:1001E60018447F0A7E00121CFDE49000FDF0A3F087
:1001F600FBFD7F011218449000CCE0B40910E49096
:1002060000FDF0A3F07B147D017F011218449000DD
:10021600CCE0B40A10E49000FDF0A3F07B147D025C
:100226007F011218449000CCE0B40B279000FDE447
:10023600F0A374B4F07B147D037F011218447F147D
:100246007E05121CFDE49000FDF0A3F0FBFD7F018E
:100256001218449000CCE0640C70399000FDF0A3B5
:10026600F0FB7D057F061218447F0A7E00121CFDF6
:10027600E49000FDF0A3F0FB7D057F061218447F95
:100286000A7E00121CFDE49000FDF0A3F0FBFD7F4A
:10029600061218449000CCE0B40D10E49000FDF076
:1002A600A3F07B077D017F061218449000CCE0B4D2
:1002B6000E10E49000FDF0A3F07B077D027F06128E
:1002C60018449000CCE0B40F279000FDE4F0A3742E
:1002D600B4F07B077D037F061218447F087E071261
:1002E6001CFDE49000FDF0A3F0FBFD7F0612184410
:1002F6009000CCE0641070399000FDF0A3F0FB7D17
:10030600057F071218447F0A7E00121CFDE4900048
:10031600FDF0A3F0FB7D057F071218447F0A7E00DF
:10032600121CFDE49000FDF0A3F0FBFD7F07121800
:10033600449000CCE0B41110E49000FDF0A3F07BF3
:10034600077D017F071218449000CCE0B41210E438
:100356009000FDF0A3F07B077D027F071218449002
:1003660000CCE0B413279000FDE4F0A374B4F07B56
:10037600077D037F071218447F087E07121CFDE4E1
:100386009000FDF0A3F0FBFD7F071218449000CC0F
:10039600E0B4140E9000FD7464F0E4FBFD7F0312DC
:1003A60019689000CCE0B4150F9000FD7464F07BE2
:1003B60023E4FD7F031219689000CCE0B4160F9079
:1003C60000FD7464F0E4FB7D237F0312196890003E
:1003D600CCE0B4170F9000FD7464F07B237D237F7F
:1003E600031219689000CCE064196003020541E429
:1003F6009000FDF0A3F07B147D017F011218447F6D
:100406001E7E00121CFDE49000FDF0A3F07B077D2C
:10041600017F061218447F1E7E00121CFDE4900028
:10042600FDF0A3F07B077D017F071218447F1E7E37
:1004360000121CFD9000CCE06418606E7FD07E0731
:10044600121CFD9000CCE06418605FE49000FDF0A3
:10045600A3F07B147D027F011218447F1E7E0012DA
:100466001CFDE49000FDF0A3F07B077D027F0612E1
:1004760018447F1E7E00121CFDE49000FDF0A3F0E0
:100486007B077D027F071218447F1E7E00121CFD2B
:100496009000CCE0641860127FD07E07121CFD909D
:1004A60000CCE0641860030203F59000FDE4F0A3BD
:1004B60074B4F07B147D037F011218447F1E7E0006
:1004C600121CFD9000FDE4F0A374B4F07B077D03DD
:1004D6007F061218447F1E7E00121CFD9000FDE46C
:1004E600F0A374B4F07B077D037F071218447F1EC8
:1004F6007E00121CFD7F087E07121CFDE49000FDA5
:10050600F0A3F0FBFD7F011218447F1E7E00121C33
:10051600FDE49000FDF0A3F0FBFD7F061218447F7A
:100526001E7E00121CFDE49000FDF0A3F0FBFD7F93
:10053600071218447F1E7E00121CFD9000CCE0645A
:100546000760030205EB121C2E9000CC7402F0909B
:1005560000FDE4F0A374B4F07B147D037F01121850
:10056600447F1E7E00121CFD9000FDE4F0A374B4CF
:10057600F07B077D037F061218447F1E7E00121C47
:10058600FD9000FDE4F0A374B4F07B077D037F07C4
:100596001218447F1E7E00121CFD7F087E07121C67
:1005A600FDE49000FDF0A3F0FBFD7F011218447FEF
:1005B6001E7E00121CFDE49000FDF0A3F0FBFD7F03
:1005C600061218447F1E7E00121CFDE49000FDF00A
:1005D600A3F0FBFD7F071218447F1E7E00121CFD50
:0D05E6007EFF7FFF22E49000CCF0FEFF229C
:101BBC0070616765206D61696E0070616765207585
:101BCC006C747261736F6E69630070616765207607
:101BDC00657273696F6E007061676520686561641A
:101BEC0020636F6E74726C00AA55CC00000000006C
:101BFC00000000AA55CC000000000000000000000E
:101C0C0000000000000000000000000000000000C8
:101C1C0000AA55CC000000000000000000000000ED
:021C2C000000B6
:101494004100CC004500E800000000004100D100FC
:1014A400606400670000000000000000000000000D
:1014B4000000000000000000000000000000000028
:1014C4000000000000000000000000000000000018
:1014D4000000000000000000000000000000000008
:1014E40000000000000000000000000000000000F8
:1014F40000000000000000000000000000000000E8
:1015040000000000000000004100000041006600EF
:10151400410065004100CB005400D30000000000EE
:101524000000000000000000000000000000004176
:1015340000CD004100D2004100D0004100E700602E
:101544006400010000000000000000000000000032
:101554000000000000000000000000000000000087
:101564000000000000000000000000000000000077
:101574000000000000000000000000000000000067
:101584000000000000000000000000000000000057
:101594000000000000000000000000000000000047
:0C15A400000000000000004200CE00002B
:0B1D36000000007F0B7EBEDEFEDFFC25
:011D4100227F
:041CF9007F057E00E5
:101CFD00AD07AC06ED1DAE0470011C4E6005121D46
:041D0D003680F12209
:041D420075C76022DF
:0519E00090010AEDF08A
:1019E50074FFA3F0A3F0ED700590010A04F09001D7
:1019F5000AE0FF14F0EF60511209C6FF90010BE0F9
:101A0500F0A3E06FF0E4FD90010CE090010B30E0F5
:101A150022E0C313FEA3E013FF90010BEEF0A3EF4A
:101A2500F0EE64A0FEEF6401FF90010BEEF0A3EF72
:101A3500F08008E0C313F0A3E013F00DEDB408C780
:101A4500740129F9E43AFA80A590010BE0FEA3E0C0
:011A5500FF91
:011A5600226D
:051A57009000EFEDF02E
:101A5C0074FFA3F0A3F0ED70059000EF04F090007C
:101A6C00EFE0FF14F0EF60511209C6FF9000F0E0B8
:101A7C00F0A3E06FF0E4FD9000F1E09000F030E0B6
:101A8C0022E0C313FEA3E013FF9000F0EEF0A3EFEF
:101A9C00F0EE64A0FEEF6401FF9000F0EEF0A3EF17
:101AAC00F08008E0C313F0A3E013F00DEDB408C709
:101ABC00740129F9E43AFA80A59000F0E0FEA3E065
:011ACC00FF1A
:011ACD0022F6
:051ACE0090011DEDF088
:101AD30074FFA3F0A3F0ED700590011D04F09001D5
:101AE3001DE0FF14F0EF60511209C6FF90011EE0E4
:101AF300F0A3E06FF0E4FD90011FE090011E30E0E1
:101B030022E0C313FEA3E013FF90011EEEF0A3EF48
:101B1300F0EE64A0FEEF6401FF90011EEEF0A3EF70
:101B2300F08008E0C313F0A3E013F00DEDB408C791
:101B3300740129F9E43AFA80A590011EE0FEA3E0BE
:011B4300FFA2
:011B4400227E
:051B45009000F4EDF03A
:101B4A0074FFA3F0A3F0ED70059000F404F0900088
:101B5A00F4E0FF14F0EF60511209C6FF9000F5E0BF
:101B6A00F0A3E06FF0E4FD9000F6E09000F530E0BD
:101B7A0022E0C313FEA3E013FF9000F5EEF0A3EFFB
:101B8A00F0EE64A0FEEF6401FF9000F5EEF0A3EF23
:101B9A00F08008E0C313F0A3E013F00DEDB408C71A
:101BAA00740129F9E43AFA80A59000F5E0FEA3E071
:011BBA00FF2B
:011BBB002207
:0B1C99009000FBEFF0A3EDF0A3EBF0D8
:101CA400E4A3F078FF7C007D017BFF7A1B79F4FECE
:101CB4007F0B1209A09000FBE0900102F0A37403D3
:101CC400F0E4A3F09000FCE0900105F0E4A3F090B0
:101CD40000FDE0900107F07B017A0179027D061294
:101CE40019E0AC06EF900108F0EEA3F07A0079FF5A
:051CF4007D0B0200263B
:0B1844009000FAEFF0A3EDF0A3EBF032
:10184F0078FF7C007D017BFF7A1B79FF7E007F1E76
:10185F001209A09000FAE0900102F0A37410F0E4D6
:10186F00A3F0A3F0A3F0A37407F0A3740EF0E4A306
:10187F00F09000FBE090010AF0E4A3F09000FCE090
:10188F0090010CF09000FDE0FCA3E0FDEC90010D49
:10189F00F0EDA3F0A37412F0A3740CF0E4A3F0A383
:1018AF007446F0E4A3F0A37407F0E4A3F0A3F07B75
:1018BF00017A0179027D15121ACEAC06EF9001174D
:0D18CF00F0EEA3F07A0079FF7D1A020026EA
:0B1968009000FAEFF0A3EDF0A3EBF00D
:1019730078FE7C007D017BFF7A1C791D7E007F1140
:101983001209A09000FAE0900101F0A37410F0E4B2
:10199300A3F0A3F0A3F0A37403F0A37406F0E4A3ED
:1019A300F09000FBE0900109F0E4A3F09000FCE06C
:1019B30090010BF0E4A3F09000FDE090010DF07BAB
:1019C300017A0179017D0D121ACEAC06EF90010E5A
:0D19D300F0EEA3F07A0079FE7D12020026EE
:1016B000121D11121D277BFF7A1B79BC121C34905E
:1016C00000CCE0B40329758DFD858D8B7BFF7A1BE3
:1016D00079C6121C347B017A007901120B69C3EEC2
:1016E0006480948040097FE87E03121CFD80E690B0
:1016F00000CCE0B406237BFF7A1B79D6121C347B26
:10170000017A007901120DEAC3EE648094804009E9
:101710007FE87E03121CFD80E69000CCE06405703B
:1017200055758DF7858D8B7BFF7A1B79E3121C3401
:10173000E49000FDF0A3F0FBFD7F01121844121CA1
:10174000F9E49000FDF0A3F0FBFD7F0612184412AF
:101750001CF9E49000FDF0A3F0FBFD7F0712184494
:101760007B017A007901120046C3EE6480948040C8
:1017700005121CF980EA7F647E00121CFD0216BF70
:03002300020FF4D5
:100FF400C0E0C083C082C0D075D000C001C002C0B0
:0910040003C004C005C006C007CA
:10100D002098030211B4C2989000CBE0FF2467F53D
:10101D0082E43400F583E599F0900000E0706FEF05
:10102D0070139000CBE02467F582E43400F583E083
:10103D00B4AA0280159000CBE0FFB401122467F52D
:10104D0082E43400F583E0B4AA059000CB8035909E
:10105D0000CBE0FFB401152467F582E43400F5837D
:10106D00E0B455089000CB7402F080229000CBE0E4
:10107D00FFB402152467F582E43400F583E0B4CCA7
:10108D00089000007401F080059000CBE4F0900012
:10109D0000E0640160030211B4900066E064016039
:1010AD0003021197900065E0C39446401490000030
:1010BD00E4F0900066F09000CBF0900065F0021126
:1010CD00B4900065E014F0E060030211977B017AA3
:1010DD0000796A90006CE02403FD121A57AD07AC3D
:1010ED000690006CE0FB246EF582E43400F583E09D
:1010FD00FE746D2BF582E43400F583E0FBEBFF6DA0
:10110D007002EC6E70509000EDF090006CE0C31327
:10111D00FF9000EDE0FDC39F503CA3E0FC246DF576
:10112D0082E43400F583E0FE746E2CF582E4340025
:10113D00F583E0FBEBFFED25E02401F582E43400BF
:10114D00F583EEF0A3EFF09000EEE02402F09000B6
:10115D00EDE004F080B4900001E0B41112A3E0B40E
:10116D00220DA3E0B43308A3E0B44403121D429052
:10117D000000E4F0900066F09000CBF0900065F078
:10118D009000EEF09000EDF0801D9000CBE0B405E6
:10119D00109000667401F090006CE02402900065E0
:0711AD00F09000CBE004F01C
:1011B400D007D006D005D004D003D002D001D0D0BF
:0711C400D082D083D0E0329D
:030043000205F3C0
:1005F300C0E0C083C082C0D075D000C001C002C0BB
:0906030003C004C005C006C007D5
:10060C00E59A20E0030208B9539AFE9000E7E0FF58
:10061C0024D3F582E43400F583E59BF09000CDE023
:10062C00706FEF70139000E7E024D3F582E4340090
:10063C00F583E0B4AA0280159000E7E0FFB4011244
:10064C0024D3F582E43400F583E0B4AA059000E7E6
:10065C0080359000E7E0FFB4011524D3F582E43433
:10066C0000F583E0B455089000E77402F080229006
:10067C0000E7E0FFB4021524D3F582E43400F583DF
:10068C00E0B4CC089000CD7401F080059000E7E454
:10069C00F09000CDE0640160030208B99000D2E054
:1006AC006401600302089C9000D0E0C394464011A2
:1006BC009000CDE4F09000D2F09000E7F09000D0E4
:1006CC00F09000D0E014F0E0600302089C7B017A0B
:1006DC000079D69000D8E02403FD121B45AD07AC81
:1006EC00069000D8E0FB24DAF582E43400F583E0D0
:1006FC00FE74D92BF582E43400F583E0FBEB6D70CE
:10070C0002EC6E70509000F2F09000D8E0C313FF32
:10071C009000F2E0FDC39F503CA3E0FC24D9F5828D
:10072C00E43400F583E0FE74DA2CF582E43400F551
:10073C0083E0FBEBFFED25E024CEF582E43400F5FD
:10074C0083EEF0A3EFF09000F3E02402F09000F2BF
:10075C00E004F080B49000CDE4F09000D2F0900072
:10076C00E7F09000D0F09000F3F09000F2F09000E1
:10077C00CEE0FEA3E0FF4E70069000CC7404F0EFC8
:10078C0064014E70069000CC7403F0EF64024E705E
:10079C00069000CC7405F0EF64034E70069000CC0C
:1007AC007406F0EF64BC4E70069000CC7407F0E455
:1007BC00B5070AEEB403069000CC7408F0BE03092A
:1007CC00BF01069000CC7409F0BE0309BF0206906D
:1007DC0000CC740BF0BE0309BF03069000CC740A66
:1007EC00F0BE0309BF1A069000CC740CF0BE0309CE
:1007FC00BF10069000CC740DF0BE0309BF1206901A
:10080C0000CC740FF0BE0309BF1B069000CC740E15
:10081C00F0BE0309BF20069000CC7410F0BE030993
:10082C00BF21069000CC7411F0BE0309BF220690C4
:10083C0000CC7413F0BE0309BF23069000CC7412D5
:10084C00F0BE0309BFAA069000CC7414F0BE0309D5
:10085C00BFBB069000CC7415F0BE0309BFCC06904C
:10086C0000CC7416F0BE0309BFDD069000CC7417E3
:10087C00F0BE0309BF34069000CC7418F0BE030917
:10088C00BF35069000CC7419F09000CEE4F0A3F0C4
:10089C009000E7E0B405109000D27401F09000D8FD
:0D08AC00E024029000D0F09000E7E004F09E
:1008B900D007D006D005D004D003D002D001D0D0C3
:0708C900D082D083D0E032A1
:030000000218DC07
:0C18DC00787FE4F6D8FD7581070219231F
:1008D000E709F608DFFA8046E709F208DFFA803E0A
:1008E00088828C83E709F0A3DFFA8032E309F608F7
:1008F000DFFA8078E309F208DFFA807088828C835F
:10090000E309F0A3DFFA806489828A83E0A3F60812
:10091000DFFA805889828A83E0A3F208DFFA804CEC
:1009200080D280FA80C680D4806980F280338010C3
:1009300080A680EA809A80A880DA80E280CA80332C
:1009400089828A83ECFAE493A3C8C582C8CCC583A4
:10095000CCF0A3C8C582C8CCC583CCDFE9DEE78074
:100960000D89828A83E493A3F608DFF9ECFAA9F0F3
:10097000EDFB2289828A83ECFAE0A3C8C582C8CC49
:10098000C583CCF0A3C8C582C8CCC583CCDFEADE62
:10099000E880DB89828A83E493A3F208DFF980CCC4
:1009A00088F0EF60010E4E60C388F0ED2402B404BD
:1009B0000050B9F582EB2402B4040050AF23234564
:0609C00082239009207360
:1009C600BB010689828A83E0225002E722BBFE022F
:0909D600E32289828A83E4932262
:1009DF00BB010689828A83F0225002F722BBFE01F7
:0209EF00F322F1
:1009F100EF8DF0A4A8F0CF8CF0A428CE8DF0A42E1A
:020A0100FE22D3
:100A0300C2D5EC30E709B2D5E4C39DFDE49CFCEE0E
:100A130030E715B2D5E4C39FFFE49EFE120B14C367
:100A2300E49DFDE49CFC8003120B1430D507C3E462
:060A33009FFFE49EFE227D
:100A3900C5F0F8A3E028F0C5F0F8E5821582700248
:060A49001583E038F022E5
:100A4F00A3F8E0C5F025F0F0E5821582700215835A
:060A5F00E0C838F0E822B7
:100A6500BB010A89828A83E0F5F0A3E0225006875C
:100A7500F009E71922BBFE07E3F5F009E31922891E
:0B0A8500828A83E493F5F07401932251
:100A9000BB0110E58229F582E5833AF583E0F5F0A4
:100AA000A3E0225009E92582F886F008E622BBFE81
:100AB0000AE92582F8E2F5F008E222E5832AF583C7
:080AC000E993F5F0A3E993228C
:100AC800BB010A89828A83F0E5F0A3F0225006F779
:0F0AD80009A7F01922BBFE06F3E5F009F3192276
:100AE700F8BB0111E58229F582E5833AF583E8F041
:100AF700E5F0A3F0225009E92582C8F608A6F022FE
:0D0B0700BBFE09E92582C8F2E5F008F222E4
:1018E8000216B0E493A3F8E493A34003F68001F250
:1018F80008DFF48029E493A3F85407240CC8C33301
:10190800C4540F4420C8834004F456800146F6DFCF
:10191800E4800B0102040810204080901494E47EB7
:10192800019360BCA3FF543F30E509541FFEE493C4
:10193800A360010ECF54C025E060A840B8E493A38B
:10194800FAE493A3F8E493A3C8C582C8CAC583CAB6
:10195800F0A3C8C582C8CAC583CADFE9DEE780BE6E
:0115B000003A
:100B1400BC000BBE0029EF8DF084FFADF022E4CCC5
:100B2400F875F008EF2FFFEE33FEEC33FCEE9DEC8E
:100B3400984005FCEE9DFE0FD5F0E9E4CEFD22EDD4
:100B4400F8F5F0EE8420D21CFEADF075F008EF2F1E
:100B5400FFED33FD4007985006D5F0F222C398FD0F
:050B64000FD5F0EA22AC
:00000001FF
