:10002600AF051DEF60131208DBF5993099FDC299F3
:0A003600740129F9E43AFA80E72288
:10000300AF051DEF60161208DBF59BE59A30E1FBA7
:0D001300539AFD740129F9E43AFA80E422C1
:10220200759850758920438E40758DF7858D8BD2D8
:06221200AFD2ACD28E2217
:1022180075B60175B501759A50759CF7D2AF438EA6
:052228001475AF012256
:1013F900226E6F20646576696365220064302E76FB
:10140900616C3D0064322E76616C3D0064342E7649
:10141900616C3D0064362E76616C3D0064382E7631
:10142900616C3D0064612E76616C3D0064632E76CB
:10143900616C3D0064652E76616C3D0065302E76E9
:10144900616C3D0065322E76616C3D0065342E7607
:10145900616C3D0065382E76616C3D00686F6E6782
:101469007761697A756F2E76616C3D00686F6E677A
:10147900776169796F752E76616C3D00706167657A
:10148900206D61696E006469616E7975616E677559
:10149900616E6C692E7478743D00746F755F647544
:1014A9006F6A692E7478743D0064616E796F756C2A
:1014B900756E2E7478743D007A756F73686F752E2A
:1014C9007478743D00796F7573686F752E747874CC
:1014D9003D00746F755F6C65642E7478743D007A95
:1014E90068756B6F6E672E7478743D006368616F01
:1014F9006B75616E6461692E7478743D007A756FDD
:101509006C756E2E7478743D00796F756C756E2EDE
:101519007478743D00686269616E6D6171697A2ED3
:1015290076616C3D00686269616F64696E677A2EE5
:1015390076616C3D007A6269616E6D6171697A2EBE
:1015490076616C3D007A6269616F64696E677A2EB3
:1015590076616C3D00796269616E6D6171697A2E9F
:1015690076616C3D00796269616F64696E677A2E94
:1015790076616C3D006A69616F64752E76616C3DB8
:10158900006972342E76616C3D006972332E766182
:101599006C3D006972322E76616C3D006972312EA4
:1015A90076616C3D00FFFFFF0000000000000000B5
:1015B900000000FFFFFFFFFFFF0000000000000028
:0115C9000021
:062118007BFF7A147985BB
:0B211E009000FBEBF0A3EAF0A3E9F057
:10212900A3EBF0A3EAF0A3E9F078017C017D017B40
:10213900FF7A1579AE7E007F031208B5E4FF90009F
:10214900FEE0FBA3E0FAA3E0F91208DB600D9000C2
:10215900FFE475F00112094E0F80E39000FBE0FBEC
:10216900A3E0FAA3E0F9AD071200037F0A7E00128B
:1021790021EE7B017A0179017D03120003E4FEFF60
:012189002233
:101ABF0090010DEEF0A3EFF0A3EBF0A3EAF0A3E992
:011ACF00F026
:101AD000E4A3F0A3F078147C017D017BFF7A1579F3
:101AE000B1FE7F061208B590010DE0FEA3E0FFC332
:101AF000EE648094805026C3E49FFFE49E90010D25
:101B0000F0A3EFF0A3E0FBA3E475F001120964A9D0
:101B1000F0FA742D1208F4900113E004F090010D16
:101B2000E0FAA3E0FB7C007D0AFFAE02120918ED8B
:101B30002430FF900112E0FE04F0EEFD3395E0FC4E
:101B400074142DF58274013CF583EFF07C007D0A5E
:101B5000AF03AE0212091890010DEEF0A3EFF0D31F
:101B60009400EE6480948050B4900112E0FFA3E0F2
:101B70002FF0900112E0FF14F0D3EF6480948040C6
:101B800028E0FF3395E0FE74142FF58274013EF5D2
:101B900083E0FF90010FE0FBA3E475F001120964FC
:101BA000A9F0FAEF1208F480C990010FE0FBA3E05E
:0D1BB000FAA3E0F9E41208F4900113E0FF3D
:011BBD002205
:061BBE00AC06AD077BFF41
:101BC4009000FBEBF0A3EAF0A3E9F0A3ECF0A3EDA3
:011BD400F020
:101BD50078007C017D017BFF7A1579B77E007F0552
:101BE5001208B5E4900105F09000FBE0F9A3E0FAD6
:101BF500A3E0900106C9F0A3EAF0A3E9F078097C17
:101C0500017D017BFF7A1579BC7E007F031208B543
:101C1500E490010CF09000FEE0FEA3E0FF7B017A6A
:101C2500017900121ABF900105EFF0900106E0FB63
:101C3500A3E0FAA3E0F91208DB6012900107E4754E
:101C4500F00112094E90010CE004F080DE9000FBDB
:101C5500E0FBA3E0FAA3E0F990010CE0FD1200031C
:101C65007B017A017900900105E0FD1200037B01FB
:0C1C75007A0179097D03120003E4FEFFF0
:011C81002240
:0B1779009000FAEBF0A3EAF0A3E9F007
:101784009000FAE0F9A3E0FAA3E0900100C9F0A305
:10179400EAF0A3E9F0A37432F078047C017D017BC4
:1017A400FF7A1579BF7E007F031208B578077C01A4
:1017B4007D017BFF7A1579C27E007F081208B5E4AB
:1017C400FD9001077422F0A37456F09000FDE0FB35
:1017D400A3E0FAA3E0F912097AFBAAF0EA24309014
:1017E4000109F0A3742EF0AF03EF2430A3F0A37427
:1017F4002EF09000FDE0FBA3E0FA9000021209A590
:10180400E5F0243090010DF0A37422F0900100E083
:10181400FBA3E0FAA3E0F91208DB600D900101E4F8
:1018240075F00112094E0D80E39000FAE0FBA3E08D
:10183400FAA3E0F91200039000FDE0FBA3E0FAA391
:10184400E0F912097A45F070149000021209A545D6
:10185400F0700A7BFF7A1379F97D0B80087B017A9B
:101864000179077D081200037B017A0179047D0365
:10187400120003900103E0FF14F0EF601D9000FDDF
:10188400E0FBA3E0FAA3E0F9E4F5F01209DD90002F
:0D189400FEE475F00212094E80D9E4FEFF5B
:0118A1002224
:0B0D9E009000F7EBF0A3EAF0A3E9F0EF
:100DA900A37432F07B1B7D807F8112218A7F1E7E96
:100DB900001221EE9000F7E0FBA3E0FAA3E0F9901E
:100DC90000161209A5E5F0FF7E007C007D0A1209D4
:100DD900067A147905121BBE9000F7E0FBA3E0FA2E
:100DE900A3E0F99000161209A5FF7E007C007D0A98
:100DF9001209067A14790D121BBE9000F7E0FBA3C5
:100E0900E0FAA3E0F99000181209A5E5F0FF7E00C9
:100E19007C007D0A120906AC06AD077BFF7A1479BE
:100E290015121BC49000F7E0FBA3E0FAA3E0F990C8
:100E390000181209A5FF7E007C007D0A120906AC84
:100E490006AD077BFF7A14791D121BC49000F7E0E9
:100E5900FBA3E0FAA3E0F990001A1209A5E5F0FF57
:100E69007E007C007D0A120906AC06AD077BFF7A7D
:100E7900147925121BC49000F7E0FBA3E0FAA3E064
:100E8900F990001A1209A5FF7E007C007D0A12095B
:100E990006AC06AD077BFF7A14792D121BC49000AE
:100EA900F7E0FBA3E0FAA3E0F990001C1209A5E51D
:100EB900F0FF7E007C007D0A120906AC06AD077BB7
:100EC900FF7A147935121BC49000F7E0FBA3E0FA0E
:100ED900A3E0F990001C1209A5FF7E007C007D0AA1
:100EE900120906AC06AD077BFF7A14793D121BC4C3
:100EF9009000F7E0FBA3E0FAA3E0F990001E1209C5
:100F0900A5E5F0FF7E007C007D0A120906AC06AD5E
:100F1900077BFF7A147945121BC49000F7E0FBA305
:100F2900E0FAA3E0F990001E1209A5FF7E007C00FB
:100F39007D0A120906AC06AD077BFF7A14794D12BA
:100F49001BC49000F7E0FBA3E0FAA3E0F9900020AE
:100F59001209A5E5F0FF7E007C007D0A120906ACA6
:100F690006AD077BFF7A147955121BC49000F7E090
:100F7900FBA3E0FAA3E0F99000201209A5FF7E0087
:100F89007C007D0A120906AC06AD077BFF7A14794D
:100F99005D121BC49000F7E0FBA3E0FAA3E0F9900F
:100FA900002C1209A5E5F025E0FDE433FC7BFF7A6E
:100FB900147965121BC49000F7E0FBA3E0FAA3E0E3
:100FC900F990002C1209A525E0FDE433FC7BFF7A9A
:100FD900147975121BC49000FAE0FF14F0EF601D3C
:100FE9009000F7E0FBA3E0FAA3E0F9E4F5F01209B9
:100FF900DD9000F8E475F00212094E80D99000CC1A
:10100900E0B4070E1221189000CC7402F07EFF7F25
:05101900FF22E4FEFFD0
:01101E0022AF
:10101F009000F7EBF0A3EAF0A3E9F0758DF7858D5B
:10102F008B7F1E7E001221EE7B037D787F051221C0
:10103F008A7F1E7E001221EE9000F7E0F9A3E0FAFE
:10104F00A3E09000FDC9F0A3EAF0A3E9F07BFF7ADB
:10105F0014798F1217797B037D787F0112218A7F94
:10106F001E7E001221EE9000F7E0F9A3E0FAA3E054
:10107F009000FDC9F0A3EAF0A3E9F07BFF7A1479A1
:10108F00A31217797B037D787F0212218A7F1E7E40
:10109F00001221EE9000F7E0F9A3E0FAA3E0900030
:1010AF00FDC9F0A3EAF0A3E9F07BFF7A1479B2123D
:1010BF0017797B037D787F0612218A7F1E7E0012AF
:1010CF0021EE9000F7E0F9A3E0FAA3E09000FDC94C
:1010DF00F0A3EAF0A3E9F07BFF7A1479C112177934
:1010EF007B037D787F0712218A7F1E7E001221EEFF
:1010FF009000F7E0F9A3E0FAA3E09000FDC9F0A398
:10110F00EAF0A3E9F07BFF7A1479CE1217797B030B
:10111F007D787F0312218A7F1E7E001221EE9000C0
:10112F00F7E0F9A3E0FAA3E09000FDC9F0A3EAF01D
:10113F00A3E9F07BFF7A1479DB121779758DFD85A2
:10114F008D8B7B037D787F8112218A7F1E7E00121B
:10115F0021EE9000F7E0F9A3E0FAA3E09000FDC9BB
:10116F00F0A3EAF0A3E9F07BFF7A1479E81217797C
:10117F007B037DB17F8112218A7F1E7E001221EEBB
:10118F009000F7E0F9A3E0FAA3E09000FDC9F0A307
:10119F00EAF0A3E9F07BFF7A1479F51217797B0354
:1011AF007DB47F8112218A7F1E7E001221EE900076
:1011BF00F7E0F9A3E0FAA3E09000FDC9F0A3EAF08D
:1011CF00A3E9F07BFF7A1579061217797B037DB7B8
:1011DF007F8112218A7F1E7E001221EE9000F7E0A0
:1011EF00F9A3E0FAA3E09000FDC9F0A3EAF0A3E9A8
:1011FF00F07BFF7A1579121217799000CCE0B407C3
:10120F000E1221189000CC7402F07EFF7FFF22E4B3
:03121F00FEFF22AD
:0B0046009000F7EBF0A3EAF0A3E9F054
:10005100A37408F07B027D7E7F0112218A7F1E7EC0
:10006100001221EE9000F7E0FBA3E0FAA3E0F91201
:10007100097AFFAEF0FDAC067BFF7A15791E121BE3
:10008100C47F1E7E001221EE9000F7E0FBA3E0FA90
:10009100A3E0F99000021209A5FFAEF0FDAC067BCA
:1000A100FF7A15792E121BC49000F7E0FBA3E0FA4A
:1000B100A3E0F9E4F5F01209DD9000F7E0FBA3E01D
:1000C100FAA3E0F9900002E4F5F01209FC7B027D4D
:1000D1007E7F0612218A7F1E7E001221EE9000F79C
:1000E100E0FBA3E0FAA3E0F912097AFFAEF0FDAC60
:1000F100067BFF7A15793E121BC47F1E7E001221FA
:10010100EE9000F7E0FBA3E0FAA3E0F99000021201
:1001110009A5FFAEF0FDAC067BFF7A15794E121BE7
:10012100C49000F7E0FBA3E0FAA3E0F9E4F5F012D4
:1001310009DD9000F7E0FBA3E0FAA3E0F9900002EB
:10014100E4F5F01209FC7B027D7E7F0712218A7F94
:100151001E7E001221EE9000F7E0FBA3E0FAA3E07F
:10016100F912097AFFAEF0FDAC067BFF7A15795ED4
:10017100121BC47F1E7E001221EE9000F7E0FBA34C
:10018100E0FAA3E0F99000021209A5FFAEF0FDAC80
:10019100067BFF7A15796E121BC49000F7E0FBA372
:1001A100E0FAA3E0F9E4F5F01209DD9000F7E0FBD5
:1001B100A3E0FAA3E0F9900002E4F5F01209FC9043
:1001C10000CCE0640870399000FEF0A3F0FB7D05DF
:1001D1007F01121D1B7F1E7E001221EEE49000FEA6
:1001E100F0A3F0FB7D057F01121D1B7F1E7E001217
:1001F10021EEE49000FEF0A3F0FBFD7F01121D1B38
:100201009000CCE0B409139000FAE0FBE49000FE0A
:10021100F0A3F07D017F01121D1B9000CCE0B40A18
:10022100139000FAE0FBE49000FEF0A3F07D027F62
:1002310001121D1B9000CCE0B40B2A9000FAE0FBE8
:100241009000FEE4F0A374B4F07D037F01121D1B46
:100251007FD07E071221EEE49000FEF0A3F0FBFDBB
:100261007F01121D1B9000CCE0640C70399000FEE0
:10027100F0A3F0FB7D057F06121D1B7F1E7E001281
:1002810021EEE49000FEF0A3F0FB7D057F06121D38
:100291001B7F1E7E001221EEE49000FEF0A3F0FB16
:1002A100FD7F06121D1B9000CCE0B40D10E4900000
:1002B100FEF0A3F07B077D017F06121D1B9000CC91
:1002C100E0B40E10E49000FEF0A3F07B077D027F06
:1002D10006121D1B9000CCE0B40F279000FEE4F045
:1002E100A374B4F07B077D037F06121D1B7FD07EB4
:1002F100071221EEE49000FEF0A3F0FBFD7F061251
:100301001D1B9000CCE0641070399000FEF0A3F04A
:10031100FB7D057F07121D1B7F1E7E001221EEE46F
:100321009000FEF0A3F0FB7D057F07121D1B7F1ED1
:100331007E001221EEE49000FEF0A3F0FBFD7F07AA
:10034100121D1B9000CCE0B41110E49000FEF0A34C
:10035100F07B077D017F07121D1B9000CCE0B412DA
:1003610010E49000FEF0A3F07B077D027F07121DD1
:100371001B9000CCE0B413279000FEE4F0A374B40A
:10038100F07B077D037F07121D1B7FD07E071221A3
:10039100EEE49000FEF0A3F0FBFD7F07121D1B9021
:1003A10000CCE0B4140E9000FE7464F0E4FBFD7F19
:1003B10003121EC49000CCE0B4150F9000FE7464CB
:1003C100F07B23E4FD7F03121EC49000CCE0B41641
:1003D1000F9000FE7464F0E4FB7D237F03121EC4C2
:1003E1009000CCE0B4170F9000FE7464F07B237D85
:1003F100237F03121EC49000CCE064196003020540
:100401006EE49000FEF0A3F07B097D017F01121DD7
:100411001B7F1E7E001221EEE49000FEF0A3F07B14
:10042100077D017F06121D1B7F1E7E001221EEE457
:100431009000FEF0A3F07B077D017F07121D1B7F5B
:100441001E7E001221EE9000CCE0FF6418700302C2
:1004510004DDEF640770030204DD7FAC7E0D122121
:10046100EE9000CCE0FF64076072EF6418606DE409
:100471009000FEF0A3F07B097D027F01121D1B7F1E
:100481001E7E001221EEE49000FEF0A3F07B077DBA
:10049100027F06121D1B7F1E7E001221EE9000CCF2
:1004A100E064076037E49000FEF0A3F07B077D0273
:1004B1007F07121D1B7F1E7E001221EE9000CCE0F3
:1004C100641860187FAC7E0D1221EE9000CCE0FF25
:1004D10064076008EF641860030204029000FEE400
:1004E100F0A374B4F07B097D037F01121D1B7F1EF5
:1004F1007E001221EE9000FEE4F0A374B4F07B07BD
:100501007D037F06121D1B7F1E7E001221EE9000CF
:10051100FEE4F0A374B4F07B077D037F07121D1B7B
:100521007F1E7E001221EE7FD07E071221EEE49025
:1005310000FEF0A3F0FBFD7F01121D1B7F1E7E005C
:100541001221EEE49000FEF0A3F0FBFD7F06121DE8
:100551001B7F1E7E001221EEE49000FEF0A3F0FB53
:10056100FD7F07121D1B7F1E7E001221EE9000CC25
:10057100E0640760030206181221189000CC74028F
:10058100F09000FEE4F0A374B4F07B097D037F01D9
:10059100121D1B7F1E7E001221EE9000FEE4F0A3CF
:1005A10074B4F07B077D037F06121D1B7F1E7E0046
:1005B1001221EE9000FEE4F0A374B4F07B077D03FA
:1005C1007F07121D1B7F1E7E001221EE7FD07E074A
:1005D1001221EEE49000FEF0A3F0FBFD7F01121D5D
:1005E1001B7F1E7E001221EEE49000FEF0A3F0FBC3
:1005F100FD7F06121D1B7F1E7E001221EEE490007E
:10060100FEF0A3F0FBFD7F07121D1B7F1E7E001273
:0E06110021EE7EFF7FFF22E49000CCF0FEFF82
:01061F0022B8
:1015CA009000F7EBF0A3EAF0A3E9F09000F7E0FB54
:1015DA00A3E0FAA3E0F974F175F0F01209DD9000C6
:1015EA00CCE024E6B40700506690160175F003A417
:1015FA00C58325F0C5837302161602161D0216232B
:10160A0002162B02163302163B021643E4FBFD7F39
:10161A00808039E4FBFDFF80337B287D287F0180B1
:10162A002B7B287D287F0280237B19E4FD7F0480A1
:10163A001BE4FB7D197F038013E4FBFD7F05121E6B
:10164A003F7F1E7E001221EEE4FBFDFF121E3F903B
:10165A0000CCE0640770241221189000CC7402F0C8
:10166A00E4FBFD7F05121E3F7F1E7E001221EEE481
:10167A00FBFDFF121E3F7EFF7FFF227F0A7E0012C4
:10168A0021EE7B017D887F8112218A7F1E7E0012D6
:10169A0021EE9000F7E0FBA3E0FAA3E0F912097A41
:1016AA00FDACF0E412072B7B0A7AD77923783C1237
:1016BA000620120764AD07AC067BFF7A15797E1205
:1016CA001BC47F0A7E001221EE7B027D977F811266
:1016DA00218A7F1E7E001221EE9000F7E0FBA3E034
:1016EA00FAA3E0F912097AE5F0FD7C0064F1607B67
:1016FA007BFF7A15798A121BC47F0A7E001221EEBB
:10170A009000F7E0FBA3E0FAA3E0F912097A7C0063
:10171A00FD7BFF7A157993121BC47F0A7E00122182
:10172A00EE9000F7E0FBA3E0FAA3E0F990000212C2
:10173A0009A5E5F0FD7C007BFF7A15799C121BC494
:10174A007F0A7E001221EE9000F7E0FBA3E0FAA3E5
:10175A00E0F99000021209A57C00FD7BFF7A157959
:0F176A00A5121BC47F0A7E001221EEE4FEFF22AF
:101C820070616765206D61696E00706167652075BE
:101C92006C747261736F6E69630070616765207244
:101CA2006F626F7420636F6E74726F6C0070616725
:101CB200652076657273696F6E0070616765206872
:101CC20065616420636F6E74726C00AA55CC00006B
:101CD200000000000000AA55CC0000000000000037
:101CE20000000000000000000000000000000000F2
:101CF20000000000AA55CC00000000000000000017
:101D02000000000000AA55CC000000000000000006
:091D1200000000000000000000C8
:1018A2004100CC004500E800000000004100D100EA
:1018B20060640067000000000000000000000000FB
:1018C2000000000000000000000000000000000016
:1018D2000000000000000000000000000000000006
:1018E20000000000000000000000000000000000F6
:1018F20000000000000000000000000000000000E6
:1019020000000000000000000000000000000000D5
:1019120000000000000000004100000041006600DD
:10192200410065004100CB005400D30000000000DC
:101932000000000000000000000000000000004164
:1019420000CD004100D2004100D0004100E700601C
:101952006400010000000000000000000000000020
:101962000000000000000000000000000000000075
:101972000000000000000000000000000000000065
:101982000000000000000000000000000000000055
:101992000000000000000000000000000000000045
:1019A2000000000000000000000000000000000035
:0C19B200000000000000004200CE000019
:0B222D000000007F0B7EBEDEFEDFFC29
:012238002283
:0421EA007FFA7E00FA
:1021EE00AD07AC06ED1DAE0470011C4E600512224B
:0421FE002D80F1221D
:0422390075C76022E3
:051F3C0090010AEDF028
:101F410074FFA3F0A3F0ED700590010A04F0900175
:101F51000AE0FF14F0EF60511208DBFF90010BE083
:101F6100F0A3E06FF0E4FD90010CE090010B30E094
:101F710022E0C313FEA3E013FF90010BEEF0A3EFE9
:101F8100F0EE64A0FEEF6401FF90010BEEF0A3EF11
:101F9100F08008E0C313F0A3E013F00DEDB408C71F
:101FA100740129F9E43AFA80A590010BE0FEA3E05F
:011FB100FF30
:011FB200220C
:051FB3009000EFEDF0CD
:101FB80074FFA3F0A3F0ED70059000EF04F090001B
:101FC800EFE0FF14F0EF60511208DBFF9000F0E043
:101FD800F0A3E06FF0E4FD9000F1E09000F030E055
:101FE80022E0C313FEA3E013FF9000F0EEF0A3EF8E
:101FF800F0EE64A0FEEF6401FF9000F0EEF0A3EFB6
:10200800F08008E0C313F0A3E013F00DEDB408C7A7
:10201800740129F9E43AFA80A59000F0E0FEA3E003
:01202800FFB8
:012029002294
:05202A0090011EEDF025
:10202F0074FFA3F0A3F0ED700590011E04F0900172
:10203F001EE0FF14F0EF60511208DBFF90011FE06C
:10204F00F0A3E06FF0E4FD900120E090011F30E07D
:10205F0022E0C313FEA3E013FF90011FEEF0A3EFE6
:10206F00F0EE64A0FEEF6401FF90011FEEF0A3EF0E
:10207F00F08008E0C313F0A3E013F00DEDB408C730
:10208F00740129F9E43AFA80A590011FE0FEA3E05C
:01209F00FF41
:0120A000221D
:0520A1009000F4EDF0D9
:1020A60074FFA3F0A3F0ED70059000F404F0900027
:1020B600F4E0FF14F0EF60511208DBFF9000F5E04A
:1020C600F0A3E06FF0E4FD9000F6E09000F530E05C
:1020D60022E0C313FEA3E013FF9000F5EEF0A3EF9A
:1020E600F0EE64A0FEEF6401FF9000F5EEF0A3EFC2
:1020F600F08008E0C313F0A3E013F00DEDB408C7B9
:10210600740129F9E43AFA80A59000F5E0FEA3E00F
:01211600FFC9
:0121170022A5
:0B218A009000FBEFF0A3EDF0A3EBF0E2
:10219500E4A3F078FF7C007D017BFF7A1C79CDFEFE
:1021A5007F0B1208B59000FBE0900102F0A37403C9
:1021B500F0E4A3F09000FCE0900105F0E4A3F090BA
:1021C50000FDE0900107F07B017A0179027D06129E
:1021D5001F3CAC06EF900108F0EEA3F07A0079FF02
:0521E5007D0B02002645
:0B1D1B009000FBEFF0A3EDF0A3EBF055
:101D260078007C017D017BFF7A1C79D87E007F1EBE
:101D36001208B59000FBE0900103F0A37410F0E4E4
:101D4600A3F0A3F0A3F0A37407F0A3740EF0E4A32A
:101D5600F09000FCE090010BF0E4A3F09000FDE0B1
:101D660090010DF09000FEE0FCA3E0FDEC90010E6A
:101D7600F0EDA3F0A37412F0A3740CF0E4A3F0A3A7
:101D86007446F0E4A3F0A37407F0E4A3F0A3F07B99
:101D9600017A0179037D1512202AAC06EF9001180D
:0D1DA600F0EEA3F07A0179007D1A0200260C
:0B1EC4009000FBEFF0A3EDF0A3EBF0AB
:101ECF0078FF7C007D017BFF7A1C79F67E007F1105
:101EDF001208B59000FBE0900102F0A37410F0E43B
:101EEF00A3F0A3F0A3F0A37403F0A37406F0E4A38C
:101EFF00F09000FCE090010AF0E4A3F09000FDE008
:101F0F0090010CF0E4A3F09000FEE090010EF07B46
:101F1F00017A0179027D0D12202AAC06EF90010F94
:0D1F2F00F0EEA3F07A0079FF7D120200268B
:0B1E3F009000FAEFF0A3EDF0A3EBF031
:101E4A0078FD7C007D017BFF7A1D79077E007F1477
:101E5A001208B59001007481F0A37410F0E4A3F0A5
:101E6A00A3F0A3F0A37404F0A37408F0E4A3F09021
:101E7A0000FAE0900108F09000FBE0900109F09070
:101E8A0000FCE090010AF0A37405F0A3740AF0A321
:101E9A007405F0A3740AF0E4A3F0A3F07B017A01BD
:101EAA0079007D0F12202AAC06EF90010FF0EEA305
:0A1EBA00F07A0079FD7D1402002685
:1019BF001222021222187BFF7A1C798212211E90AA
:1019CF0000CCE0B403257BFF7A1C798C12211E75A5
:1019DF008DFD858D8B7B017A007901120D9EC3EEF3
:1019EF006480948040051221EA80EA9000CCE0B434
:1019FF0004257BFF7A1C799C12211E758DFD858D28
:101A0F008B7B017A0079011215CAC3EE6480948032
:101A1F0040051221EA80EA9000CCE0B4061F7BFF5C
:101A2F007A1C79AF12211E7B017A00790112101FE7
:101A3F00C3EE6480948040051221EA80EA9000CCC6
:101A4F00E0640570617BFF7A1C79BC12211E758DD5
:101A5F00F7858D8BE49000FEF0A3F0FBFD7F011264
:101A6F001D1B7F1E7E001221EEE49000FEF0A3F0FE
:101A7F00FBFD7F06121D1B7F1E7E001221EEE490E0
:101A8F0000FEF0A3F0FBFD7F07121D1B7B017A0008
:101A9F007901120046C3EE6480948040097F0A7E6C
:101AAF00001221EE80E67F017E001221EE0219CE98
:03002300021222A4
:10122200C0E0C083C082C0D075D000C001C002C07F
:0912320003C004C005C006C0079A
:10123B002098030213E2C2989000CBE0FF2467F5DD
:10124B0082E43400F583E599F0900000E0706FEFD5
:10125B0070139000CBE02467F582E43400F583E053
:10126B00B4AA0280159000CBE0FFB401122467F5FD
:10127B0082E43400F583E0B4AA059000CB8035906E
:10128B0000CBE0FFB401152467F582E43400F5834D
:10129B00E0B455089000CB7402F080229000CBE0B4
:1012AB00FFB402152467F582E43400F583E0B4CC77
:1012BB00089000007401F080059000CBE4F09000E2
:1012CB0000E0640160030213E2900066E0640160D9
:1012DB00030213C5900065E0C394464014900000D0
:1012EB00E4F0900066F09000CBF0900065F00213F4
:1012FB00E2900065E014F0E060030213C57B017A15
:10130B0000796A90006CE02403FD121FB3AD07ACAB
:10131B000690006CE0FB246EF582E43400F583E06C
:10132B00FE746D2BF582E43400F583E0FBEBFF6D6F
:10133B007002EC6E70509000EDF090006CE0C313F7
:10134B00FF9000EDE0FDC39F503CA3E0FC246DF546
:10135B0082E43400F583E0FE746E2CF582E43400F5
:10136B00F583E0FBEBFFED25E02401F582E434008F
:10137B00F583EEF0A3EFF09000EEE02402F0900086
:10138B00EDE004F080B4900001E0B41112A3E0B4DE
:10139B00220DA3E0B43308A3E0B444031222399026
:1013AB000000E4F0900066F09000CBF0900065F048
:1013BB009000EEF09000EDF0801D9000CBE0B405B6
:1013CB00109000667401F090006CE02402900065B0
:0713DB00F09000CBE004F0EC
:1013E200D007D006D005D004D003D002D001D0D08F
:0713F200D082D083D0E0326D
:03004300020A8C22
:0B0A8C00C0E0C083C082C0D075D0085D
:100A9700E59A20E003020D95539AFE9000E7E0FFE8
:100AA70024D3F582E43400F583E59BF09000CDE094
:100AB700706FEF70139000E7E024D3F582E4340001
:100AC700F583E0B4AA0280159000E7E0FFB40112B5
:100AD70024D3F582E43400F583E0B4AA059000E757
:100AE70080359000E7E0FFB4011524D3F582E434A4
:100AF70000F583E0B455089000E77402F080229077
:100B070000E7E0FFB4021524D3F582E43400F5834F
:100B1700E0B4CC089000CD7401F080059000E7E4C4
:100B2700F09000CDE064016003020D959000D2E0E3
:100B370064016003020D789000D0E0C39446401131
:100B47009000CDE4F09000D2F09000E7F09000D054
:100B5700F09000D0E014F0E06003020D787B017A9A
:100B67000079D69000D8E02403FD1220A1AD0FAC88
:100B77000E9000D8E0FB24DAF582E43400F583E038
:100B8700FE74D92BF582E43400F583E0FBEB6D703E
:100B970002EC6E70509000F2F09000D8E0C313FFA3
:100BA7009000F2E0FDC39F503CA3E0FC24D9F582FE
:100BB700E43400F583E0FE74DA2CF582E43400F5C2
:100BC70083E0FBEBFFED25E024CEF582E43400F56E
:100BD70083EEF0A3EFF09000F3E02402F09000F230
:100BE700E004F080B49000CDE4F09000D2F09000E3
:100BF700E7F09000D0F09000F3F09000F2F0900052
:100C0700CEE0FEA3E0FF4E70069000CC7404F0EF38
:100C170064014E70069000CC7403F0EF64024E70CE
:100C2700069000CC7405F0EF64034E70069000CC7C
:100C37007406F0EF64BC4E70069000CC7407F0E4C5
:100C4700B50F0AEEB403069000CC7408F0BE030992
:100C5700BF01069000CC7409F0BE0309BF020690DD
:100C670000CC740BF0BE0309BF03069000CC740AD6
:100C7700F0BE0309BF1A069000CC740CF0BE03093E
:100C8700BF10069000CC740DF0BE0309BF1206908A
:100C970000CC740FF0BE0309BF1B069000CC740E86
:100CA700F0BE0309BF20069000CC7410F0BE030904
:100CB700BF21069000CC7411F0BE0309BF22069035
:100CC70000CC7413F0BE0309BF23069000CC741246
:100CD700F0BE0309BFAA069000CC7414F0BE030946
:100CE700BFBB069000CC7415F0BE0309BFCC0690BD
:100CF70000CC7416F0BE0309BFDD069000CC741754
:100D0700F0BE0309BF34069000CC7418F0BE030987
:100D1700BF35069000CC7419F0E4B50F0AEEB4C1E4
:100D2700069000CC741BF0BEC109BF01069000CC31
:100D3700741AF0BED109BFD1069000CC741CF0BE66
:100D4700D209BFD2069000CC741DF0BED309BFD321
:100D5700069000CC741EF0BED409BFD4069000CC18
:100D6700741FF0BED028BFD0259000CC7420F0802F
:100D77001D9000E7E0B405109000D27401F09000D8
:0E0D8700D8E024029000D0F09000E7E004F0E5
:090D9500D0D0D082D083D0E0322E
:10062000EC4D6011E8497017ED33EC3304600DE4D4
:10063000FCFFFEFD22E933E8330470F80207D01214
:10064000079B58046009E4CC248150062850090215
:1006500007DA2840030207D7C0E0EB4A7044B980AC
:1006600006D0E0FB0207C6EF4E701CBD8008EBFF12
:10067000EAFEE9FD80EBE98DF0A4FEE5F002070952
:10068000E9CDF9EAFEEBFFEF89F0A4FCE5F0CE89B5
:10069000F0A42EFFE435F0CD89F0A42DFEE435F072
:1006A0008067EF4E7005BD80D780C3EF8BF0A4ACA0
:1006B000F0EE8BF0A42CFCE435F0F8EF8AF0A42CDB
:1006C000E5F038FCE433CB8DF0A42CFCE5F03BF8EE
:1006D000EE8AF0A42CFCE5F038F8E433CF89F0A4DE
:1006E0002CFCE5F038CF3400CE89F0A42FFFE5F0E4
:1006F0003EFEE433C98DF0A42EFEE5F039CD8AF03C
:10070000A42FFFE5F03EFEE43DFD33D0E0FB5007B3
:100710000BBB000F0207DAEC2CFCEF33FFEE33FECD
:06072000ED33FD0207B2FB
:1007260075F020800E75F010800575F0087D007E4E
:10073600007F003392D530D503120A29EC334010DE
:10074600EF33FFEE33FEED33FDEC33FCD5F0ED2257
:0E075600E5F0247EA2D513CC92E7CDCEFF2293
:10076400EDD2E7CD33EC3392D524814006E4FFFE8D
:10077400FDFC22FCE4CFCECDCC24E0501174FF80EC
:10078400EDC3CC13CCCD13CDCE13CECF13CF047089
:07079400F030D5DE020A2956
:10079B00E9D2E7C933E833F892D5EDD2E7CD33ECA4
:0707AB0033FC5002B2D5221D
:1007B200EC30E7100FBF000C0EBE00080DBD0004A8
:1007C2000BEB6014A2D5EB13FCED92E7FD2274FF54
:1007D200FCFDFEFF22E480F8A2D574FF13FC7D80AD
:0307E200E480EFC1
:03000000021DB32B
:0C1DB300787FE4F6D8FD75810F021DFA60
:1007E500E709F608DFFA8046E709F208DFFA803EF6
:1007F50088828C83E709F0A3DFFA8032E309F608E3
:10080500DFFA8078E309F208DFFA807088828C834A
:10081500E309F0A3DFFA806489828A83E0A3F608FE
:10082500DFFA805889828A83E0A3F208DFFA804CD8
:1008350080D280FA80C680D4806980F280338010AF
:1008450080A680EA809A80A880DA80E280CA803318
:1008550089828A83ECFAE493A3C8C582C8CCC58390
:10086500CCF0A3C8C582C8CCC583CCDFE9DEE78060
:100875000D89828A83E493A3F608DFF9ECFAA9F0DF
:10088500EDFB2289828A83ECFAE0A3C8C582C8CC35
:10089500C583CCF0A3C8C582C8CCC583CCDFEADE4E
:1008A500E880DB89828A83E493A3F208DFF980CCB0
:1008B50088F0EF60010E4E60C388F0ED2402B404A9
:1008C5000050B9F582EB2402B4040050AF23234550
:0608D50082239008357338
:1008DB00BB010689828A83E0225002E722BBFE021B
:0908EB00E32289828A83E493224E
:1008F400BB010689828A83F0225002F722BBFE01E3
:02090400F322DC
:10090600EF8DF0A4A8F0CF8CF0A428CE8DF0A42E05
:02091600FE22BF
:10091800C2D5EC30E709B2D5E4C39DFDE49CFCEEFA
:1009280030E715B2D5E4C39FFFE49EFE120A37C331
:10093800E49DFDE49CFC8003120A3730D507C3E42C
:060948009FFFE49EFE2269
:10094E00C5F0F8A3E028F0C5F0F8E5821582700234
:06095E001583E038F022D1
:10096400A3F8E0C5F025F0F0E58215827002158346
:06097400E0C838F0E822A3
:10097A00BB010A89828A83E0F5F0A3E02250068748
:10098A00F009E71922BBFE07E3F5F009E31922890A
:0B099A00828A83E493F5F0740193223D
:1009A500BB0110E58229F582E5833AF583E0F5F090
:1009B500A3E0225009E92582F886F008E622BBFE6D
:1009C5000AE92582F8E2F5F008E222E5832AF583B3
:0809D500E993F5F0A3E9932278
:1009DD00BB010A89828A83F0E5F0A3F0225006F765
:0F09ED0009A7F01922BBFE06F3E5F009F3192262
:1009FC00F8BB0111E58229F582E5833AF583E8F02D
:100A0C00E5F0A3F0225009E92582C8F608A6F022E9
:0D0A1C00BBFE09E92582C8F2E5F008F222D0
:0E0A2900C3E49FFFE49EFEE49DFDE49CFC22DE
:101DBF000219BFE493A3F8E493A34003F68001F262
:101DCF0008DFF48029E493A3F85407240CC8C33325
:101DDF00C4540F4420C8834004F456800146F6DFF4
:101DEF00E4800B01020408102040809018A2E47ECA
:101DFF00019360BCA3FF543F30E509541FFEE493E9
:101E0F00A360010ECF54C025E060A840B8E493A3AF
:101E1F00FAE493A3F8E493A3C8C582C8CAC583CADA
:101E2F00F0A3C8C582C8CAC583CADFE9DEE780BE92
:0119BE000028
:100A3700BC000BBE0029EF8DF084FFADF022E4CCA3
:100A4700F875F008EF2FFFEE33FEEC33FCEE9DEC6C
:100A5700984005FCEE9DFE0FD5F0E9E4CEFD22EDB2
:100A6700F8F5F0EE8420D21CFEADF075F008EF2FFC
:100A7700FFED33FD4007985006D5F0F222C398FDED
:050A87000FD5F0EA228A
:00000001FF
