:10002600AF051DEF60131208CBF5993099FDC29903
:0A003600740129F9E43AFA80E72288
:10000300AF051DEF60161208CBF59BE59A30E1FBB7
:0D001300539AFD740129F9E43AFA80E422C1
:10280300759850758920438E40758DF7858D8BD2D1
:06281300AFD2ACD28E2210
:1028190075B60175B501759A50759CF7D2AF438E9F
:052829001475AF01224F
:10113A00226E6F20646576696365220064302E76BC
:10114A00616C3D0064322E76616C3D0064342E760B
:10115A00616C3D0064362E76616C3D0064382E76F3
:10116A00616C3D0064612E76616C3D0064632E768D
:10117A00616C3D0064652E76616C3D0065302E76AB
:10118A00616C3D0065322E76616C3D0065342E76C9
:10119A00616C3D0065382E76616C3D00686F6E6744
:1011AA007761697A756F2E76616C3D00686F6E673C
:1011BA00776169796F752E76616C3D00706167653C
:1011CA00206D61696E006469616E7975616E67751B
:1011DA00616E6C692E7478743D00746F755F647506
:1011EA006F6A692E7478743D0064616E796F756CEC
:1011FA00756E2E7478743D007A756F73686F752EEC
:10120A007478743D00796F7573686F752E7478748D
:10121A003D00746F755F6C65642E7478743D007A56
:10122A0068756B6F6E672E7478743D006368616FC2
:10123A006B75616E6461692E7478743D007A756F9E
:10124A006C756E2E7478743D00796F756C756E2EA0
:10125A007478743D00686269616E6D6171697A2E95
:10126A0076616C3D00686269616F64696E677A2EA7
:10127A0076616C3D007A6269616E6D6171697A2E80
:10128A0076616C3D007A6269616F64696E677A2E75
:10129A0076616C3D00796269616E6D6171697A2E61
:1012AA0076616C3D00796269616F64696E677A2E56
:1012BA0076616C3D0068746F757869616E6C6975EA
:1012CA002E76616C3D0068746F757368616E67781D
:1012DA00772E76616C3D0068746F757869617877EE
:1012EA002E76616C3D0066797869616E6C69752E3F
:1012FA0076616C3D0066797368616E677869616EC4
:10130A00772E76616C3D0066797869617869616EDD
:10131A00772E76616C3D007A756F7869616E6C69BB
:10132A00752E76616C3D007A756F7368616E6778A9
:10133A00772E76616C3D007A756F78696178772EC1
:10134A0076616C3D007973686F757869616E6C6956
:10135A00752E76616C3D007973686F757368616E7E
:10136A006778772E76616C3D00797368616F75785E
:10137A00696178772E76616C3D006A69616F647580
:10138A002E76616C3D006972342E76616C3D00697F
:10139A0072332E76616C3D006972322E76616C3D35
:1013AA00006972312E76616C3D00FFFFFF0000007C
:1013BA000000000000000000FFFFFFFFFFFF000029
:0713CA00000000000000001C
:062649007BFF7A1179C647
:0B264F009000FBEBF0A3EAF0A3E9F021
:10265A00A3EBF0A3EAF0A3E9F078017C017D017B0A
:10266A00FF7A1379B47E007F031208A5E4FF900075
:10267A00FEE0FBA3E0FAA3E0F91208CB600D90009C
:10268A00FFE475F0011209930F80E39000FBE0FB71
:10269A00A3E0FAA3E0F9AD071200037F0A7E001255
:1026AA0027EF7B017A0179017D03120003E4FEFF23
:0126BA0022FD
:101FA00090010DEEF0A3EFF0A3EBF0A3EAF0A3E9AC
:011FB000F040
:101FB100E4A3F0A3F078147C017D017BFF7A13790F
:101FC100B7FE7F061208A590010DE0FEA3E0FFC356
:101FD100EE648094805026C3E49FFFE49E90010D3F
:101FE100F0A3EFF0A3E0FBA3E475F0011209A9A9A6
:101FF100F0FA742D1208E4900113E004F090010D41
:10200100E0FAA3E0FB7C007D0AFFAE0212095DED60
:102011002430FF900112E0FE04F0EEFD3395E0FC68
:1020210074142DF58274013CF583EFF07C007D0A78
:10203100AF03AE0212095D90010DEEF0A3EFF0D3F4
:102041009400EE6480948050B4900112E0FFA3E00C
:102051002FF0900112E0FF14F0D3EF6480948040E0
:1020610028E0FF3395E0FE74142FF58274013EF5EC
:1020710083E0FF90010FE0FBA3E475F0011209A9D1
:10208100A9F0FAEF1208E480C990010FE0FBA3E088
:0D209100FAA3E0F9E41208E4900113E0FF67
:01209E00221F
:08218600FFAEF0FDAC067BFF8B
:10218E009000FBEBF0A3EAF0A3E9F0A3ECF0A3EDD3
:01219E00F050
:10219F0078007C017D017BFF7A1379BD7E007F057E
:1021AF001208A5E4900105F09000FBE0F9A3E0FA16
:1021BF00A3E0900106C9F0A3EAF0A3E9F078097C47
:1021CF00017D017BFF7A1379C27E007F031208A580
:1021DF00E490010CF09000FEE0FEA3E0FF7B017A9B
:1021EF00017900121FA0900105EFF0900106E0FBAE
:1021FF00A3E0FAA3E0F91208CB6012900107E4758F
:10220F00F00112099390010CE004F080DE9000FBC6
:10221F00E0FBA3E0FAA3E0F990010CE0FD1200034C
:10222F007B017A017900900105E0FD1200037B012B
:0C223F007A0179097D03120003E4FEFF20
:01224B002270
:0B1BE7009000FAEBF0A3EAF0A3E9F095
:101BF200900100EBF0A3EAF0A3E9F0A37432F078CD
:101C0200047C017D017BFF7A1379C57E007F03127C
:101C120008A578077C017D017BFF7A1379C87E00D5
:101C22007F091208A5E4900110F09001077422F0D8
:101C3200A37456F09000FDE0FBA3E0FAA3E0F912D2
:101C420009BFACF0ECD39409E494004025ECFB7C92
:101C5200007D0AFF7E00120908EF2430900109F08E
:101C62007C007D0AAF037E00120908ED2430A3F048
:101C7200801C9001097420F09000FDE0FBA3E0FAC3
:101C8200A3E0F91209BFE5F0243090010AF09001B7
:101C92000B742EF09000FDE0FBA3E0FAA3E0F91232
:101CA20009BF243090010CF0A3742EF090000212B0
:101CB20009EAE5F0243090010EF0A37422F09001BD
:101CC20000E0FBA3E0FAA3E0F91208CB6012900156
:101CD20001E475F001120993900110E004F080DE36
:101CE2009000FAE0FBA3E0FAA3E0F9900110E0FD16
:101CF2001200039000FDE0FBA3E0FAA3E0F9120951
:101D0200BF45F070149000021209EA45F0700A7B98
:101D1200FF7A11793A7D0B80087B017A0179077D80
:101D2200091200037B017A0179047D0312000390FA
:101D32000103E0FF14F0EF601D9000FDE0FBA3E063
:101D4200FAA3E0F9E4F5F0120A229000FEE475F03D
:091D52000212099380D9E4FEFF9E
:011D5B002265
:0B13D1009000F7EBF0A3EAF0A3E9F0B6
:1013DC00A37432F07B1B7D807F8112272B7F1E7EB6
:1013EC00001227EF9000F7E0FBA3E0FAA3E0F990DE
:1013FC0000161209EAE5F0FF7E007C007D0A120857
:10140C00F6AC06AD077BFF7A11794612218E90005F
:10141C00F7E0FBA3E0FAA3E0F99000161209EAFF4B
:10142C007E007C007D0A1208F6AC06AD077BFF7AC5
:10143C0011794E12218E9000F7E0FBA3E0FAA3E0A5
:10144C00F99000181209EAE5F0FF7E007C007D0A95
:10145C001208F6AC06AD077BFF7A11795612218E75
:10146C009000F7E0FBA3E0FAA3E0F9900018120952
:10147C00EAFF7E007C007D0A1208F6AC06AD077B05
:10148C00FF7A11795E12218E9000F7E0FBA3E0FA4F
:10149C00A3E0F990001A1209EAE5F0FF7E007C0047
:1014AC007D0A1208F6AC06AD077BFF7A117966123D
:1014BC00218E9000F7E0FBA3E0FAA3E0F990001A6C
:1014CC001209EAFF7E007C007D0A1208F6AC06AD1C
:1014DC00077BFF7A11796E12218E9000F7E0FBA347
:1014EC00E0FAA3E0F990001C1209EAE5F0FF7E0097
:1014FC007C007D0A1208F6AC06AD077BFF7A1179E9
:10150C007612218E9000F7E0FBA3E0FAA3E0F990AD
:10151C00001C1209EAFF7E007C007D0A1208F6AC62
:10152C0006AD077BFF7A11797E12218E9000F7E0D1
:10153C00FBA3E0FAA3E0F990001E1209EAE5F0FF24
:10154C007E007C007D0A1208F6AC06AD077BFF7AA4
:10155C0011798612218E9000F7E0FBA3E0FAA3E04C
:10156C00F990001E1209EAFF7E007C007D0A120829
:10157C00F6AC06AD077BFF7A11798E12218E9000A6
:10158C00F7E0FBA3E0FAA3E0F99000201209EAE5EA
:10159C00F0FF7E007C007D0A1208F6AC06AD077BDE
:1015AC00FF7A11799612218E9000F7E0FBA3E0FAF6
:1015BC00A3E0F99000201209EAFF7E007C007D0A6E
:1015CC001208F6AC06AD077BFF7A11799E12218EBC
:1015DC009000F7E0FBA3E0FAA3E0F990002C1209CD
:1015EC00EAE5F025E0FDE433FC7BFF7A1179A612E5
:1015FC00218E9000F7E0FBA3E0FAA3E0F990002C19
:10160C001209EA25E0FDE433FC7BFF7A1179B6126E
:10161C00218E9000FAE0FF14F0EF601D9000F7E0CF
:10162C00FBA3E0FAA3E0F9E4F5F0120A229000F82B
:10163C00E475F00212099380D99000CCE0B4080E46
:10164C001226499000CC7402F07EFF7FFF22E4FE4C
:01165C00FF8E
:01165D00226A
:10165E009000F7EBF0A3EAF0A3E9F0758DF7858D16
:10166E008B7F1E7E001227EF7B037D787F0512276E
:10167E002B7F1E7E001227EF9000F7E0F9A3E0FA11
:10168E00A3E09000FDC9F0A3EAF0A3E9F07BFF7A96
:10169E001179D0121BE77B037D787F0112272B7FF8
:1016AE001E7E001227EF9000F7E0F9A3E0FAA3E008
:1016BE009000FDC9F0A3EAF0A3E9F07BFF7A11795F
:1016CE00E4121BE77B037D787F0212272B7F1E7EA1
:1016DE00001227EF9000F7E0F9A3E0FAA3E09000E4
:1016EE00FDC9F0A3EAF0A3E9F07BFF7A1179F312BA
:1016FE001BE77B037D787F0612272B7F1E7E001251
:10170E0027EF9000F7E0F9A3E0FAA3E09000FDC9FF
:10171E00F0A3EAF0A3E9F07BFF7A127902121BE73D
:10172E007B037D787F0712272B7F1E7E001227EF0B
:10173E009000F7E0F9A3E0FAA3E09000FDC9F0A352
:10174E00EAF0A3E9F07BFF7A12790F121BE77B0315
:10175E007D787F0312272B7F1E7E001227EF9000CD
:10176E00F7E0F9A3E0FAA3E09000FDC9F0A3EAF0D8
:10177E00A3E9F07BFF7A12791C121BE7758DFD85AC
:10178E008D8B7B037D787F8112272B7F1E7E00122F
:10179E0027EF9000F7E0F9A3E0FAA3E09000FDC96F
:1017AE00F0A3EAF0A3E9F07BFF7A127929121BE786
:1017BE007B037DB17F8112272B7F1E7E001227EFC8
:1017CE009000F7E0F9A3E0FAA3E09000FDC9F0A3C2
:1017DE00EAF0A3E9F07BFF7A127936121BE77B035E
:1017EE007DB47F8112272B7F1E7E001227EF900083
:1017FE00F7E0F9A3E0FAA3E09000FDC9F0A3EAF048
:10180E00A3E9F07BFF7A127947121BE77B037DB7C2
:10181E007F8112272B7F1E7E001227EF9000F7E0AC
:10182E00F9A3E0FAA3E09000FDC9F0A3EAF0A3E962
:10183E00F07BFF7A127953121BE79000CCE0B408CC
:10184E000E1226499000CC7402F07EFF7FFF22E438
:03185E00FEFF2268
:0B0046009000F7EBF0A3EAF0A3E9F054
:10005100A37408F07B027D7E7F0112272B7F1E7E19
:10006100001227EF9000F7E0FBA3E0FAA3E0F912FA
:1000710009BF7A12795F1221867F1E7E001227EF57
:100081009000F7E0FBA3E0FAA3E0F9900002120967
:10009100EA7A12796F1221869000F7E0FBA3E0FA69
:1000A100A3E0F9E4F5F0120A229000F7E0FBA3E0E7
:1000B100FAA3E0F9900002E4F5F0120A417B027D17
:1000C1007E7F0612272B7F1E7E001227EF9000F7FE
:1000D100E0FBA3E0FAA3E0F91209BFFFAEF0FDAC2B
:1000E100067BFF7A12797F12218E7F1E7E001227F6
:1000F100EF9000F7E0FBA3E0FAA3E0F99000021211
:1001010009EAFFAEF0FDAC067BFF7A12798F12216E
:100111008E9000F7E0FBA3E0FAA3E0F9E4F5F0121A
:100121000A229000F7E0FBA3E0FAA3E0F9900002B5
:10013100E4F5F0120A417B027D7E7F0712272B7FB7
:100141001E7E001227EF9000F7E0FBA3E0FAA3E088
:10015100F91209BFFFAEF0FDAC067BFF7A12799F61
:1001610012218E7F1E7E001227EF9000F7E0FBA385
:10017100E0FAA3E0F99000021209EAFFAEF0FDAC4B
:10018100067BFF7A1279AF12218E9000F7E0FBA374
:10019100E0FAA3E0F9E4F5F0120A229000F7E0FB9F
:1001A100A3E0FAA3E0F9900002E4F5F0120A41900D
:1001B10000CCE0640970399000FEF0A3F0FB7D05EE
:1001C1007F0112224C7F1E7E001227EFE49000FE79
:1001D100F0A3F0FB7D057F0112224C7F1E7E0012F1
:1001E10027EFE49000FEF0A3F0FBFD7F0112224C0B
:1001F1009000CCE0B40A139000FAE0FBE49000FE1A
:10020100F0A3F07D017F0112224C9000CCE0B40BF1
:10021100139000FAE0FBE49000FEF0A3F07D027F72
:100221000112224C9000CCE0B40C2A9000FAE0FBC1
:100231009000FEE4F0A374B4F07D037F0112224C20
:100241007FD07E071227EFE49000FEF0A3F0FBFDC4
:100251007F0112224C9000CCE0640D70399000FEB9
:10026100F0A3F0FB7D057F0612224C7F1E7E00125B
:1002710027EFE49000FEF0A3F0FB7D057F0612223C
:100281004C7F1E7E001227EFE49000FEF0A3F0FBEE
:10029100FD7F0612224C9000CCE0B40E10E49000D9
:1002A100FEF0A3F07B077D017F0612224C9000CC6B
:1002B100E0B40F10E49000FEF0A3F07B077D027F15
:1002C1000612224C9000CCE0B410279000FEE4F01E
:1002D100A374B4F07B077D037F0612224C7FD07E8E
:1002E100071227EFE49000FEF0A3F0FBFD7F06125A
:1002F100224C9000CCE0641170399000FEF0A3F024
:10030100FB7D057F0712224C7F1E7E001227EFE442
:100311009000FEF0A3F0FB7D057F0712224C7F1EAB
:100321007E001227EFE49000FEF0A3F0FBFD7F07B3
:1003310012224C9000CCE0B41210E49000FEF0A325
:10034100F07B077D017F0712224C9000CCE0B413B3
:1003510010E49000FEF0A3F07B077D027F071222DC
:100361004C9000CCE0B414279000FEE4F0A374B4E8
:10037100F07B077D037F0712224C7FD07E07122777
:10038100EFE49000FEF0A3F0FBFD7F0712224C90FA
:1003910000CCE0B4150E9000FE7464F0E4FBFD7F28
:1003A100031223F59000CCE0B4160F9000FE7464A4
:1003B100F07B23E4FD7F031223F59000CCE0B4171A
:1003C1000F9000FE7464F0E4FB7D237F031223F59C
:1003D1009000CCE0B4180F9000FE7464F07B237D94
:1003E100237F031223F59000CCE0641A6003020519
:1003F1005EE49000FEF0A3F07B097D017F011222F3
:100401004C7F1E7E001227EFE49000FEF0A3F07BEC
:10041100077D017F0612224C7F1E7E001227EFE42A
:100421009000FEF0A3F07B077D017F0712224C7F35
:100431001E7E001227EF9000CCE0FF6419700302CA
:1004410004CDEF640870030204CD7FAC7E0D12274A
:10045100EF9000CCE0FF64086072EF6419606DE416
:100461009000FEF0A3F07B097D027F0112224C7FF8
:100471001E7E001227EFE49000FEF0A3F07B077DC3
:10048100027F0612224C7F1E7E001227EF9000CCC5
:10049100E064086037E49000FEF0A3F07B077D0282
:1004A1007F0712224C7F1E7E001227EF9000CCE0C6
:1004B100641960187FAC7E0D1227EF9000CCE0FF2D
:1004C10064086008EF641960030203F29000FEE41F
:1004D100F0A374B4F07B097D037F0112224C7F1ECF
:1004E1007E001227EF9000FEE4F0A374B4F07B07C6
:1004F1007D037F0612224C7F1E7E001227EF9000A3
:10050100FEE4F0A374B4F07B077D037F0712224C55
:100511007F1E7E001227EF7FD07E071227EFE49027
:1005210000FEF0A3F0FBFD7F0112224C7F1E7E0036
:100531001227EFE49000FEF0A3F0FBFD7F061222EC
:100541004C7F1E7E001227EFE49000FEF0A3F0FB2B
:10055100FD7F0712224C7F1E7E001227EF9000CCF8
:10056100E0640860030206081226499000CC740278
:10057100F09000FEE4F0A374B4F07B097D037F01E9
:1005810012224C7F1E7E001227EF9000FEE4F0A3A2
:1005910074B4F07B077D037F0612224C7F1E7E0020
:1005A1001227EF9000FEE4F0A374B4F07B077D0303
:1005B1007F0712224C7F1E7E001227EF7FD07E071D
:1005C1001227EFE49000FEF0A3F0FBFD7F01122261
:1005D1004C7F1E7E001227EFE49000FEF0A3F0FB9B
:1005E100FD7F0612224C7F1E7E001227EFE4900051
:1005F100FEF0A3F0FBFD7F0712224C7F1E7E00124E
:0E06010027EF7EFF7FFF22E49000CCF0FEFF8B
:01060F0022C8
:100A7C009000F7EBF0A3EAF0A3E9F07B017D807F17
:100A8C000112272B7F1E7E001227EF9000F7E0FB50
:100A9C00A3E0FAA3E0F91209BFFDACF07BFF7A12D8
:100AAC0079BF12218E7F1E7E001227EF9000F7E097
:100ABC00FBA3E0FAA3E0F9E4F5F0120A227B027D35
:100ACC000B7F0112272B7F1E7E001227EF9000F761
:100ADC00E0FBA3E0FAA3E0F91209BFFFAEF0FDAC16
:100AEC00067BFF7A1279D012218E7F1E7E00122790
:100AFC00EF9000F7E0FBA3E0FAA3E0F990000212FC
:100B0C0009EAFFAEF0FDAC067BFF7A1279E1122107
:100B1C008E9000F7E0FBA3E0FAA3E0F9E4F5F01205
:100B2C000A229000F7E0FBA3E0FAA3E0F9900002A0
:100B3C00E4F5F0120A417B017D807F0212272B7FA6
:100B4C001E7E001227EF9000F7E0FBA3E0FAA3E073
:100B5C00F91209BFFDACF07BFF7A1279F012218EED
:100B6C007F1E7E001227EF9000F7E0FBA3E0FAA3B4
:100B7C00E0F9E4F5F0120A227B027D0B7F021227CA
:100B8C002B7F1E7E001227EF9000F7E0FBA3E0FA0C
:100B9C00A3E0F91209BFFFAEF0FDAC067BFF7A12A1
:100BAC0079FF12218E7F1E7E001227EF9000F7E056
:100BBC00FBA3E0FAA3E0F99000021209EAFFAEF001
:100BCC00FDAC067BFF7A13791112218E9000F7E0B1
:100BDC00FBA3E0FAA3E0F9E4F5F0120A229000F787
:100BEC00E0FBA3E0FAA3E0F9900002E4F5F0120AAE
:100BFC00417B017D807F0612272B7F1E7E001227F2
:100C0C00EF9000F7E0FBA3E0FAA3E0F91209BFFDB7
:100C1C00ACF07BFF7A13792112218E7F1E7E00129D
:100C2C0027EF9000F7E0FBA3E0FAA3E0F9E4F5F07E
:100C3C00120A227B027D0B7F0612272B7F1E7E0061
:100C4C001227EF9000F7E0FBA3E0FAA3E0F91209FA
:100C5C00BFFFAEF0FDAC067BFF7A13793112218E0B
:100C6C007F1E7E001227EF9000F7E0FBA3E0FAA3B3
:100C7C00E0F99000021209EAFFAEF0FDAC067BFF32
:100C8C007A13794112218E9000F7E0FBA3E0FAA3CE
:100C9C00E0F9E4F5F0120A229000F7E0FBA3E0FA89
:100CAC00A3E0F9900002E4F5F0120A417B017D808B
:100CBC007F0712272B7F1E7E001227EF9000F7E094
:100CCC00FBA3E0FAA3E0F91209BFFDACF07BFF7ABD
:100CDC0013794F12218E7F1E7E001227EF9000F7A2
:100CEC00E0FBA3E0FAA3E0F9E4F5F0120A227B02A0
:100CFC007D0B7F0712272B7F1E7E001227EF9000A3
:100D0C00F7E0FBA3E0FAA3E0F91209BFFFAEF0FD98
:100D1C00AC067BFF7A13796112218E7F1E7E001246
:100D2C0027EF9000F7E0FBA3E0FAA3E0F9900002B4
:100D3C001209EAFFAEF0FDAC067BFF7A1379731251
:100D4C00218E9000F7E0FBA3E0FAA3E0F9E4F5F0C4
:100D5C00120A229000F7E0FBA3E0FAA3E0F990005E
:100D6C0002E4F5F0120A419000CCE0642270787D28
:100D7C00067F0112278B7F1E7E001227EF7B5A7D88
:100D8C005A7F011226BB7F1E7E001227EF7D067F45
:100D9C000212278B7F1E7E001227EF7B097D097FB5
:100DAC00021226BB7F1E7E001227EF7D0A7F0612E1
:100DBC00278B7F1E7E001227EF7B5A7D5A7F0612EF
:100DCC0026BB7F1E7E001227EF7D0A7F0712278B22
:100DDC007F1E7E001227EF7B5A7D5A7F071226BB9F
:100DEC007F1E7E001227EF9000CCE0B4080E122676
:100DFC00499000CC7402F07EFF7FFF22E49000CC7F
:040E0C00F0FEFF22D3
:101A38009000F7EBF0A3EAF0A3E9F09000F7E0FBE1
:101A4800A3E0FAA3E0F974F175F0F0120A2290000D
:101A5800CCE024E5B407005066901A6F75F003A433
:101A6800C58325F0C58373021A84021A8B021A9162
:101A7800021A99021AA1021AA9021AB1E4FBFD7FFF
:101A8800808039E4FBFDFF80337B287D287F01803F
:101A98002B7B287D287F0280237B19E4FD7F04802F
:101AA8001BE4FB7D197F038013E4FBFD7F051223F4
:101AB800707F1E7E001227EFE4FBFDFF122370905B
:101AC80000CCE0640870241226499000CC7402F01F
:101AD800E4FBFD7F051223707F1E7E001227EFE4D2
:101AE800FBFDFF1223707EFF7FFF227F0A7E00121C
:101AF80027EF7B017D887F8112272B7F1E7E0012B6
:101B080027EF9000F7E0FBA3E0FAA3E0F91209BF82
:101B1800FDACF0E412071B7B0A7AD77923783C12D4
:101B28000610120754AD07AC067BFF7A13798412AE
:101B3800218E7F0A7E001227EF7B027D977F81121C
:101B4800272B7F1E7E001227EF9000F7E0FBA3E013
:101B5800FAA3E0F91209BFE5F0FD7C0064F1607BAF
:101B68007BFF7A13799012218E7F0A7E001227EF6D
:101B78009000F7E0FBA3E0FAA3E0F91209BF7C00AC
:101B8800FD7BFF7A13799912218E7F0A7E00122736
:101B9800EF9000F7E0FBA3E0FAA3E0F9900002124F
:101BA80009EAE5F0FD7C007BFF7A1379A212218E09
:101BB8007F0A7E001227EF9000F7E0FBA3E0FAA36C
:101BC800E0F99000021209EA7C00FD7BFF7A1379A4
:0F1BD800AB12218E7F0A7E001227EFE4FEFF2260
:10209F0070616765206D61696E007061676520759D
:1020AF006C747261736F6E69630070616765207223
:1020BF006F626F7420636F6E74726F6C0070616704
:1020CF00652076657273696F6E0070616765206851
:1020DF0065616420636F6E74726C00706167652058
:1020EF0064756F6A697869616E7A686900AA55CC00
:1020FF000000000000000000AA55CC000000000006
:10210F0000000000000000000000000000000000C0
:10211F00000000000000AA55CC00000000000000E5
:10212F0000000000000000000000000000000000A0
:10213F0000000000AA55CC000000000000000000C5
:10214F000000000000000000000000000000000080
:10215F000000AA55CC0000000000000000000000A5
:10216F00000000AA55CC0000000000000000000095
:07217F000000000000000059
:101E83004100CC004500E800000000004100D10003
:101E93006064006700000000000000000000000014
:101EA300000000000000000000000000000000002F
:101EB300000000000000000000000000000000001F
:101EC300000000000000000000000000000000000F
:101ED30000000000000000000000000000000000FF
:101EE30000000000000000000000000000000000EF
:101EF30000000000000000004100000041006600F7
:101F0300410065004100CB005400D30000000000F5
:101F1300000000000000000000000000000000417D
:101F230000CD004100D2004100D0004100E7006035
:101F33006400010000000000000000000000000039
:101F4300000000000000000000000000000000008E
:101F5300000000000000000000000000000000007E
:101F6300000000000000000000000000000000006E
:101F7300000000000000000000000000000000005E
:101F8300000000000000000000000000000000004E
:0C1F9300000000000000004200CE000032
:0B282E000000007F0B7EBEDEFEDFFC22
:01283900227C
:0427EB007FFA7E00F3
:1027EF00AD07AC06ED1DAE0470011C4E600512283E
:0427FF002E80F12215
:04283A0075C76022DC
:05246D0090010AEDF0F2
:1024720074FFA3F0A3F0ED700590010A04F090013F
:102482000AE0FF14F0EF60511208CBFF90010BE05D
:10249200F0A3E06FF0E4FD90010CE090010B30E05E
:1024A20022E0C313FEA3E013FF90010BEEF0A3EFB3
:1024B200F0EE64A0FEEF6401FF90010BEEF0A3EFDB
:1024C200F08008E0C313F0A3E013F00DEDB408C7E9
:1024D200740129F9E43AFA80A590010BE0FEA3E029
:0124E200FFFA
:0124E30022D6
:0524E4009000EFEDF097
:1024E90074FFA3F0A3F0ED70059000EF04F09000E5
:1024F900EFE0FF14F0EF60511208CBFF9000F0E01D
:10250900F0A3E06FF0E4FD9000F1E09000F030E01E
:1025190022E0C313FEA3E013FF9000F0EEF0A3EF57
:10252900F0EE64A0FEEF6401FF9000F0EEF0A3EF7F
:10253900F08008E0C313F0A3E013F00DEDB408C771
:10254900740129F9E43AFA80A59000F0E0FEA3E0CD
:01255900FF82
:01255A00225E
:05255B0090011EEDF0EF
:1025600074FFA3F0A3F0ED700590011E04F090013C
:102570001EE0FF14F0EF60511208CBFF90011FE046
:10258000F0A3E06FF0E4FD900120E090011F30E047
:1025900022E0C313FEA3E013FF90011FEEF0A3EFB0
:1025A000F0EE64A0FEEF6401FF90011FEEF0A3EFD8
:1025B000F08008E0C313F0A3E013F00DEDB408C7FA
:1025C000740129F9E43AFA80A590011FE0FEA3E026
:0125D000FF0B
:0125D10022E7
:0525D2009000F4EDF0A3
:1025D70074FFA3F0A3F0ED70059000F404F09000F1
:1025E700F4E0FF14F0EF60511208CBFF9000F5E024
:1025F700F0A3E06FF0E4FD9000F6E09000F530E026
:1026070022E0C313FEA3E013FF9000F5EEF0A3EF63
:10261700F0EE64A0FEEF6401FF9000F5EEF0A3EF8B
:10262700F08008E0C313F0A3E013F00DEDB408C782
:10263700740129F9E43AFA80A59000F5E0FEA3E0D9
:01264700FF93
:01264800226F
:0B272B009000FBEFF0A3EDF0A3EBF03B
:10273600E4A3F078FF7C007D017BFF7A2079FCFE24
:102746007F0B1208A59000FBE0900102F0A3740332
:10275600F0E4A3F09000FCE0900105F0E4A3F09013
:1027660000FDE0900107F07B017A0179027D0612F7
:10277600246DAC06EF900108F0EEA3F07A0079FF25
:052786007D0B0200269E
:0B224C009000FBEFF0A3EDF0A3EBF01F
:1022570078007C017D017BFF7A2179077E007F1E54
:102267001208A59000FBE0900103F0A37410F0E4BE
:10227700A3F0A3F0A3F0A37407F0A3740EF0E4A3F4
:10228700F09000FCE090010BF0E4A3F09000FDE07B
:1022970090010DF09000FEE0FCA3E0FDEC90010E34
:1022A700F0EDA3F0A37412F0A3740CF0E4A3F0A371
:1022B7007446F0E4A3F0A37407F0E4A3F0A3F07B63
:1022C700017A0179037D1512255BAC06EF900118A1
:0D22D700F0EEA3F07A0179007D1A020026D6
:0B26BB009000FAEFF0A3EDF0A3EBF0AD
:1026C60078FD7C007D017BFF7A2179257E007F1EC7
:1026D6001208A59000FAE0900100F0A37410F0E44F
:1026E600A3F0A3740BF0E4A3F0A37402F0A37404A4
:1026F600F0E4A3F09000FBE0900108F0E4A3F09072
:1027060000FCE090010AF07B017A0179007D0B1252
:10271600255BAC06EF90010BF0EEA3F07A0079FD95
:052726007D10020026F9
:08278B009000FAEFF0A3EDF05D
:1027930078FC7C007D017BFF7A2179437E007F1EDC
:1027A3001208A59000FAE09000FFF0A37410F0E483
:1027B300A3F0A37407F0E4A3F0A304F0A304F0E4EC
:1027C300A3F09000FBE0900107F07B017A0079FF12
:1027D3007D0912255BAC06EF900108F0EEA3F07AB9
:0827E3000079FC7D0E020026C6
:0B23F5009000FBEFF0A3EDF0A3EBF075
:1024000078FF7C007D017BFF7A2179617E007F115E
:102410001208A59000FBE0900102F0A37410F0E414
:10242000A3F0A3F0A3F0A37403F0A37406F0E4A355
:10243000F09000FCE090010AF0E4A3F09000FDE0D1
:1024400090010CF0E4A3F09000FEE090010EF07B10
:10245000017A0179027D0D12255BAC06EF90010F28
:0D246000F0EEA3F07A0079FF7D1202002655
:0B2370009000FAEFF0A3EDF0A3EBF0FB
:10237B0078FD7C007D017BFF7A2179727E007F14D2
:10238B001208A59001007481F0A37410F0E4A3F07F
:10239B00A3F0A3F0A37404F0A37408F0E4A3F090EB
:1023AB0000FAE0900108F09000FBE0900109F0903A
:1023BB0000FCE090010AF0A37405F0A3740AF0A3EB
:1023CB007405F0A3740AF0E4A3F0A3F07B017A0187
:1023DB0079007D0F12255BAC06EF90010FF0EEA399
:0A23EB00F07A0079FD7D140200264F
:101D5C001228031228197BFF7A20799F12264F90A4
:101D6C0000CCE0B403257BFF7A2079A912264F75AD
:101D7C008DFD858D8B7B017A0079011213D1C3EE19
:101D8C006480948040051227EB80EA9000CCE0B48C
:101D9C0004257BFF7A2079B912264F758DFD858D30
:101DAC008B7B017A007901121A38C3EE648094801F
:101DBC0040051227EB80EA9000CCE0B4061F7BFFB5
:101DCC007A2079CC12264F7B017A00790112165EAB
:101DDC00C3EE6480948040051227EB80EA9000CC1F
:101DEC00E0640570617BFF7A2079D912264F758DDE
:101DFC00F7858D8BE49000FEF0A3F0FBFD7F0112C4
:101E0C00224C7F1E7E001227EFE49000FEF0A3F020
:101E1C00FBFD7F0612224C7F1E7E001227EFE49002
:101E2C0000FEF0A3F0FBFD7F0712224C7B017A0031
:101E3C007901120046C3EE6480948040097F0A7ECB
:101E4C00001227EF80E69000CCE0B407207BFF7AED
:101E5C002079EA12264F758DF7858D8B7B017A00E0
:101E6C007901120A7CC3EE6480948050EF7F017E6E
:071E7C00001227EF021D6BAD
:030023000218615F
:10186100C0E0C083C082C0D075D000C001C002C03A
:0918710003C004C005C006C00755
:10187A00209803021A21C2989000CBE0FF2467F552
:10188A0082E43400F583E599F0900000E0706FEF90
:10189A0070139000CBE02467F582E43400F583E00E
:1018AA00B4AA0280159000CBE0FFB401122467F5B8
:1018BA0082E43400F583E0B4AA059000CB80359029
:1018CA0000CBE0FFB401152467F582E43400F58308
:1018DA00E0B455089000CB7402F080229000CBE06F
:1018EA00FFB402152467F582E43400F583E0B4CC32
:1018FA00089000007401F080059000CBE4F090009D
:10190A0000E064016003021A21900066E06401604D
:10191A0003021A04900065E0C39446401490000044
:10192A00E4F0900066F09000CBF0900065F0021AA7
:10193A0021900065E014F0E06003021A047B017A4A
:10194A0000796A90006CE02403FD1224E4AD07AC30
:10195A000690006CE0FB246EF582E43400F583E027
:10196A00FE746D2BF582E43400F583E0FBEBFF6D2A
:10197A007002EC6E70509000EDF090006CE0C313B2
:10198A00FF9000EDE0FDC39F503CA3E0FC246DF501
:10199A0082E43400F583E0FE746E2CF582E43400B0
:1019AA00F583E0FBEBFFED25E02401F582E434004A
:1019BA00F583EEF0A3EFF09000EEE02402F0900041
:1019CA00EDE004F080B4900001E0B41112A3E0B499
:1019DA00220DA3E0B43308A3E0B4440312283A90DA
:1019EA000000E4F0900066F09000CBF0900065F003
:1019FA009000EEF09000EDF0801D9000CBE0B40571
:101A0A00109000667401F090006CE024029000656A
:071A1A00F09000CBE004F0A6
:101A2100D007D006D005D004D003D002D001D0D049
:071A3100D082D083D0E03227
:03004300020E109A
:0B0E1000C0E0C083C082C0D075D008D5
:100E1B00E59A20E003021131539AFE9000E7E0FFC0
:100E2B0024D3F582E43400F583E59BF09000CDE00C
:100E3B00706FEF70139000E7E024D3F582E4340079
:100E4B00F583E0B4AA0280159000E7E0FFB401122D
:100E5B0024D3F582E43400F583E0B4AA059000E7CF
:100E6B0080359000E7E0FFB4011524D3F582E4341C
:100E7B0000F583E0B455089000E77402F0802290EF
:100E8B0000E7E0FFB4021524D3F582E43400F583C8
:100E9B00E0B4CC089000CD7401F080059000E7E43D
:100EAB00F09000CDE0640160030211319000D2E0BC
:100EBB00640160030211149000D0E0C3944640110A
:100ECB009000CDE4F09000D2F09000E7F09000D0CD
:100EDB00F09000D0E014F0E060030211147B017A73
:100EEB000079D69000D8E02403FD1225D2AD0FACCB
:100EFB000E9000D8E0FB24DAF582E43400F583E0B1
:100F0B00FE74D92BF582E43400F583E0FBEB6D70B6
:100F1B0002EC6E70509000F2F09000D8E0C313FF1B
:100F2B009000F2E0FDC39F503CA3E0FC24D9F58276
:100F3B00E43400F583E0FE74DA2CF582E43400F53A
:100F4B0083E0FBEBFFED25E024CEF582E43400F5E6
:100F5B0083EEF0A3EFF09000F3E02402F09000F2A8
:100F6B00E004F080B49000CDE4F09000D2F090005B
:100F7B00E7F09000D0F09000F3F09000F2F09000CA
:100F8B00CEE0FEA3E0FF4E70069000CC7404F0EFB1
:100F9B0064014E70069000CC7403F0EF64024E7047
:100FAB00069000CC7405F0EF64034E70069000CCF5
:100FBB007406F0EF64044E70069000CC7407F0EFEB
:100FCB0064BC4E70069000CC7408F0E4B50F0AEECA
:100FDB00B403069000CC7409F0BE0309BF01069060
:100FEB0000CC740AF0BE0309BF02069000CC740C4F
:100FFB00F0BE0309BF03069000CC740BF0BE0309CF
:10100B00BF1A069000CC740DF0BE0309BF100690FA
:10101B0000CC740EF0BE0309BF12069000CC741006
:10102B00F0BE0309BF1B069000CC740FF0BE030982
:10103B00BF20069000CC7411F0BE0309BF210690AF
:10104B0000CC7412F0BE0309BF22069000CC7414BE
:10105B00F0BE0309BF23069000CC7413F0BE030946
:10106B00BFAA069000CC7415F0BE0309BFBB069057
:10107B0000CC7416F0BE0309BFCC069000CC7417DD
:10108B00F0BE0309BFDD069000CC7418F0BE030957
:10109B00BF34069000CC7419F0BE0309BF3506901F
:1010AB0000CC741AF0E4B50F0AEEB4C1069000CC74
:1010BB00741CF0BEC109BF01069000CC741BF0BEBE
:1010CB00D109BFD1069000CC741DF0BED209BFD29E
:1010DB00069000CC741EF0BED309BFD3069000CC93
:1010EB00741FF0BED409BFD4069000CC7420F0BEA0
:1010FB00D009BFD0069000CC7421F0BE0428BF01EC
:10110B00259000CC7422F0801D9000E7E0B4051010
:10111B009000D27401F09000D8E024029000D0F03F
:06112B009000E7E004F073
:09113100D0D0D082D083D0E0328E
:10061000EC4D6011E8497017ED33EC3304600DE4E4
:10062000FCFFFEFD22E933E8330470F80207C01234
:10063000078B58046009E4CC248150062850090235
:1006400007CA2840030207C7C0E0EB4A7044B980DC
:1006500006D0E0FB0207B6EF4E701CBD8008EBFF32
:10066000EAFEE9FD80EBE98DF0A4FEE5F00206F973
:10067000E9CDF9EAFEEBFFEF89F0A4FCE5F0CE89C5
:10068000F0A42EFFE435F0CD89F0A42DFEE435F082
:100690008067EF4E7005BD80D780C3EF8BF0A4ACB0
:1006A000F0EE8BF0A42CFCE435F0F8EF8AF0A42CEB
:1006B000E5F038FCE433CB8DF0A42CFCE5F03BF8FE
:1006C000EE8AF0A42CFCE5F038F8E433CF89F0A4EE
:1006D0002CFCE5F038CF3400CE89F0A42FFFE5F0F4
:1006E0003EFEE433C98DF0A42EFEE5F039CD8AF04C
:1006F000A42FFFE5F03EFEE43DFD33D0E0FB5007C4
:100700000BBB000F0207CAEC2CFCEF33FFEE33FEED
:06071000ED33FD0207A21B
:1007160075F020800E75F010800575F0087D007E5E
:10072600007F003392D530D503120A6EEC334010A9
:10073600EF33FFEE33FEED33FDEC33FCD5F0ED2267
:0E074600E5F0247EA2D513CC92E7CDCEFF22A3
:10075400EDD2E7CD33EC3392D524814006E4FFFE9D
:10076400FDFC22FCE4CFCECDCC24E0501174FF80FC
:10077400EDC3CC13CCCD13CDCE13CECF13CF047099
:07078400F030D5DE020A6E21
:10078B00E9D2E7C933E833F892D5EDD2E7CD33ECB4
:07079B0033FC5002B2D5222D
:1007A200EC30E7100FBF000C0EBE00080DBD0004B8
:1007B2000BEB6014A2D5EB13FCED92E7FD2274FF64
:1007C200FCFDFEFF22E480F8A2D574FF13FC7D80BD
:0307D200E480EFD1
:030000000222E4F5
:0C22E400787FE4F6D8FD75810F02232BF3
:1007D500E709F608DFFA8046E709F208DFFA803E06
:1007E50088828C83E709F0A3DFFA8032E309F608F3
:1007F500DFFA8078E309F208DFFA807088828C835B
:10080500E309F0A3DFFA806489828A83E0A3F6080E
:10081500DFFA805889828A83E0A3F208DFFA804CE8
:1008250080D280FA80C680D4806980F280338010BF
:1008350080A680EA809A80A880DA80E280CA803328
:1008450089828A83ECFAE493A3C8C582C8CCC583A0
:10085500CCF0A3C8C582C8CCC583CCDFE9DEE78070
:100865000D89828A83E493A3F608DFF9ECFAA9F0EF
:10087500EDFB2289828A83ECFAE0A3C8C582C8CC45
:10088500C583CCF0A3C8C582C8CCC583CCDFEADE5E
:10089500E880DB89828A83E493A3F208DFF980CCC0
:1008A50088F0EF60010E4E60C388F0ED2402B404B9
:1008B5000050B9F582EB2402B4040050AF23234560
:0608C50082239008257358
:1008CB00BB010689828A83E0225002E722BBFE022B
:0908DB00E32289828A83E493225E
:1008E400BB010689828A83F0225002F722BBFE01F3
:0208F400F322ED
:1008F600EF8DF0A4A8F0CF8CF0A428CE8DF0A42E16
:02090600FE22CF
:10090800BC000BBE0029EF8DF084FFADF022E4CCD3
:10091800F875F008EF2FFFEE33FEEC33FCEE9DEC9C
:10092800984005FCEE9DFE0FD5F0E9E4CEFD22EDE2
:10093800F8F5F0EE8420D21CFEADF075F008EF2F2C
:10094800FFED33FD4007985006D5F0F222C398FD1D
:050958000FD5F0EA22BA
:10095D00C2D5EC30E709B2D5E4C39DFDE49CFCEEB5
:10096D0030E715B2D5E4C39FFFE49EFE120908C31C
:10097D00E49DFDE49CFC800312090830D507C3E417
:06098D009FFFE49EFE2224
:10099300C5F0F8A3E028F0C5F0F8E58215827002EF
:0609A3001583E038F0228C
:1009A900A3F8E0C5F025F0F0E58215827002158301
:0609B900E0C838F0E8225E
:1009BF00BB010A89828A83E0F5F0A3E02250068703
:1009CF00F009E71922BBFE07E3F5F009E3192289C5
:0B09DF00828A83E493F5F074019322F8
:1009EA00BB0110E58229F582E5833AF583E0F5F04B
:1009FA00A3E0225009E92582F886F008E622BBFE28
:100A0A000AE92582F8E2F5F008E222E5832AF5836D
:080A1A00E993F5F0A3E9932232
:100A2200BB010A89828A83F0E5F0A3F0225006F71F
:0F0A320009A7F01922BBFE06F3E5F009F319221C
:100A4100F8BB0111E58229F582E5833AF583E8F0E7
:100A5100E5F0A3F0225009E92582C8F608A6F022A4
:0D0A6100BBFE09E92582C8F2E5F008F2228B
:0E0A6E00C3E49FFFE49EFEE49DFDE49CFC2299
:1022F000021D5CE493A3F8E493A34003F68001F28B
:1023000008DFF48029E493A3F85407240CC8C333EE
:10231000C4540F4420C8834004F456800146F6DFBD
:10232000E4800B0102040810204080901E83E47EAC
:10233000019360BCA3FF543F30E509541FFEE493B2
:10234000A360010ECF54C025E060A840B8E493A379
:10235000FAE493A3F8E493A3C8C582C8CAC583CAA4
:10236000F0A3C8C582C8CAC583CADFE9DEE780BE5C
:011F9F000041
:00000001FF
