:10002600AF051DEF60131208CBF5993099FDC29903
:0A003600740129F9E43AFA80E72288
:10000300AF051DEF60161208CBF59BE59A30E1FBB7
:0D001300539AFD740129F9E43AFA80E422C1
:1027B600759850758920438E40758DF7858D8BD21F
:0627C600AFD2ACD28E225E
:1027CC0075B60175B501759A50759CF7D2AF438EED
:0527DC001475AF01229D
:10113A00226E6F20646576696365220064302E76BC
:10114A00616C3D0064322E76616C3D0064342E760B
:10115A00616C3D0064362E76616C3D0064382E76F3
:10116A00616C3D0064612E76616C3D0064632E768D
:10117A00616C3D0064652E76616C3D0065302E76AB
:10118A00616C3D0065322E76616C3D0065342E76C9
:10119A00616C3D0065382E76616C3D00686F6E6744
:1011AA007761697A756F2E76616C3D00686F6E673C
:1011BA00776169796F752E76616C3D00706167653C
:1011CA00206D61696E006469616E7975616E67751B
:1011DA00616E6C692E7478743D00746F755F647506
:1011EA006F6A692E7478743D0064616E796F756CEC
:1011FA00756E2E7478743D007A756F73686F752EEC
:10120A007478743D00796F7573686F752E7478748D
:10121A003D00746F755F6C65642E7478743D007A56
:10122A0068756B6F6E672E7478743D006368616FC2
:10123A006B75616E6461692E7478743D007A756F9E
:10124A006C756E2E7478743D00796F756C756E2EA0
:10125A007478743D00686269616E6D6171697A2E95
:10126A0076616C3D00686269616F64696E677A2EA7
:10127A0076616C3D007A6269616E6D6171697A2E80
:10128A0076616C3D007A6269616F64696E677A2E75
:10129A0076616C3D00796269616E6D6171697A2E61
:1012AA0076616C3D00796269616F64696E677A2E56
:1012BA0076616C3D0068746F757869616E6C6975EA
:1012CA002E76616C3D0068746F757368616E67781D
:1012DA00772E76616C3D0068746F757869617877EE
:1012EA002E76616C3D0066797869616E6C69752E3F
:1012FA0076616C3D0066797368616E677869616EC4
:10130A00772E76616C3D0066797869617869616EDD
:10131A00772E76616C3D007A756F7869616E6C69BB
:10132A00752E76616C3D007A756F7368616E6778A9
:10133A00772E76616C3D007A756F78696178772EC1
:10134A0076616C3D007973686F757869616E6C6956
:10135A00752E76616C3D007973686F757368616E7E
:10136A006778772E76616C3D00797368616F75785E
:10137A00696178772E76616C3D006A69616F647580
:10138A002E76616C3D006972342E76616C3D00697F
:10139A0072332E76616C3D006972322E76616C3D35
:1013AA00006972312E76616C3D00FFFFFF0000007C
:1013BA000000000000000000FFFFFFFFFFFF000029
:0613CA000000000000001D
:0625FC007BFF7A1179C695
:0B2602009000FBEBF0A3EAF0A3E9F06E
:10260D00A3EBF0A3EAF0A3E9F078017C017D017B57
:10261D00FF7A1379B47E007F031208A5E4FF9000C2
:10262D00FEE0FBA3E0FAA3E0F91208CB600D9000E9
:10263D00FFE475F00112093E0F80E39000FBE0FB13
:10264D00A3E0FAA3E0F9AD071200037F0A7E0012A2
:10265D0027A27B017A0179017D03120003E4FEFFBD
:01266D00224A
:101F530090010DEEF0A3EFF0A3EBF0A3EAF0A3E9F9
:011F6300F08D
:101F6400E4A3F0A3F078147C017D017BFF7A13795C
:101F7400B7FE7F061208A590010DE0FEA3E0FFC3A3
:101F8400EE648094805026C3E49FFFE49E90010D8C
:101F9400F0A3EFF0A3E0FBA3E475F001120954A948
:101FA400F0FA742D1208E4900113E004F090010D8E
:101FB400E0FAA3E0FB7C007D0AFFAE02120908ED03
:101FC4002430FF900112E0FE04F0EEFD3395E0FCB6
:101FD40074142DF58274013CF583EFF07C007D0AC6
:101FE400AF03AE0212090890010DEEF0A3EFF0D397
:101FF4009400EE6480948050B4900112E0FFA3E05A
:102004002FF0900112E0FF14F0D3EF64809480402D
:1020140028E0FF3395E0FE74142FF58274013EF539
:1020240083E0FF90010FE0FBA3E475F00112095473
:10203400A9F0FAEF1208E480C990010FE0FBA3E0D5
:0D204400FAA3E0F9E41208E4900113E0FFB4
:01205100226C
:08213900FFAEF0FDAC067BFFD8
:102141009000FBEBF0A3EAF0A3E9F0A3ECF0A3ED20
:01215100F09D
:1021520078007C017D017BFF7A1379BD7E007F05CB
:102162001208A5E4900105F09000FBE0F9A3E0FA63
:10217200A3E0900106C9F0A3EAF0A3E9F078097C94
:10218200017D017BFF7A1379C27E007F031208A5CD
:10219200E490010CF09000FEE0FEA3E0FF7B017AE8
:1021A200017900121F53900105EFF0900106E0FB48
:1021B200A3E0FAA3E0F91208CB6012900107E475DC
:1021C200F00112093E90010CE004F080DE9000FB69
:1021D200E0FBA3E0FAA3E0F990010CE0FD1200039A
:1021E2007B017A017900900105E0FD1200037B0179
:0C21F2007A0179097D03120003E4FEFF6E
:0121FE0022BE
:0B1BE6009000FAEBF0A3EAF0A3E9F096
:101BF1009000FAE0F9A3E0FAA3E0900100C9F0A394
:101C0100EAF0A3E9F0A37432F078047C017D017B52
:101C1100FF7A1379C57E007F031208A578077C013E
:101C21007D017BFF7A1379C87E007F081208A5E445
:101C3100FD9001077422F0A37456F09000FDE0FBC3
:101C4100A3E0FAA3E0F912096AFBAAF0EA243090B2
:101C51000109F0A3742EF0AF03EF2430A3F0A374B5
:101C61002EF09000FDE0FBA3E0FA9000021209952E
:101C7100E5F0243090010DF0A37422F0900100E012
:101C8100FBA3E0FAA3E0F91208CB600D900101E497
:101C910075F00112093E0D80E39000FAE0FBA3E02C
:101CA100FAA3E0F91200039000FDE0FBA3E0FAA320
:101CB100E0F912096A45F070149000021209954585
:101CC100F0700A7BFF7A11793A7D0B80087B017AEB
:101CD1000179077D081200037B017A0179047D03F4
:101CE100120003900103E0FF14F0EF601D9000FD6E
:101CF100E0FBA3E0FAA3E0F9E4F5F01209CD9000CE
:0D1D0100FEE475F00212093E80D9E4FEFFF9
:011D0E0022B2
:0B13D0009000F7EBF0A3EAF0A3E9F0B7
:1013DB00A37432F07B1B7D807F811226DE7F1E7E05
:1013EB00001227A29000F7E0FBA3E0FAA3E0F9902C
:1013FB000016120995E5F0FF7E007C007D0A1208AD
:10140B00F6AC06AD077BFF7A1179461221419000AD
:10141B00F7E0FBA3E0FAA3E0F9900016120995FFA1
:10142B007E007C007D0A1208F6AC06AD077BFF7AC6
:10143B0011794E1221419000F7E0FBA3E0FAA3E0F3
:10144B00F9900018120995E5F0FF7E007C007D0AEB
:10145B001208F6AC06AD077BFF7A117956122141C3
:10146B009000F7E0FBA3E0FAA3E0F9900018120953
:10147B0095FF7E007C007D0A1208F6AC06AD077B5B
:10148B00FF7A11795E1221419000F7E0FBA3E0FA9D
:10149B00A3E0F990001A120995E5F0FF7E007C009D
:1014AB007D0A1208F6AC06AD077BFF7A117966123E
:1014BB0021419000F7E0FBA3E0FAA3E0F990001ABA
:1014CB00120995FF7E007C007D0A1208F6AC06AD72
:1014DB00077BFF7A11796E1221419000F7E0FBA395
:1014EB00E0FAA3E0F990001C120995E5F0FF7E00ED
:1014FB007C007D0A1208F6AC06AD077BFF7A1179EA
:10150B00761221419000F7E0FBA3E0FAA3E0F990FB
:10151B00001C120995FF7E007C007D0A1208F6ACB8
:10152B0006AD077BFF7A11797E1221419000F7E01F
:10153B00FBA3E0FAA3E0F990001E120995E5F0FF7A
:10154B007E007C007D0A1208F6AC06AD077BFF7AA5
:10155B001179861221419000F7E0FBA3E0FAA3E09A
:10156B00F990001E120995FF7E007C007D0A12087F
:10157B00F6AC06AD077BFF7A11798E1221419000F4
:10158B00F7E0FBA3E0FAA3E0F9900020120995E540
:10159B00F0FF7E007C007D0A1208F6AC06AD077BDF
:1015AB00FF7A1179961221419000F7E0FBA3E0FA44
:1015BB00A3E0F9900020120995FF7E007C007D0AC4
:1015CB001208F6AC06AD077BFF7A11799E1221410A
:1015DB009000F7E0FBA3E0FAA3E0F990002C1209CE
:1015EB0095E5F025E0FDE433FC7BFF7A1179A6123B
:1015FB0021419000F7E0FBA3E0FAA3E0F990002C67
:10160B0012099525E0FDE433FC7BFF7A1179B612C4
:10161B0021419000FAE0FF14F0EF601D9000F7E01D
:10162B00FBA3E0FAA3E0F9E4F5F01209CD9000F882
:10163B00E475F00212093E80D99000CCE0B4080E9C
:10164B001225FC9000CC7402F07EFF7FFF22E4FE9B
:01165B00FF8F
:01165C00226B
:10165D009000F7EBF0A3EAF0A3E9F0758DF7858D17
:10166D008B7F1E7E001227A27B037D787F051226BD
:10167D00DE7F1E7E001227A29000F7E0F9A3E0FAAC
:10168D00A3E09000FDC9F0A3EAF0A3E9F07BFF7A97
:10169D001179D0121BE67B037D787F011226DE7F48
:1016AD001E7E001227A29000F7E0F9A3E0FAA3E056
:1016BD009000FDC9F0A3EAF0A3E9F07BFF7A117960
:1016CD00E4121BE67B037D787F021226DE7F1E7EF1
:1016DD00001227A29000F7E0F9A3E0FAA3E0900032
:1016ED00FDC9F0A3EAF0A3E9F07BFF7A1179F312BB
:1016FD001BE67B037D787F061226DE7F1E7E0012A1
:10170D0027A29000F7E0F9A3E0FAA3E09000FDC94D
:10171D00F0A3EAF0A3E9F07BFF7A127902121BE63F
:10172D007B037D787F071226DE7F1E7E001227A2A7
:10173D009000F7E0F9A3E0FAA3E09000FDC9F0A353
:10174D00EAF0A3E9F07BFF7A12790F121BE67B0317
:10175D007D787F031226DE7F1E7E001227A2900069
:10176D00F7E0F9A3E0FAA3E09000FDC9F0A3EAF0D9
:10177D00A3E9F07BFF7A12791C121BE6758DFD85AE
:10178D008D8B7B037D787F811226DE7F1E7E00127E
:10179D0027A29000F7E0F9A3E0FAA3E09000FDC9BD
:1017AD00F0A3EAF0A3E9F07BFF7A127929121BE688
:1017BD007B037DB17F811226DE7F1E7E001227A264
:1017CD009000F7E0F9A3E0FAA3E09000FDC9F0A3C3
:1017DD00EAF0A3E9F07BFF7A127936121BE67B0360
:1017ED007DB47F811226DE7F1E7E001227A290001F
:1017FD00F7E0F9A3E0FAA3E09000FDC9F0A3EAF049
:10180D00A3E9F07BFF7A127947121BE67B037DB7C4
:10181D007F811226DE7F1E7E001227A29000F7E048
:10182D00F9A3E0FAA3E09000FDC9F0A3EAF0A3E963
:10183D00F07BFF7A127953121BE69000CCE0B408CE
:10184D000E1225FC9000CC7402F07EFF7FFF22E487
:03185D00FEFF2269
:0B0046009000F7EBF0A3EAF0A3E9F054
:10005100A37408F07B027D7E7F011226DE7F1E7E67
:10006100001227A29000F7E0FBA3E0FAA3E0F91247
:10007100096A7A12795F1221397F1E7E001227A246
:100081009000F7E0FBA3E0FAA3E0F9900002120967
:10009100957A12796F1221399000F7E0FBA3E0FA0B
:1000A100A3E0F9E4F5F01209CD9000F7E0FBA3E03D
:1000B100FAA3E0F9900002E4F5F01209EC7B027D6D
:1000C1007E7F061226DE7F1E7E001227A29000F799
:1000D100E0FBA3E0FAA3E0F912096AFFAEF0FDAC80
:1000E100067BFF7A12797F1221417F1E7E00122743
:1000F100A29000F7E0FBA3E0FAA3E0F9900002125E
:100101000995FFAEF0FDAC067BFF7A12798F1221C3
:10011100419000F7E0FBA3E0FAA3E0F9E4F5F01267
:1001210009CD9000F7E0FBA3E0FAA3E0F99000020B
:10013100E4F5F01209EC7B027D7E7F071226DE7F5B
:100141001E7E001227A29000F7E0FBA3E0FAA3E0D5
:10015100F912096AFFAEF0FDAC067BFF7A12799FB6
:100161001221417F1E7E001227A29000F7E0FBA31F
:10017100E0FAA3E0F9900002120995FFAEF0FDACA0
:10018100067BFF7A1279AF1221419000F7E0FBA3C1
:10019100E0FAA3E0F9E4F5F01209CD9000F7E0FBF5
:1001A100A3E0FAA3E0F9900002E4F5F01209EC9063
:1001B10000CCE0640970399000FEF0A3F0FB7D05EE
:1001C1007F011221FF7F1E7E001227A2E49000FE14
:1001D100F0A3F0FB7D057F011221FF7F1E7E00123F
:1001E10027A2E49000FEF0A3F0FBFD7F011221FFA6
:1001F1009000CCE0B40A139000FAE0FBE49000FE1A
:10020100F0A3F07D017F011221FF9000CCE0B40B3F
:10021100139000FAE0FBE49000FEF0A3F07D027F72
:10022100011221FF9000CCE0B40C2A9000FAE0FB0F
:100231009000FEE4F0A374B4F07D037F011221FF6E
:100241007FD07E071227A2E49000FEF0A3F0FBFD11
:100251007F011221FF9000CCE0640D70399000FE07
:10026100F0A3F0FB7D057F061221FF7F1E7E0012A9
:1002710027A2E49000FEF0A3F0FB7D057F0612218A
:10028100FF7F1E7E001227A2E49000FEF0A3F0FB88
:10029100FD7F061221FF9000CCE0B40E10E4900027
:1002A100FEF0A3F07B077D017F061221FF9000CCB9
:1002B100E0B40F10E49000FEF0A3F07B077D027F15
:1002C100061221FF9000CCE0B410279000FEE4F06C
:1002D100A374B4F07B077D037F061221FF7FD07EDC
:1002E100071227A2E49000FEF0A3F0FBFD7F0612A7
:1002F10021FF9000CCE0641170399000FEF0A3F072
:10030100FB7D057F071221FF7F1E7E001227A2E4DD
:100311009000FEF0A3F0FB7D057F071221FF7F1EF9
:100321007E001227A2E49000FEF0A3F0FBFD7F0700
:100331001221FF9000CCE0B41210E49000FEF0A373
:10034100F07B077D017F071221FF9000CCE0B41301
:1003510010E49000FEF0A3F07B077D027F071221DD
:10036100FF9000CCE0B414279000FEE4F0A374B435
:10037100F07B077D037F071221FF7FD07E071227C5
:10038100A2E49000FEF0A3F0FBFD7F071221FF9095
:1003910000CCE0B4150E9000FE7464F0E4FBFD7F28
:1003A100031223A89000CCE0B4160F9000FE7464F1
:1003B100F07B23E4FD7F031223A89000CCE0B41767
:1003C1000F9000FE7464F0E4FB7D237F031223A8E9
:1003D1009000CCE0B4180F9000FE7464F07B237D94
:1003E100237F031223A89000CCE0641A6003020566
:1003F1005EE49000FEF0A3F07B097D017F011221F4
:10040100FF7F1E7E001227A2E49000FEF0A3F07B86
:10041100077D017F061221FF7F1E7E001227A2E4C5
:100421009000FEF0A3F07B077D017F071221FF7F83
:100431001E7E001227A29000CCE0FF641970030217
:1004410004CDEF640870030204CD7FAC7E0D12274A
:10045100A29000CCE0FF64086072EF6419606DE463
:100461009000FEF0A3F07B097D027F011221FF7F46
:100471001E7E001227A2E49000FEF0A3F07B077D10
:10048100027F061221FF7F1E7E001227A29000CC60
:10049100E064086037E49000FEF0A3F07B077D0282
:1004A1007F071221FF7F1E7E001227A29000CCE061
:1004B100641960187FAC7E0D1227A29000CCE0FF7A
:1004C10064086008EF641960030203F29000FEE41F
:1004D100F0A374B4F07B097D037F011221FF7F1E1D
:1004E1007E001227A29000FEE4F0A374B4F07B0713
:1004F1007D037F061221FF7F1E7E001227A290003E
:10050100FEE4F0A374B4F07B077D037F071221FFA3
:100511007F1E7E001227A27FD07E071227A2E490C1
:1005210000FEF0A3F0FBFD7F011221FF7F1E7E0084
:100531001227A2E49000FEF0A3F0FBFD7F0612213A
:10054100FF7F1E7E001227A2E49000FEF0A3F0FBC5
:10055100FD7F071221FF7F1E7E001227A29000CC93
:10056100E0640860030206081225FC9000CC7402C6
:10057100F09000FEE4F0A374B4F07B097D037F01E9
:100581001221FF7F1E7E001227A29000FEE4F0A33D
:1005910074B4F07B077D037F061221FF7F1E7E006E
:1005A1001227A29000FEE4F0A374B4F07B077D0350
:1005B1007F071221FF7F1E7E001227A27FD07E07B8
:1005C1001227A2E49000FEF0A3F0FBFD7F011221AF
:1005D100FF7F1E7E001227A2E49000FEF0A3F0FB35
:1005E100FD7F061221FF7F1E7E001227A2E49000EC
:1005F100FEF0A3F0FBFD7F071221FF7F1E7E00129C
:0E06010027A27EFF7FFF22E49000CCF0FEFFD8
:01060F0022C8
:100A7C009000F7EBF0A3EAF0A3E9F07B017D807F17
:100A8C00011226DE7F1E7E001227A29000F7E0FBEB
:100A9C00A3E0FAA3E0F912096AFDACF07BFF7A122D
:100AAC0079BF1221417F1E7E001227A29000F7E031
:100ABC00FBA3E0FAA3E0F9E4F5F01209CD7B027D8B
:100ACC000B7F011226DE7F1E7E001227A29000F7FC
:100ADC00E0FBA3E0FAA3E0F912096AFFAEF0FDAC6B
:100AEC00067BFF7A1279D01221417F1E7E001227DD
:100AFC00A29000F7E0FBA3E0FAA3E0F99000021249
:100B0C000995FFAEF0FDAC067BFF7A1279E112215C
:100B1C00419000F7E0FBA3E0FAA3E0F9E4F5F01252
:100B2C0009CD9000F7E0FBA3E0FAA3E0F9900002F6
:100B3C00E4F5F01209EC7B017D807F021226DE7F4A
:100B4C001E7E001227A29000F7E0FBA3E0FAA3E0C0
:100B5C00F912096AFDACF07BFF7A1279F01221418F
:100B6C007F1E7E001227A29000F7E0FBA3E0FAA301
:100B7C00E0F9E4F5F01209CD7B027D0B7F02122621
:100B8C00DE7F1E7E001227A29000F7E0FBA3E0FAA6
:100B9C00A3E0F912096AFFAEF0FDAC067BFF7A12F6
:100BAC0079FF1221417F1E7E001227A29000F7E0F0
:100BBC00FBA3E0FAA3E0F9900002120995FFAEF056
:100BCC00FDAC067BFF7A1379111221419000F7E0FE
:100BDC00FBA3E0FAA3E0F9E4F5F01209CD9000F7DD
:100BEC00E0FBA3E0FAA3E0F9900002E4F5F01209AF
:100BFC00EC7B017D807F061226DE7F1E7E00122795
:100C0C00A29000F7E0FBA3E0FAA3E0F912096AFD59
:100C1C00ACF07BFF7A1379211221417F1E7E0012EA
:100C2C0027A29000F7E0FBA3E0FAA3E0F9E4F5F0CB
:100C3C001209CD7B027D0B7F061226DE7F1E7E0005
:100C4C001227A29000F7E0FBA3E0FAA3E0F9120947
:100C5C006AFFAEF0FDAC067BFF7A137931122141AD
:100C6C007F1E7E001227A29000F7E0FBA3E0FAA300
:100C7C00E0F9900002120995FFAEF0FDAC067BFF87
:100C8C007A1379411221419000F7E0FBA3E0FAA31B
:100C9C00E0F9E4F5F01209CD9000F7E0FBA3E0FADF
:100CAC00A3E0F9900002E4F5F01209EC7B017D80E1
:100CBC007F071226DE7F1E7E001227A29000F7E02F
:100CCC00FBA3E0FAA3E0F912096AFDACF07BFF7A12
:100CDC0013794F1221417F1E7E001227A29000F73C
:100CEC00E0FBA3E0FAA3E0F9E4F5F01209CD7B02F6
:100CFC007D0B7F071226DE7F1E7E001227A290003E
:100D0C00F7E0FBA3E0FAA3E0F912096AFFAEF0FDED
:100D1C00AC067BFF7A1379611221417F1E7E001293
:100D2C0027A29000F7E0FBA3E0FAA3E0F990000201
:100D3C00120995FFAEF0FDAC067BFF7A13797312A6
:100D4C0021419000F7E0FBA3E0FAA3E0F9E4F5F011
:100D5C001209CD9000F7E0FBA3E0FAA3E0F99000B4
:100D6C0002E4F5F01209EC9000CCE0642270787D7E
:100D7C00067F0112273E7F1E7E001227A27B5A7D22
:100D8C005A7F0112266E7F1E7E001227A27D067FDF
:100D9C000212273E7F1E7E001227A27B0C7D0C7F49
:100DAC000212266E7F1E7E001227A27D0A7F06127B
:100DBC00273E7F1E7E001227A27B5A7D5A7F061289
:100DCC00266E7F1E7E001227A27D0A7F0712273E09
:100DDC007F1E7E001227A27B5A7D5A7F0712266E39
:100DEC007F1E7E001227A29000CCE0B4080E1225C4
:100DFC00FC9000CC7402F07EFF7FFF22E49000CCCC
:040E0C00F0FEFF22D3
:101A37009000F7EBF0A3EAF0A3E9F09000F7E0FBE2
:101A4700A3E0FAA3E0F974F175F0F01209CD900064
:101A5700CCE024E5B407005066901A6E75F003A435
:101A6700C58325F0C58373021A83021A8A021A9066
:101A7700021A98021AA0021AA8021AB0E4FBFD7F04
:101A8700808039E4FBFDFF80337B287D287F018040
:101A97002B7B287D287F0280237B19E4FD7F048030
:101AA7001BE4FB7D197F038013E4FBFD7F051223F5
:101AB700237F1E7E001227A2E4FBFDFF1223239043
:101AC70000CCE0640870241225FC9000CC7402F06E
:101AD700E4FBFD7F051223237F1E7E001227A2E46D
:101AE700FBFDFF1223237EFF7FFF227F0A7E00126A
:101AF70027A27B017D887F811226DE7F1E7E001252
:101B070027A29000F7E0FBA3E0FAA3E0F912096A25
:101B1700FDACF0E412071B7B0A7AD77923783C12D5
:101B27000610120754AD07AC067BFF7A13798412AF
:101B370021417F0A7E001227A27B027D977F8112B7
:101B470026DE7F1E7E001227A29000F7E0FBA3E0AF
:101B5700FAA3E0F912096AE5F0FD7C0064F1607B05
:101B67007BFF7A1379901221417F0A7E001227A208
:101B77009000F7E0FBA3E0FAA3E0F912096A7C0002
:101B8700FD7BFF7A1379991221417F0A7E00122784
:101B9700A29000F7E0FBA3E0FAA3E0F9900002129D
:101BA7000995E5F0FD7C007BFF7A1379A2122141AC
:101BB7007F0A7E001227A29000F7E0FBA3E0FAA3BA
:101BC700E0F99000021209957C00FD7BFF7A1379FA
:0F1BD700AB1221417F0A7E001227A2E4FEFF22FB
:1020520070616765206D61696E00706167652075EA
:102062006C747261736F6E69630070616765207270
:102072006F626F7420636F6E74726F6C0070616751
:10208200652076657273696F6E007061676520689E
:1020920065616420636F6E74726C007061676520A5
:1020A20064756F6A697869616E7A686900AA55CC4D
:1020B2000000000000000000AA55CC000000000053
:1020C200000000000000000000000000000000000E
:1020D200000000000000AA55CC0000000000000033
:1020E20000000000000000000000000000000000EE
:1020F20000000000AA55CC00000000000000000013
:1021020000000000000000000000000000000000CD
:102112000000AA55CC0000000000000000000000F2
:10212200000000AA55CC00000000000000000000E2
:0721320000000000000000A6
:101E36004100CC004500E800000000004100D10050
:101E46006064006700000000000000000000000061
:101E5600000000000000000000000000000000007C
:101E6600000000000000000000000000000000006C
:101E7600000000000000000000000000000000005C
:101E8600000000000000000000000000000000004C
:101E9600000000000000000000000000000000003C
:101EA6000000000000000000410000004100660044
:101EB600410065004100CB005400D3000000000043
:101EC60000000000000000000000000000000041CB
:101ED60000CD004100D2004100D0004100E7006083
:101EE6006400010000000000000000000000000087
:101EF60000000000000000000000000000000000DC
:101F060000000000000000000000000000000000CB
:101F160000000000000000000000000000000000BB
:101F260000000000000000000000000000000000AB
:101F3600000000000000000000000000000000009B
:0C1F4600000000000000004200CE00007F
:0B27E1000000007F0B7EBEDEFEDFFC70
:0127EC0022CA
:04279E007FFA7E0040
:1027A200AD07AC06ED1DAE0470011C4E600512278C
:0427B200E180F122AF
:0427ED0075C760222A
:0524200090010AEDF03F
:1024250074FFA3F0A3F0ED700590010A04F090018C
:102435000AE0FF14F0EF60511208CBFF90010BE0AA
:10244500F0A3E06FF0E4FD90010CE090010B30E0AB
:1024550022E0C313FEA3E013FF90010BEEF0A3EF00
:10246500F0EE64A0FEEF6401FF90010BEEF0A3EF28
:10247500F08008E0C313F0A3E013F00DEDB408C736
:10248500740129F9E43AFA80A590010BE0FEA3E076
:01249500FF47
:012496002223
:052497009000EFEDF0E4
:10249C0074FFA3F0A3F0ED70059000EF04F0900032
:1024AC00EFE0FF14F0EF60511208CBFF9000F0E06A
:1024BC00F0A3E06FF0E4FD9000F1E09000F030E06C
:1024CC0022E0C313FEA3E013FF9000F0EEF0A3EFA5
:1024DC00F0EE64A0FEEF6401FF9000F0EEF0A3EFCD
:1024EC00F08008E0C313F0A3E013F00DEDB408C7BF
:1024FC00740129F9E43AFA80A59000F0E0FEA3E01B
:01250C00FFCF
:01250D0022AB
:05250E0090011EEDF03C
:1025130074FFA3F0A3F0ED700590011E04F0900189
:102523001EE0FF14F0EF60511208CBFF90011FE093
:10253300F0A3E06FF0E4FD900120E090011F30E094
:1025430022E0C313FEA3E013FF90011FEEF0A3EFFD
:10255300F0EE64A0FEEF6401FF90011FEEF0A3EF25
:10256300F08008E0C313F0A3E013F00DEDB408C747
:10257300740129F9E43AFA80A590011FE0FEA3E073
:01258300FF58
:012584002234
:052585009000F4EDF0F0
:10258A0074FFA3F0A3F0ED70059000F404F090003E
:10259A00F4E0FF14F0EF60511208CBFF9000F5E071
:1025AA00F0A3E06FF0E4FD9000F6E09000F530E073
:1025BA0022E0C313FEA3E013FF9000F5EEF0A3EFB1
:1025CA00F0EE64A0FEEF6401FF9000F5EEF0A3EFD9
:1025DA00F08008E0C313F0A3E013F00DEDB408C7D0
:1025EA00740129F9E43AFA80A59000F5E0FEA3E027
:0125FA00FFE1
:0125FB0022BD
:0B26DE009000FBEFF0A3EDF0A3EBF089
:1026E900E4A3F078FF7C007D017BFF7A2079AFFEBF
:1026F9007F0B1208A59000FBE0900102F0A3740380
:10270900F0E4A3F09000FCE0900105F0E4A3F09060
:1027190000FDE0900107F07B017A0179027D061244
:102729002420AC06EF900108F0EEA3F07A0079FFBF
:052739007D0B020026EB
:0B21FF009000FBEFF0A3EDF0A3EBF06D
:10220A0078007C017D017BFF7A2079BA7E007F1EEF
:10221A001208A59000FBE0900103F0A37410F0E40B
:10222A00A3F0A3F0A3F0A37407F0A3740EF0E4A341
:10223A00F09000FCE090010BF0E4A3F09000FDE0C8
:10224A0090010DF09000FEE0FCA3E0FDEC90010E81
:10225A00F0EDA3F0A37412F0A3740CF0E4A3F0A3BE
:10226A007446F0E4A3F0A37407F0E4A3F0A3F07BB0
:10227A00017A0179037D1512250EAC06EF9001183B
:0D228A00F0EEA3F07A0179007D1A02002623
:0B266E009000FAEFF0A3EDF0A3EBF0FA
:1026790078FD7C007D017BFF7A2079D87E007F1E62
:102689001208A59000FAE0900100F0A37410F0E49C
:10269900A3F0A3740BF0E4A3F0A37402F0A37404F1
:1026A900F0E4A3F09000FBE0900108F0E4A3F090BF
:1026B90000FCE090010AF07B017A0179007D0B12A0
:1026C900250EAC06EF90010BF0EEA3F07A0079FD30
:0526D9007D1002002647
:08273E009000FAEFF0A3EDF0AA
:1027460078FC7C007D017BFF7A2079F67E007F1E77
:102756001208A59000FAE09000FFF0A37410F0E4D0
:10276600A3F0A37407F0E4A3F0A304F0A304F0E439
:10277600A3F09000FBE0900107F07B017A0079FF5F
:102786007D0912250EAC06EF900108F0EEA3F07A53
:082796000079FC7D0E02002613
:0B23A8009000FBEFF0A3EDF0A3EBF0C2
:1023B30078FF7C007D017BFF7A2179147E007F11F9
:1023C3001208A59000FBE0900102F0A37410F0E462
:1023D300A3F0A3F0A3F0A37403F0A37406F0E4A3A3
:1023E300F09000FCE090010AF0E4A3F09000FDE01F
:1023F30090010CF0E4A3F09000FEE090010EF07B5E
:10240300017A0179027D0D12250EAC06EF90010FC2
:0D241300F0EEA3F07A0079FF7D12020026A2
:0B2323009000FAEFF0A3EDF0A3EBF048
:10232E0078FD7C007D017BFF7A2179257E007F146C
:10233E001208A59001007481F0A37410F0E4A3F0CC
:10234E00A3F0A3F0A37404F0A37408F0E4A3F09038
:10235E0000FAE0900108F09000FBE0900109F09087
:10236E0000FCE090010AF0A37405F0A3740AF0A338
:10237E007405F0A3740AF0E4A3F0A3F07B017A01D4
:10238E0079007D0F12250EAC06EF90010FF0EEA333
:0A239E00F07A0079FD7D140200269C
:101D0F001227B61227CC7BFF7A2079521226029027
:101D1F0000CCE0B403257BFF7A20795C1226027594
:101D2F008DFD858D8B7B017A0079011213D0C3EE67
:101D3F0064809480400512279E80EA9000CCE0B426
:101D4F0004257BFF7A20796C122602758DFD858D17
:101D5F008B7B017A007901121A37C3EE648094806D
:101D6F00400512279E80EA9000CCE0B4061F7BFF4F
:101D7F007A20797F1226027B017A00790112165D93
:101D8F00C3EE64809480400512279E80EA9000CCB9
:101D9F00E0640570617BFF7A20798C122602758DC5
:101DAF00F7858D8BE49000FEF0A3F0FBFD7F011211
:101DBF0021FF7F1E7E001227A2E49000FEF0A3F009
:101DCF00FBFD7F061221FF7F1E7E001227A2E490EB
:101DDF0000FEF0A3F0FBFD7F071221FF7B017A00CD
:101DEF007901120046C3EE6480948040097F0A7E19
:101DFF00001227A280E69000CCE0B407207BFF7A88
:101E0F0020799D122602758DF7858D8B7B017A00C7
:101E1F007901120A7CC3EE6480948050EF7F017EBB
:071E2F00001227A2021D1E94
:0300230002186060
:10186000C0E0C083C082C0D075D000C001C002C03B
:0918700003C004C005C006C00756
:10187900209803021A20C2989000CBE0FF2467F554
:1018890082E43400F583E599F0900000E0706FEF91
:1018990070139000CBE02467F582E43400F583E00F
:1018A900B4AA0280159000CBE0FFB401122467F5B9
:1018B90082E43400F583E0B4AA059000CB8035902A
:1018C90000CBE0FFB401152467F582E43400F58309
:1018D900E0B455089000CB7402F080229000CBE070
:1018E900FFB402152467F582E43400F583E0B4CC33
:1018F900089000007401F080059000CBE4F090009E
:1019090000E064016003021A20900066E06401604F
:1019190003021A03900065E0C39446401490000046
:10192900E4F0900066F09000CBF0900065F0021AA8
:1019390020900065E014F0E06003021A037B017A4D
:1019490000796A90006CE02403FD122497AD07AC7E
:101959000690006CE0FB246EF582E43400F583E028
:10196900FE746D2BF582E43400F583E0FBEBFF6D2B
:101979007002EC6E70509000EDF090006CE0C313B3
:10198900FF9000EDE0FDC39F503CA3E0FC246DF502
:1019990082E43400F583E0FE746E2CF582E43400B1
:1019A900F583E0FBEBFFED25E02401F582E434004B
:1019B900F583EEF0A3EFF09000EEE02402F0900042
:1019C900EDE004F080B4900001E0B41112A3E0B49A
:1019D900220DA3E0B43308A3E0B444031227ED9029
:1019E9000000E4F0900066F09000CBF0900065F004
:1019F9009000EEF09000EDF0801D9000CBE0B40572
:101A0900109000667401F090006CE024029000656B
:071A1900F09000CBE004F0A7
:101A2000D007D006D005D004D003D002D001D0D04A
:071A3000D082D083D0E03228
:03004300020E109A
:0B0E1000C0E0C083C082C0D075D008D5
:100E1B00E59A20E003021131539AFE9000E7E0FFC0
:100E2B0024D3F582E43400F583E59BF09000CDE00C
:100E3B00706FEF70139000E7E024D3F582E4340079
:100E4B00F583E0B4AA0280159000E7E0FFB401122D
:100E5B0024D3F582E43400F583E0B4AA059000E7CF
:100E6B0080359000E7E0FFB4011524D3F582E4341C
:100E7B0000F583E0B455089000E77402F0802290EF
:100E8B0000E7E0FFB4021524D3F582E43400F583C8
:100E9B00E0B4CC089000CD7401F080059000E7E43D
:100EAB00F09000CDE0640160030211319000D2E0BC
:100EBB00640160030211149000D0E0C3944640110A
:100ECB009000CDE4F09000D2F09000E7F09000D0CD
:100EDB00F09000D0E014F0E060030211147B017A73
:100EEB000079D69000D8E02403FD122585AD0FAC18
:100EFB000E9000D8E0FB24DAF582E43400F583E0B1
:100F0B00FE74D92BF582E43400F583E0FBEB6D70B6
:100F1B0002EC6E70509000F2F09000D8E0C313FF1B
:100F2B009000F2E0FDC39F503CA3E0FC24D9F58276
:100F3B00E43400F583E0FE74DA2CF582E43400F53A
:100F4B0083E0FBEBFFED25E024CEF582E43400F5E6
:100F5B0083EEF0A3EFF09000F3E02402F09000F2A8
:100F6B00E004F080B49000CDE4F09000D2F090005B
:100F7B00E7F09000D0F09000F3F09000F2F09000CA
:100F8B00CEE0FEA3E0FF4E70069000CC7404F0EFB1
:100F9B0064014E70069000CC7403F0EF64024E7047
:100FAB00069000CC7405F0EF64034E70069000CCF5
:100FBB007406F0EF64044E70069000CC7407F0EFEB
:100FCB0064BC4E70069000CC7408F0E4B50F0AEECA
:100FDB00B403069000CC7409F0BE0309BF01069060
:100FEB0000CC740AF0BE0309BF02069000CC740C4F
:100FFB00F0BE0309BF03069000CC740BF0BE0309CF
:10100B00BF1A069000CC740DF0BE0309BF100690FA
:10101B0000CC740EF0BE0309BF12069000CC741006
:10102B00F0BE0309BF1B069000CC740FF0BE030982
:10103B00BF20069000CC7411F0BE0309BF210690AF
:10104B0000CC7412F0BE0309BF22069000CC7414BE
:10105B00F0BE0309BF23069000CC7413F0BE030946
:10106B00BFAA069000CC7415F0BE0309BFBB069057
:10107B0000CC7416F0BE0309BFCC069000CC7417DD
:10108B00F0BE0309BFDD069000CC7418F0BE030957
:10109B00BF34069000CC7419F0BE0309BF3506901F
:1010AB0000CC741AF0E4B50F0AEEB4C1069000CC74
:1010BB00741CF0BEC109BF01069000CC741BF0BEBE
:1010CB00D109BFD1069000CC741DF0BED209BFD29E
:1010DB00069000CC741EF0BED309BFD3069000CC93
:1010EB00741FF0BED409BFD4069000CC7420F0BEA0
:1010FB00D009BFD0069000CC7421F0BE0428BF01EC
:10110B00259000CC7422F0801D9000E7E0B4051010
:10111B009000D27401F09000D8E024029000D0F03F
:06112B009000E7E004F073
:09113100D0D0D082D083D0E0328E
:10061000EC4D6011E8497017ED33EC3304600DE4E4
:10062000FCFFFEFD22E933E8330470F80207C01234
:10063000078B58046009E4CC248150062850090235
:1006400007CA2840030207C7C0E0EB4A7044B980DC
:1006500006D0E0FB0207B6EF4E701CBD8008EBFF32
:10066000EAFEE9FD80EBE98DF0A4FEE5F00206F973
:10067000E9CDF9EAFEEBFFEF89F0A4FCE5F0CE89C5
:10068000F0A42EFFE435F0CD89F0A42DFEE435F082
:100690008067EF4E7005BD80D780C3EF8BF0A4ACB0
:1006A000F0EE8BF0A42CFCE435F0F8EF8AF0A42CEB
:1006B000E5F038FCE433CB8DF0A42CFCE5F03BF8FE
:1006C000EE8AF0A42CFCE5F038F8E433CF89F0A4EE
:1006D0002CFCE5F038CF3400CE89F0A42FFFE5F0F4
:1006E0003EFEE433C98DF0A42EFEE5F039CD8AF04C
:1006F000A42FFFE5F03EFEE43DFD33D0E0FB5007C4
:100700000BBB000F0207CAEC2CFCEF33FFEE33FEED
:06071000ED33FD0207A21B
:1007160075F020800E75F010800575F0087D007E5E
:10072600007F003392D530D503120A19EC334010FE
:10073600EF33FFEE33FEED33FDEC33FCD5F0ED2267
:0E074600E5F0247EA2D513CC92E7CDCEFF22A3
:10075400EDD2E7CD33EC3392D524814006E4FFFE9D
:10076400FDFC22FCE4CFCECDCC24E0501174FF80FC
:10077400EDC3CC13CCCD13CDCE13CECF13CF047099
:07078400F030D5DE020A1976
:10078B00E9D2E7C933E833F892D5EDD2E7CD33ECB4
:07079B0033FC5002B2D5222D
:1007A200EC30E7100FBF000C0EBE00080DBD0004B8
:1007B2000BEB6014A2D5EB13FCED92E7FD2274FF64
:1007C200FCFDFEFF22E480F8A2D574FF13FC7D80BD
:0307D200E480EFD1
:0300000002229742
:0C229700787FE4F6D8FD75810F0222DE8E
:1007D500E709F608DFFA8046E709F208DFFA803E06
:1007E50088828C83E709F0A3DFFA8032E309F608F3
:1007F500DFFA8078E309F208DFFA807088828C835B
:10080500E309F0A3DFFA806489828A83E0A3F6080E
:10081500DFFA805889828A83E0A3F208DFFA804CE8
:1008250080D280FA80C680D4806980F280338010BF
:1008350080A680EA809A80A880DA80E280CA803328
:1008450089828A83ECFAE493A3C8C582C8CCC583A0
:10085500CCF0A3C8C582C8CCC583CCDFE9DEE78070
:100865000D89828A83E493A3F608DFF9ECFAA9F0EF
:10087500EDFB2289828A83ECFAE0A3C8C582C8CC45
:10088500C583CCF0A3C8C582C8CCC583CCDFEADE5E
:10089500E880DB89828A83E493A3F208DFF980CCC0
:1008A50088F0EF60010E4E60C388F0ED2402B404B9
:1008B5000050B9F582EB2402B4040050AF23234560
:0608C50082239008257358
:1008CB00BB010689828A83E0225002E722BBFE022B
:0908DB00E32289828A83E493225E
:1008E400BB010689828A83F0225002F722BBFE01F3
:0208F400F322ED
:1008F600EF8DF0A4A8F0CF8CF0A428CE8DF0A42E16
:02090600FE22CF
:10090800C2D5EC30E709B2D5E4C39DFDE49CFCEE0A
:1009180030E715B2D5E4C39FFFE49EFE120A27C351
:10092800E49DFDE49CFC8003120A2730D507C3E44C
:060938009FFFE49EFE2279
:10093E00C5F0F8A3E028F0C5F0F8E5821582700244
:06094E001583E038F022E1
:10095400A3F8E0C5F025F0F0E58215827002158356
:06096400E0C838F0E822B3
:10096A00BB010A89828A83E0F5F0A3E02250068758
:10097A00F009E71922BBFE07E3F5F009E31922891A
:0B098A00828A83E493F5F0740193224D
:10099500BB0110E58229F582E5833AF583E0F5F0A0
:1009A500A3E0225009E92582F886F008E622BBFE7D
:1009B5000AE92582F8E2F5F008E222E5832AF583C3
:0809C500E993F5F0A3E9932288
:1009CD00BB010A89828A83F0E5F0A3F0225006F775
:0F09DD0009A7F01922BBFE06F3E5F009F3192272
:1009EC00F8BB0111E58229F582E5833AF583E8F03D
:1009FC00E5F0A3F0225009E92582C8F608A6F022FA
:0D0A0C00BBFE09E92582C8F2E5F008F222E0
:0E0A1900C3E49FFFE49EFEE49DFDE49CFC22EE
:1022A300021D0FE493A3F8E493A34003F68001F225
:1022B30008DFF48029E493A3F85407240CC8C3333C
:1022C300C4540F4420C8834004F456800146F6DF0B
:1022D300E4800B0102040810204080901E36E47E47
:1022E300019360BCA3FF543F30E509541FFEE49300
:1022F300A360010ECF54C025E060A840B8E493A3C7
:10230300FAE493A3F8E493A3C8C582C8CAC583CAF1
:10231300F0A3C8C582C8CAC583CADFE9DEE780BEA9
:011F5200008E
:100A2700BC000BBE0029EF8DF084FFADF022E4CCB3
:100A3700F875F008EF2FFFEE33FEEC33FCEE9DEC7C
:100A4700984005FCEE9DFE0FD5F0E9E4CEFD22EDC2
:100A5700F8F5F0EE8420D21CFEADF075F008EF2F0C
:100A6700FFED33FD4007985006D5F0F222C398FDFD
:050A77000FD5F0EA229A
:00000001FF
