:10002600AF051DEF60131208DBF5993099FDC299F3
:0A003600740129F9E43AFA80E72288
:10000300AF051DEF60161208DBF59BE59A30E1FBA7
:0D001300539AFD740129F9E43AFA80E422C1
:1036C400759850758920438E40758DF7858D8BD202
:0636D400AFD2ACD28E2241
:1036DA0075B60175B501759A50759CF7D2AF438ED0
:0536EA001475AF012280
:1018E500226E6F20646576696365220064302E760A
:1018F500616C3D0064322E76616C3D0064342E7659
:10190500616C3D0064362E76616C3D0064382E7640
:10191500616C3D0064612E76616C3D0064632E76DA
:10192500616C3D0064652E76616C3D0065302E76F8
:10193500616C3D0065322E76616C3D0065342E7616
:10194500616C3D0065382E76616C3D00686F6E6791
:101955007761697A756F2E76616C3D00686F6E6789
:10196500776169796F752E76616C3D0076616C31B2
:101975002E7478743D0076616C322E7478743D0057
:1019850076616C332E7478743D0076616C342E74F8
:1019950078743D0070616765206D61696E00643122
:1019A5002E76616C3D0064332E76616C3D006435A6
:1019B5002E76616C3D0064372E76616C3D0064398E
:1019C5002E76616C3D006431302E76616C3D007081
:1019D500616765206D61696E31006469616E797555
:1019E500616E6775616E6C692E7478743D00746FF5
:1019F500755F64756F6A692E7478743D0064616EF5
:101A0500796F756C756E2E7478743D007A756F7389
:101A1500686F752E7478743D00796F7573686F758E
:101A25002E7478743D00746F755F6C65642E7478E0
:101A3500743D007A68756B6F6E672E7478743D001F
:101A45006368616F6B75616E6461692E7478743D4E
:101A5500007A756F6C756E2E7478743D00796F75AC
:101A65006C756E2E7478743D0064616E7A756F6C5A
:101A7500756E2E7478743D006368616F7368656E6A
:101A850067312E7478743D006368616F7368656EA5
:101A950067322E7478743D00686269616E6D61719C
:101AA500697A2E76616C3D00686269616F64696E62
:101AB500677A2E76616C3D007A6269616E6D61713F
:101AC500697A2E76616C3D007A6269616F64696E30
:101AD500677A2E76616C3D00796269616E6D617120
:101AE500697A2E76616C3D00796269616F64696E11
:101AF500677A2E76616C3D0068746F757869616EE2
:101B05006C69752E76616C3D0068746F75736861DC
:101B15006E6778772E76616C3D0068746F757869AD
:101B25006178772E76616C3D0066797869616E6CB7
:101B350069752E76616C3D0066797368616E6778AC
:101B450069616E772E76616C3D006679786961789A
:101B550069616E772E76616C3D007A756F78696183
:101B65006E6C69752E76616C3D007A756F73686170
:101B75006E6778772E76616C3D007A756F7869614E
:101B850078772E76616C3D007973686F7578696139
:101B95006E6C69752E76616C3D007973686F75732F
:101BA50068616E6778772E76616C3D007973686140
:101BB5006F7578696178772E76616C3D006A696129
:101BC5006F64752E76616C3D006972342E76616C9A
:101BD5003D006972332E76616C3D006972322E7656
:101BE500616C3D006972312E76616C3D00FFFFFF2F
:101BF5000000000000000000000000FFFFFFFFFFE5
:0A1C0500FF000000000000000000D6
:06350A007BFF7A1979999C
:0B3510009000FCEBF0A3EAF0A3E9F050
:10351B00A3EBF0A3EAF0A3E9F078027C017D017B39
:10352B00FF7A1B79F27E007F031208B5E4FF90004F
:10353B00FFE0FBA3E0FAA3E0F91208DB600D9001BA
:10354B0000E475F0011209A30F80E39000FCE0FB8F
:10355B00A3E0FAA3E0F9AD071200037F0A7E001285
:10356B0036B07B017A0179027D03120003E4FEFF82
:01357B00222D
:102D9E0090010EEEF0A3EFF0A3EBF0A3EAF0A3E99F
:012DAE00F034
:102DAF00E4A3F0A3F078157C017D017BFF7A1B79FA
:102DBF00F5FE7F061208B590010EE0FEA3E0FFC3FB
:102DCF00EE648094805026C3E49FFFE49E90010E32
:102DDF00F0A3EFF0A3E0FBA3E475F0011209B9A98A
:102DEF00F0FA742D1208F4900114E004F090010E23
:102DFF00E0FAA3E0FB7C007D0AFFAE0212096DED45
:102E0F002430FF900113E0FE04F0EEFD3395E0FC5B
:102E1F0074152DF58274013CF583EFF07C007D0A6B
:102E2F00AF03AE0212096D90010EEEF0A3EFF0D3D7
:102E3F009400EE6480948050B4900113E0FFA3E0FF
:102E4F002FF0900113E0FF14F0D3EF6480948040D3
:102E5F0028E0FF3395E0FE74152FF58274013EF5DF
:102E6F0083E0FF900110E0FBA3E475F0011209B9B4
:102E7F00A9F0FAEF1208F480C9900110E0FBA3E06B
:0D2E8F00FAA3E0F9E41208F4900114E0FF4A
:012E9C002213
:102E9D00F91209FAE5F0FF7E007C007D0A120906A1
:0A2EAD00AC06AD077BFF7A1979012E
:102EB7009000FCEBF0A3EAF0A3E9F0A3ECF0A3ED9C
:012EC700F01A
:102EC80078017C017D017BFF7A1B79FB7E007F0501
:102ED8001208B5E4900106F09000FCE0F9A3E0FACE
:102EE800A3E0900107C9F0A3EAF0A3E9F0780A7C0F
:102EF800017D017BFF7A1C79007E007F031208B5F3
:102F0800E490010DF09000FFE0FEA3E0FF7B017A62
:102F1800017901122D9E900106EFF0900107E0FB68
:102F2800A3E0FAA3E0F91208DB6012900108E47547
:102F3800F0011209A390010DE004F080DE9000FC7E
:102F4800E0FBA3E0FAA3E0F990010DE0FD12000315
:102F58007B017A017901900106E0FD1200037B01F3
:0C2F68007A01790A7D03120003E4FEFFE9
:012F7400223A
:10298D00E0F9A3E0FAA3E09000FEC9F0A3EAF0A3FA
:08299D00E9F07BFF7A1979DFF4
:0B29A5009000FBEBF0A3EAF0A3E9F0C8
:1029B000900101EBF0A3EAF0A3E9F0A37432F07800
:1029C000057C017D017BFF7A1C79037E007F031269
:1029D00008B578087C017D017BFF7A1C79067E00B2
:1029E0007F091208B5E4900111F09001087422F0FB
:1029F000A37456F09000FEE0FBA3E0FAA3E0F91206
:102A000009CFACF0ECD39409E494004025ECFB7CB6
:102A1000007D0AFF7E00120918EF243090010AF0B1
:102A20007C007D0AAF037E00120918ED2430A3F06C
:102A3000801C90010A7420F09000FEE0FBA3E0FAF5
:102A4000A3E0F91209CFE5F0243090010BF09001DA
:102A50000C742EF09000FEE0FBA3E0FAA3E0F91264
:102A600009CF243090010DF0A3742EF090000212D3
:102A700009FAE5F0243090010FF0A37422F09001E0
:102A800001E0FBA3E0FAA3E0F91208DB6012900179
:102A900002E475F0011209A3900111E004F080DE58
:102AA0009000FBE0FBA3E0FAA3E0F9900111E0FD48
:102AB0001200039000FEE0FBA3E0FAA3E0F9120984
:102AC000CF45F070149000021209FA45F0700A7BAD
:102AD000FF7A1879E57D0B80087B017A0179087D02
:102AE000091200037B017A0179057D03120003902E
:102AF0000104E0FF14F0EF601D9000FEE0FBA3E096
:102B0000FAA3E0F9E4F5F0120A329000FFE475F060
:092B1000021209A380D9E4FEFFC2
:012B19002299
:0B15BA009000F7EBF0A3EAF0A3E9F0CB
:1015C500A37432F07B1B7D807F811235EC7F1E7EFC
:1015D500001236B09000F7E0FBA3E0FAA3E0F99023
:1015E50000161209FAE5F0FF7E007C007D0A12095B
:1015F50006AC06AD077BFF7A1879F1122EB790007D
:10160500F7E0FBA3E0FAA3E0F99000161209FAFF50
:101615007E007C007D0A120906AC06AD077BFF7AC9
:101625001879F9122EB79000F7E0FBA3E0FAA3E0D2
:10163500900018122E9D9000F7E0FBA3E0FAA3E0BE
:10164500F99000181209FAFF7E007C007D0A120944
:1016550006AC06AD077BFF7A197909122EB7900003
:10166500F7E0FBA3E0FAA3E0F990001A1209FAE506
:10167500F0FF7E007C007D0A120906AC06AD077BF3
:10168500FF7A197911122EB79000F7E0FBA3E0FA63
:10169500A3E0F990001A1209FAFF7E007C007D0A8A
:1016A500120906AC06AD077BFF7A197919122EB718
:1016B5009000F7E0FBA3E0FAA3E0F990001C120903
:1016C500FAE5F0FF7E007C007D0A120906AC06AD46
:1016D500077BFF7A197921122EB79000F7E0FBA35B
:1016E500E0FAA3E0F990001C1209FAFF7E007C00E5
:1016F5007D0A120906AC06AD077BFF7A1979291216
:101705002EB79000F7E0FBA3E0FAA3E0F990001EE6
:101715001209FAE5F0FF7E007C007D0A120906AC8D
:1017250006AD077BFF7A197931122EB79000F7E0E5
:10173500FBA3E0FAA3E0F990001E1209FAFF7E0070
:101745007C007D0A120906AC06AD077BFF7A197984
:1017550039122EB79000F7E0FBA3E0FAA3E0F99069
:1017650000201209FAE5F0FF7E007C007D0A1209CF
:1017750006AC06AD077BFF7A197941122EB79000AA
:10178500F7E0FBA3E0FAA3E0F99000201209FAFFC5
:101795007E007C007D0A120906AC06AD077BFF7A48
:1017A500197949122EB79000F7E0FBA3E0FAA3E000
:1017B500F990002C1209FAE5F025E0FDE433FC7BF5
:1017C500FF7A197951122EB79000F7E0FBA3E0FAE2
:1017D500A3E0F990002C1209FA25E0FDE433FC7B27
:1017E500FF7A197961122EB77B027DCA7F81123586
:1017F500EC7F1E7E001236B09000F7E0F9A3E0FA08
:10180500A3E09000FEC9F0A3EAF0A3E9F07BFF7A1C
:101815001979711229A57B027DCC7F811235EC7F68
:101825001E7E001236B09000F7E0F9A3E0FAA3E0BF
:101835009000FEC9F0A3EAF0A3E9F07BFF7A1979DD
:101845007B1229A57B027DCE7F811235EC7F1E7E22
:10185500001236B09000F7E0F9A3E0FAA3E090009B
:10186500FEC9F0A3EAF0A3E9F07BFF7A19798512A6
:1018750029A57B027DD07F811235EC7F1E7E00126B
:1018850036B09000F7E0F9A3E0FAA3E09000FEC9B6
:10189500F0A3EAF0A3E9F07BFF7A19798F1229A565
:1018A5009000FAE0FF14F0EF601D9000F7E0FBA355
:1018B500E0FAA3E0F9E4F5F0120A329000F8E475D5
:1018C500F0021209A380D99000CCE0B40C0E1235B9
:0F18D5000A9000CC7402F07EFF7FFF22E4FEFF3A
:0118E40022E1
:0B1C0F009000F7EBF0A3EAF0A3E9F06F
:101C1A00A37432F07B107D8B7F811235EC7F1E7EA0
:101C2A00001236B09000F7E0FBA3E0FAA3E0F91245
:101C3A0009CFE5F0FF7E007C007D0A120906AC069A
:101C4A00AD077BFF7A1879F1122EB79000F7E0FB07
:101C5A00A3E0FAA3E0F91209CFFF7E007C007D0A17
:101C6A00120906AC06AD077BFF7A1979A3122EB7C3
:101C7A009000F7E0FBA3E0FAA3E0F9900002120952
:101C8A00FAE5F0FF7E007C007D0A120906AC06AD7B
:101C9A00077BFF7A1879F9122EB79000F7E0FBA3B9
:101CAA00E0FAA3E0F99000021209FAFF7E007C0034
:101CBA007D0A120906AC06AD077BFF7A1979AB12C9
:101CCA002EB79000F7E0FBA3E0FAA3E0900004121D
:101CDA002E9D9000F7E0FBA3E0FAA3E0F990000440
:101CEA001209FAFF7E007C007D0A120906AC06ADD5
:101CFA00077BFF7A1979B3122EB79000F7E0FBA39E
:101D0A00E0FAA3E0F99000061209FAE5F0FF7E0076
:101D1A007C007D0A120906AC06AD077BFF7A1979A9
:101D2A0009122EB79000F7E0FBA3E0FAA3E0F990BE
:101D3A0000061209FAFF7E007C007D0A120906AC31
:101D4A0006AD077BFF7A1979BB122EB79000F7E030
:101D5A00FBA3E0FAA3E0F99000081209FAE5F0FF04
:101D6A007E007C007D0A120906AC06AD077BFF7A6D
:101D7A00197911122EB79000F7E0FBA3E0FAA3E05D
:101D8A00F99000081209FAFF7E007C007D0A120908
:101D9A0006AC06AD077BFF7A1979C3122EB79000FD
:101DAA00F7E0FBA3E0FAA3E0F990000A1209FAE5CA
:101DBA00F0FF7E007C007D0A120906AC06AD077BA7
:101DCA00FF7A1979CB122EB79000F7E0FBA3E0FA5D
:101DDA00A3E0F990000C1209FA25E0FDE433FC7B3C
:101DEA00FF7A197951122EB79000F7E0FBA3E0FAB7
:101DFA00A3E0F990000E1209FA25E0FDE433FC7B1A
:101E0A00FF7A197961122EB79000FAE0FF14F0EF09
:101E1A00601D9000F7E0FBA3E0FAA3E0F9E4F5F017
:101E2A00120A329000F8E475F0021209A380D990E0
:101E3A0000CCE0B40D147BFF7A1979D412351090D6
:0D1E4A0000CC7402F07EFF7FFF22E4FEFF5B
:011E57002268
:102260009000F7EBF0A3EAF0A3E9F0758DF7858D08
:102270008B7F1E7E001236B07B037D787F05123582
:10228000EC7F1E7E001236B09000F712298D7B0382
:102290007D787F011235EC7F1E7E001236B09000F3
:1022A000F7E0F9A3E0FAA3E09000FEC9F0A3EAF09A
:1022B000A3E9F07BFF7A1979F31229A57B037D78D6
:1022C0007F021235EC7F1E7E001236B09000F7E0E0
:1022D000F9A3E0FAA3E09000FEC9F0A3EAF0A3E9B5
:1022E000F07BFF7A1A79021229A57B037D787F069D
:1022F0001235EC7F1E7E001236B09000F7E0F9A395
:10230000E0FAA3E09000FEC9F0A3EAF0A3E9F07BB5
:10231000FF7A1A79111229A57B037D787F07123580
:10232000EC7F1E7E001236B09000F7E0F9A3E0FAD1
:10233000A3E09000FEC9F0A3EAF0A3E9F07BFF7AE6
:102340001A791E1229A57B037D787F031235EC7F55
:102350001E7E001236B09000F7E0F9A3E0FAA3E089
:102360009000FEC9F0A3EAF0A3E9F07BFF7A1A79A6
:102370002B1229A5758DFD858D8B7B037D787F8143
:102380001235EC7F1E7E001236B09000F7E0F9A304
:10239000E0FAA3E09000FEC9F0A3EAF0A3E9F07B25
:1023A000FF7A1A79381229A57B037DB17F81123516
:1023B000EC7F1E7E001236B09000F7E0F9A3E0FA41
:1023C000A3E09000FEC9F0A3EAF0A3E9F07BFF7A56
:1023D0001A79451229A57B037DB47F811235EC7FE4
:1023E0001E7E001236B09000F7E0F9A3E0FAA3E0F9
:1023F0009000FEC9F0A3EAF0A3E9F07BFF7A1A7916
:10240000561229A57B037DB77F811235EC7F1E7E96
:10241000001236B09000F7E0F9A3E0FAA3E09000D4
:10242000FEC9F0A3EAF0A3E9F07BFF7A1A79621201
:1024300029A59000CCE0B40C0E12350A9000CC74A3
:0B24400002F07EFF7FFF22E4FEFF227F
:102068009000F7EBF0A3EAF0A3E9F0758DF7858D02
:102078008B7F1E7E001236B07B037D787F01123580
:10208800EC7F1E7E001236B09000F7E0F9A3E0FA6C
:10209800A3E09000FEC9F0A3EAF0A3E9F07BFF7A81
:1020A8001A796E1229A57B037D787F021235EC7FA1
:1020B8001E7E001236B09000F7E0F9A3E0FAA3E024
:1020C8009000FEC9F0A3EAF0A3E9F07BFF7A1A7941
:1020D800021229A5758DFD858D8B7B037D787F8107
:1020E8001235EC7F1E7E001236B09000F7E0F9A39F
:1020F800E0FAA3E09000FEC9F0A3EAF0A3E9F07BC0
:10210800FF7A1A79381229A57B037DC07F811235A1
:10211800EC7F1E7E001236B09000F7E0F9A3E0FADB
:10212800A3E09000FEC9F0A3EAF0A3E9F07BFF7AF0
:102138001A79451229A57B037DC67F811235EC7F6C
:102148001E7E001236B09000F7E0F9A3E0FAA3E093
:102158009000FEC9F0A3EAF0A3E9F07BFF7A1A79B0
:10216800561229A57B037DC97F811235EC7F1E7E1F
:10217800001236B09000F7E0F9A3E0FAA3E090006F
:10218800FEC9F0A3EAF0A3E9F07BFF7A1A7962129C
:1021980029A57B037DC37F811235EC7F1E7E00124B
:1021A80036B09000F712298D7B037DCC7F811235E4
:1021B800EC7F1E7E001236B09000F7E0F9A3E0FA3B
:1021C800A3E09000FEC9F0A3EAF0A3E9F07BFF7A50
:1021D8001A797D1229A57B037DCF7F811235EC7F8B
:1021E8001E7E001236B09000F7E0F9A3E0FAA3E0F3
:1021F8009000FEC9F0A3EAF0A3E9F07BFF7A1A7910
:102208008D1229A57B037D707F821235EC7F647E59
:10221800001236B09000F7E0F9A3E0FAA3E09000CE
:10222800FEC9F0A3EAF0A3E9F07BFF7A1979F3126B
:1022380029A57F647E001236B09000CCE0B40D145E
:102248007BFF7A1979D41235109000CC7402F07E95
:08225800FF7FFF22E4FEFF22DC
:0B0046009000F7EBF0A3EAF0A3E9F054
:10005100A3740AF07B027D7E7F011235EC7F1E7E48
:10006100001236B09000F7E0FBA3E0FAA3E0F9122A
:1000710009CFFFAEF0FDAC067BFF7A1A799D122EF7
:10008100B77F1E7E001236B09000F7E0FBA3E0FAC6
:10009100A3E0F99000021209FAFFAEF0FDAC067B75
:1000A100FF7A1A79AD122EB79000F7E0FBA3E0FAC0
:1000B100A3E0F9E4F5F0120A329000F7E0FBA3E0C7
:1000C100FAA3E0F9900002E4F5F0120A517B027DF7
:1000D1007E7F061235EC7F1E7E001236B09000F74F
:1000E100E0FBA3E0FAA3E0F91209CFFFAEF0FDAC0B
:1000F100067BFF7A1A79BD122EB77F1E7E0012365B
:10010100B09000F7E0FBA3E0FAA3E0F9900002123F
:1001110009FAFFAEF0FDAC067BFF7A1A79CD122EFB
:10012100B79000F7E0FBA3E0FAA3E0F9E4F5F012E1
:100131000A329000F7E0FBA3E0FAA3E0F990000295
:10014100E4F5F0120A517B027D7E7F071235EC7FC8
:100151001E7E001236B09000F7E0FBA3E0FAA3E0A8
:10016100F91209CFFFAEF0FDAC067BFF7A1A79DDFB
:10017100122EB77F1E7E001236B09000F7E0FBA36F
:10018100E0FAA3E0F99000021209FAFFAEF0FDAC2B
:10019100067BFF7A1A79ED122EB79000F7E0FBA3E8
:1001A100E0FAA3E0F9E4F5F0120A329000F7E0FB7F
:1001B100A3E0FAA3E0F9900002E4F5F0120A5190ED
:1001C10000CCE0640E70399000FEF0A3F0FB7D05D9
:1001D1007F01122F757F1E7E001236B0E49000FE63
:1001E100F0A3F0FB7D057F01122F757F1E7E0012AB
:1001F10036B0E49000FEF0A3F0FBFD7F01122F75F5
:100201009000CCE0B40F139000FAE0FBE49000FE04
:10021100F0A3F07D017F01122F759000CCE0B410A6
:10022100139000FAE0FBE49000FEF0A3F07D027F62
:1002310001122F759000CCE0B4112A9000FAE0FB76
:100241009000FEE4F0A374B4F07D037F01122F75DA
:100251007FD07E071236B0E49000FEF0A3F0FBFDE4
:100261007F01122F759000CCE0641270399000FE6E
:10027100F0A3F0FB7D057F06122F757F1E7E001215
:1002810036B0E49000FEF0A3F0FB7D057F06122F4F
:10029100757F1E7E001236B0E49000FEF0A3F0FBE5
:1002A100FD7F06122F759000CCE0B41310E490008E
:1002B100FEF0A3F07B077D017F06122F759000CC25
:1002C100E0B41410E49000FEF0A3F07B077D027F00
:1002D10006122F759000CCE0B415279000FEE4F0D3
:1002E100A374B4F07B077D037F06122F757FD07E48
:1002F100071236B0E49000FEF0A3F0FBFD7F06127A
:100301002F759000CCE0641670399000FEF0A3F0D8
:10031100FB7D057F07122F757F1E7E001236B0E42C
:100321009000FEF0A3F0FB7D057F07122F757F1E65
:100331007E001236B0E49000FEF0A3F0FBFD7F07D3
:10034100122F759000CCE0B41710E49000FEF0A3DA
:10035100F07B077D017F07122F759000CCE0B41868
:1003610010E49000FEF0A3F07B077D027F07122FBF
:10037100759000CCE0B419279000FEE4F0A374B4AA
:10038100F07B077D037F07122F757FD07E07123622
:10039100B0E49000FEF0A3F0FBFD7F07122F7590F3
:1003A10000CCE0B41A0E9000FE7464F0E4FBFD7F13
:1003B100031232B69000CCE0B41B0F9000FE7464BF
:1003C100F07B23E4FD7F031232B69000CCE0B41C35
:1003D1000F9000FE7464F0E4FB7D237F031232B6BC
:1003E1009000CCE0B41D0F9000FE7464F07B237D7F
:1003F100237F031232B69000CCE0641F6003020534
:100401006EE49000FEF0A3F07B097D017F01122FC5
:10041100757F1E7E001236B0E49000FEF0A3F07BE3
:10042100077D017F06122F757F1E7E001236B0E414
:100431009000FEF0A3F07B077D017F07122F757FEF
:100441001E7E001236B09000CCE0FF641E700302E5
:1004510004DDEF640C70030204DD7FAC7E0D123607
:10046100B09000CCE0FF640C6072EF641E606DE43C
:100471009000FEF0A3F07B097D027F01122F757FB2
:100481001E7E001236B0E49000FEF0A3F07B077DE3
:10049100027F06122F757F1E7E001236B09000CCAF
:1004A100E0640C6037E49000FEF0A3F07B077D026E
:1004B1007F07122F757F1E7E001236B09000CCE0B0
:1004C100641E60187FAC7E0D1236B09000CCE0FF48
:1004D100640C6008EF641E60030204029000FEE4F5
:1004E100F0A374B4F07B097D037F01122F757F1E89
:1004F1007E001236B09000FEE4F0A374B4F07B07E6
:100501007D037F06122F757F1E7E001236B090008C
:10051100FEE4F0A374B4F07B077D037F07122F750F
:100521007F1E7E001236B07FD07E071236B0E49077
:1005310000FEF0A3F0FBFD7F01122F757F1E7E00F0
:100541001236B0E49000FEF0A3F0FBFD7F06122FFF
:10055100757F1E7E001236B0E49000FEF0A3F0FB22
:10056100FD7F07122F757F1E7E001236B09000CCE2
:10057100E0640C600302061812350A9000CC740284
:10058100F09000FEE4F0A374B4F07B097D037F01D9
:10059100122F757F1E7E001236B09000FEE4F0A38C
:1005A10074B4F07B077D037F06122F757F1E7E00DA
:1005B1001236B09000FEE4F0A374B4F07B077D0323
:1005C1007F07122F757F1E7E001236B07FD07E0707
:1005D1001236B0E49000FEF0A3F0FBFD7F01122F74
:1005E100757F1E7E001236B0E49000FEF0A3F0FB92
:1005F100FD7F06122F757F1E7E001236B0E490003B
:10060100FEF0A3F0FBFD7F07122F757F1E7E001207
:0E06110036B07EFF7FFF22E49000CCF0FEFFAB
:01061F0022B8
:100A8C009000F7740FF09000CCE0640E703A900078
:100A9C00FBF0A3F0FB7D017F051231247F1E7E004D
:100AAC001236B0E49000FBF0A3F0FB7D057F16122C
:100ABC0031247F1E7E001236B0E49000FBF0A3F0D0
:100ACC00FB7D057F221231249000CCE0B40F1390F3
:100ADC0000F7E0FBE49000FBF0A3F07D047F05122F
:100AEC0031249000CCE0B410159000F7E0FB90009E
:100AFC00FBE4F0A374B4F07D047F05123124900064
:100B0C00CCE0B4112A9000F7E0FB9000FBE4F0A3DA
:100B1C00745AF07D047F051231247FD07E07123683
:100B2C00B0E49000FBF0A3F0FBFD7F0512312490A4
:100B3C0000CCE0B413169000F7E0FB9000FB7401BE
:100B4C00F0A37468F07D037F161231249000CCE082
:100B5C00B414159000F7E0FB9000FBE4F0A374785C
:100B6C00F07D037F161231249000CCE0B4152A904E
:100B7C0000F7E0FB9000FBE4F0A374B4F07D037F7E
:100B8C00161231247FD07E071236B0E49000FBF0B1
:100B9C00A3F0FBFD7F161231249000CCE0B41716A5
:100BAC009000F7E0FB9000FB7401F0A37468F07DFB
:100BBC00037F221231249000CCE0B418159000F77A
:100BCC00E0FB9000FBE4F0A37478F07D037F22122D
:100BDC0031249000CCE0B4192A9000F7E0FB90008F
:100BEC00FBE4F0A374B4F07D037F221231247FD098
:100BFC007E071236B0E49000FBF0A3F0FBFD7F22E1
:100C0C001231249000CCE0B41A0BE49000FBF0FB02
:100C1C00FDFF1231AB9000CCE0B41B0DE49000FB57
:100C2C00F0FB7DFF7F011231AB9000CCE0B41C0DCA
:100C3C00E49000FBF07BFFFD7F011231AB9000CC08
:100C4C00E0B41D0E9000FB74FFF0E4FBFD7F01127D
:100C5C0031AB9000CCE0641F6003020DFF9000F7F5
:100C6C00E0FBE49000FBF0A3F07D047F051231243F
:100C7C007F1E7E001236B09000F7E0FB9000FB74F4
:100C8C0001F0A37468F07D037F161231247F1E7E61
:100C9C00001236B09000F7E0FB9000FB7401F0A35B
:100CAC007468F07D037F221231247F1E7E00123681
:100CBC00B09000CCE0FF641E7003020D65EF640D74
:100CCC007003020D657FAC7E0D1236B09000CCE047
:100CDC00FF640D7003020D65EF641E607C9000F7DD
:100CEC00E0FB9000FBE4F0A374B4F07D047F0512EC
:100CFC0031247F1E7E001236B09000F7E0FB90008E
:100D0C00FBE4F0A37478F07D037F161231247F1E70
:100D1C007E001236B09000CCE0640D603C9000F781
:100D2C00E0FB9000FBE4F0A37478F07D037F2212CB
:100D3C0031247F1E7E001236B09000CCE0641E6021
:100D4C00187FAC7E0D1236B09000CCE0FF640D60C5
:100D5C0008EF641E6003020C699000F7E0FB900042
:100D6C00FBE4F0A3745AF07D047F051231247F1E3E
:100D7C007E001236B09000F7E0FB9000FBE4F0A38D
:100D8C0074B4F07D037F161231247F1E7E00123660
:100D9C00B09000F7E0FB9000FBE4F0A374B4F07D9E
:100DAC00037F221231247F1E7E001236B07FD07E4C
:100DBC00071236B0E49000FBF0A3F0FBFD7F0512A8
:100DCC0031247F1E7E001236B0E49000FBF0A3F0BD
:100DDC00FBFD7F161231247F1E7E001236B0E4908C
:100DEC0000FBF0A3F0FBFD7F221231247F1E7E005E
:100DFC001236B09000CCE0640D6003020EB87BFF9D
:100E0C007A1979D41235109000CC7402F09000F756
:100E1C00E0FB9000FBE4F0A3745AF07D047F051214
:100E2C0031247F1E7E001236B09000F7E0FB90005C
:100E3C00FBE4F0A374B4F07D037F161231247F1E03
:100E4C007E001236B09000F7E0FB9000FBE4F0A3BC
:100E5C0074B4F07D037F221231247F1E7E00123683
:100E6C00B07FD07E071236B0E49000FBF0A3F0FB0D
:100E7C00FD7F051231247F1E7E001236B0E49000F7
:100E8C00FBF0A3F0FBFD7F161231247F1E7E0012B7
:100E9C0036B0E49000FBF0A3F0FBFD7F221231246E
:100EAC007F1E7E001236B07EFF7FFF22E49000CCC6
:030EBC00F0FEFF46
:010EBF002210
:100EC0009000F7EBF0A3EAF0A3E9F07B017D807FCF
:100ED000011235EC7F1E7E001236B09000F7E0FB69
:100EE000A3E0FAA3E0F91209CFFDACF07BFF7A1A78
:100EF00079FD122EB77F1E7E001236B09000F7E00B
:100F0000FBA3E0FAA3E0F9E4F5F0120A327B027DDC
:100F10000B7F011235EC7F1E7E001236B09000F779
:100F2000E0FBA3E0FAA3E0F91209CFFFAEF0FDACBD
:100F3000067BFF7A1B790E122EB77F1E7E001236BB
:100F4000B09000F7E0FBA3E0FAA3E0F990000212F2
:100F500009FAFFAEF0FDAC067BFF7A1B791F122E5B
:100F6000B79000F7E0FBA3E0FAA3E0F9E4F5F01294
:100F70000A329000F7E0FBA3E0FAA3E0F990000248
:100F8000E4F5F0120A517B017D807F021235EC7F7F
:100F90001E7E001236B09000F7E0FBA3E0FAA3E05B
:100FA000F91209CFFDACF07BFF7A1B792E122EB718
:100FB0007F1E7E001236B09000F7E0FBA3E0FAA39C
:100FC000E0F9E4F5F0120A327B027D0B7F02123564
:100FD000EC7F1E7E001236B09000F7E0FBA3E0FA33
:100FE000A3E0F91209CFFFAEF0FDAC067BFF7A1B40
:100FF000793D122EB77F1E7E001236B09000F7E0CA
:10100000FBA3E0FAA3E0F99000021209FAFFAEF0A8
:10101000FDAC067BFF7A1B794F122EB79000F7E0EC
:10102000FBA3E0FAA3E0F9E4F5F0120A329000F72E
:10103000E0FBA3E0FAA3E0F9900002E4F5F0120A65
:10104000517B017D807F061235EC7F1E7E001236BB
:10105000B09000F7E0FBA3E0FAA3E0F91209CFFD9E
:10106000ACF07BFF7A1B795F122EB77F1E7E0012D9
:1010700036B09000F7E0FBA3E0FAA3E0F9E4F5F066
:10108000120A327B027D0B7F061235EC7F1E7E003A
:101090001236B09000F7E0FBA3E0FAA3E0F91209E2
:1010A000CFFFAEF0FDAC067BFF7A1B796F122EB737
:1010B0007F1E7E001236B09000F7E0FBA3E0FAA39B
:1010C000E0F99000021209FAFFAEF0FDAC067BFFDA
:1010D0007A1B797F122EB79000F7E0FBA3E0FAA30A
:1010E000E0F9E4F5F0120A329000F7E0FBA3E0FA31
:1010F000A3E0F9900002E4F5F0120A517B017D8033
:101100007F071235EC7F1E7E001236B09000F7E0AC
:10111000FBA3E0FAA3E0F91209CFFDACF07BFF7A64
:101120001B798D122EB77F1E7E001236B09000F70D
:10113000E0FBA3E0FAA3E0F9E4F5F0120A327B0247
:101140007D0B7F071235EC7F1E7E001236B09000BB
:10115000F7E0FBA3E0FAA3E0F91209CFFFAEF0FD40
:10116000AC067BFF7A1B799F122EB77F1E7E001282
:1011700036B09000F7E0FBA3E0FAA3E0F99000029C
:101180001209FAFFAEF0FDAC067BFF7A1B79B112B3
:101190002EB79000F7E0FBA3E0FAA3E0F9E4F5F046
:1011A000120A329000F7E0FBA3E0FAA3E0F9900006
:1011B00002E4F5F0120A519000CCE0642770787DCB
:1011C0000A7F0112364C7F1E7E001236B07B5A7D9C
:1011D0005A7F0112357C7F1E7E001236B07D0A7F59
:1011E0000212364C7F1E7E001236B07B097D097FCD
:1011F0000212357C7F1E7E001236B07D0A7F0612F9
:10120000364C7F1E7E001236B07B5A7D5A7F061206
:10121000357C7F1E7E001236B07D0A7F0712364C69
:101220007F1E7E001236B07B5A7D5A7F0712357CB6
:101230007F1E7E001236B09000CCE0B40C0E12354A
:101240000A9000CC7402F07EFF7FFF22E49000CC75
:04125000F0FEFF228B
:1027DE009000F7EBF0A3EAF0A3E9F09000F7E0FB2E
:1027EE00A3E0FAA3E0F974F175F0F0120A3290004A
:1027FE00CCE024E0B40700506690281575F003A4D1
:10280E00C58325F0C5837302282A02283102283792
:10281E0002283F02284702284F022857E4FBFD7F7B
:10282E00808039E4FBFDFF80337B287D287F01808B
:10283E002B7B287D287F0280237B19E4FD7F04807B
:10284E001BE4FB7D197F038013E4FBFD7F05123231
:10285E00317F1E7E001236B0E4FBFDFF1232319046
:10286E0000CCE0640C702412350A9000CC7402F097
:10287E00E4FBFD7F051232317F1E7E001236B0E47E
:10288E00FBFDFF1232317EFF7FFF227F0A7E001298
:10289E0036B07B017D887F811235EC7F1E7E001263
:1028AE0036B09000F7E0FBA3E0FAA3E0F91209CFEF
:1028BE00FDACF0E412072B7B0A7AD77923783C1211
:1028CE000620120764AD07AC067BFF7A1B79C21295
:1028DE002EB77F0A7E001236B07B027D977F811263
:1028EE0035EC7F1E7E001236B09000F7E0FBA3E0C1
:1028FE00FAA3E0F91209CFE5F0FD7C0064F1607BEC
:10290E007BFF7A1B79CE122EB77F0A7E001236B06D
:10291E009000F7E0FBA3E0FAA3E0F91209CF7C00E8
:10292E00FD7BFF7A1B79D7122EB77F0A7E001236F7
:10293E00B09000F7E0FBA3E0FAA3E0F990000212DA
:10294E0009FAE5F0FD7C007BFF7A1B79E0122EB7C9
:10295E007F0A7E001236B09000F7E0FBA3E0FAA3E8
:10296E00E0F99000021209FA7C00FD7BFF7A1B79D8
:0F297E00E9122EB77F0A7E001236B0E4FEFF2268
:0B2622009000F7EBF0A3EAF0A3E9F052
:10262D00A37414F0A3740AF074F175F0F0120A3269
:10263D009000CCE024E0B40700507090265675F061
:10264D0003A4C58325F0C5837302266B022672028F
:10265D00267802268202268C0226970226A2E4FB09
:10266D00FD7F808043E4FBFDFF803D9000FAE0FBA1
:10267D00FD7F0180339000FAE0FBFD7F0280299001
:10268D0000FBE0FBE4FD7F04801E9000FBE0FDE419
:10269D00FB7F038013E4FBFD7F051230997F1E7EC7
:1026AD00001236B0E4FBFDFF1230999000CCE064CF
:1026BD000D702A7BFF7A1979D41235109000CC74E5
:1026CD0002F0E4FBFD7F051230997F1E7E0012366D
:1026DD00B0E4FBFDFF1230997EFF7FFF227F0A7E63
:1026ED00001236B07B017D887F811235EC7F1E7E16
:1026FD00001236B09000F7E0FBA3E0FAA3E0F91268
:10270D0009CFFDACF0E412072B7B0A7AD779237839
:10271D003C120620120764AD07AC067BFF7A1B79CD
:10272D00C2122EB77F0A7E001236B07B027D997FD2
:10273D00811235EC7F1E7E001236B09000F7E0FB63
:10274D00A3E0FAA3E0F91209CFE5F0FD7C0064F1F6
:10275D00607B7BFF7A1B79CE122EB77F0A7E00122B
:10276D0036B09000F7E0FBA3E0FAA3E0F91209CF31
:10277D007C00FD7BFF7A1B79D7122EB77F0A7E0076
:10278D001236B09000F7E0FBA3E0FAA3E0F9900059
:10279D00021209FAE5F0FD7C007BFF7A1B79E0124D
:1027AD002EB77F0A7E001236B09000F7E0FBA3E053
:1027BD00FAA3E0F99000021209FA7C00FD7BFF7A82
:1027CD001B79E9122EB77F0A7E001236B0E4FEFFA8
:0127DD0022D9
:102B1A007061676520696E64657800706167652019
:102B2A00756C747261736F6E69630070616765209A
:102B3A00756C747261736F6E696331007061676579
:102B4A0020726F626F7420636F6E74726F6C0070A4
:102B5A0061676520726F626F7420636F6E74726F43
:102B6A006C3100706167652076657273696F6E00FB
:102B7A00706167652076657273696F6E3100706186
:102B8A006765206865616420636F6E74726C00709B
:102B9A00616765206865616420636F6E74726C3169
:102BAA0000706167652064756F6A697869616E7A19
:102BBA00686900AA55CC0000000000000000AA5570
:102BCA00CC0000000000000000000000000000002F
:102BDA00000000000000000000000000AA55CC0020
:102BEA000000000000000000000000000000AA55DC
:102BFA00CC000000000000000000000000000000FF
:102C0A00000000000000000000000000AA55CC00EF
:102C1A0000000000000000000000000000000000AA
:102C2A0000000000000000000000AA55CC000000CF
:102C3A000000000000000000000000AA55CC0000BF
:102C4A00000000000000000000000000000000AAD0
:102C5A0055CC000000000000000000000000000049
:102C6A00000000AA55CC000000000000000000008F
:072C7A000000000000000053
:102C81004100CC004500E800000000004100D100F7
:102C91006064006700000000000000000000000008
:102CA1000000000000000000000000000000000023
:102CB1000000000000000000000000000000000013
:102CC1000000000000000000000000000000000003
:102CD10000000000000000000000000000000000F3
:102CE10000000000000000000000000000000000E3
:102CF10000000000000000004100000041006600EB
:102D0100410065004100CB005400D30000000000E9
:102D11000000000000000000000000000000004171
:102D210000CD004100D2004100D0004100E7006029
:102D3100640001000000000000000000000000002D
:102D41000000000000000000000000000000000082
:102D51000000000000000000000000000000000072
:102D61000000000000000000000000000000000062
:102D71000000000000000000000000000000000052
:102D81000000000000000000000000000000000042
:0C2D9100000000000000004200CE000026
:0B36EF000000007F0B7EBEDEFEDFFC53
:0136FA0022AD
:0436AC007FFA7E0023
:1036B000AD07AC06ED1DAE0470011C4E6005123660
:0436C000EF80F12284
:0436FB0075C760220D
:05332E0090010BEDF021
:1033330074FFA3F0A3F0ED700590010B04F090016E
:103343000BE0FF14F0EF60511208DBFF90010CE07B
:10335300F0A3E06FF0E4FD90010DE090010C30E08C
:1033630022E0C313FEA3E013FF90010CEEF0A3EFE2
:10337300F0EE64A0FEEF6401FF90010CEEF0A3EF0A
:10338300F08008E0C313F0A3E013F00DEDB408C719
:10339300740129F9E43AFA80A590010CE0FEA3E058
:0133A300FF2A
:0133A4002206
:0533A5009000EFEDF0C7
:1033AA0074FFA3F0A3F0ED70059000EF04F0900015
:1033BA00EFE0FF14F0EF60511208DBFF9000F0E03D
:1033CA00F0A3E06FF0E4FD9000F1E09000F030E04F
:1033DA0022E0C313FEA3E013FF9000F0EEF0A3EF88
:1033EA00F0EE64A0FEEF6401FF9000F0EEF0A3EFB0
:1033FA00F08008E0C313F0A3E013F00DEDB408C7A2
:10340A00740129F9E43AFA80A59000F0E0FEA3E0FD
:01341A00FFB2
:01341B00228E
:05341C0090011EEDF01F
:1034210074FFA3F0A3F0ED700590011E04F090016C
:103431001EE0FF14F0EF60511208DBFF90011FE066
:10344100F0A3E06FF0E4FD900120E090011F30E077
:1034510022E0C313FEA3E013FF90011FEEF0A3EFE0
:10346100F0EE64A0FEEF6401FF90011FEEF0A3EF08
:10347100F08008E0C313F0A3E013F00DEDB408C72A
:10348100740129F9E43AFA80A590011FE0FEA3E056
:01349100FF3B
:013492002217
:053493009000F4EDF0D3
:1034980074FFA3F0A3F0ED70059000F404F0900021
:1034A800F4E0FF14F0EF60511208DBFF9000F5E044
:1034B800F0A3E06FF0E4FD9000F6E09000F530E056
:1034C80022E0C313FEA3E013FF9000F5EEF0A3EF94
:1034D800F0EE64A0FEEF6401FF9000F5EEF0A3EFBC
:1034E800F08008E0C313F0A3E013F00DEDB408C7B3
:1034F800740129F9E43AFA80A59000F5E0FEA3E00A
:01350800FFC3
:01350900229F
:0B35EC009000FCEFF0A3EDF0A3EBF06B
:1035F700E4A3F078007C017D017BFF7A2B79BDFE87
:103607007F0B1208B59000FCE0900103F0A3740350
:10361700F0E4A3F09000FDE0900106F0E4A3F09041
:1036270000FEE0900108F07B017A0179037D061224
:10363700332EAC06EF900109F0EEA3F07A01790082
:053647007D0B020026CE
:0B2F75009000FBEFF0A3EDF0A3EBF0E9
:102F800078007C017D017BFF7A2B79C87E007F1E53
:102F90001208B59000FBE0900103F0A37410F0E478
:102FA000A3F0A3F0A3F0A37407F0A3740EF0E4A3BE
:102FB000F09000FCE090010BF0E4A3F09000FDE045
:102FC00090010DF09000FEE0FCA3E0FDEC90010EFE
:102FD000F0EDA3F0A37412F0A3740CF0E4A3F0A33B
:102FE0007446F0E4A3F0A37407F0E4A3F0A3F07B2D
:102FF000017A0179037D1512341CAC06EF9001189B
:0D300000F0EEA3F07A0179007D1A0200269F
:0B3124009000F8EFF0A3EDF0A3EBF03B
:10312F0078FD7C007D017BFF7A2B79E67E007F1294
:10313F001208B59001007482F0A37410F0E4A3F0AC
:10314F009000F8E0900103F0E4A3F0A37403F0A360
:10315F007406F0E4A3F09000F9E0900108F0E4A306
:10316F00F09000FAE090010AF09000FBE0FCA3E081
:10317F00FDEC90010BF0EDA3F0E4A3F0A3F07B01C5
:10318F007A0179007D0D12341CAC06EF90010DF021
:0C319F00EEA3F07A0079FD7D12020026FC
:0B357C009000FAEFF0A3EDF0A3EBF0DD
:1035870078FD7C007D017BFF7A2B79F87E007F1E1A
:103597001208B59000FAE0900100F0A37410F0E46F
:1035A700A3F0A3740BF0E4A3F0A37402F0A37404D4
:1035B700F0E4A3F09000FBE0900108F0E4A3F090A2
:1035C70000FCE090010AF07B017A0179007D0B1283
:1035D700341CAC06EF90010BF0EEA3F07A0079FDF6
:0535E7007D100200262A
:08364C009000FAEFF0A3EDF08D
:1036540078FC7C007D017BFF7A2C79167E007F1E2E
:103664001208B59000FAE09000FFF0A37410F0E4A3
:10367400A3F0A37407F0E4A3F0A304F0A304F0E41C
:10368400A3F09000FBE0900107F07B017A0079FF42
:103694007D0912341CAC06EF900108F0EEA3F07A19
:0836A4000079FC7D0E020026F6
:0B32B6009000FBEFF0A3EDF0A3EBF0A5
:1032C10078FF7C007D017BFF7A2C79347E007F11B1
:1032D1001208B59000FBE0900102F0A37410F0E435
:1032E100A3F0A3F0A3F0A37403F0A37406F0E4A386
:1032F100F09000FCE090010AF0E4A3F09000FDE002
:1033010090010CF0E4A3F09000FEE090010EF07B40
:10331100017A0179027D0D12341CAC06EF90010F88
:0D332100F0EEA3F07A0079FF7D1202002685
:0B31AB009000F8EFF0A3EDF0A3EBF0B4
:1031B60078FC7C007D017BFF7A2C79457E007F14AC
:1031C6001208B59000FF7482F0A37410F0E4A3F027
:1031D600A3F0A3F0A37404F0A37408F0E4A3F090A2
:1031E60000F8E0900107F0E4A3F09000F9E0900108
:1031F60009F0E4A3F09000FAE090010BF0E4A3F0EC
:103206009000FBE090010DF0E4A3F0A3F07B017ABF
:103216000079FF7D0F12341CAC06EF90010EF0EE24
:0B322600A3F07A0079FC7D1402002662
:0B3231009000FAEFF0A3EDF0A3EBF02B
:10323C0078FD7C007D017BFF7A2C79597E007F1410
:10324C001208B59001007481F0A37410F0E4A3F09F
:10325C00A3F0A3F0A37404F0A37408F0E4A3F0901B
:10326C0000FAE0900108F09000FBE0900109F0906A
:10327C0000FCE090010AF0A37405F0A3740AF0A31B
:10328C007405F0A3740AF0E4A3F0A3F07B017A01B7
:10329C0079007D0F12341CAC06EF90010FF0EEA3F9
:0A32AC00F07A0079FD7D140200267F
:0B3099009000FCEFF0A3EDF0A3EBF0C3
:1030A40078FF7C007D017BFF7A2C796D7E007F1494
:1030B4001208B59001027481F0A37410F0E4A3F037
:1030C400A3F0A3F0A37404F0A37408F0E4A3F090B5
:1030D40000FCE090010AF0E4A3F09000FDE0900110
:1030E4000CF0E4A3F09000FEE090010EF0A3740550
:1030F400F0A3740AF0A37405F0A3740AF0E4A3F037
:10310400A3F07B017A0179027D1112341CAC06EF25
:10311400900113F0EEA3F07A0079FF7D16020026E9
:101E58001236C41236DA7BFF7A2B791A12351090B3
:101E680000CCE0B403297BFF7A2B79251235107555
:101E78008DFD858D8B7B017A0079011215BAC3EE31
:101E88006480948040097F327E001236B080E690EC
:101E980000CCE0B404297BFF7A2B79351235107514
:101EA8008DFD858D8B7B017A007901121C0FC3EEA5
:101EB8006480948040097F327E001236B080E690BC
:101EC80000CCE0B405257BFF7A2B794612351075D6
:101ED8008DFD858D8B7B017A0079011227DEC3EE9B
:101EE8006480948040051236AC80EA9000CCE0B45F
:101EF80006257BFF7A2B7959123510758DFD858D56
:101F08008B7B017A007901122622C3EE64809480CB
:101F180040051236AC80EA9000CCE0B4091F7BFF84
:101F28007A2B796D1235107B017A007901122260C3
:101F3800C3EE6480948040051236AC80EA9000CCF1
:101F4800E0B40A1F7BFF7A2B797A1235107B017A6D
:101F5800007901122068C3EE64809480400512362F
:101F6800AC80EA9000CCE0640770617BFF7A2B7943
:101F780088123510758DF7858D8BE49000FEF0A3DF
:101F8800F0FBFD7F01122F757F1E7E001236B0E434
:101F98009000FEF0A3F0FBFD7F06122F757F1E7EDA
:101FA800001236B0E49000FEF0A3F0FBFD7F0712AC
:101FB8002F757B017A007901120046C3EE64809484
:101FC8008040097F0A7E001236B080E69000CCE09F
:101FD8006408705B7BFF7A2B7999123510758DFD3B
:101FE800858D8BE49000FBF0A3F0FBFD7F0512319B
:101FF800247F1E7E001236B0E49000FBF0A3F0FBB5
:10200800FD7F161231247F1E7E001236B0E4900048
:10201800FBF0A3F0FBFD7F23123124120A8CC3EEE0
:102028006480948040097F0A7E001236B080EC906C
:1020380000CCE0B40B207BFF7A2B79AB12351075FE
:102048008DF7858D8B7B017A007901120EC0C3EE66
:102058006480948050EF7F017E001236B0021E67C4
:0300230002244B69
:10244B00C0E0C083C082C0D075D000C001C002C044
:09245B0003C004C005C006C0075F
:1024640020980302260BC2989000CBE0FF2467F566
:1024740082E43400F583E599F0900000E0706FEF9A
:1024840070139000CBE02467F582E43400F583E018
:10249400B4AA0280159000CBE0FFB401122467F5C2
:1024A40082E43400F583E0B4AA059000CB80359033
:1024B40000CBE0FFB401152467F582E43400F58312
:1024C400E0B455089000CB7402F080229000CBE079
:1024D400FFB402152467F582E43400F583E0B4CC3C
:1024E400089000007401F080059000CBE4F09000A7
:1024F40000E06401600302260B900066E064016062
:10250400030225EE900065E0C39446401490000059
:10251400E4F0900066F09000CBF0900065F00226A5
:102524000B900065E014F0E060030225EE7B017A75
:1025340000796A90006CE02403FD1233A5AD07AC6A
:102544000690006CE0FB246EF582E43400F583E031
:10255400FE746D2BF582E43400F583E0FBEBFF6D34
:102564007002EC6E70509000EDF090006CE0C313BC
:10257400FF9000EDE0FDC39F503CA3E0FC246DF50B
:1025840082E43400F583E0FE746E2CF582E43400BA
:10259400F583E0FBEBFFED25E02401F582E4340054
:1025A400F583EEF0A3EFF09000EEE02402F090004B
:1025B400EDE004F080B4900001E0B41112A3E0B4A3
:1025C400220DA3E0B43308A3E0B444031236FB9015
:1025D4000000E4F0900066F09000CBF0900065F00D
:1025E4009000EEF09000EDF0801D9000CBE0B4057B
:1025F400109000667401F090006CE0240290006575
:07260400F09000CBE004F0B0
:10260B00D007D006D005D004D003D002D001D0D053
:07261B00D082D083D0E03231
:0300430002125452
:0B125400C0E0C083C082C0D075D0088D
:10125F00E59A20E0030215B1539AFE9000E7E0FFF4
:10126F0024D3F582E43400F583E59BF09000CDE0C4
:10127F00706FEF70139000E7E024D3F582E4340031
:10128F00F583E0B4AA0280159000E7E0FFB40112E5
:10129F0024D3F582E43400F583E0B4AA059000E787
:1012AF0080359000E7E0FFB4011524D3F582E434D4
:1012BF0000F583E0B455089000E77402F0802290A7
:1012CF0000E7E0FFB4021524D3F582E43400F58380
:1012DF00E0B4CC089000CD7401F080059000E7E4F5
:1012EF00F09000CDE0640160030215B19000D2E0F0
:1012FF00640160030215949000D0E0C3944640113E
:10130F009000CDE4F09000D2F09000E7F09000D084
:10131F00F09000D0E014F0E060030215947B017AA6
:10132F000079D69000D8E02403FD123493AD0FACB2
:10133F000E9000D8E0FB24DAF582E43400F583E068
:10134F00FE74D92BF582E43400F583E0FBEB6D706E
:10135F0002EC6E70509000F2F09000D8E0C313FFD3
:10136F009000F2E0FDC39F503CA3E0FC24D9F5822E
:10137F00E43400F583E0FE74DA2CF582E43400F5F2
:10138F0083E0FBEBFFED25E024CEF582E43400F59E
:10139F0083EEF0A3EFF09000F3E02402F09000F260
:1013AF00E004F080B49000CDE4F09000D2F0900013
:1013BF00E7F09000D0F09000F3F09000F2F0900082
:1013CF00CEE0FEA3E0FF4E70069000CC7405F0EF68
:1013DF0064054E70069000CC7406F0EF64014E70F9
:1013EF00069000CC7403F0EF64064E70069000CCAC
:1013FF007404F0EF64024E70069000CC7407F0EFA7
:10140F0064074E70069000CC7408F0EF64034E70C2
:10141F00069000CC7409F0EF64084E70069000CC73
:10142F00740AF0EF64044E70069000CC740BF0EF6A
:10143F0064BC4E70069000CC740CF0BEBC09BF01AA
:10144F00069000CC740DF0E4B50F0AEEB4030690CD
:10145F0000CC740EF0BE0309BF01069000CC740FD0
:10146F00F0BE0309BF02069000CC7411F0BE030951
:10147F00BF03069000CC7410F0BE0309BF1A06908C
:10148F0000CC7412F0BE0309BF10069000CC741389
:10149F00F0BE0309BF12069000CC7415F0BE03090D
:1014AF00BF1B069000CC7414F0BE0309BF2006903A
:1014BF0000CC7416F0BE0309BF21069000CC741740
:1014CF00F0BE0309BF22069000CC7419F0BE0309C9
:1014DF00BF23069000CC7418F0BE0309BFAA069074
:1014EF0000CC741AF0BE0309BFBB069000CC741B6E
:1014FF00F0BE0309BFCC069000CC741CF0BE0309EC
:10150F00BFDD069000CC741DF0BE0309BF340690FA
:10151F0000CC741EF0BE0309BF35069000CC741FBB
:10152F00F0E4B50F0AEEB4C1069000CC7421F0BE02
:10153F00C109BF01069000CC7420F0BED109BFD104
:10154F00069000CC7422F0BED209BFD2069000CC18
:10155F007423F0BED309BFD3069000CC7424F0BE21
:10156F00D409BFD4069000CC7425F0BED009BFD0EB
:10157F00069000CC7426F0BE0428BF01259000CC45
:10158F007427F0801D9000E7E0B405109000D2742E
:10159F0001F09000D8E024029000D0F09000E7E036
:0215AF0004F046
:0915B100D0D0D082D083D0E0320A
:10062000EC4D6011E8497017ED33EC3304600DE4D4
:10063000FCFFFEFD22E933E8330470F80207D01214
:10064000079B58046009E4CC248150062850090215
:1006500007DA2840030207D7C0E0EB4A7044B980AC
:1006600006D0E0FB0207C6EF4E701CBD8008EBFF12
:10067000EAFEE9FD80EBE98DF0A4FEE5F002070952
:10068000E9CDF9EAFEEBFFEF89F0A4FCE5F0CE89B5
:10069000F0A42EFFE435F0CD89F0A42DFEE435F072
:1006A0008067EF4E7005BD80D780C3EF8BF0A4ACA0
:1006B000F0EE8BF0A42CFCE435F0F8EF8AF0A42CDB
:1006C000E5F038FCE433CB8DF0A42CFCE5F03BF8EE
:1006D000EE8AF0A42CFCE5F038F8E433CF89F0A4DE
:1006E0002CFCE5F038CF3400CE89F0A42FFFE5F0E4
:1006F0003EFEE433C98DF0A42EFEE5F039CD8AF03C
:10070000A42FFFE5F03EFEE43DFD33D0E0FB5007B3
:100710000BBB000F0207DAEC2CFCEF33FFEE33FECD
:06072000ED33FD0207B2FB
:1007260075F020800E75F010800575F0087D007E4E
:10073600007F003392D530D503120A7EEC33401089
:10074600EF33FFEE33FEED33FDEC33FCD5F0ED2257
:0E075600E5F0247EA2D513CC92E7CDCEFF2293
:10076400EDD2E7CD33EC3392D524814006E4FFFE8D
:10077400FDFC22FCE4CFCECDCC24E0501174FF80EC
:10078400EDC3CC13CCCD13CDCE13CECF13CF047089
:07079400F030D5DE020A7E01
:10079B00E9D2E7C933E833F892D5EDD2E7CD33ECA4
:0707AB0033FC5002B2D5221D
:1007B200EC30E7100FBF000C0EBE00080DBD0004A8
:1007C2000BEB6014A2D5EB13FCED92E7FD2274FF54
:1007D200FCFDFEFF22E480F8A2D574FF13FC7D80AD
:0307E200E480EFC1
:0300000002300DBE
:0C300D00787FE4F6D8FD75810F02305486
:1007E500E709F608DFFA8046E709F208DFFA803EF6
:1007F50088828C83E709F0A3DFFA8032E309F608E3
:10080500DFFA8078E309F208DFFA807088828C834A
:10081500E309F0A3DFFA806489828A83E0A3F608FE
:10082500DFFA805889828A83E0A3F208DFFA804CD8
:1008350080D280FA80C680D4806980F280338010AF
:1008450080A680EA809A80A880DA80E280CA803318
:1008550089828A83ECFAE493A3C8C582C8CCC58390
:10086500CCF0A3C8C582C8CCC583CCDFE9DEE78060
:100875000D89828A83E493A3F608DFF9ECFAA9F0DF
:10088500EDFB2289828A83ECFAE0A3C8C582C8CC35
:10089500C583CCF0A3C8C582C8CCC583CCDFEADE4E
:1008A500E880DB89828A83E493A3F208DFF980CCB0
:1008B50088F0EF60010E4E60C388F0ED2402B404A9
:1008C5000050B9F582EB2402B4040050AF23234550
:0608D50082239008357338
:1008DB00BB010689828A83E0225002E722BBFE021B
:0908EB00E32289828A83E493224E
:1008F400BB010689828A83F0225002F722BBFE01E3
:02090400F322DC
:10090600EF8DF0A4A8F0CF8CF0A428CE8DF0A42E05
:02091600FE22BF
:10091800BC000BBE0029EF8DF084FFADF022E4CCC3
:10092800F875F008EF2FFFEE33FEEC33FCEE9DEC8C
:10093800984005FCEE9DFE0FD5F0E9E4CEFD22EDD2
:10094800F8F5F0EE8420D21CFEADF075F008EF2F1C
:10095800FFED33FD4007985006D5F0F222C398FD0D
:050968000FD5F0EA22AA
:10096D00C2D5EC30E709B2D5E4C39DFDE49CFCEEA5
:10097D0030E715B2D5E4C39FFFE49EFE120918C3FC
:10098D00E49DFDE49CFC800312091830D507C3E4F7
:06099D009FFFE49EFE2214
:1009A300C5F0F8A3E028F0C5F0F8E58215827002DF
:0609B3001583E038F0227C
:1009B900A3F8E0C5F025F0F0E582158270021583F1
:0609C900E0C838F0E8224E
:1009CF00BB010A89828A83E0F5F0A3E022500687F3
:1009DF00F009E71922BBFE07E3F5F009E3192289B5
:0B09EF00828A83E493F5F074019322E8
:1009FA00BB0110E58229F582E5833AF583E0F5F03B
:100A0A00A3E0225009E92582F886F008E622BBFE17
:100A1A000AE92582F8E2F5F008E222E5832AF5835D
:080A2A00E993F5F0A3E9932222
:100A3200BB010A89828A83F0E5F0A3F0225006F70F
:0F0A420009A7F01922BBFE06F3E5F009F319220C
:100A5100F8BB0111E58229F582E5833AF583E8F0D7
:100A6100E5F0A3F0225009E92582C8F608A6F02294
:0D0A7100BBFE09E92582C8F2E5F008F2227B
:0E0A7E00C3E49FFFE49EFEE49DFDE49CFC2289
:10301900021E58E493A3F8E493A34003F68001F257
:1030290008DFF48029E493A3F85407240CC8C333B8
:10303900C4540F4420C8834004F456800146F6DF87
:10304900E4800B0102040810204080902C81E47E6A
:10305900019360BCA3FF543F30E509541FFEE4937C
:10306900A360010ECF54C025E060A840B8E493A343
:10307900FAE493A3F8E493A3C8C582C8CAC583CA6E
:10308900F0A3C8C582C8CAC583CADFE9DEE780BE26
:012D9D000035
:00000001FF
